:020000040000FA
:0400000099EF0AF07A
:0800080025A003D014EF00F065
:1000100002D004EF0CF0000C25A003D01CEF00F080
:1000200002D00CEF0CF0000C056ED8CF06F0E0CF3C
:1000300007F00001E9CF0DF0EACF08F0E1CF09F0B9
:10004000E2CF0AF0D9CF0BF0DACF0CF0F3CF14F0F7
:10005000F4CF15F0FACF16F000C00FF001C010F089
:1000600002C011F003C012F004C013F0A0AA3CEFCC
:1000700000F0A1BA65EF07F00FC000F010C001F06A
:1000800011C002F012C003F013C004F00DC0E9FF6C
:1000900008C0EAFF088E09C0E1FF0AC0E2FF0BC0FA
:1000A000D9FF0CC0DAFF14C0F3FF15C0F4FF16C06F
:1000B000FAFF055007C0E0FF06C0D8FF1000F76A3E
:1000C000CE0FF66E000EF7220900F5501200040361
:1000D0000100000000000000000000000000F76ABE
:1000E000EE0FF66E000EF7220900F5501200040024
:1000F0000100000000000000000000000000F76A9E
:100100000E0FF66E010EF7220900F55012004000A6
:100110000800400000000000000000000000000097
:10012000000000000000000000000000000008AE19
:1001300003D0F2CF0EF0F29EF76A500FF66E010E6A
:10014000F7220900F55008AE02D00EBEF28E120062
:10015000400000004000000000000000000000001F
:10016000000000000000000000000000000000008F
:10017000F76A800FF66E010EF7220900F5501200A3
:1001800009024300020100C0FA0904000001020252
:1001900001000524001001042402020524060001C8
:1001A0000524010001070581030800FA0904010084
:1001B000020A000000070502024000FA0705820259
:1001C0004000FA00F76AD40FF66E010EF72209001C
:1001D000F55012000200F76AE60FF66E010EF722E4
:1001E0000900F55012001201100102000040D8046D
:1001F000C5FF020001020001F76A080FF66E020E49
:10020000F7220900F55012000403090410037400DA
:100210006B00720077006F0072006B0073002003A8
:1002200074006B00720077006F0072006B00730047
:1002300020005000490043006E006F006D00650013
:100240006D926994689470EF07F06A6A689279EF2A
:1002500007F02D6A2C6A250E2B6E800E2A6E2E6AF0
:100260002F6A080E306E806B7B93326A316A7C6B2A
:100270007D917B81000C0101476B475101080AE326
:10028000036A4751280FE96E000E0320EA6EEF6AF9
:10029000472BF3D70001DDDF1A6A010E1B6E196AC6
:1002A000000C010E0101506F50510F080EE3700E4B
:1002B0005025016E0F0E036ED8B0032A01C0E9FF6E
:1002C00003C0EAFFEF6A502BEFD71E6A1D6A0001D8
:1002D000000C400E0401016F050E036F026B880EC7
:1002E000006F046B050E076F400E066F0001000CD7
:1002F0006A6A686A9F0E6B6E390E696E6E6ABBDF42
:10030000D0DF160E706E68A602D06896FCD76D9886
:10031000E0DF030E1F6E7FEF07F0698468986D823F
:1003200085EF07F0689C8BEF07F070A002D0D1DF5B
:100330007090689A91EF07F04BC120F0000CFF0E0F
:10034000206E000C0101496B27523DE049513F08E6
:100350003AE31C50000105E0020A0FE0010A19E02F
:1003600024D0036A2650F2CF4BF1F29E01DF010147
:100370004BBFF28E4A6F000118D0036A2650F2CFAD
:100380004BF1F29E39DF01014BBFF28E4A6F000143
:100390000CD0036A2650F2CF4BF1F29E1CDF010114
:1003A0004BBFF28E4A6F000100D0262A27060101BA
:1003B0004951492B036A400FE96E050E0320EA6E8E
:1003C0004AC1EFFFC1D7275204E14951400801E07B
:1003D000196A49C14BF10001AFDF000C266A1C6AA3
:1003E00005010351010A000105E0030A08E0010AC2
:1003F00009E021D0120E276E030E1C6E1ED0430E94
:10040000276E1BD0020E1C6E036A05010251210FDC
:10041000E96E000E0320EA6EEFCF26F0036A265045
:10042000F2CF48F1F29E0001E7DE010148BFF28EF3
:10043000276E000102D083DF0CD00501075305E1D0
:100440002750065D02E206C527F0010E196E000175
:1004500079DF5CEF03F00101485306E1040E1F6EE3
:1004600000011FDFCED00101050E1F6E4B6F800E05
:100470004A6F010E496F49510F08D8A0C2D04C6B8A
:10048000036A4951F2CF50F1F29E000128DE0101CA
:1004900050BFF28E000A55E0040E4C6FD8904935DB
:1004A000036AF2CF50F1F29E000141DE0900F5CF60
:1004B00003F0010150BFF28E4D6F03C04EF1495160
:1004C000080DF350010F016E040E036ED8B0032A1D
:1004D00001C0E9FF03C0EAFF4DC1EFFF4951080D1C
:1004E000F350020F016E040E036ED8B0032A01C050
:1004F000E9FF03C0EAFF4BC1ECFFED524AC1EFFF39
:10050000D8904935036AF2CF50F1F29E00010FDE18
:100510000900F5CF03F0010150BFF28E4A270350C6
:100520004B23880E4F6F4EB14F814EB34F834951CD
:10053000080DF3CF01F0040E01C0E9FFEA6E4FC1D0
:10054000EFFF036A4951F2CF50F1F29E0001B7DD8F
:10055000010150BFF28E000A33E04C834951080D6F
:10056000F350060F016E040E036ED8B0032A01C0CB
:10057000E9FF03C0EAFF4BC1ECFFED524AC1EFFFB8
:10058000D8904935036AF2CF50F1F29E0001B7DDF1
:100590000900F5CF03F0010150BFF28E4A27035046
:1005A0004B234951080DF350040F016E040E036EE6
:1005B000D8B0032A01C0E9FF03C0EAFF400EEF6E86
:1005C0004C51060802E10E0E4C6F036A4951F2CFFE
:1005D00050F1F29E000173DD010150BFF28E02085E
:1005E00001E04C89700E4925016E0F0E036ED8B0E4
:1005F000032A01C0E9FF03C0EAFF4CC1EFFF492B0A
:100600003AD7000154EF03F00501015100010DE05C
:10061000010A15E0020A20E0060A2AE0030A31E096
:100620000E0A30E0010A36E045D01BC040F5050156
:10063000416B020E01014B6F00017EDE3DD00501D2
:10064000022D07D0010E1B1601014B6B000174DE59
:1006500002D0000174DE30D00501022D06D01B82CD
:1006600001014B6B000168DE02D0000168DE24D07E
:10067000020E196E02C524F001014B6B00015CDE15
:100680001BD0ACD61AC040F5010E01014B6F000122
:1006900053DE12D00501025101080AE302C51AF027
:1006A00002C548F10001D7D601014B6B000144DEC1
:1006B000000102D044DE00D0F4EF04F01AC048F18B
:1006C00005010151000105E00A0A0CE0010A31E0D0
:1006D00045D00501406B416B020E01014B6F0001DB
:1006E0002BDE3ED00101485321E0010E485D036A34
:1006F000F2CF4AF1F29E000165DD01014ABFF28EA0
:10070000016E0501045DD8A002D001010FD0036A7B
:100710000451280FE96E000E0320EA6EEFCF40F57A
:10072000010E01014B6F000107DE02D0000107DE60
:1007300017D0010148530FE0036A05010451280F47
:10074000E96E000E0320EA6E02C5EFFF01014B6B5C
:100750000001F2DD02D00001F2DD02D0F0DD00D0B8
:10076000F4EF04F00101499148BF4981489F49A134
:1007700012D0036A4851F2CF4AF1F29E00019FDC89
:1007800001014ABFF28E000A02E1000E01D0010E03
:10079000016E12D011D0036A4851F2CF4AF1F29E95
:1007A00000019DDC01014ABFF28E000A02E1000E49
:1007B00001D0010E016E00D0000155EF04F00101DF
:1007C000499148BF4981489F49A110D04851080D1F
:1007D000F350040F016E040E036ED8B0032A01C05B
:1007E000E9FF03C0EAFF880EEF6E09D04851080DFB
:1007F000F3CF01F0040E01C0E9FFEA6EEF6A0001D9
:1008000064EF04F00101499148BF4981489F49A123
:1008100010D04851080DF350040F016E040E036E02
:10082000D8B0032A01C0E9FF03C0EAFF840EEF6ECF
:100830000AD04851080DF3CF01F0040E01C0E9FFC2
:10084000EA6E840EEF6E00016CEF04F00101499135
:1008500048BF4981489F49A110D04851080DF35025
:10086000040F016E040E036ED8B0032A01C0E9FF25
:1008700003C0EAFFEFCF4AF10AD04851080DF3CF89
:1008800001F0040E01C0E9FFEA6EEFCF4AF14AAF72
:1008900002D04AB502D0000E01D0010E016E000157
:1008A00078EF04F004C548F15DD701522EE0050150
:1008B0000151010A000105E0020A0BE0030A11E000
:1008C00022D004C548F17BD701014B6B000134DD18
:1008D0001CD004C548F196D701014B6B00012CDDFB
:1008E00014D00501406B416B04C548F10001AED73F
:1008F000015203E0010E0501406F020E01014B6F32
:1009000000011ADD02D01BDD00D0F4EF04F0FE0E72
:10091000206E000C0501042D01D002D004534EE1DD
:10092000015100010BE0010A0DE0210A1CE0010A5F
:100930001FE0030A30E0010A35E03DD0010E816F6F
:10094000E6DF3BD0050EEA6E400EE96EE26A330E3A
:10095000E16E080E016EE6CFEEFF012EFCD706C554
:100960004BF1EADC2AD0020E816F7B83D0DF25D0E9
:10097000050EEA6E400EE96EE26A2A0EE16E070E7F
:10098000016EE6CFEEFF012EFCD7070E01014B6F83
:100990000001D2DC12D002C580F001014B6B0001D6
:1009A000CBDC0BD002C532F003C531F001014B6B3B
:1009B0000001C2DC02D0C3DC00D005010001F4EF6D
:1009C00004F0196A050100517F0B000107E0010ADC
:1009D00006E0030A05E0230A04E004D015D66ED62B
:1009E00061D798D7ACDC00D0FEEF06F0010148518A
:1009F000080DF3CF01F0040E01C0E9FFEA6EEFCF5E
:100A00004AF14951020806E14AAD02D0496B02D0D1
:100A1000010E496F4951030812E1840E4A6F485193
:100A2000080DF350040F016E040E036ED8B0032AB4
:100A300001C0E9FF03C0EAFF840EEF6E09D0492D23
:100A400003D0C80E4A6F04D0495302E1880E4A6FA2
:100A5000036A010E026E4851006E05E0D89002361E
:100A60000336002EFBD70250FF0A006EFF0E031A5A
:100A700000501D1603501E16D8904835036AF2CF59
:100A80004DF1F29E000197EC00F00900F5CF03F064
:100A900001014DBFF28E4B6F03C04CF14851080D60
:100AA000F350010F016E040E036ED8B0032A01C08B
:100AB000E9FF03C0EAFF4BC1EFFF4CB14A814CB3E1
:100AC0004A834851080DF3CF01F0040E01C0E9FF3D
:100AD000EA6E4AC1EFFF0001000C01015451080DFC
:100AE000F350040F016E040E036ED8B0032A01C048
:100AF000E9FF03C0EAFFEFCF58F158BF5BD0545174
:100B0000080DF350050F016E040E036ED8B0032AD2
:100B100001C0E9FF03C0EAFF55C1EFFF57510208CA
:100B200016E15451080DF350040F016E040E036ECC
:100B3000D8B0032A01C0E9FF03C0EAFFEFCF58F1A4
:100B400058AD02D0576B02D0010E576F13D05751DA
:100B5000040810E15451080DF3CF01F0040E01C058
:100B6000E9FFEA6EEFCF58F158AD03D0010E576F91
:100B700001D0576B572D03D0C80E586F04D0575370
:100B800002E1880E586F56B1588156B358835451BC
:100B9000080DF350040F016E040E036ED8B0032A43
:100BA00001C0E9FF03C0EAFF58C1EFFF010E016E6B
:100BB00003D000D0000E016E0001000C8151010A2B
:100BC00003E0030A14E026D0EA6A330EE96E050E4C
:100BD000E26EE16A080E016EE6CFEEFF012EFCD751
:100BE00001014B6B00019CEC01F0816B17D0EA6AAC
:100BF0002A0EE96E050EE26EE16A070E016EE6CF7F
:100C0000EEFF012EFCD7816B01014B6B00019CECC8
:100C100001F004D0816B69EC01F000D036EF06F0F2
:100C200001014951080DF350010F016E040E036ECE
:100C3000D8B0032A01C0E9FF03C0EAFF036AEFCF7F
:100C400001F003C002F000012DEF06F07D817F6B03
:100C5000020E0101496F0001E3D701C07EF03DEFB4
:100C600006F00101485304E10001A8D717D00101A3
:100C70004851020804E10001E9D710D00101036ADC
:100C8000010E026E4851006E05E0D8900236033620
:100C9000002EFBD702501D1203501E120001000C43
:100CA00049C16EFF0101495303E0040E1F6E02D0DB
:100CB000020E1F6E000162EF06F01A6A196A24C064
:100CC00049F1EED7E3EF06F001014951080DF35069
:100CD000040F016E040E036ED8B0032A01C0E9FFB1
:100CE00003C0EAFFEFCF51F151BF41D04951080D88
:100CF000F350060F016E040E036ED8B0032A01C034
:100D0000E9FF03C0EAFFECCF03F0ED52EFCF52F161
:100D100003C053F1506B4F6B50514D5D1AE303E12B
:100D20004C514F5D16E24AC1E9FF4BC1EAFFEFCFDC
:100D300056F153C1EAFF52C1E9FF56C1EFFF522BF2
:100D4000D8B4532B4A2BD8B44B2B4F2BD8B4502BA1
:100D5000E3D749C154F14DC156F14CC155F14EC1D3
:100D600057F10001BADE015004D000D00101000E9D
:100D7000016E0001000C7C530FE07B91020E01011B
:100D8000496F4B6B3B0E4A6F4D6B7CC04CF1020EB2
:100D90004E6F000199DF7C6B000C7C5302E0EBDFAF
:100DA00001D07B81EAEF06F0010148530EE1192CD6
:100DB00005D00001A2EC01F006D001011950020893
:100DC00003E100017AD7010106D04851020803E18E
:100DD0000001E3D701010001000C6C300101476FF5
:100DE000473347331F0E47176C5246E10401005149
:100DF0003C0B340821E1046B0001E3D5203C07D013
:100E00000101486B030E496F0001F0DD12D00101B2
:100E1000486B020E496F0001E9DD2050FE0809E031
:100E20000101546B566B20C055F1040E576F000141
:100E300054DE6D981ED0040100513C0B04081AE1E9
:100E40000101486B00010DDF0101486B020E496F83
:100E50000001CCDD2050FE080CE0203C01D009D080
:100E60000101546B566B20C055F1010E576F000104
:100E700034DE040127D001016C50040816E1FF0E96
:100E8000206E486B000190DF203C01D00AD00101A8
:100E9000546B566B20C055F1020E576F00011DDEDA
:100EA00002D069EC01F00DD001016CB406D047C14D
:100EB00048F10001D6DE05D0010147C148F100012B
:100EC00073DF0401000196EF07F01F5201E12FD0FC
:100ED00068522DE068A404D069A402D020EF01F08C
:100EE0006DA201D024D068A204D069A202D025EF5F
:100EF00001F068A004D069A002D078EF01F068A8E2
:100F000004D069A802D08DEF01F068AC04D069ACC0
:100F100002D092EF01F068AA04D069AA02D095EF3E
:100F200001F068A604D069A602D057D76896A19AA6
:100F30003CEF00F08A9A939AC95085C0C9FFC73028
:100F4000FEE3C95086C0C9FFC730FEE38A8A939A80
:100F5000000CEA6AF30EE96EEF500EE00F0E016E20
:100F6000006A002EFED7012EFBD78F0E006E002EDA
:100F7000FED70000EF2EF2D7000C0B0E856F070E88
:100F8000866FD8DF0A0E856F0F0E866FD3DF010ED6
:100F9000856F866BCFDF020E856F3F0E866FCADFCF
:100FA000030E856F460E866FC5DF040E856F460EF5
:100FB000866FC0DF050E856F3E0E866FBBDF060EA7
:100FC000856F460E866FB6DF070E856F460E866FFD
:100FD000B1DF080E856F3F0E866FACDF0C0E856F9C
:100FE000010E866FA7DF0F0E856F866BA3DF826B06
:100FF00082513F0813E3400ED8808255006E0030C6
:10100000846F84333F0E84170A0E856F84C086F088
:1010100091DF180EF36F9DDF822BEAD70A0E856FE2
:101020000F0E866F87DF010E826F8251080806E37C
:1010300082C085F0866B7EDF822BF7D7BBEF0AF08C
:101040006D6A696A080E6F6E94503009946E1F6A5B
:10105000186AF2BE188EF29E3BEC01F018BEF28EBA
:101060001E6A1D6A57EF08F0186AF2BE188EF29ECB
:101070003BEC01F018BEF28E6D6A140E6F6E696A59
:101080006D86010E1F6E48EF08F06DB601D0ECD7EB
:101090001F2C0BD06DBA09D0686A696AA08AC00E8D
:1010A000F212110E696E020E1F6E000CC9D7EDDF31
:1010B0001F500208FCE1C0EF0AF07DB101D0FDD75E
:1010C0007F517F2B036A880FE96E050E0320EA6EBD
:1010D000EFCFF2F07E517F5D0DE37D91186AF2BE95
:1010E000188EF29E020E0101486F496F00017EDCEE
:1010F00018BEF28EF2C001F0B5EF09F0F491F2BE25
:10110000F481F29E7C513F0802E23F0E7C6F7C51DD
:101110007C2B036A3B0FE96E000E0320EA6EF3C0DE
:10112000EFFFF29EF4B1F28E7BA107D0186AF2BEF7
:10113000188EF29E20DE18BEF28EAFEF08F07C51C2
:101140003F080AE27BA107D0186AF2BE188EF29E11
:1011500012DE18BEF28EF3D7F2C0F3F0CFD7000C38
:10116000FA6BFB6BFB5101081DE3F7C0E9FFF8C008
:10117000EAFFEFCFF9F0F951400808E2FA51100DFB
:10118000F350F925BF0F0A0FFA6F06D0FA51100D70
:10119000F350F925D00FFA6FFB51FB2BF72BD8B486
:1011A000F82BE0D7FAC001F0000C41C101F040C1BA
:1011B00000F00066012A0900F5CFEEFF002EFBD7F4
:1011C000012EF9D7F86A43EF09F0F250036EF29E50
:1011D000A68EA6840F01550EA76EAA0EA76EA68234
:1011E00000000350F2120001000CD08CA69CF650B7
:1011F0001F0B006EE00EF6160A0040C101F0F6501B
:10120000006607D0010F3F0B04E1A6880900DDDF6F
:101210000A00006607D0EECFF5FF015204E00F0090
:10122000010603D000060B000C001F0EF6141F0A67
:10123000E6E1CBDF0166E3D7F86A86EF09F0F25109
:10124000C00B01013A6FF3C03BF1F4C03CF1000167
:10125000F5C03DF101013A510001F25D01013E6F1F
:101260000001F851F91166E03CC1F8FF3BC1F7FFFE
:101270003AC1F6FFEA6AFA0EE96E0101416B400ECF
:10128000406F000192D7400ED88001013E55000109
:10129000F95303E1F85D08E007E3400ED88001014F
:1012A0003E553F6F04D00001F8C03FF10101036AD1
:1012B0003E51FA0F406F000E0320416FEA6E40C1AD
:1012C000E9FFF7C0E2FFF6C0E1FF3F51016E04E025
:1012D000E6CFEEFF012EFCD7D08C3CC1F8FF3BC11E
:1012E000F7FF3AC1F6FFA688A69C00016EDFF86AF8
:1012F0003CC1F8FF3BC1F7FF3AC1F6FFEA6AFA0EBC
:10130000E96E400E0101406F00016FD701013F51AE
:101310000001F627000EF723400E01013A27000EC8
:101320003B233C233D233E6B3F510001F85F000E01
:10133000F95B97D76EEF0AF08293876B886B82B365
:10134000E8D0A3DE7DB101D0FAD7B16BFA0E896F78
:101350007DB108D0010EF36FFCDD8907895301E1EF
:1013600019D002D0FA0E896FA8D601C08FF0B15102
:10137000B12B036AB20FE96E000E0320EA6E8FC034
:10138000EFFF8F510D0806E08F510A0803E0B151BD
:101390004008DEE2895301E1D2D7130EF26FCFDEAF
:1013A0008281B2513A08D8A4ABD0F86BB30EF76F74
:1013B000D7DE01C090F0F86BB50EF76FD1DE01C03B
:1013C000F2F0F86BB70EF76FCBDEF2C086F001C01B
:1013D00085F0F86BB90EF76FC3DE01C084F087C0EB
:1013E0008CF088C08DF085C08AF086C08BF0842D8B
:1013F00002D0828385D08D5306E18C5304E18B515A
:101400001708D8B07DD08D53D8A47AD08C512F082E
:10141000D8A076D0836B010E8F6F030EB15D8F5D08
:1014200010E2036A8F51B20FF26F000E0320F36FC8
:10143000F86FF2C0F7F094DE01508327020E8F2779
:10144000ECD7FF0ED8808355010F836F030EB15D7B
:10145000036AB20FF36F000E0320F46FF86FF3C04E
:10146000F7F07EDE0150835D02E0829149D0845323
:1014700036E1090E8F6F8E6B030EB15D8F5D1FE23B
:101480008E518E2B036A910F016E000E032201C054
:10149000F3F003C0F4F0036A8F51B20FF56F000E42
:1014A0000320F66FF86FF5C0F7F05ADEF4C0EAFFDC
:1014B000F3C0E9FF01C0EFFF020E8F27DDD78DC01B
:1014C000F5F08CC0F4F08BC0F3F08AC0F2F0F76B4B
:1014D000910EF66FF96B90C0F8F0B1D611D084512F
:1014E00004080EE1F86BBB0EF76F3ADE01C0F2F0B4
:1014F000F86BBD0EF76F34DEF2C088F001C087F0E4
:1015000082A103D0060EF26F1ADE110EF26F17DE03
:1015100016D7060EF26F13DE110EF26F10DE080EF4
:10152000F26FFA0EF36F15DDF22FFBD7FF00C3EF5A
:101530000AF0F86AD09E088EEA6AE96AC150C00BC8
:101540000F09C16E070EB46E1F6A216A040E226E67
:101550000C0E236E276A7C6B816B8B84949494842D
:1015600082B411D0C69A949E93809392210EC66E37
:10157000400EC76E02D5010E256E29EC01F096D5FE
:0E1580001A52FEE0D9D6256A00EF0CF00300E7
:04180000FFD7000C02
:020000040030CA
:0E000000240E390E000580000FC00FE00F40E7
:00000001FF
;PIC18F2550
