:020000040000FA
:04180000B6EF21F02E
:08180800056ED8CF06F0E0CF19
:1018100007F00001E9CF0DF0EACF08F0E1CF09F0C1
:10182000E2CF0AF0D9CF0BF0DACF0CF0F3CF14F0FF
:10183000F4CF15F0FACF16F000C00FF001C010F091
:1018400002C011F003C012F004C013F0A0AA2CEFE4
:101850000CF0A1BAA2EF13F00FC000F010C001F01D
:1018600011C002F012C003F013C004F00DC0E9FF74
:1018700008C0EAFF088E09C0E1FF0AC0E2FF0BC002
:10188000D9FF0CC0DAFF14C0F3FF15C0F4FF16C077
:10189000FAFF055007C0E0FF06C0D8FF1000F76A46
:1018A000AE0FF66E180EF7220900F5501200040371
:1018B0000100000000000000000000000000F76AC6
:1018C000CE0FF66E180EF7220900F5501200040034
:1018D0000100000000000000000000000000F76AA6
:1018E000EE0FF66E180EF7220900F55012004000B8
:1018F00008004000000000000000000000000000A0
:10190000000000000000000000000000000008AE21
:1019100003D0F2CF0EF0F29EF76A300FF66E190E7A
:10192000F7220900F55008AE02D00EBEF28E12006A
:101930004000000040000000000000000000000027
:101940000000000000000000000000000000000097
:10195000F76A600FF66E190EF7220900F5501200B3
:1019600009024300020100C0FA090400000102025A
:1019700001000524001001042402020524060001D0
:101980000524010001070581030800FA090401008C
:10199000020A000000070502024000FA0705820261
:1019A0004000FA00F76AB40FF66E190EF72209002C
:1019B000F55012000200F76AC60FF66E190EF722F4
:1019C0000900F55012001201100102000040D80475
:1019D000C5FF020001020001F76AE80FF66E190E5A
:1019E000F7220900F55012000403090410037400E3
:1019F0006B00720077006F0072006B0073002003B1
:101A000074006B00720077006F0072006B0073004F
:101A100020005000490043006E006F006D0065001B
:101A2000F2CF0EF0F29EF76A3A0FF66E1A0EF72218
:101A30000900F5500EBEF28E1200000102030408E8
:101A4000090B0C00F2CF0EF0F29EF76A5E0FF66EF5
:101A50001A0EF7220900F5500EBEF28E12007265C2
:101A6000706F72742025642025640000F2CF0EF0A0
:101A7000F29EF76A860FF66E1A0EF7220900F550ED
:101A80000EBEF28E120070726573732025642025DD
:101A9000642025640000F2CF0EF0F29EF76AB00FCA
:101AA000F66E1A0EF7220900F5500EBEF28E1200E5
:101AB000616463202564202566006D9269946894B2
:101AC000ADEF13F06A6A6892B6EF13F0336A326AC8
:101AD000250E316E800E306E346A356A080E366E11
:101AE000866B8193386A376A826B83918181000C9F
:101AF00001016C6B6C5101080AE3036A6C512E0FF3
:101B0000E96E000E0320EA6EEF6A6C2BF3D700013A
:101B1000DDDF206A010E216E1F6A000C010E01013B
:101B2000756F75510F080EE3700E7525016E0F0E5F
:101B3000036ED8B0032A01C0E9FF03C0EAFFEF6AD1
:101B4000752BEFD7246A236A0001000C400E0401B4
:101B5000016F050E036F026B880E006F046B050E9C
:101B6000076F400E066F0001000C6A6A686A9F0EDC
:101B70006B6E390E696E6E6ABBDFD0DF160E706E4B
:101B800068A602D06896FCD76D98E0DF030E266E3B
:101B9000BCEF13F0698468986D82C2EF13F0689C03
:101BA000C8EF13F070A002D0D1DF7090689ACEEF2A
:101BB00013F070C127F0000CFF0E276E000C01011E
:101BC0006E6B2D523DE06E513F083AE3225000010A
:101BD00005E0020A0FE0010A19E024D0036A2C5044
:101BE000F2CF70F1F29EB4DE010170BFF28E6F6F22
:101BF000000118D0036A2C50F2CF70F1F29EECDE97
:101C0000010170BFF28E6F6F00010CD0036A2C507F
:101C1000F2CF70F1F29ECFDE010170BFF28E6F6FD6
:101C2000000100D02C2A2D0601016E516E2B036A93
:101C3000400FE96E050E0320EA6E6FC1EFFFC1D7BA
:101C40002D5204E16E51400801E01F6A6EC170F12F
:101C50000001AFDF000C2C6A226A05010351010A62
:101C6000000105E0030A08E0010A09E021D0120E94
:101C70002D6E030E226E1ED0430E2D6E1BD0020E53
:101C8000226E036A05010251280FE96E000E03203F
:101C9000EA6EEFCF2CF0036A2C50F2CF6DF1F29E7A
:101CA00000019ADE01016DBFF28E2D6E000102D09F
:101CB00083DF0CD00501075305E12D50065D02E2DC
:101CC00006C52DF0010E1F6E000179DF99EF0FF0B0
:101CD00001016D5306E1040E266E00011FDFCED018
:101CE0000101050E266E706F800E6F6F010E6E6F14
:101CF0006E510F08D8A0C2D0716B036A6E51F2CF3B
:101D000075F1F29E0001DBDD010175BFF28E000A64
:101D100055E0040E716FD8906E35036AF2CF75F1FD
:101D2000F29E0001F4DD0900F5CF03F0010175BF5B
:101D3000F28E726F03C073F16E51080DF350010FF4
:101D4000016E040E036ED8B0032A01C0E9FF03C080
:101D5000EAFF72C1EFFF6E51080DF350020F016EE2
:101D6000040E036ED8B0032A01C0E9FF03C0EAFFE6
:101D700070C1ECFFED526FC1EFFFD8906E35036A72
:101D8000F2CF75F1F29E0001C2DD0900F5CF03F03C
:101D9000010175BFF28E6F2703507023880E746F98
:101DA00073B1748173B374836E51080DF3CF01F076
:101DB000040E01C0E9FFEA6E74C1EFFF036A6E51C1
:101DC000F2CF75F1F29E00016ADD010175BFF28E5E
:101DD000000A33E071836E51080DF350060F016E57
:101DE000040E036ED8B0032A01C0E9FF03C0EAFF66
:101DF00070C1ECFFED526FC1EFFFD8906E35036AF2
:101E0000F2CF75F1F29E00016ADD0900F5CF03F013
:101E1000010175BFF28E6F27035070236E51080DBC
:101E2000F350040F016E040E036ED8B0032A01C0F4
:101E3000E9FF03C0EAFF400EEF6E7151060802E1B0
:101E40000E0E716F036A6E51F2CF75F1F29E0001B2
:101E500026DD010175BFF28E020801E07189700E66
:101E60006E25016E0F0E036ED8B0032A01C0E9FF84
:101E700003C0EAFF71C1EFFF6E2B3AD7000191EF6B
:101E80000FF00501015100010DE0010A15E0020A01
:101E900020E0060A2AE0030A31E00E0A30E0010AD7
:101EA00036E045D021C040F50501416B020E01012D
:101EB000706F00017EDE3DD00501022D07D0010EBE
:101EC00021160101706B000174DE02D0000174DE86
:101ED00030D00501022D06D021820101706B000176
:101EE00068DE02D0000168DE24D0020E1F6E02C53B
:101EF0002BF00101706B00015CDE1BD0ACD620C062
:101F000040F5010E0101706F000153DE12D0050192
:101F1000025101080AE302C520F002C56DF100017B
:101F2000D7D60101706B000144DE000102D044DE0F
:101F300000D031EF11F020C06DF105010151000119
:101F400005E00A0A0CE0010A31E045D00501406BCA
:101F5000416B020E0101706F00012BDE3ED00101CA
:101F60006D5321E0010E6D5D036AF2CF6EF1F29EBA
:101F7000000118DD01016EBFF28E016E0501045DE6
:101F8000D8A002D001010FD0036A04512E0FE96ED0
:101F9000000E0320EA6EEFCF40F5010E0101706FD5
:101FA000000107DE02D0000107DE17D001016D53EA
:101FB0000FE0036A050104512E0FE96E000E0320A5
:101FC000EA6E02C5EFFF0101706B0001F2DD02D085
:101FD0000001F2DD02D0F0DD00D031EF11F001019F
:101FE0006E916DBF6E816D9F6EA112D0036A6D51AF
:101FF000F2CF6FF1F29E000152DC01016FBFF28E51
:10200000000A02E1000E01D0010E016E12D011D0C3
:10201000036A6D51F2CF6FF1F29E000150DC0101B5
:102020006FBFF28E000A02E1000E01D0010E016EB8
:1020300000D0000192EF10F001016E916DBF6E8132
:102040006D9F6EA110D06D51080DF350040F016EFD
:10205000040E036ED8B0032A01C0E9FF03C0EAFFF3
:10206000880EEF6E09D06D51080DF3CF01F0040E0C
:1020700001C0E9FFEA6EEF6A0001A1EF10F0010173
:102080006E916DBF6E816D9F6EA110D06D51080D68
:10209000F350040F016E040E036ED8B0032A01C082
:1020A000E9FF03C0EAFF840EEF6E0AD06D51080D00
:1020B000F3CF01F0040E01C0E9FFEA6E840EEF6E6B
:1020C0000001A9EF10F001016E916DBF6E816D9F4F
:1020D0006EA110D06D51080DF350040F016E040E67
:1020E000036ED8B0032A01C0E9FF03C0EAFFEFCFB7
:1020F0006FF10AD06D51080DF3CF01F0040E01C04D
:10210000E9FFEA6EEFCF6FF16FAF02D06FB502D08B
:10211000000E01D0010E016E0001B5EF10F004C5F4
:102120006DF15DD701522EE005010151010A000158
:1021300005E0020A0BE0030A11E022D004C56DF1AC
:102140007BD70101706B000134DD1CD004C56DF13B
:1021500096D70101706B00012CDD14D00501406B96
:10216000416B04C56DF10001AED7015203E0010ED1
:102170000501406F020E0101706F00011ADD02D0EF
:102180001BDD00D031EF11F0FE0E276E000C0501B3
:10219000042D01D002D004534EE1015100010BE0A7
:1021A000010A0DE0210A1CE0010A1FE0030A30E0E9
:1021B000010A35E03DD0010E876FE6DF3BD0050E0A
:1021C000EA6E400EE96EE26A390EE16E080E016EAB
:1021D000E6CFEEFF012EFCD706C570F1EADC2AD06F
:1021E000020E876F8183D0DF25D0050EEA6E400E88
:1021F000E96EE26A300EE16E070E016EE6CFEEFF89
:10220000012EFCD7070E0101706F0001D2DC12D045
:1022100002C586F00101706B0001CBDC0BD002C55A
:1022200038F003C537F00101706B0001C2DC02D049
:10223000C3DC00D00501000131EF11F01F6A050178
:1022400000517F0B000107E0010A06E0030A05E0E8
:10225000230A04E004D015D66ED661D798D7ACDC3B
:1022600000D03BEF13F001016D51080DF3CF01F0E9
:10227000040E01C0E9FFEA6EEFCF6FF16E51020864
:1022800006E16FAD02D06E6B02D0010E6E6F6E5123
:10229000030812E1840E6F6F6D51080DF350040FA7
:1022A000016E040E036ED8B0032A01C0E9FF03C01B
:1022B000EAFF840EEF6E09D06E2D03D0C80E6F6F4B
:1022C00004D06E5302E1880E6F6F036A010E026E36
:1022D0006D51006E05E0D89002360336002EFBD714
:1022E0000250FF0A006EFF0E031A0050231603501F
:1022F0002416D8906D35036AF2CF72F1F29E000178
:1023000087EC0CF00900F5CF03F0010172BFF28EEB
:10231000706F03C071F16D51080DF350010F016E24
:10232000040E036ED8B0032A01C0E9FF03C0EAFF20
:1023300070C1EFFF71B16F8171B36F836D51080D83
:10234000F3CF01F0040E01C0E9FFEA6E6FC1EFFFA9
:102350000001000C01017951080DF350040F016ECA
:10236000040E036ED8B0032A01C0E9FF03C0EAFFE0
:10237000EFCF7DF17DBF5BD07951080DF350050F94
:10238000016E040E036ED8B0032A01C0E9FF03C03A
:10239000EAFF7AC1EFFF7C51020816E17951080D7E
:1023A000F350040F016E040E036ED8B0032A01C06F
:1023B000E9FF03C0EAFFEFCF7DF17DAD02D07C6B7A
:1023C00002D0010E7C6F13D07C51040810E17951CA
:1023D000080DF3CF01F0040E01C0E9FFEA6EEFCF64
:1023E0007DF17DAD03D0010E7C6F01D07C6B7C2D27
:1023F00003D0C80E7D6F04D07C5302E1880E7D6F40
:102400007BB17D817BB37D837951080DF350040F3F
:10241000016E040E036ED8B0032A01C0E9FF03C0A9
:10242000EAFF7DC1EFFF010E016E03D000D0000E68
:10243000016E0001000C8751010A03E0030A14E059
:1024400026D0EA6A390EE96E050EE26EE16A080EE0
:10245000016EE6CFEEFF012EFCD70101706B00018B
:10246000D9EC0DF0876B17D0EA6A300EE96E050ED5
:10247000E26EE16A070E016EE6CFEEFF012EFCD799
:10248000876B0101706B0001D9EC0DF004D0876BF4
:10249000A6EC0DF000D073EF12F001016E51080DA3
:1024A000F350010F016E040E036ED8B0032A01C071
:1024B000E9FF03C0EAFF036AEFCF01F003C002F0B7
:1024C00000016AEF12F08381856B020E01016E6FCD
:1024D0000001E3D701C084F07AEF12F001016D53DF
:1024E00004E10001A8D717D001016D51020804E1F1
:1024F0000001E9D710D00101036A010E026E6D518F
:10250000006E05E0D89002360336002EFBD702504D
:102510002312035024120001000C6EC16EFF010152
:102520006E5303E0040E266E02D0020E266E0001EA
:102530009FEF12F0206A1F6A2BC06EF1EED720EFDA
:1025400013F001016E51080DF350040F016E040EDB
:10255000036ED8B0032A01C0E9FF03C0EAFFEFCF42
:1025600076F176BF41D06E51080DF350060F016E23
:10257000040E036ED8B0032A01C0E9FF03C0EAFFCE
:10258000ECCF03F0ED52EFCF77F103C078F1756B2C
:10259000746B7551725D1AE303E17151745D16E25B
:1025A0006FC1E9FF70C1EAFFEFCF7BF178C1EAFFAD
:1025B00077C1E9FF7BC1EFFF772BD8B4782B6F2B66
:1025C000D8B4702B742BD8B4752BE3D76EC179F1C6
:1025D00072C17BF171C17AF173C17CF10001BADE85
:1025E000015004D000D00101000E016E0001000C6A
:1025F00082530FE08191020E01016E6F706B410EEC
:102600006F6F726B82C071F1020E736F000199DF00
:10261000826B000C825302E0EBDF01D0818127EF57
:1026200013F001016D530EE11F2C05D00001DFEC0A
:102630000DF006D001011F50020803E100017AD716
:10264000010106D06D51020803E10001E3D7010149
:102650000001000C6C3001016C6F6C336C331F0E89
:102660006C176C5246E1040100513C0B340821E127
:10267000046B0001E3D5273C07D001016D6B030E0D
:102680006E6F0001F0DD12D001016D6B020E6E6FF6
:102690000001E9DD2750FE0809E00101796B7B6B41
:1026A00027C07AF1040E7C6F000154DE6D981ED0B5
:1026B000040100513C0B04081AE101016D6B00019B
:1026C0000DDF01016D6B020E6E6F0001CCDD275036
:1026D000FE080CE0273C01D009D00101796B7B6B2F
:1026E00027C07AF1010E7C6F000134DE040127D08F
:1026F00001016C50040816E1FF0E276E6D6B00019E
:1027000090DF273C01D00AD00101796B7B6B27C099
:102710007AF1020E7C6F00011DDE02D0A6EC0DF0F6
:102720000DD001016CB406D06CC16DF10001D6DE94
:1027300005D001016CC16DF1000173DF04010001DE
:10274000D3EF13F0265201E12FD068522DE068A498
:1027500004D069A402D05DEF0DF06DA201D024D0A9
:1027600068A204D069A202D062EF0DF068A004D084
:1027700069A002D0B5EF0DF068A804D069A802D016
:10278000CAEF0DF068AC04D069AC02D0CFEF0DF009
:1027900068AA04D069AA02D0D2EF0DF068A604D0CE
:1027A00069A602D057D76896A19A2CEF0CF00101C8
:1027B000326B3051325D18E2036A32512E25E96ED8
:1027C0002F510320EA6E32513125356FF2CF36F1A9
:1027D000F29E35C1A9FFA69CA69EA680A85036BF32
:1027E000F28EEF6E322BE5D700017AEF22F0010175
:1027F000556B5351555D24E255515425566F036A6C
:1028000055515125E96E52510320EA6EEFCF57F131
:1028100056C1A9FF57C1A8FFA69CA69EA684F2CFC9
:1028200000F0F29E0F01550EA76EAA0EA76EA682AB
:10283000A6B2FED7A6940050F2120101552BD9D7AB
:102840000001000C0F0E01012A6F010E526F2A0EBB
:10285000516F010E536F546B0001C9DF80EF22F0FE
:1028600001012E6B2E51070832E3036A2E51D10F5E
:10287000E96E000E0320EA6EEF6A036A2E51D90F4B
:10288000E96E000E0320EA6EEF6A036A2E51E10F33
:10289000E96E000E0320EA6EEF6A2F6B2F510708D6
:1028A00014E32E51080DF350316B306F036A2F5132
:1028B0003025016E315103220150E90FE96E000EFF
:1028C0000320EA6EEF6A2F2BE9D72E2BCBD700011E
:1028D00083EF22F08A9A939AC95053C1C9FFC73037
:1028E000FEE3C95054C1C9FFC730FEE38A8A939AF8
:1028F000000C010EEA6E2F0EE96EEF500EE00F0E87
:10290000016E006A002EFED7012EFBD78F0E006EDF
:10291000002EFED70000EF2EF2D7D1EF14F00B0EF1
:102920000101536F070E546F0001D4DF0A0E01013D
:10293000536F2AC154F10001CDDF010E01012E6F4A
:102940002E51080809E32EC153F12EC154F10001A4
:10295000C1DF01012E2BF4D70C0E536F010E546F03
:102960000001B8DF0F0E0101536F546B0001B2DF9D
:1029700001012E6B2E513F0817E3400ED8802E55D3
:10298000006E00302F6F2F333F0E2F170A0E536F3C
:102990002FC154F100019EDF080E01012F6F0001CD
:1029A000A8D701012E2BE6D70A0E536F2AC154F186
:1029B000000190DF010E01012E6F2E51080808E37F
:1029C0002EC153F1546B000185DF01012E2BF5D789
:1029D00000019BEF22F06D6A696A080E6F6E9450D9
:1029E00030090101946E266A186AF2BE188EF29EB2
:1029F000000178EC0DF018BEF28E246A236A24EFF1
:102A000015F0186AF2BE188EF29E78EC0DF018BE22
:102A1000F28E6D6A140E6F6E696A6D86010E266EF7
:102A200015EF15F06DB601D0ECD7262C0BD06DBA92
:102A300009D0686A696AA08AC00EF212110E696E26
:102A4000020E266E000CC7D7EDDF26500208FCE10F
:102A50009FEF22F083B101D0FDD78551852B036A0A
:102A6000880FE96E050E0320EA6EEFCF56F10101E3
:102A700000018451855D0EE38391186AF2BE188EC1
:102A8000F29E020E01016D6F6E6F000133EC11F0CA
:102A900018BEF28E010156C101F0000155EF15F08C
:102AA00001015307546B0001D5D701C055F1010155
:102AB0005551080804E1545301E0540713D055510F
:102AC0001F0810E255517E080DE35351545D0AE290
:102AD0005451542B036A5125E96E52510320EA6E7A
:102AE00055C1EFFF55510D08DEE1036A54515125E0
:102AF000E96E52510320EA6EEF6A00018DEF18F083
:102B00005AC15EF159C15DF15EC103F001015DC1C1
:102B1000E9FF5EC1EAFFEF5230E05CC160F15BC1EA
:102B20005FF160C103F05FC1E9FF60C1EAFFEF52EE
:102B30000AE159515D5D006E5A515E59036E00C045
:102B400001F023D010D05DC1E9FF5EC1EAFFEFCFF5
:102B500061F160C103F05FC1E9FF60C1EAFFEF50BE
:102B6000615D01E104D05F2BD8B4602BDAD75D2B17
:102B7000D8B45E2B0001C8D7010159515D5D006ECC
:102B80005A515E59036E00C001F000011DEF16F0AE
:102B90005AC15EF159C15DF15EC103F001015DC131
:102BA000E9FF5EC1EAFFEF522AE05CC160F15BC160
:102BB0005FF160C103F05FC1E9FF60C1EAFFEF525E
:102BC00018E05DC1E9FF5EC1EAFFEFCF61F160C1CE
:102BD00003F05FC1E9FF60C1EAFFEF50615D05E10D
:102BE0005DC101F05EC102F00DD05F2BD8B4602B47
:102BF000E0D75D2BD8B45E2B0001CED70101000ECB
:102C0000016E026E00013EEF16F0010151515211AA
:102C100004E052C103F0515103D01AC003F019501F
:102C2000556F03C056F156C15AF155C159F154C1FF
:102C30005CF153C15BF1000163D7015001015527DD
:102C4000000E562356C103F055C1E9FF56C1EAFFF5
:102C5000EF520AE119C0E9FF1AC0EAFF200EEF6E39
:102C6000000E016E026E27D056C15AF155C159F1BE
:102C700054C15CF153C15BF100018AD702C058F125
:102C800001C057F158C103F0010157C1E9FF58C114
:102C9000EAFFEF5208E057C1E9FF58C1EAFFEF6AC7
:102CA000572BD8B4582B58C11AF057C119F055C139
:102CB00001F056C102F00001000C010151C1E9FF11
:102CC00052C1EAFFEFCF55F154C103F053C1E9FF00
:102CD00054C1EAFFEF50555D15E152C103F051C1F7
:102CE000E9FF03C0EAFFEF5203E1000E016E1FD0BF
:102CF00052C103F05151512BD8B4522B532BD8B49D
:102D0000542BDCD752C103F051C1E9FF52C1EAFF95
:102D1000EFCF55F154C103F053C1E9FF54C1EAFFAD
:102D2000EF50555D02E2FF0E01D0010E016E000171
:102D3000000C006A016A01015851D89059B100266F
:102D40000032013259B300260032013259B5002653
:102D50000032013259B700260032013259B900263B
:102D60000032013259BB00260032013259BD002623
:102D70000032013259BF00260032013200012FEF2C
:102D800017F00101566B546B0A0E556F536B51517E
:102D9000521103E1000E016EC3D05651562B036A47
:102DA0005125E96E52510320EA6EEFCF57F157518A
:102DB0002D080DE1010E546F5651562B036A512513
:102DC000E96E52510320EA6EEFCF57F10DD0575103
:102DD0002B080AE15651562B036A5125E96E5251D0
:102DE0000320EA6EEFCF57F157512F08D8B090D09B
:102DF00057513908D8A08CD05751300821E1036AC7
:102E000056515125E96E52510320EA6EEF50780871
:102E10000AE0036A56515125E96E52510320EA6EC9
:102E2000EF5058080DE1100E556F562B5651562B8A
:102E3000036A5125E96E52510320EA6EEFCF57F134
:102E400055510A081DE157512F0819E25751390809
:102E500016E30A0E586F53C159F100016AD7300EBC
:102E60000101575D0124536F5651562B036A5125BA
:102E7000E96E52510320EA6EEFCF57F1E4D748D004
:102E80005551100845E15751600806E257517A083C
:102E900003E35751DF0B01D05751576F57512F089C
:102EA00003E25751390806E25751400831E25751C1
:102EB00046082EE357512F080CE25751390809E311
:102EC0005339586FF00E5817300E575D5825536F11
:102ED00009D05339586FF00E5817410E575D0A0F3D
:102EE0005825536F5651562B036A5125E96E52519E
:102EF0000320EA6EEFCF57F15751600806E25751B1
:102F00007A0803E35751DF0B01D05751576FC6D7EB
:102F1000542D04D055510A0801E1536D53C101F0FD
:102F20000001000C01015151080801E211D02951A2
:102F30000F0B03E1000181850101010E006E51516B
:102F4000016E04E0D8900036012EFCD70050291302
:102F5000000180EF1AF001015151080801E212D07E
:102F6000010E006E5151016E04E0D8900036012E22
:102F7000FCD70050FF0A291729510F0B03E100016C
:102F800081950101000180EF1AF001015991F2BE13
:102F90005981F29E000182513F0802E23F0E826F8A
:102FA0008251822B036A410FE96E000E0320EA6E04
:102FB00058C1EFFFF29E010159B1F28E000181A1CB
:102FC00008D0186AF2BE188EF29EF8EC12F018BE05
:102FD000F28EFCEF17F082513F080BE281A108D07E
:102FE000186AF2BE188EF29EF8EC12F018BEF28E3D
:102FF000F2D757C158F1C9D7000C01015851016AE5
:10300000575D03E257C100F00CD0006A080E596FFB
:10301000573700365851005CD8B0006E0136592F32
:10302000F7D70001000C200E010152A9300E536F9A
:1030300051C100F051AF07D0001E002A00C051F16D
:103040002D0E536F528F015051C157F1640E586FBE
:103050000001D3DF00C051F1300E01240101546F93
:1030600051C157F10A0E586F0001C7DF300E00241E
:103070000101566F300E0124556F53C100F052A765
:1030800002D052AF529552B90BD052AF22D052B5A6
:1030900020D000C054F152B31CD000C055F119D05B
:1030A000300E545D16E100C054F1200E536F52A74C
:1030B00004D05295528352AF5293300E555D09E1C0
:1030C00000C055F1200E546F52A7F7D7529352AF5C
:1030D000529152A505D053C157F100017CDF010187
:1030E00052A305D054C157F1000175DF010152A16F
:1030F00004D055C157F100016EDF56C157F10001F0
:103100006ADF000C83A1D1D2010E0101526F2F0E94
:10311000516F140E536F0001C3D4010E0101526FA1
:103120002F0E516F546B910E536F00016EDD02C074
:1031300044F101C043F144C152F143C151F10101D5
:10314000546B930E536F0001B8DD0152D8A478D0B0
:103150000101526B516B546B910E536F000155DDA1
:1031600002C044F101C043F144C152F143C151F1E5
:1031700008DE01C045F10101526B516B546B910E99
:10318000536F000142DD02C044F101C043F144C16C
:1031900052F143C151F1F5DD01C046F10101526B1D
:1031A000516B546B910E536F00012FDD02C044F13F
:1031B00001C043F144C152F143C151F1E2DD01C00C
:1031C00047F10101475315E1036A4651880FE96E43
:1031D000000E0320EA6E010E006E4551016E04E000
:1031E000D8900036012EFCD70050FF0AEF14EF6E86
:1031F00013D0036A4651880FE96E000E0320EA6E71
:10320000010E006E4551016E04E0D8900036012E8B
:10321000FCD70050EF10EF6E010E4625516F036A88
:103220004651880FE96E000E0320EA6EEFCF52F18F
:1032300051C153F152C154F100016AEC14F035D27E
:1032400044C152F143C151F10101546B970E536FC8
:10325000000133DD0152D8A49DD00101526B516BA6
:10326000546B910E536F0001D0DC02C044F101C0D9
:1032700043F144C152F143C151F183DD01C048F132
:103280000101526B516B546B910E536F0001BDDC09
:1032900002C044F101C043F144C152F143C151F1B4
:1032A00070DD01C049F1902D25D001012E6B2E510A
:1032B00007081EE3036A2E51880FE96E000E0320F3
:1032C000EA6EEF6A010E2E25516F036A2E51880FA8
:1032D000E96E000E0320EA6EEFCF52F151C153F1B7
:1032E00052C154F100016AEC14F001012E2BDFD71A
:1032F0000001906B01012E6B2E5107084AE3010E6D
:10330000006E2E51016E04E0D8900036012EFCD7DD
:103310000050491514E0036A2E51880FE96E000E23
:103320000320EA6E010E006E4851016E04E0D89051
:103330000036012EFCD70050EF10EF6E14D0036A58
:103340002E51880FE96E000E0320EA6E010E006E0A
:103350004851016E04E0D8900036012EFCD7005091
:10336000FF0AEF14EF6E010E2E25516F036A2E51E6
:10337000880FE96E000E0320EA6EEFCF52F151C1C3
:1033800053F152C154F100016AEC14F001012E2BEB
:10339000B3D78CD144C152F143C151F10101546BF7
:1033A0009F0E536F000189DC01526BE10101526BEA
:1033B000516B546B910E536F000127DC02C044F136
:1033C00001C043F144C152F143C151F1DADC01C003
:1033D0004AF10101526B516B546B910E536F000116
:1033E00014DC02C044F101C043F144C152F143C1B5
:1033F00051F1C7DC01C04BF1902D25D001012E6B9E
:103400002E5107081EE3036A2E51880FE96E000E45
:103410000320EA6EEF6A010E2E25516F036A2E51CA
:10342000880FE96E000E0320EA6EEFCF52F151C112
:1034300053F152C154F100016AEC14F001012E2B3A
:10344000DFD70001906B036A01014A51880FE96ED2
:10345000000E0320EA6E4BC1EFFF010E4A25516FAB
:10346000036A4A51880FE96E000E0320EA6EEFCF1F
:1034700052F151C153F152C154F100016AEC14F000
:1034800014D144C152F143C151F10101546BA70E53
:10349000536F000112DC015234E10101526B516B98
:1034A000546B910E536F000105EC16F002C044F10D
:1034B00001C043F144C152F143C151F162DC01C08A
:1034C0004CF10101526B516B546B910E536F000123
:1034D00005EC16F002C044F101C043F144C152F1C1
:1034E00043C151F14EDC01C04DF101014D5304E0E7
:1034F0004CC151F1000116D54CC151F100012BD541
:10350000D4D044C152F143C151F10101546BB20E08
:10351000536F00015DEC16F0015228E10101526B7E
:10352000516B546B910E536F000105EC16F002C005
:1035300044F101C043F144C152F143C151F121DCD6
:1035400001C02AF10A0E0101536F2AC154F1000192
:103550006AEC14F0010E0101526F2A0E516F010E38
:10356000536F546B0001F7EC13F09FD044C152F13C
:1035700043C151F10101546BBC0E536F00015DEC6E
:1035800016F001521EE10101526B516B546B910E0A
:10359000536F000105EC16F002C044F101C043F185
:1035A00044C152F143C151F1C1EC16F001C04EF1DA
:1035B0000F0E0101536F4EC154F100016AEC14F07B
:1035C00074D044C152F143C151F10101546BC10E99
:1035D000536F00015DEC16F001521EE10101526BC8
:1035E000516B546B910E536F000105EC16F002C045
:1035F00044F101C043F144C152F143C151F1C1EC66
:1036000016F001C04FF10C0E0101536F4FC154F180
:1036100000016AEC14F049D044C152F143C151F1A8
:103620000101546BCA0E536F00015DEC16F001529C
:103630003CE10101526B516B546B910E536F0001D1
:1036400005EC16F002C044F101C043F144C152F14F
:1036500043C151F1C1EC16F001C050F10101516BB1
:103660005151000122EC0DF00101512B006E576FFA
:103670000001B1DC070E0101515DF2E150C151F1D1
:103680001F0E526F0001CFDC200E0101576F0001A9
:10369000A2DC010E0101516F1F0E526F0001C3DC4D
:1036A0000D0E0101576F000196DC01010001A8EF2A
:1036B00022F001013391036A3151D10FE96E000EFE
:1036C0000320EA6EEFCF34F1036A3151D90FE96E6E
:1036D000000E0320EA6EEF50341B010E006E3251D3
:1036E000016E04E0D8900036012EFCD7005034154E
:1036F00031E0036A3151D10FE96E000E0320EA6E0A
:10370000EFCF34F1036A3151E10FE96E000E03206F
:10371000EA6EEF50341B010E006E3251016E04E070
:10372000D8900036012EFCD70050341513E03151EB
:10373000080DF350356B346F036A32513425016E36
:10374000355103220150E90FE96E000E0320EA6EA5
:10375000EF6AA4D0036A3151D10FE96E000E032045
:10376000EA6EEFCF34F1036A3151D90FE96E000EE2
:103770000320EA6EEF50341B010E006E3251016ED1
:1037800004E0D8900036012EFCD700503415D8A4A0
:1037900085D0036A3151D10FE96E000E0320EA6E25
:1037A000EFCF34F1036A3151E10FE96E000E0320CF
:1037B000EA6EEF50341B010E006E3251016E04E0D0
:1037C000D8900036012EFCD70050341567E03151F7
:1037D000080DF350356B346F036A32513425016E96
:1037E000355103220150E90FE96E000E0320EA6E05
:1037F000EF501F0853E33151080DF350356B346F10
:10380000036A32513425016E355103220150E90F0C
:10381000E96E000E0320EA6EEF2AEF5020083EE129
:10382000036A3151D10FE96E000E0320EA6EEFCF2B
:1038300034F1010E006E3251016E04E0D890003672
:10384000012EFCD70050341514E0036A3151E10F0A
:10385000E96E000E0320EA6E010E006E3251016E19
:1038600004E0D8900036012EFCD70050EF10EF6E28
:1038700014D0036A3151E10FE96E000E0320EA6EA5
:10388000010E006E3251016E04E0D8900036012E18
:10389000FCD70050FF0AEF14EF6E3381000E33B1F6
:1038A000010E016E0001C2EF1CF08A9E939E010181
:1038B0002E6B2E510708D8A0C3D08A8C939C8A9C6B
:1038C000939C8A8E939E036A2E51D90F016E000E2F
:1038D000032203C032F1036A2E51D10FE96E000EAC
:1038E0000320EA6EEFCF33F132C1EAFF01C0E9FFF6
:1038F00033C1EFFF8B929492130E006E002EFED711
:1039000000D08B8294922F6B2F510708D8A096D0AD
:10391000948C306B82BC302B305302E0000E01D00F
:10392000010E306F305314E0036A2E51D10FE96E4F
:10393000000E0320EA6E010E006E2F51016E04E0AE
:10394000D8900036012EFCD70050EF10EF6E14D047
:10395000036A2E51D10FE96E000E0320EA6E010EAC
:10396000006E2F51016E04E0D8900036012EFCD776
:103970000050FF0AEF14EF6E2EC131F12FC132F16A
:10398000000197D6015253E0036A01012E51E10F65
:10399000E96E000E0320EA6EEFCF31F1010E006EEA
:1039A0002F51016E04E0D8900036012EFCD7005054
:1039B000311502E0010E01D0000E316F326B325131
:1039C000000136EC0DF00101322B006E576F000143
:1039D000EBEC17F0060E0101325DF1E12FC151F160
:1039E0001F0E526F000113EC18F0200E0101576FEB
:1039F0000001EBEC17F02EC151F11F0E0101526FC7
:103A0000000113EC18F0200E0101576F0001EBECE0
:103A100017F031C151F11F0E0101526F000113EC7B
:103A200018F00D0E0101576F0001EBEC17F08B80C1
:103A300094908B90949001012F2B66D72E2B39D721
:103A40000001AAEF22F08E0E006E36C101F035C1E2
:103A500002F0036A015209E102C001F0026A080E95
:103A6000005E015202E1006A08D0D89001BE04D085
:103A7000023601360006F9D7019E2CEF21F0800EA8
:103A8000D8A202D001013A1B01013F6B406B36C145
:103A90003EF13A513E1B3551D8B4DFD03D6F006E38
:103AA0003951D8B4E3D03D5FD8B483D03EE33AC1B6
:103AB00043F1438F3BC142F13CC141F1406BD8908F
:103AC00043334233413340333D2FF8D73EAF03D029
:103AD0003F81E0D03F913D913F89010EEA6E380E63
:103AE000E96EEBD03F993EBF0AD03DA113D04333DE
:103AF000423341334033002AD8B4C7D00BD043BF40
:103B00000CD0D89040374137423743370006D8B4FD
:103B1000BCD0F5D73F8D6DD03F9D36C13EF136AF5D
:103B200002D0438FABD0439FA9D039C13DF139C1F9
:103B300000F035513D5F36C143F1438F37C142F14B
:103B400038C141F1406BD890433342334133403365
:103B50003D2FF8D73EAF03D03F839CD03F933D919C
:103B60003F8B010EEA6E3C0EE96EA7D03F9B3EBF35
:103B70000AD03DA113D04333423341334033002AAE
:103B8000D8B483D00BD043BF0CD0D8904037413746
:103B9000423743370006D8B478D0F5D73F8F29D0C5
:103BA0003F9F3AC13EF13AAF02D0438F67D0439F67
:103BB00065D03AC143F1438F3BC142F13CC141F171
:103BC0003EAF04D0439F3F8565D03F95406B3D910C
:103BD000010EEA6E380EE96E70D03EBF1CD036C1C1
:103BE0003EF13DA106D04333423341334033002AF6
:103BF0004CE040AF0BD0412B09E1422B07E1432BB6
:103C000005E1433342334133002A3FE03FBD84D7CF
:103C10003FBFC6D71CD0800E431B43AF04D03AD061
:103C20003AC13EF10AD036C13EF1435306E1425358
:103C300004E1415302E1006A21D043BF08D0D8908B
:103C40004037413742374337002EF7D71ED03EAFBB
:103C500002D0438F13D0439F11D039C100F03AC135
:103C600043F13BC142F13CC141F108D035C100F004
:103C700036C143F137C142F138C141F143C101F0CE
:103C800042C102F041C103F034D0006A016A026A05
:103C9000036A2FD0406B411F421F431F401F402B20
:103CA00005E1412B03E1422B01E1432B3FB112D748
:103CB0003FB354D73FB589D7B3D7EF50412705E37A
:103CC000422B03E1432BD8B43D81ED52EF50422704
:103CD00003E3432BD8B43D81ED52EF50EFBE01D04A
:103CE000800A4327D8B03D813FB9FCD63FBB3ED7C1
:103CF00074D700013EEF21F001013951D8B4A5D0AD
:103D0000456F3D51D8B4A1D0455F05E37F0E4527EF
:103D1000D8B09BD006D0810E455FD8A096D0D8B43D
:103D200094D045C100F0016A026A036A446B3AC14B
:103D300043F1438F3BC142F13CC141F1190E456F44
:103D40004051415F0DE2010E425F0AE2435F08E22B
:103D5000445F06E2442B432B422B4051412728D09D
:103D60003F51425F12E2010E435F0FE2445F0DE2FA
:103D7000442B432B3F5142274051412719E3422B0B
:103D800017E1432B15E1442B13D03E518009435FCB
:103D90000EE2010E445F0BE2442B3E5180094327A3
:103DA0003F514227E9E3432BE7E1442BE5D703806A
:103DB000452F01D00BD0D890413742374337443795
:103DC000D8900336023601364637BAD746A106D018
:103DD000D890013202320332463302D0000635E079
:103DE00046BF1ED0D8904137423743374437405101
:103DF000415F07E2010E425F04E2435F02E2445F7B
:103E00001AE33F51425F05E2010E435F02E2445F65
:103E100012E33E518009435F03E2010E445F0BE36E
:103E2000032A09E1022A07E1012A05E1002A0DE03F
:103E30000132023203323AC145F13E51451B45AFD2
:103E400002D0018E06D0019E04D0006A016A026A87
:103E5000036A0001000C01014251D8B471D0006E18
:103E60004651D8B46DD0002604E3810E002668E2E6
:103E700004D07F0E005E64E363E043C14AF1475122
:103E80004A1B438F478F45514903F4CF4CF14451AE
:103E90004803F4CF03F0F3CF4BF14903F3504C2721
:103EA000F4504B23000E032245514803F3504C2796
:103EB000F4504B23000E026A0322022243514903AD
:103EC000F3504B27F4500322000E022243514803C3
:103ED000F3500326F4500222000E016A01224551DC
:103EE0004703F3504B27F4500322000E0222012215
:103EF00044514703F3500326F4500222000E0122DE
:103F000043514703F3500226F4500122002A01BE18
:103F100005D04B370336023601360006000E4BAF94
:103F20000AD0032A02220122015005E1025003E1D6
:103F3000035001E1002A4ABF018E4AAF019E04D01E
:103F4000006A016A026A036A00011FEF20F00101A2
:103F50004251B608426F036A43C146F1438FD8907D
:103F60004333443345330332023201320032422FAD
:103F7000F6D746AF0BD0001E011E021E031E002AFC
:103F8000D8B4012AD8B4022AD8B4032A000134EFE5
:103F900020F0006A016A026A036A01014A6B4B6BF6
:103FA0004C6B4D6B49514811471146112CE0200EC6
:103FB0004E6FD89042374337443745374A374B37EF
:103FC0004C374D3749514D5D08E148514C5D05E195
:103FD00047514B5D02E146514A5D0FE346514A5F4E
:103FE0004751D8A0473D4B5F4851D8A0483D4C5F52
:103FF0004951D8A0493D4D5FD88000360136023680
:1040000003364E2FD6D7010EEA6E4A0EE96E000136
:10401000000CE95001013A6F39513C6F1BE038C187
:1040200045F137C144F136C143F135C142F1496B25
:10403000486B200E476F820E466F00010CD703C0FD
:1040400038F102C037F101C036F100C035F101018D
:104050003C2FE5D738C145F137C144F136C143F1B2
:1040600035C142F1000173D703C038F102C037F106
:1040700001C036F100C035F1010138AF0DD03A076B
:104080003A8B351F361F371F381F352BD8B4362BC8
:10409000D8B4372BD8B4382B3B0E416F9A0E406FF3
:1040A000CA0E3F6F3E6B0A0E3C6F3951D8B43A2BA3
:1040B00038C145F137C144F136C143F135C142F150
:1040C00041C149F140C148F13FC147F13EC146F10C
:1040D00000015FDF0150EFCF35F1ECCF36F1ECCFCF
:1040E00037F1ECCF38F1005213E1010139293C5D81
:1040F000D8A402D000010CD03A510DE00F0B3C5D6A
:1041000001E044E23ABF42D03ABD05D0200E37D09C
:10411000200E01013A173AAB0FD03A9B3951D8A47F
:104120003A0700503A6F2D0E576F0001EBEC17F075
:1041300001013A51006E3A6B39513C5D0DE100507E
:104140003A6F2E0E576F0001EBEC17F001013A5158
:10415000006E200E3A17000E300E3AAB10D03A9B8C
:104160003951D8A43A0700503A6F2D0E576F00010D
:10417000EBEC17F001013A51006E3A6B300E00265D
:1041800000C057F10001EBEC17F0010141C145F10E
:1041900040C144F13FC143F13EC142F1496B486B1C
:1041A000476B0A0E466F0001F4DE03C041F102C006
:1041B00040F101C03FF100C03EF101013C2F78D732
:1041C0000001A5EF21F081A5CED001012E511808E4
:1041D000D8B0C8D0010E006E2F51016E04E0D89007
:1041E0000036012EFCD700502915356F010E006EE8
:1041F0002F51016E04E0D8900036012EFCD70050FC
:10420000355DD8A4A9D0316B326B336B346B306B16
:10421000305107083EE3036A2F51F2CF35F1F29E89
:10422000000110EC0DF0010135BFF28E356F353510
:10423000006E0036FC0E0016C250C30B0010C26E9A
:10424000C282C2B2FED7C4CF03F0C3CF35F1C4CF10
:1042500036F1000123EF1DF0D89234C138F133C19B
:1042600037F132C136F131C135F103C03CF102C042
:104270003BF101C03AF100C039F101D403C034F17F
:1042800002C033F101C032F100C031F10101302B25
:10429000BFD734C13CF133C13BF132C13AF131C136
:1042A00039F1406B3F6B3E6B820E3D6F000124DDA8
:1042B00000C035F101C036F102C037F103C038F15A
:1042C00003C03CF102C03BF101C03AF100C039F13A
:1042D0000101406B3F6B3E6B890E3D6F00010CDDB1
:1042E00003C034F102C033F101C032F100C031F13A
:1042F0000101356B355100014BEC0DF00101352BFF
:10430000006E576F0001EBEC17F0040E0101355DF4
:10431000F1E12FC151F11F0E526F000113EC18F0A3
:10432000200E0101576F0001EBEC17F0890EE96ECA
:1043300034C138F133C137F132C136F131C135F111
:10434000020E0101396F000164D60D0E0101576F95
:104350000001EBEC17F001012F2B2F51080801E2AF
:104360002F6B2E6B2E2B0001AFEF22F0F86AD09E40
:10437000088EEA6AE96AC150C00B0F09C16E070EC8
:10438000B46E196A1A6A266A286A040E296E0C0E1F
:104390002A6E2D6A826B876B010E906F200E916FD3
:1043A000926B6C0E936F650E946F640E956F966BA7
:1043B0006C0E976F650E986F640E996F5F0E9A6F13
:1043C000630E9B6F6F0E9C6F6C0E9D6F9E6B9F6F4D
:1043D000650EA06F640EA16F5F0EA26F720EA36FC9
:1043E0006F0EA46F770EA56FA66B610EA76F640E9C
:1043F000A86F630EA96F5F0EAA6F650EAB6F6E0E8E
:10440000AC6F610EAD6F620EAE6F6C0EAF6F650E6E
:10441000B06FB16B690EB26F6E0EB36F740EB46F86
:10442000650EB56F6E0EB66F730EB76F690EB86F0F
:10443000740EB96F790EBA6FBB6B740EBC6F650EDC
:10444000BD6F730EBE6F740EBF6FC06B730EC16F06
:10445000680EC26F750EC36F740EC46F640EC56FA5
:104460006F0EC66F770EC76F6E0EC86FC96B720E78
:10447000CA6F650ECB6F700ECC6F6F0ECD6F720E64
:10448000CE6F740ECF6FD06B0101296B0001819547
:1044900001012C6B2D6BC150C00BC16EC090C0824E
:1044A000C084C08EC280C69A949E93809392210E3F
:1044B000C66E400EC76ED190800ED56ECD6A000ECE
:1044C000CA6E000ECB6EB16A070EB46E9250926E39
:1044D000270E006E002EFED700D0B450A19CB56A06
:1044E000010E2F6F2A0E2E6F010E306F316B0001FF
:1044F000D7EF13F001012A5303E1000122EF14F07A
:10450000000130EF14F08A8E939E01012B6B2B512A
:1045100007080EE3036A2B51880FE96E000E032093
:10452000EA6EEF6A8A8C939C8A9C939C2B2BEFD724
:1045300000018FEF14F066EC0DF023EF15F081B35E
:1045400001D0FDD712EC15F0205209E082EF18F0EF
:1045500055EF1CF02CC12EF12DC12FF134D6F2D71E
:02456000030056
:020000040030CA
:0E000000240E390E000580000FC00FE00F40E7
:00000001FF
;PIC18F2550
;CRC=7AC8  CREATED="24-6-09 16:00"
