:020000040000FA
:0418000026EF29F0B6
:08180800056ED8CF06F0E0CF19
:1018100007F00001E9CF0DF0EACF08F0E1CF09F0C1
:10182000E2CF0AF0D9CF0BF0DACF0CF0F3CF14F0FF
:10183000F4CF15F0FACF16F000C00FF001C010F091
:1018400002C011F003C012F004C013F0A0AA2CEFE4
:101850000CF0A1BAAEEF13F00FC000F010C001F011
:1018600011C002F012C003F013C004F00DC0E9FF74
:1018700008C0EAFF088E09C0E1FF0AC0E2FF0BC002
:10188000D9FF0CC0DAFF14C0F3FF15C0F4FF16C077
:10189000FAFF055007C0E0FF06C0D8FF1000F76A46
:1018A000AE0FF66E180EF7220900F5501200040371
:1018B0000100000000000000000000000000F76AC6
:1018C000CE0FF66E180EF7220900F5501200040034
:1018D0000100000000000000000000000000F76AA6
:1018E000EE0FF66E180EF7220900F55012004000B8
:1018F00008004000000000000000000000000000A0
:10190000000000000000000000000000000008AE21
:1019100003D0F2CF0EF0F29EF76A300FF66E190E7A
:10192000F7220900F55008AE02D00EBEF28E12006A
:101930004000000040000000000000000000000027
:101940000000000000000000000000000000000097
:10195000F76A600FF66E190EF7220900F5501200B3
:1019600009024300020100C0FA090400000102025A
:1019700001000524001001042402020524060001D0
:101980000524010001070581030800FA090401008C
:10199000020A000000070502024000FA0705820261
:1019A0004000FA00F76AB40FF66E190EF72209002C
:1019B000F55012000200F76AC60FF66E190EF722F4
:1019C0000900F55012001201100102000040D80475
:1019D00000FD020001020001F76AE80FF66E190E21
:1019E000F7220900F55012000403090412037400E1
:1019F0006B00720077006F0072006B0073001603BB
:101A00005000490043006E006F006D00650031001A
:101A100032003800F2CF0EF0F29EF76A2E0FF66E0B
:101A20001A0EF7220900F5500EBEF28E12000001C8
:101A3000020304080900F2CF0EF0F29EF76A500F7D
:101A4000F66E1A0EF7220900F5500EBEF28E120045
:101A50007265706F72742025642025640000F2CFD7
:101A60000EF0F29EF76A780FF66E1A0EF722090052
:101A7000F5500EBEF28E12007072657373202564ED
:101A80002025642025640D00F2CF0EF0F29EF76A47
:101A9000A20FF66E1A0EF7220900F5500EBEF28E56
:101AA000120061646320256420256600F2CF0EF0E9
:101AB000F29EF76AC60FF66E1A0EF7220900F5506D
:101AC0000EBEF28E1200696E70757420256420259A
:101AD00064006D9269946894B9EF13F06A6A689231
:101AE000C2EF13F0336A326A250E316E800E306E0B
:101AF000346A356A080E366E866B8193386A376AA7
:101B0000826B83918181000C0201786B785101080E
:101B10000AE3036A78512E0FE96E000E0320EA6E85
:101B2000EF6A782BF3D70001DDDF206A010E216E0A
:101B30001F6A000C010E0201816F81510F080EE334
:101B4000700E8125016E0F0E036ED8B0032A01C0FE
:101B5000E9FF03C0EAFFEF6A812BEFD7246A236A0B
:101B60000001000C400E0401016F050E036F026BB3
:101B7000880E006F046B050E076F400E066F0001A4
:101B8000000C6A6A686A9F0E6B6E390E696E6E6A27
:101B9000BBDFD0DF160E706E68A602D06896FCD749
:101BA0006D98E0DF030E266EC8EF13F06984689825
:101BB0006D82CEEF13F0689CD4EF13F070A002D0CA
:101BC000D1DF7090689ADAEF13F07CC227F0000C36
:101BD000FF0E276E000C02017A6B2D523DE07A5108
:101BE0003F083AE32250000105E0020A0FE0010A33
:101BF00019E024D0036A2C50F2CF7CF2F29EA8DECA
:101C000002017CBFF28E7B6F000118D0036A2C505A
:101C1000F2CF7CF2F29EE0DE02017CBFF28E7B6F9F
:101C200000010CD0036A2C50F2CF7CF2F29EC3DE8E
:101C300002017CBFF28E7B6F000100D02C2A2D06A2
:101C400002017A517A2B036A400FE96E050E0320D8
:101C5000EA6E7BC2EFFFC1D72D5204E17A514008F2
:101C600001E01F6A7AC27CF20001AFDF000C2C6A2F
:101C7000226A05010351010A000105E0030A08E098
:101C8000010A09E021D0120E2D6E030E226E1ED025
:101C9000430E2D6E1BD0020E226E036A0501025107
:101CA000280FE96E000E0320EA6EEFCF2CF0036AD6
:101CB0002C50F2CF79F2F29E00018EDE020179BF44
:101CC000F28E2D6E000102D083DF0CD00501075388
:101CD00005E12D50065D02E206C52DF0010E1F6ED6
:101CE000000179DFA5EF0FF00201795306E1040E40
:101CF000266E00011FDFCED00201050E266E7C6F1E
:101D0000800E7B6F010E7A6F7A510F08D8A0C2D077
:101D10007D6B036A7A51F2CF81F2F29E0001CFDD32
:101D2000020181BFF28E000A55E0040E7D6FD8904B
:101D30007A35036AF2CF81F2F29E0001E8DD0900F4
:101D4000F5CF03F0020181BFF28E7E6F03C07FF2F8
:101D50007A51080DF350010F016E040E036ED8B0D6
:101D6000032A01C0E9FF03C0EAFF7EC2EFFF7A51F8
:101D7000080DF350020F016E040E036ED8B0032A53
:101D800001C0E9FF03C0EAFF7CC2ECFFED527BC259
:101D9000EFFFD8907A35036AF2CF81F2F29E00010C
:101DA000B6DD0900F5CF03F0020181BFF28E7B277B
:101DB00003507C23880E806F7FB180817FB3808346
:101DC0007A51080DF3CF01F0040E01C0E9FFEA6E6D
:101DD00080C2EFFF036A7A51F2CF81F2F29E0001D6
:101DE0005EDD020181BFF28E000A33E07D837A510D
:101DF000080DF350060F016E040E036ED8B0032ACF
:101E000001C0E9FF03C0EAFF7CC2ECFFED527BC2D8
:101E1000EFFFD8907A35036AF2CF81F2F29E00018B
:101E20005EDD0900F5CF03F0020181BFF28E7B2752
:101E300003507C237A51080DF350040F016E040EF9
:101E4000036ED8B0032A01C0E9FF03C0EAFF400EC9
:101E5000EF6E7D51060802E10E0E7D6F036A7A5126
:101E6000F2CF81F2F29E00011ADD020181BFF28EF3
:101E7000020801E07D89700E7A25016E0F0E036E57
:101E8000D8B0032A01C0E9FF03C0EAFF7DC2EFFF1B
:101E90007A2B3AD700019DEF0FF0050101510001A7
:101EA0000DE0010A15E0020A20E0060A2AE0030A12
:101EB00031E00E0A30E0010A36E045D021C040F59D
:101EC0000501416B020E02017C6F00017EDE3DD0F8
:101ED0000501022D07D0010E211602017C6B0001C5
:101EE00074DE02D0000174DE30D00501022D06D070
:101EF000218202017C6B000168DE02D0000168DEF5
:101F000024D0020E1F6E02C52BF002017C6B000173
:101F10005CDE1BD0ACD620C040F5010E02017C6F08
:101F2000000153DE12D00501025101080AE302C587
:101F300020F002C579F20001D7D602017C6B0001C6
:101F400044DE000102D044DE00D03DEF11F020C09D
:101F500079F205010151000105E00A0A0CE0010ACD
:101F600031E045D00501406B416B020E02017C6FF0
:101F700000012BDE3ED00201795321E0010E795D94
:101F8000036AF2CF7AF2F29E00010CDD02017ABF01
:101F9000F28E016E0501045DD8A002D002010FD0BF
:101FA000036A04512E0FE96E000E0320EA6EEFCF94
:101FB00040F5010E02017C6F000107DE02D0000136
:101FC00007DE17D0020179530FE0036A05010451BF
:101FD0002E0FE96E000E0320EA6E02C5EFFF02012C
:101FE0007C6B0001F2DD02D00001F2DD02D0F0DDF9
:101FF00000D03DEF11F002017A9179BF7A81799F8B
:102000007AA112D0036A7951F2CF7BF2F29E0001DD
:1020100046DC02017BBFF28E000A02E1000E01D015
:10202000010E016E12D011D0036A7951F2CF7BF20A
:10203000F29E000144DC02017BBFF28E000A02E145
:10204000000E01D0010E016E00D000019EEF10F0D5
:1020500002017A9179BF7A81799F7AA110D0795162
:10206000080DF350040F016E040E036ED8B0032A5E
:1020700001C0E9FF03C0EAFF880EEF6E09D0795175
:10208000080DF3CF01F0040E01C0E9FFEA6EEF6A1C
:102090000001ADEF10F002017A9179BF7A81799F4A
:1020A0007AA110D07951080DF350040F016E040E7F
:1020B000036ED8B0032A01C0E9FF03C0EAFF840E13
:1020C000EF6E0AD07951080DF3CF01F0040E01C074
:1020D000E9FFEA6E840EEF6E0001B5EF10F0020129
:1020E0007A9179BF7A81799F7AA110D07951080DC0
:1020F000F350040F016E040E036ED8B0032A01C022
:10210000E9FF03C0EAFFEFCF7BF20AD07951080D57
:10211000F3CF01F0040E01C0E9FFEA6EEFCF7BF2CE
:102120007BAF02D07BB502D0000E01D0010E016E54
:102130000001C1EF10F004C579F25DD701522EE025
:1021400005010151010A000105E0020A0BE0030A42
:1021500011E022D004C579F27BD702017C6B00012B
:1021600034DD1CD004C579F296D702017C6B0001E6
:102170002CDD14D00501406B416B04C579F20001E0
:10218000AED7015203E0010E0501406F020E0201BD
:102190007C6F00011ADD02D01BDD00D03DEF11F095
:1021A000FE0E276E000C0501042D01D002D0045351
:1021B0004EE1015100010BE0010A0DE0210A1CE093
:1021C000010A1FE0030A30E0010A35E03DD0010EAC
:1021D000876FE6DF3BD0050EEA6E400EE96EE26ADD
:1021E000390EE16E080E016EE6CFEEFF012EFCD730
:1021F00006C57CF2EADC2AD0020E876F8183D0DF2D
:1022000025D0050EEA6E400EE96EE26A300EE16EF0
:10221000070E016EE6CFEEFF012EFCD7070E02017E
:102220007C6F0001D2DC12D002C586F002017C6B0B
:102230000001CBDC0BD002C538F003C537F002013A
:102240007C6B0001C2DC02D0C3DC00D005010001C0
:102250003DEF11F01F6A050100517F0B000107E0FF
:10226000010A06E0030A05E0230A04E004D015D6BB
:102270006ED661D798D7ACDC00D047EF13F00201DF
:102280007951080DF3CF01F0040E01C0E9FFEA6EA9
:10229000EFCF7BF27A51020806E17BAD02D07A6B78
:1022A00002D0010E7A6F7A51030812E1840E7B6F1F
:1022B0007951080DF350040F016E040E036ED8B06F
:1022C000032A01C0E9FF03C0EAFF840EEF6E09D0C4
:1022D0007A2D03D0C80E7B6F04D07A5302E1880EAA
:1022E0007B6F036A010E026E7951006E05E0D89093
:1022F00002360336002EFBD70250FF0A006EFF0E97
:10230000031A0050231603502416D8907935036A17
:10231000F2CF7EF2F29E000187EC0CF00900F5CFBF
:1023200003F002017EBFF28E7C6F03C07DF2795113
:10233000080DF350010F016E040E036ED8B0032A8E
:1023400001C0E9FF03C0EAFF7CC2EFFF7DB17B81E2
:102350007DB37B837951080DF3CF01F0040E01C0EA
:10236000E9FFEA6E7BC2EFFF0001000C020185511C
:10237000080DF350040F016E040E036ED8B0032A4B
:1023800001C0E9FF03C0EAFFEFCF89F289BF5BD04C
:102390008551080DF350050F016E040E036ED8B081
:1023A000032A01C0E9FF03C0EAFF86C2EFFF88519C
:1023B000020816E18551080DF350040F016E040E5A
:1023C000036ED8B0032A01C0E9FF03C0EAFFEFCFD4
:1023D00089F289AD02D0886B02D0010E886F13D0CC
:1023E0008851040810E18551080DF3CF01F0040E67
:1023F00001C0E9FFEA6EEFCF89F289AD03D0010E8B
:10240000886F01D0886B882D03D0C80E896F04D0E7
:10241000885302E1880E896F87B1898187B38983E8
:102420008551080DF350040F016E040E036ED8B0F1
:10243000032A01C0E9FF03C0EAFF89C2EFFF010ED2
:10244000016E03D000D0000E016E0001000C875118
:10245000010A03E0030A14E026D0EA6A390EE96EA5
:10246000050EE26EE16A080E016EE6CFEEFF012E68
:10247000FCD702017C6B0001E5EC0DF0876B17D0F7
:10248000EA6A300EE96E050EE26EE16A070E016E31
:10249000E6CFEEFF012EFCD7876B02017C6B0001BB
:1024A000E5EC0DF004D0876BB2EC0DF000D07FEFBF
:1024B00012F002017A51080DF350010F016E040E63
:1024C000036ED8B0032A01C0E9FF03C0EAFF036A24
:1024D000EFCF01F003C002F0000176EF12F083812C
:1024E000856B020E02017A6F0001E3D701C084F010
:1024F00086EF12F00201795304E10001A8D717D04A
:1025000002017951020804E10001E9D710D002016B
:10251000036A010E026E7951006E05E0D890023612
:102520000336002EFBD70250231203502412000161
:10253000000C7AC26EFF02017A5303E0040E266E8D
:1025400002D0020E266E0001ABEF12F0206A1F6A65
:102550002BC07AF2EED72CEF13F002017A51080D5E
:10256000F350040F016E040E036ED8B0032A01C0AD
:10257000E9FF03C0EAFFEFCF82F282BF41D07A5178
:10258000080DF350060F016E040E036ED8B0032A37
:1025900001C0E9FF03C0EAFFECCF03F0ED52EFCF3B
:1025A00083F203C084F2816B806B81517E5D1AE3FC
:1025B00003E17D51805D16E27BC2E9FF7CC2EAFF48
:1025C000EFCF87F284C2EAFF83C2E9FF87C2EFFF41
:1025D000832BD8B4842B7B2BD8B47C2B802BD8B402
:1025E000812BE3D77AC285F27EC287F27DC286F262
:1025F0007FC288F20001BADE015004D000D002018F
:10260000000E016E0001000C82530FE08191020E5A
:1026100002017A6F7C6B410E7B6F7E6B82C07DF214
:10262000020E7F6F000199DF826B000C825302E083
:10263000EBDF01D0818133EF13F0020179530EE11A
:102640001F2C05D00001EBEC0DF006D002011F504D
:10265000020803E100017AD7020106D0795102088D
:1026600003E10001E3D702010001000C6C3002011C
:10267000786F783378331F0E78176C5246E1040177
:1026800000513C0B340821E1046B0001E3D5273CE9
:1026900007D00201796B030E7A6F0001F0DD12D0D2
:1026A0000201796B020E7A6F0001E9DD2750FE0806
:1026B00009E00201856B876B27C086F2040E886FE4
:1026C000000154DE6D981ED0040100513C0B04083B
:1026D0001AE10201796B00010DDF0201796B020E34
:1026E0007A6F0001CCDD2750FE080CE0273C01D0BA
:1026F00009D00201856B876B27C086F2010E886FB7
:10270000000134DE040127D002016C50040816E1F8
:10271000FF0E276E796B000190DF273C01D00AD0B5
:102720000201856B876B27C086F2020E886F00015D
:102730001DDE02D0B2EC0DF00DD002016CB406D05B
:1027400078C279F20001D6DE05D0020178C279F2B2
:10275000000173DF04010001DFEF13F0265201E1F5
:102760002FD068522DE068A404D069A402D069EF8C
:102770000DF06DA201D024D068A204D069A202D0CD
:102780006EEF0DF068A004D069A002D0C1EF0DF08B
:1027900068A804D069A802D0D6EF0DF068AC04D0C8
:1027A00069AC02D0DBEF0DF068AA04D069AA02D0B0
:1027B000DEEF0DF068A604D069A602D057D7689660
:1027C000A19A2CEF0CF002013B6B39513B5D18E2F2
:1027D000036A3B513725E96E38510320EA6E3B51BD
:1027E0003A253E6FF2CF3FF2F29E3EC2A9FFA69C71
:1027F000A69EA680A8503FBFF28EEF6E3B2BE5D77A
:102800000001F9EF29F00201596B5751595D24E29B
:10281000595158255A6F036A59515525E96E565139
:102820000320EA6EEFCF5BF25AC2A9FF5BC2A8FF9A
:10283000A69CA69EA684F2CF00F0F29E0F01550E34
:10284000A76EAA0EA76EA682A6B2FED7A6940050C7
:10285000F2120201592BD9D70001000C0F0E020110
:10286000366F020E566F360E556F010E576F586B4E
:102870000001C9DFFFEF29F0886B8851070842E3A8
:10288000D8908835036AFE0FE96E000E0320EA6EC9
:10289000EC6AED52EF6AD8908835036A0E0FE96E44
:1028A000010E0320EA6EEC6AED52EF6AD89088358B
:1028B000036A1E0FE96E010E0320EA6EEC6AED5208
:1028C000EF6A896B89510F081BE38851200DF35083
:1028D0000201386B376FD89000018935036A020115
:1028E0003725016E3851032201502E0FE96E010E7B
:1028F0000320EA6EEC6AED52EF6A0001892BE2D701
:10290000882BBBD702EF2AF00201316B326B336B9D
:102910000001886B885101080AE3036A8851340F6B
:10292000E96E020E0320EA6EEF6A882BF3D71BEFE5
:102930002AF0020158531CE18A9A939AC950C96A35
:10294000C730FEE3C950C96AC730FEE3C95059C257
:10295000C9FFC730FEE3C9505AC2C9FFC730FEE302
:102960008A8A939A130E006E002EFED700D01DD0D7
:10297000582D1BD08A9A939AC95059C2C9FFC730A3
:10298000FEE3C9505AC2C9FFC730FEE3C950C96A45
:10299000C730FEE3C950C96AC730FEE38A8A939AFA
:1029A000130E006E002EFED700D00001000C020EA8
:1029B000EA6E370EE96EEF500EE00F0E016E006A00
:1029C000002EFED7012EFBD78F0E006E002EFED7F5
:1029D0000000EF2EF2D773EF15F00201586B0B0ECB
:1029E000596F070E5A6F0001A4DF010E0201586FE4
:1029F0000B0E596F070E5A6F00019BDF0201586BD7
:102A00000A0E596F36C25AF2000193DF010E02011D
:102A1000586F0A0E596F36C25AF200018ADF010E52
:102A2000886F8851080813E30201586B88C059F277
:102A300088C05AF200017DDF010E0201586F88C084
:102A400059F288C05AF2000174DF882BEAD70201DC
:102A5000586B0C0E596F010E5A6F00016ADF010EA0
:102A60000201586F0C0E596F010E5A6F000161DFA1
:102A70000201586B0F0E596F5A6B00015ADF010E9D
:102A80000201586F0F0E596F5A6B000152DF886BAD
:102A900088513F082AE3400ED8808855006E0030E8
:102AA0000201376F37333F0E3717586B0A0E596FD5
:102AB00037C25AF200013DDF400ED8808855006EC3
:102AC00000300201376F37333F0E3717010E586F52
:102AD0000A0E596F37C25AF200012BDF080E0201AD
:102AE000376F000164D7882BD3D70201586B0A0EC9
:102AF000596F36C25AF200011CDF010E0201586FF5
:102B00000A0E596F36C25AF2000113DF010E886FA8
:102B10008851080811E30201586B88C059F25A6BBA
:102B2000000107DF010E0201586F88C059F25A6B8D
:102B30000001FFDE882BECD71DEF2AF06D6A696A71
:102B4000080E6F6E945030090201946E266A186A5E
:102B5000F2BE188EF29E000184EC0DF018BEF28ECB
:102B6000246A236AD7EF15F0186AF2BE188EF29E17
:102B700084EC0DF018BEF28E6D6A140E6F6E696AE9
:102B80006D86010E266EC8EF15F06DB601D0ECD73C
:102B9000262C0BD06DBA09D0686A696AA08AC00E6B
:102BA000F212110E696E020E266E000CC7D7EDDF11
:102BB00026500208FCE121EF2AF083B101D0FDD7B5
:102BC0008551852B036A880FE96E050E0320EA6E96
:102BD000EFCF5AF2020100018451855D0EE383912B
:102BE000186AF2BE188EF29E020E0201796F7A6F99
:102BF00000013FEC11F018BEF28E02015AC201F042
:102C0000000108EF16F002015707586B0001D5D7F5
:102C100001C059F202015951080804E1585301E07A
:102C2000580713D059511F0810E259517E080DE37F
:102C30005751585D0AE25851582B036A5525E96EE1
:102C400056510320EA6E59C2EFFF59510D08DEE1DB
:102C5000036A58515525E96E56510320EA6EEF6A12
:102C6000000114EF1EF05EC262F25DC261F262C248
:102C700003F0020161C2E9FF62C2EAFFEF5230E0F5
:102C800060C264F25FC263F264C203F063C2E9FF30
:102C900064C2EAFFEF520AE15D51615D006E5E5170
:102CA0006259036E00C001F023D010D061C2E9FF69
:102CB00062C2EAFFEFCF65F264C203F063C2E9FFCC
:102CC00064C2EAFFEF50655D01E104D0632BD8B424
:102CD000642BDAD7612BD8B4622B0001C8D702016C
:102CE0005D51615D006E5E516259036E00C001F07E
:102CF0000001D0EF16F05EC262F25DC261F262C204
:102D000003F0020161C2E9FF62C2EAFFEF522AE06A
:102D100060C264F25FC263F264C203F063C2E9FF9F
:102D200064C2EAFFEF5218E061C2E9FF62C2EAFF43
:102D3000EFCF65F264C203F063C2E9FF64C2EAFF49
:102D4000EF50655D05E161C201F062C202F00DD095
:102D5000632BD8B4642BE0D7612BD8B4622B00016D
:102D6000CED70201000E016E026E0001F1EF16F0E7
:102D700002015551561104E056C203F0555103D0DB
:102D80001AC003F01950596F03C05AF25AC25EF2CA
:102D900059C25DF258C260F257C25FF2000163D7B8
:102DA000015002015927000E5A235AC203F059C29A
:102DB000E9FF5AC2EAFFEF520AE119C0E9FF1AC05F
:102DC000EAFF200EEF6E000E016E026E27D05AC28F
:102DD0005EF259C25DF258C260F257C25FF2000162
:102DE0008AD702C05CF201C05BF25CC203F0020150
:102DF0005BC2E9FF5CC2EAFFEF5208E05BC2E9FF99
:102E00005CC2EAFFEF6A5B2BD8B45C2B5CC21AF0A1
:102E10005BC219F059C201F05AC202F00001000C65
:102E2000020155C2E9FF56C2EAFFEFCF59F258C27C
:102E300003F057C2E9FF58C2EAFFEF50595D15E1B0
:102E400056C203F055C2E9FF03C0EAFFEF5203E1A7
:102E5000000E016E1FD056C203F05551552BD8B449
:102E6000562B572BD8B4582BDCD756C203F055C27B
:102E7000E9FF56C2EAFFEFCF59F258C203F057C23A
:102E8000E9FF58C2EAFFEF50595D02E2FF0E01D0A0
:102E9000010E016E0001000C006A016A02015C5122
:102EA000D8905DB10026003201325DB300260032B9
:102EB00001325DB50026003201325DB700260032D6
:102EC00001325DB90026003201325DBB00260032BE
:102ED00001325DBD0026003201325DBF00260032A6
:102EE00001320001E2EF17F002015A6B586B0A0E33
:102EF000596F576B5551561103E1000E016EC3D047
:102F00005A515A2B036A5525E96E56510320EA6E31
:102F1000EFCF5BF25B512D080DE1010E586F5A5156
:102F20005A2B036A5525E96E56510320EA6EEFCFFE
:102F30005BF20DD05B512B080AE15A515A2B036A00
:102F40005525E96E56510320EA6EEFCF5BF25B51D7
:102F50002F08D8B090D05B513908D8A08CD05B51E5
:102F6000300821E1036A5A515525E96E5651032074
:102F7000EA6EEF5078080AE0036A5A515525E96E67
:102F800056510320EA6EEF5058080DE1100E596FAC
:102F90005A2B5A515A2B036A5525E96E5651032074
:102FA000EA6EEFCF5BF259510A081DE15B512F0821
:102FB00019E25B51390816E30A0E5C6F57C25DF2E5
:102FC00000016AD7300E02015B5D0124576F5A5130
:102FD0005A2B036A5525E96E56510320EA6EEFCF4E
:102FE0005BF2E4D748D05951100845E15B516008C5
:102FF00006E25B517A0803E35B51DF0B01D05B51C2
:103000005B6F5B512F0803E25B51390806E25B51AD
:10301000400831E25B5146082EE35B512F080CE279
:103020005B51390809E357395C6FF00E5C17300EBD
:103030005B5D5C25576F09D057395C6FF00E5C17EC
:10304000410E5B5D0A0F5C25576F5A515A2B036A7C
:103050005525E96E56510320EA6EEFCF5BF25B51C6
:10306000600806E25B517A0803E35B51DF0B01D095
:103070005B515B6FC6D7582D04D059510A0801E146
:10308000576D57C201F00001000C02015D515F0352
:10309000F3CF01F0F4CF00F06003F35000265E514F
:1030A0005F03F3500020026E0001CAEF18F0020126
:1030B0005B6B596B0A0E5A6F586B576B5551561113
:1030C00004E1000E016E026EE8D05B515B2B036AD7
:1030D0005525E96E56510320EA6EEFCF5CF25C5144
:1030E0002D080DE1010E596F5B515B2B036A5525CD
:1030F000E96E56510320EA6EEFCF5CF20DD05C51C1
:103100002B080AE15B515B2B036A5525E96E56518A
:103110000320EA6EEFCF5CF25C512F08D8B0AFD03D
:103120005C513908D8A0ABD05C51300821E1036A6A
:103130005B515525E96E56510320EA6EEF50780831
:103140000AE0036A5B515525E96E56510320EA6E89
:10315000EF5058080DE1100E5A6F5B2B5B515B2B43
:10316000036A5525E96E56510320EA6EEFCF5CF2F3
:103170005A510A0823E15C512F081FE25C513908BB
:103180001CE35E6B0A0E5D6F58C260F257C25FF2BD
:1031900000017BD7300E02015C5D0124576F000EE9
:1031A0000220586F5B515B2B036A5525E96E56511F
:1031B0000320EA6EEFCF5CF2DED761D05A511008DF
:1031C0005EE15C51600806E25C517A0803E35C5101
:1031D000DF0B01D05C515C6F5C512F0803E25C5146
:1031E000390806E25C5140084AE25C51460847E370
:1031F0005C512F0819E25C51390816E357355D6FB1
:1032000058355E6F5D375E375D375E375D375E37E9
:10321000F00E5D17300E5C5D5D25016E000E5E21C7
:1032200001C057F2586F16D057355D6F58355E6F35
:103230005D375E375D375E375D375E37F00E5D17A1
:10324000410E5C5D0A0F5D25016E000E5E2101C01E
:1032500057F2586F5B515B2B036A5525E96E565147
:103260000320EA6EEF505C6F600806E25C517A085A
:1032700003E35C51DF0B01D05C515C6FADD75A5159
:103280000A0807E1592D05D0571F581F572BD8B4EE
:10329000582B57C201F058C202F000015BEF20F03A
:1032A00002015551060801E211D02E517F0B03E1B6
:1032B000000181870201010E006E5551016E04E08C
:1032C000D8900036012EFCD700502E1300017EEF5F
:1032D00021F002015551060801E212D0010E006EE4
:1032E0005551016E04E0D8900036012EFCD70050F5
:1032F000FF0A2E172E517F0B03E100018197020177
:1033000000017EEF21F002016451D8B471D0006E4B
:103310006851D8B46DD0002604E3810E002668E21F
:1033200004D07F0E005E64E363E065C26CF2695115
:103330006C1B658F698F67516B03F4CF6EF266511A
:103340006A03F4CF03F0F3CF6DF26B03F3506E27F3
:10335000F4506D23000E032267516A03F3506E2769
:10336000F4506D23000E026A0322022265516B03A2
:10337000F3506D27F4500322000E022265516A03B8
:10338000F3500326F4500222000E016A0122675115
:103390006903F3506D27F4500322000E022201222C
:1033A00066516903F3500326F4500222000E0122F5
:1033B00065516903F3500226F4500122002A01BE30
:1033C00005D06D370336023601360006000E6DAFAC
:1033D0000AD0032A02220122015005E1025003E132
:1033E000035001E1002A6CBF018E6CAF019E04D036
:1033F000006A016A026A036A0001000C8E0E006E08
:1034000069C201F068C202F0036A015209E102C018
:1034100001F0026A080E005E015202E1006A08D063
:10342000D89001BE04D0023601360006F9D7019EBD
:10343000000C02016851D8B4A5D0746F6C51D8B497
:10344000A1D0745F05E37F0E7427D8B09BD006D05F
:10345000810E745FD8A096D0D8B494D074C200F016
:10346000016A026A036A736B69C272F2728F6AC27E
:1034700071F26BC270F2190E746F6F51705F0DE2D2
:10348000010E715F0AE2725F08E2735F06E2732B5E
:10349000722B712B6F51702728D06E51715F12E221
:1034A000010E725F0FE2735F0DE2732B722B6E5190
:1034B00071276F51702719E3712B17E1722B15E1FA
:1034C000732B13D06D518009725F0EE2010E735F92
:1034D0000BE2732B6D51800972276E517127E9E35E
:1034E000722BE7E1732BE5D70380742F01D00BD04B
:1034F000D8907037713772377337D89003360236E9
:1035000001367537BAD775A106D0D890013202328C
:103510000332753302D0000635E075BF1ED0D89057
:1035200070377137723773376F51705F07E2010E72
:10353000715F04E2725F02E2735F1AE36E51715FC2
:1035400005E2010E725F02E2735F12E36D518009C2
:10355000725F03E2010E735F0BE3032A09E1022AA3
:1035600007E1012A05E1002A0DE0013202320332AF
:1035700069C274F26D51741B74AF02D0018E06D013
:10358000019E04D0006A016A026A036A0001000C0D
:10359000800ED8A202D002016D1B0201726B736B08
:1035A00069C271F26D51711B6851D8B4DFD0706F70
:1035B000006E6C51D8B4E3D0705FD8B483D03EE3D2
:1035C0006DC276F2768F6EC275F26FC274F2736B53
:1035D000D8907633753374337333702FF8D771AF57
:1035E00003D07281E0D0729170917289020EEA6EFE
:1035F0006B0EE96EEBD0729971BF0AD070A113D037
:103600007633753374337333002AD8B4C7D00BD0F4
:1036100076BF0CD0D890733774377537763700067D
:10362000D8B4BCD0F5D7728D6DD0729D69C271F2DD
:1036300069AF02D0768FABD0769FA9D06CC270F202
:103640006CC200F06851705F69C276F2768F6AC210
:1036500075F26BC274F2736BD89076337533743332
:103660007333702FF8D771AF03D072839CD07293ED
:103670007091728B020EEA6E6F0EE96EA7D0729B8C
:1036800071BF0AD070A113D076337533743373339E
:10369000002AD8B483D00BD076BF0CD0D890733723
:1036A0007437753776370006D8B478D0F5D7728F6F
:1036B00029D0729F6DC271F26DAF02D0768F67D044
:1036C000769F65D06DC276F2768F6EC275F26FC24C
:1036D00074F271AF04D0769F728565D07295736B6A
:1036E0007091020EEA6E6B0EE96E70D071BF1CD045
:1036F00069C271F270A106D07633753374337333B7
:10370000002A4CE073AF0BD0742B09E1752B07E155
:10371000762B05E1763375337433002A3FE072BDB2
:1037200084D772BFC6D71CD0800E761B76AF04D06C
:103730003AD06DC271F20AD069C271F2765306E1D5
:10374000755304E1745302E1006A21D076BF08D0BA
:10375000D8907337743775377637002EF7D71ED069
:1037600071AF02D0768F13D0769F11D06CC200F06B
:103770006DC276F26EC275F26FC274F208D068C282
:1037800000F069C276F26AC275F26BC274F276C258
:1037900001F075C202F074C203F034D0006A016A0D
:1037A000026A036A2FD0736B741F751F761F731F15
:1037B000732B05E1742B03E1752B01E1762B72B1BC
:1037C00012D772B354D772B589D7B3D7EF507427D5
:1037D00005E3752B03E1762BD8B47081ED52EF50E1
:1037E000752703E3762BD8B47081ED52EF50EFBE0E
:1037F00001D0800A7627D8B0708172B9FCD672BB2E
:103800003ED774D70001000C7F0E0201596F5A6B2E
:103810005B6B5C6B5D6B5E6B5F6B606B618161931F
:103820006195636B5551561105E1006A016A026AA0
:10383000036A0FD16351632B036A5525E96E565114
:103840000320EA6EEFCF62F26253D8B4C5D061A113
:103850000FD0625120080CE0619162512B0803E106
:103860006193ADD005D062512D0802E16183A7D0EC
:1038700061B107D062512E0804E161B502D06185C3
:103880009ED061B199D062512F08D8B095D06251C5
:103890003908D8A091D0300E625F61A553D05CC2C8
:1038A00067F25BC266F25AC265F259C264F26B6B90
:1038B0006A6B200E696F820E686F000124DD03C001
:1038C0005CF202C05BF201C05AF200C059F2020180
:1038D000696B62C268F2000191DD00C064F201C050
:1038E00065F202C066F203C067F203C06BF202C069
:1038F0006AF201C069F200C068F25CC26FF25BC29A
:103900006EF25AC26DF259C26CF293DDD89260C267
:103910006BF25FC26AF25EC269F25DC268F203C016
:103920006FF202C06EF201C06DF200C06CF230DEC8
:1039300003C060F202C05FF201C05EF200C05DF23F
:1039400039D00201676B666B200E656F820E646F63
:1039500060C26BF25FC26AF25EC269F25DC268F277
:103960000001D1DC00C064F201C065F202C066F261
:1039700003C067F20201696B62C268F200013EDDBA
:10398000D89267C26BF266C26AF265C269F264C21B
:1039900068F203C06FF202C06EF201C06DF200C0A7
:1039A0006CF2F6DD03C060F202C05FF201C05EF2AD
:1039B00000C05DF205D0020161B101D00DD000015F
:1039C00002016351632B036A5525E96E56510320AA
:1039D000EA6EEFCF62F238D761A319D0676B666BDE
:1039E000800E656F7F0E646F60C26BF25FC26AF219
:1039F0005EC269F25DC268F2000185DC03C060F25C
:103A000002C05FF201C05EF200C05DF202015751D8
:103A1000581117E063530CE0630757C2E9FF58C21F
:103A2000EAFF63515525EF6E000E5621EC6E09D06A
:103A300057C2E9FF58C2EAFF56C2ECFFED5255C229
:103A4000EFFF5DC200F05EC201F05FC202F060C233
:103A500003F00001CEEF21F08E0E006E02015551F1
:103A6000005E56C202F057C201F0028E005209E019
:103A7000D890025202E1015204E002320132002EDB
:103A8000F7D756AF05D0011E021E012AD8B4022A6C
:103A900000010AEF22F002015D91F2BE5D81F29E0B
:103AA000000182513F0802E23F0E826F8251822B59
:103AB000036A410FE96E000E0320EA6E5CC2EFFF5D
:103AC000F29E02015DB1F28E000181A108D0186A58
:103AD000F2BE188EF29E04EC13F018BEF28E82EF46
:103AE0001DF082513F080BE281A108D0186AF2BE96
:103AF000188EF29E04EC13F018BEF28EF2D75BC261
:103B00005CF2C9D7000C02015C51016A5B5D03E203
:103B10005BC200F00CD0006A080E5D6F5B370036A8
:103B20005C51005CD8B0006E01365D2FF7D7000104
:103B3000000C200E020156A9300E576F55C200F03E
:103B400055AF07D0001E002A00C055F22D0E576F4A
:103B5000568F015055C25BF2640E5C6F0001D3DFDB
:103B600000C055F2300E01240201586F55C25BF2BD
:103B70000A0E5C6F0001C7DF300E002402015A6F8D
:103B8000300E0124596F57C200F056A702D056AF2D
:103B9000569556B90BD056AF22D056B520D000C09E
:103BA00058F256B31CD000C059F219D0300E585DEF
:103BB00016E100C058F2200E576F56A704D0569554
:103BC000568356AF5693300E595D09E100C059F245
:103BD000200E586F56A7F7D7569356AF569156A555
:103BE00005D057C25BF200017CDF020156A305D06D
:103BF00058C25BF2000175DF020156A104D059C220
:103C00005BF200016EDF5AC25BF200016ADF000C5A
:103C100083A11AEF23F00201566BA50E556F140E07
:103C2000576F000103EF16F00201566BA50E556F9A
:103C3000586BB90E576F0001B8EC16F002C08CF04B
:103C400001C08BF08CC056F28BC055F20201586B4C
:103C5000BB0E576F000110EC17F00152D8A4D0D062
:103C60000201566B556B586BB90E576F0001B8ECDB
:103C700016F002C08CF001C08BF08CC056F28BC0E5
:103C800055F274EC17F001C08DF00201566B556BC4
:103C9000586BB90E576F0001B8EC16F002C08CF0EB
:103CA00001C08BF08CC056F28BC055F274EC17F04B
:103CB00001C08EF00201566B556B586BB90E576FF1
:103CC0000001B8EC16F002C08CF001C08BF08CC083
:103CD00056F28BC055F274EC17F001C08FF08D5185
:103CE00007080CE38EC037F2070ED8808D5502010D
:103CF000386F37C28DF038C28EF000018F5325E146
:103D0000D8908E35036A940FE96E000E0320EA6E98
:103D1000036A010E026E8D51006E05E0D8900236E6
:103D20000336002EFBD70250006A0006001AFF0E71
:103D3000031A0050EF14006E0350EC14036E005091
:103D4000ED52EF6E03C0ECFF1ED0D8908E35036AA3
:103D5000940FE96E000E0320EA6E036A010E026EF4
:103D60008D51006E05E0D89002360336002EFBD749
:103D70000250EF10006E0350EC10036E0050ED5235
:103D8000EF6E03C0ECFFD8908E35036A940FE96E96
:103D9000000E0320EA6EECCF56F2ED52EFCF55F253
:103DA000020155C239F2010E00018E250201556F44
:103DB000586B596F39C25AF2000199EC14F0D8903F
:103DC0008E35036A940FE96E000E0320EA6EECCF85
:103DD00056F2ED52EFCF55F20201556B56513A6F44
:103DE000010E00018E250201556F010E586F55C25C
:103DF00059F23AC25AF2000199EC14F01AEF23F08A
:103E00008CC056F28BC055F20201586BBF0E576F33
:103E1000000110EC17F00152D8A417D10201566B23
:103E2000556B586BB90E576F0001B8EC16F002C015
:103E30008CF001C08BF08CC056F28BC055F274EC44
:103E400017F001C03BF20201566B556B586BB90E6F
:103E5000576F0001B8EC16F002C08CF001C08BF077
:103E60008CC056F28BC055F274EC17F001C03CF2D6
:103E7000A42D4DD0886B8851070848E3D890883529
:103E8000036A940FE96E000E0320EA6EEC6AED52AD
:103E9000EF6AD8908835036A940FE96E000E03200C
:103EA000EA6EECCF56F2ED52EFCF55F2020155C259
:103EB0003FF2010E000188250201556F586B596FC2
:103EC0003FC25AF2000199EC14F0D8908835036A89
:103ED000940FE96E000E0320EA6EECCF56F2ED521D
:103EE000EFCF55F20201556B5651406F010E0001A4
:103EF00088250201556F010E586F55C259F240C214
:103F00005AF2000199EC14F0882BB5D7A46B886B9A
:103F100088510708D8A098D002013B51070807E351
:103F200088C03DF2070ED8803B553E6F04D03BC29F
:103F30003DF288C03EF2010E006E00018851016E14
:103F400004E0D8900036012EFCD7005002013C1549
:103F50001FE0D8903E35036A940FE96E000E0320EF
:103F6000EA6E036A010E026E3D51006E05E0D890C4
:103F700002360336002EFBD70250EF10006E0350BE
:103F8000EC10036E0050ED52EF6E03C0ECFF24D036
:103F9000D8903E35036A940FE96E000E0320EA6E56
:103FA000036A010E026E3D51006E05E0D8900236A4
:103FB0000336002EFBD70250006A0006001AFF0EDF
:103FC000031A0050EF14006E0350EC14036E0050FF
:103FD000ED52EF6E03C0ECFFD8903E35036A940FAC
:103FE000E96E000E0320EA6EECCF56F2ED52EFCFF1
:103FF00055F255C23FF2010E3E25556F586B596F71
:104000003FC25AF2000199EC14F0D89002013E35FB
:10401000036A940FE96E000E0320EA6EECCF56F2AD
:10402000ED52EFCF55F2556B5651406F010E3E25C4
:10403000556F010E586F55C259F240C25AF2000135
:1040400099EC14F0882B64D7F5D28CC056F28BC053
:1040500055F20201586BC70E576F000110EC17F0B4
:104060000152D8A407D10201566B556B586BB90E9B
:10407000576F0001B8EC16F002C08CF001C08BF055
:104080008CC056F28BC055F274EC17F001C041F2AF
:104090000201566B556B586BB90E576F0001B8ECA7
:1040A00016F002C08CF001C08BF08CC056F28BC0B1
:1040B00055F257EF18F002C043F201C042F2A42DAE
:1040C0004DD0886B8851070848E3D8908835036A3B
:1040D000940FE96E000E0320EA6EEC6AED52EF6A6F
:1040E000D8908835036A940FE96E000E0320EA6EBB
:1040F000ECCF56F2ED52EFCF55F2020155C248F225
:10410000010E000188250201556F586B596F48C296
:104110005AF2000199EC14F0D8908835036A940F94
:10412000E96E000E0320EA6EECCF56F2ED52EFCFAF
:1041300055F20201556B5651496F010E0001882559
:104140000201556F010E586F55C259F249C25AF219
:10415000000199EC14F0882BB5D7A46B020142C280
:1041600044F20001886B88510708D8A072D041C280
:1041700047F2070ED88088550201466F010E006E87
:1041800000018851016E04E0D8900036012EFCD762
:104190000050020144151FE0D8904635036A940F81
:1041A000E96E000E0320EA6E036A010E026E4751AB
:1041B000006E05E0D89002360336002EFBD7025081
:1041C000EF10006E0350EC10036E0050ED52EF6ED6
:1041D00003C0ECFF24D0D8904635036A940FE96EF3
:1041E000000E0320EA6E036A010E026E4751006E54
:1041F00005E0D89002360336002EFBD70250006A45
:104200000006001AFF0E031A0050EF14006E035050
:10421000EC14036E0050ED52EF6E03C0ECFF010E84
:104220004625556FD8904635036A940FE96E000E07
:104230000320EA6EECCF57F2ED52EFCF56F2586BF7
:1042400055C259F256C25AF2000199EC14F0882B6B
:104250008AD70201556B4351456F010E4125556FB9
:10426000010E586F55C259F245C25AF2000199EC3D
:1042700014F0E0D18CC056F28BC055F20201586B9D
:10428000CF0E576F000110EC17F0015238E1020118
:10429000566B556B586BB90E576F0001B8EC16F0A2
:1042A00002C08CF001C08BF08CC056F28BC055F26E
:1042B00074EC17F001C04AF20201566B556B586B53
:1042C000B90E576F0001B8EC16F002C08CF001C0B7
:1042D0008BF08CC056F28BC055F274EC17F001C015
:1042E0004BF202014B5305E04AC255F2000150EF78
:1042F00019F04AC255F2000169EF19F09BD18CC048
:1043000056F28BC055F20201586BDA0E576F00015E
:1043100010EC17F00152D8A492D00201566B556BE5
:10432000586BB90E576F0001B8EC16F002C08CF054
:1043300001C08BF08CC056F28BC055F274EC17F0B4
:1043400001C04CF20201566B556B586BB90E576F9A
:104350000001B8EC16F002C08CF001C08BF08CC0EC
:1043600056F28BC055F274EC17F001C04DF2020109
:10437000566B556B586BB90E576F0001B8EC16F0C1
:1043800002C08CF001C08BF08CC056F28BC055F28D
:104390000201586B576B000104EF1CF003C051F28F
:1043A00002C050F201C04FF200C04EF202014C2D8B
:1043B00006D0000E0409CA6E4DC2CBFF11D04C517D
:1043C000040806E1000E0509CA6E4DC2CBFF08D0F5
:1043D0004C51100805E1000E0609CA6E4DC2CBFF14
:1043E000676B666B656B890E646F51C26BF250C26E
:1043F0006AF24FC269F24EC268F2000183EC19F012
:1044000003C058F202C057F201C056F200C055F284
:104410002CEF1DF002C056F201C055F202015633D6
:10442000553356335533563355C2BEFF5633563186
:10443000300B006EBD50CF0B0010BD6EFCD08CC099
:1044400056F28BC055F20201586BDE0E576F000119
:1044500010EC17F0015234E10201566B556B586BAA
:10446000B90E576F0001B8EC16F002C08CF001C015
:104470008BF08CC056F28BC055F274EC17F001C073
:1044800036F20201586B0A0E596F36C25AF2000119
:1044900099EC14F0010E0201586F0A0E596F36C2E2
:1044A0005AF2000199EC14F0020E0201566F360E1A
:1044B000556F010E576F586B000103EC14F0BAD022
:1044C0008CC056F28BC055F20201586BE80E576F44
:1044D000000110EC17F0015229E10201566B556BF7
:1044E000586BB90E576F0001B8EC16F002C08CF093
:1044F00001C08BF08CC056F28BC055F274EC17F0F3
:1045000001C052F20201586B0F0E596F52C25AF29B
:10451000000199EC14F0010E0201586F0F0E596F53
:1045200052C25AF2000199EC14F084D08CC056F2B9
:104530008BC055F20201586BED0E576F000110EC65
:1045400017F0015229E10201566B556B586BB90EF9
:10455000576F0001B8EC16F002C08CF001C08BF070
:104560008CC056F28BC055F274EC17F001C053F2B8
:104570000201586B0C0E596F53C25AF2000199ECAC
:1045800014F0010E0201586F0C0E596F53C25AF20B
:10459000000199EC14F04ED08CC056F28BC055F24D
:1045A0000201586BF60E576F000110EC17F0015224
:1045B00041E10201566B556B586BB90E576F000104
:1045C000B8EC16F002C08CF001C08BF08CC056F233
:1045D0008BC055F274EC17F001C054F20201556B18
:1045E000555100011BEC0DF00201552B006E5B6F65
:1045F000000171EC1DF0070E0201555DF1E154C29E
:1046000055F21F0E566F000199EC1DF0200E0201AD
:104610005B6F000171EC1DF0010E0201556F1F0E62
:10462000566F000199EC1DF00D0E02015B6F000149
:1046300071EC1DF00201000128EF2AF08195D8905D
:1046400002013735036AFE0FE96E000E0320EA6EA1
:10465000ECCF3AF2ED52EFCF39F2D8903735036A0A
:104660000E0FE96E010E0320EA6EECCF03F0ED525F
:10467000EF50391B03503A1B036A010E026E38518A
:10468000006E05E0D89002360336002EFBD70250AC
:104690003915006E03503A15036E0050031046E0C2
:1046A000D8903735036AFE0FE96E000E0320EA6EDC
:1046B000ECCF3AF2ED52EFCF39F2D8903735036AAA
:1046C0001E0FE96E010E0320EA6EECCF03F0ED52EF
:1046D000EF50391B03503A1B036A010E026E38512A
:1046E000006E05E0D89002360336002EFBD702504C
:1046F0003915006E03503A15036E0050031016E092
:104700003751200DF3503A6B396FD8903835036A22
:104710003925016E3A51032201502E0FE96E010E28
:104720000320EA6EEC6AED52EF6A08D1D890373573
:10473000036AFE0FE96E000E0320EA6EECCF3AF238
:10474000ED52EFCF39F2D8903735036A0E0FE96E8C
:10475000010E0320EA6EECCF03F0ED52EF50391B4F
:1047600003503A1B036A010E026E3851006E05E0D9
:10477000D89002360336002EFBD70250391703506B
:104780003A173953D8A4DAD03A53D8A4D7D0D8900E
:104790003735036AFE0FE96E000E0320EA6EECCF98
:1047A0003AF2ED52EFCF39F2D8903735036A1E0F47
:1047B000E96E010E0320EA6EECCF03F0ED52EF50EC
:1047C000391B03503A1B036A010E026E3851006E0A
:1047D00005E0D89002360336002EFBD7025039157B
:1047E000006E03503A15036E00500310D8B4A6D0E3
:1047F0003751200DF3503A6B396FD8903835036A32
:104800003925016E3A51032201502E0FE96E010E37
:104810000320EA6EECCF3AF2ED52EFCF39F23A5381
:10482000D8A48CD039510708D8A088D03751200D92
:10483000F3503A6B396FD8903835036A3925016ED9
:104840003A51032201502E0FE96E010E0320EA6E49
:10485000010EEE2601E3EF2AED52ECCF3AF2ED52D3
:10486000EFCF39F23951080869E13A5367E1D8903E
:104870003735036AFE0FE96E000E0320EA6EECCFB7
:104880003AF2ED52EFCF39F2036A010E026E38515F
:10489000006E05E0D89002360336002EFBD702509A
:1048A0003915006E03503A15036E005003101FE0D7
:1048B000D8903735036A1E0FE96E010E0320EA6EA9
:1048C000036A010E026E3851006E05E0D890023680
:1048D0000336002EFBD70250EF10006E0350EC1091
:1048E000036E0050ED52EF6E03C0ECFF24D0D89061
:1048F0003735036A1E0FE96E010E0320EA6E036A64
:10490000010E026E3851006E05E0D8900236033673
:10491000002EFBD70250006A0006001AFF0E031A91
:104920000050EF14006E0350EC14036E0050ED5273
:10493000EF6E03C0ECFF000181850201000E000153
:1049400081B5010E016E32EF25F0FD5302E18A9E22
:10495000939EFDC088F0040EFD25885DD8B055D12A
:104960008A8C939C8A9C939C8A8E939ED89088353F
:10497000036A0E0F016E010E0322020103C038F21A
:10498000D89000018835036AFE0FE96E000E0320FF
:10499000EA6EECCF03F0ED52EFCF39F2020138C2EC
:1049A000EAFF01C0E9FF03C0ECFFED5239C2EFFF9F
:1049B0008B929492130E006E002EFED700D08B8245
:1049C00094920001896B89510F08D8A01CD1948C56
:1049D00082AC25D0D8908835036AFE0FE96E000EB0
:1049E0000320EA6E036A010E026E8951006E05E033
:1049F000D89002360336002EFBD70250006A00061C
:104A0000001AFF0E031A0050EF14006E0350EC144E
:104A1000036E0050ED52EF6E03C0ECFF1ED0D89035
:104A20008835036AFE0FE96E000E0320EA6E036A02
:104A3000010E026E8951006E05E0D89002360336F1
:104A4000002EFBD70250EF10006E0350EC10036EE7
:104A50000050ED52EF6E03C0ECFF88C037F289C002
:104A600038F2ECD50152D8B4C8D08951070866E3B2
:104A7000070ED88088550201376FD890000188351D
:104A8000036A1E0FE96E010E0320EA6EECCF39F2C5
:104A9000ED52EFCF38F2036A010E026E8951006EBB
:104AA00005E0D89002360336002EFBD702500201F3
:104AB0003815006E03503915036E0050031002E0E4
:104AC000010E01D0000E386F396B395100012FEC07
:104AD0000DF00201392B006E5B6F000171EC1DF0CF
:104AE000060E0201395DF1E137C255F21F0E566F15
:104AF000000199EC1DF0200E02015B6F000171ECCA
:104B00001DF089C055F21F0E0201566F000199EC8D
:104B10001DF0200E02015B6F000171EC1DF038C228
:104B200055F21F0E0201566F000199EC1DF00D0E9B
:104B300002015B6F000171EC1DF05FD0D8908835E9
:104B4000036A1E0FE96E010E0320EA6EECCF38F205
:104B5000ED52EFCF37F2036A010E026E8951006EFB
:104B600005E0D89002360336002EFBD70250020132
:104B70003715006E03503815036E0050031002E025
:104B8000010E01D0000E376F386B385100012FEC49
:104B90000DF00201382B006E5B6F000171EC1DF00F
:104BA000060E0201385DF1E189C055F21F0E566F05
:104BB000000199EC1DF0200E02015B6F000171EC09
:104BC0001DF088C055F21F0E0201566F000199ECCE
:104BD0001DF0200E02015B6F000171EC1DF037C269
:104BE00055F21F0E0201566F000199EC1DF00D0EDB
:104BF00002015B6F000171EC1DF08B8094908B9033
:104C00009490892BE0D6882BA6D6FD5303E1040EA1
:104C1000FD6F04D0FD51040801E1FD6B2AEF2AF07D
:104C20008195020131513219386F010E006E3751F2
:104C3000016E04E0D8900036012EFCD700503815E4
:104C400018E031513319386F010E006E3751016E83
:104C500004E0D8900036012EFCD70050381509E04A
:104C6000036A3751340FE96E020E0320EA6EEF6AD1
:104C70005AD031513219386F010E006E3751016E22
:104C800004E0D8900036012EFCD7005038154BE1D7
:104C900031513319386F010E006E3751016E04E047
:104CA000D8900036012EFCD7005038153CE0036A3E
:104CB0003751340FE96E020E0320EA6EEF501F08E1
:104CC00032E3036A3751340FE96E020E0320EA6EB5
:104CD000EF2AEF50200827E1010E006E3751016ED8
:104CE00004E0D8900036012EFCD7005031150CE0BE
:104CF000010E006E3751016E04E0D8900036012E8F
:104D0000FCD7005033130CD0010E006E3751016EEA
:104D100004E0D8900036012EFCD70050FF0A33176C
:104D2000000181850201000E000181B5010E016EB6
:104D3000CFEF26F031C232F2896B89510108D8A039
:104D40006ED0895305E193888A6B81B88A2B06D08F
:104D5000892D04D093808A6B81B08A2B8A530EE10F
:104D6000010E006E8951016E04E0D8900036012ECC
:104D7000FCD70050020131130ED00001010E006E6D
:104D80008951016E04E0D8900036012EFCD7005006
:104D9000FF0A0201311789C037F2000141D70152E1
:104DA0003CE0010E006E8951016E04E0D89000369F
:104DB000012EFCD700500201331502E0010E01D094
:104DC000000E376F386B3851000156EC0DF00201C0
:104DD000382B006E5B6F000171EC1DF0060E0201B6
:104DE000385DF1E189C055F21F0E566F000199EC54
:104DF0001DF0200E02015B6F000171EC1DF037C247
:104E000055F21F0E0201566F000199EC1DF00D0EB8
:104E100002015B6F000171EC1DF0892B8ED72BEF27
:104E20002AF002014451B608446F036A45C248F2B1
:104E3000458FD8904533463347330332023201322F
:104E40000032442FF6D748AF0BD0001E011E021EC1
:104E5000031E002AD8B4012AD8B4022AD8B4032ADF
:104E600000019FEF27F0006A016A026A036A0201EB
:104E70004C6B4D6B4E6B4F6B4B514A1149114811A6
:104E80002CE0200E506FD8904437453746374737CF
:104E90004C374D374E374F374B514F5D08E14A5134
:104EA0004E5D05E149514D5D02E148514C5D0FE316
:104EB00048514C5F4951D8A0493D4D5F4A51D8A057
:104EC0004A3D4E5F4B51D8A04B3D4F5FD8800036D6
:104ED000013602360336502FD6D7020EEA6E4C0E3C
:104EE000E96E0001000CE95002013C6F3B513E6F3E
:104EF0001CE03AC267F239C266F238C265F237C2C4
:104F000064F26B6B6A6B200E696F820E686F000132
:104F100083EC19F003C03AF202C039F201C038F252
:104F200000C037F202013E2FE4D73AC247F239C23D
:104F300046F238C245F237C244F2000172D703C0CC
:104F40003AF202C039F201C038F200C037F2020171
:104F50003AAF0DD03C073C8B371F381F391F3A1F23
:104F6000372BD8B4382BD8B4392BD8B43A2B3B0EC6
:104F7000436F9A0E426FCA0E416F406B0A0E3E6F2E
:104F80003B51D8B43C2B3AC247F239C246F238C240
:104F900045F237C244F243C24BF242C24AF241C226
:104FA00049F240C248F200015EDF0150EFCF37F214
:104FB000ECCF38F2ECCF39F2ECCF3AF2005213E1F9
:104FC00002013B293E5DD8A402D000010CD03C5127
:104FD0000DE00F0B3E5D01E044E23CBF42D03CBD22
:104FE00005D0200E37D0200E02013C173CAB0FD06D
:104FF0003C9B3B51D8A43C0700503C6F2D0E5B6F8F
:10500000000171EC1DF002013C51006E3C6B3B5104
:105010003E5D0DE100503C6F2E0E5B6F000171ECA8
:105020001DF002013C51006E200E3C17000E300EA8
:105030003CAB10D03C9B3B51D8A43C0700503C6F8C
:105040002D0E5B6F000171EC1DF002013C51006EF2
:105050003C6B300E002600C05BF2000171EC1DF0CD
:10506000020143C247F242C246F241C245F240C287
:1050700044F24B6B4A6B496B0A0E486F0001F3DE3A
:1050800003C043F202C042F201C041F200C040F24C
:1050900002013E2F78D7000115EF29F081A7D3D068
:1050A00002012F511808D8B0CDD0010E006E30513A
:1050B000016E04E0D8900036012EFCD700502E156A
:1050C000376F010E006E3051016E04E0D89000364B
:1050D000012EFCD70050375DD8A4AED00001936BF1
:1050E000926B916B906B886B885107083FE3036A62
:1050F00002013051F2CF37F2F29E00010AEC0DF0BE
:10510000020137BFF28E376F3735006E0036FC0E66
:105110000016C250C30B0010C26EC282C2B2FED7CC
:10512000C4CF03F0C3CF68F2C4CF69F20001FEEC34
:1051300019F0D89293C06BF292C06AF291C069F2F2
:1051400090C068F203C06FF202C06EF201C06DF24F
:1051500000C06CF2C8EC1AF003C093F002C092F0E9
:1051600001C091F000C090F0882BBED793C06BF2C5
:1051700092C06AF291C069F290C068F202016F6B4E
:105180006E6B6D6B820E6C6F000119EC1AF000C033
:1051900037F201C038F202C039F203C03AF203C05C
:1051A0006BF202C06AF201C069F200C068F202014B
:1051B0006F6B6E6B6D6B890E6C6F000119EC1AF0E2
:1051C00003C093F002C092F001C091F000C090F0D3
:1051D0000201376B3751000144EC0DF00201372B0F
:1051E000006E5B6F000171EC1DF0040E0201375D73
:1051F000F1E130C255F21F0E566F000199EC1DF01F
:10520000200E02015B6F000171EC1DF0890EE96E4A
:1052100093C03AF292C039F291C038F290C037F29E
:10522000020E02013B6F00015ED60D0E02015B6FA4
:10523000000171EC1DF00201302B3051060801E233
:10524000306B2F6B2F2B00012CEF2AF0F86AD09EC9
:10525000088EEA6AE96AC150C00B0F09C16E070ED9
:10526000B46E196A1A6A266A286A040E296E160E26
:105270002A6E2D6A826B876B010EA46F200EB96FA8
:10528000BA6B6C0EBB6F650EBC6F640EBD6FBE6BF0
:105290006C0EBF6F650EC06F640EC16F5F0EC26F84
:1052A000630EC36F6F0EC46F6C0EC56FC66BC76F96
:1052B000650EC86F640EC96F5F0ECA6F720ECB6F3A
:1052C0006F0ECC6F770ECD6FCE6B610ECF6F640E0D
:1052D000D06F630ED16F5F0ED26F650ED36F6E0EFF
:1052E000D46F610ED56F620ED66F6C0ED76F650EE0
:1052F000D86FD96B700EDA6F770EDB6F6D0EDC6FC7
:10530000DD6B690EDE6F6E0EDF6F740EE06F650E83
:10531000E16F6E0EE26F730EE36F690EE46F740E51
:10532000E56F790EE66FE76B740EE86F650EE96F57
:10533000730EEA6F740EEB6FEC6B730EED6F680E0D
:10534000EE6F750EEF6F740EF06F640EF16F6F0EEF
:10535000F26F770EF36F6E0EF46FF56B720EF66FE1
:10536000650EF76F700EF86F6F0EF96F720EFA6FB1
:10537000740EFB6FFC6BFD6B02012E6B00018197BD
:1053800002012F6B306BC150C00B0509C16EC0907C
:10539000C082C084C08EC280C69A949E938093922D
:1053A000210EC66E400EC76ED190800ED56ECD6AAE
:1053B000000E0409CA6EFF0ECB6EB16A070EB46E02
:1053C0009250926E270E006E002EFED700D0B45081
:1053D000A19CB56A94948B940C0EBD6EBE6A020EAD
:1053E000386F360E376F010E396F3A6B0001E3EFFD
:1053F00013F00201365303E100012EEF14F0000117
:105400003CEF14F08A8E939E886B8851070811E355
:10541000D8908835036A940FE96E000E0320EA6E77
:10542000EC6AED52EF6A8A8C939C8A9C939C882B41
:10543000ECD784EF14F0EDEF14F072EC0DF0D6EF32
:1054400015F081B301D0FDD7C5EC15F008EF1EF0C3
:0C545000A5EF24F06FD422D6F7D703009C
:020000040030CA
:0E000000240E390E000580000FC00FE00F40E7
:00000001FF
;PIC18F2550
;CRC=F86B  CREATED="14-12-09 14:06"
