:020000040000FA
:04180000C8EF1DF020
:08180800056ED8CF06F0E0CF19
:1018100007F00001E9CF0DF0EACF08F0E1CF09F0C1
:10182000E2CF0AF0D9CF0BF0DACF0CF0F3CF14F0FF
:10183000F4CF15F0FACF16F000C00FF001C010F091
:1018400002C011F003C012F004C013F0A0AA2CEFE4
:101850000CF0A1BA5DEF13F00FC000F010C001F062
:1018600011C002F012C003F013C004F00DC0E9FF74
:1018700008C0EAFF088E09C0E1FF0AC0E2FF0BC002
:10188000D9FF0CC0DAFF14C0F3FF15C0F4FF16C077
:10189000FAFF055007C0E0FF06C0D8FF1000F76A46
:1018A000AE0FF66E180EF7220900F5501200040371
:1018B0000100000000000000000000000000F76AC6
:1018C000CE0FF66E180EF7220900F5501200040034
:1018D0000100000000000000000000000000F76AA6
:1018E000EE0FF66E180EF7220900F55012004000B8
:1018F00008004000000000000000000000000000A0
:10190000000000000000000000000000000008AE21
:1019100003D0F2CF0EF0F29EF76A300FF66E190E7A
:10192000F7220900F55008AE02D00EBEF28E12006A
:101930004000000040000000000000000000000027
:101940000000000000000000000000000000000097
:10195000F76A600FF66E190EF7220900F5501200B3
:1019600009024300020100C0FA090400000102025A
:1019700001000524001001042402020524060001D0
:101980000524010001070581030800FA090401008C
:10199000020A000000070502024000FA0705820261
:1019A0004000FA00F76AB40FF66E190EF72209002C
:1019B000F55012000200F76AC60FF66E190EF722F4
:1019C0000900F55012001201100102000040D80475
:1019D000C5FF020001020001F76AE80FF66E190E5A
:1019E000F7220900F55012000403090412037400E1
:1019F0006B00720077006F0072006B0073001003C1
:101A00005000490043006E006F006D006500F2CF8A
:101A10000EF0F29EF76A280FF66E1A0EF7220900F2
:101A2000F5500EBEF28E12000001020304080900F8
:101A30006D926994689468EF13F06A6A689271EF26
:101A400013F0336A326A250E316E800E306E346ABE
:101A5000356A080E366E866B8193386A376A826BF8
:101A600083918181000C0101B06BB05101080AE340
:101A7000036AB0512E0FE96E000E0320EA6EEF6A82
:101A8000B02BF3D70001DDDF206A010E216E1F6A43
:101A9000000C010E0101B96FB9510F080EE3700E71
:101AA000B925016E0F0E036ED8B0032A01C0E9FFFD
:101AB00003C0EAFFEF6AB92BEFD7246A236A00015B
:101AC000000C400E0401016F050E036F026B880EBF
:101AD000006F046B050E076F400E066F0001000CCF
:101AE0006A6A686A9F0E6B6E390E696E6E6ABBDF3A
:101AF000D0DF160E706E68A602D06896FCD76D987F
:101B0000E0DF030E266E77EF13F0698468986D822C
:101B10007DEF13F0689C83EF13F070A002D0D1DF4B
:101B20007090689A89EF13F0B4C127F0000CFF0E93
:101B3000276E000C0101B26B2D523DE0B2513F08FF
:101B40003AE32250000105E0020A0FE0010A19E021
:101B500024D0036A2C50F2CFB4F1F29EF9DE0101D9
:101B6000B4BFF28EB36F000118D0036A2C50F2CFCD
:101B7000B4F1F29E31DF0101B4BFF28EB36F000108
:101B80000CD0036A2C50F2CFB4F1F29E14DF0101A5
:101B9000B4BFF28EB36F000100D02C2A2D060101D4
:101BA000B251B22B036A400FE96E050E0320EA6EB4
:101BB000B3C1EFFFC1D72D5204E1B251400801E09B
:101BC0001F6AB2C1B4F10001AFDF000C2C6A226AB7
:101BD00005010351010A000105E0030A08E0010ABA
:101BE00009E021D0120E2D6E030E226E1ED0430E80
:101BF0002D6E1BD0020E226E036A05010251280FC2
:101C0000E96E000E0320EA6EEFCF2CF0036A2C5031
:101C1000F2CFB1F1F29E0001DFDE0101B1BFF28E21
:101C20002D6E000102D083DF0CD00501075305E1C2
:101C30002D50065D02E206C52DF0010E1F6E00015B
:101C400079DF54EF0FF00101B15306E1040E266E67
:101C500000011FDFCED00101050E266EB46F800E8D
:101C6000B36F010EB26FB2510F08D8A0C2D0B56BDE
:101C7000036AB251F2CFB9F1F29E000120DE0101F8
:101C8000B9BFF28E000A55E0040EB56FD890B23598
:101C9000036AF2CFB9F1F29E000139DE0900F5CFF7
:101CA00003F00101B9BFF28EB66F03C0B7F1B251B4
:101CB000080DF350010F016E040E036ED8B0032A15
:101CC00001C0E9FF03C0EAFFB6C1EFFFB251080D42
:101CD000F350020F016E040E036ED8B0032A01C048
:101CE000E9FF03C0EAFFB4C1ECFFED52B3C1EFFF5F
:101CF000D890B235036AF2CFB9F1F29E000107DE47
:101D00000900F5CF03F00101B9BFF28EB3270350EC
:101D1000B423880EB86FB7B1B881B7B3B883B251E6
:101D2000080DF3CF01F0040E01C0E9FFEA6EB8C15F
:101D3000EFFF036AB251F2CFB9F1F29E0001AFDDBD
:101D40000101B9BFF28E000A33E0B583B251080D2C
:101D5000F350060F016E040E036ED8B0032A01C0C3
:101D6000E9FF03C0EAFFB4C1ECFFED52B3C1EFFFDE
:101D7000D890B235036AF2CFB9F1F29E0001AFDD1F
:101D80000900F5CF03F00101B9BFF28EB32703506C
:101D9000B423B251080DF350040F016E040E036E0C
:101DA000D8B0032A01C0E9FF03C0EAFF400EEF6E7E
:101DB000B551060802E10E0EB56F036AB251F2CFBB
:101DC000B9F1F29E00016BDD0101B9BFF28E02088C
:101DD00001E0B589700EB225016E0F0E036ED8B00A
:101DE000032A01C0E9FF03C0EAFFB5C1EFFFB22B30
:101DF0003AD700014CEF0FF00501015100010DE051
:101E0000010A15E0020A20E0060A2AE0030A31E08E
:101E10000E0A30E0010A36E045D021C040F5050148
:101E2000416B020E0101B46F00017EDE3DD0050161
:101E3000022D07D0010E21160101B46B000174DEE2
:101E400002D0000174DE30D00501022D06D02182BF
:101E50000101B46B000168DE02D0000168DE24D00D
:101E6000020E1F6E02C52BF00101B46B00015CDE97
:101E70001BD0ACD620C040F5010E0101B46F0001AB
:101E800053DE12D00501025101080AE302C520F019
:101E900002C5B1F10001D7D60101B46B000144DEE7
:101EA000000102D044DE00D0ECEF10F020C0B1F110
:101EB00005010151000105E00A0A0CE0010A31E0C8
:101EC00045D00501406B416B020E0101B46F00016A
:101ED0002BDE3ED00101B15321E0010EB15D036A5A
:101EE000F2CFB2F1F29E00015DDD0101B2BFF28ED0
:101EF000016E0501045DD8A002D001010FD0036A74
:101F000004512E0FE96E000E0320EA6EEFCF40F56C
:101F1000010E0101B46F000107DE02D0000107DEEF
:101F200017D00101B1530FE0036A050104512E0FD0
:101F3000E96E000E0320EA6E02C5EFFF0101B46BEB
:101F40000001F2DD02D00001F2DD02D0F0DD00D0B0
:101F5000ECEF10F00101B291B1BFB281B19FB2A11B
:101F600012D0036AB151F2CFB3F1F29E000197DCB7
:101F70000101B3BFF28E000A02E1000E01D0010E92
:101F8000016E12D011D0036AB151F2CFB3F1F29EBB
:101F9000000195DC0101B3BFF28E000A02E1000EE0
:101FA00001D0010E016E00D000014DEF10F00101D3
:101FB000B291B1BFB281B19FB2A110D0B151080DA1
:101FC000F350040F016E040E036ED8B0032A01C053
:101FD000E9FF03C0EAFF880EEF6E09D0B151080D8A
:101FE000F3CF01F0040E01C0E9FFEA6EEF6A0001D1
:101FF0005CEF10F00101B291B1BFB281B19FB2A10B
:1020000010D0B151080DF350040F016E040E036E91
:10201000D8B0032A01C0E9FF03C0EAFF840EEF6EC7
:102020000AD0B151080DF3CF01F0040E01C0E9FF51
:10203000EA6E840EEF6E000164EF10F00101B291C0
:10204000B1BFB281B19FB2A110D0B151080DF35010
:10205000040F016E040E036ED8B0032A01C0E9FF1D
:1020600003C0EAFFEFCFB3F10AD0B151080DF3CFAF
:1020700001F0040E01C0E9FFEA6EEFCFB3F1B3AF98
:1020800002D0B3B502D0000E01D0010E016E0001E6
:1020900070EF10F004C5B1F15DD701522EE00501DB
:1020A0000151010A000105E0020A0BE0030A11E0F8
:1020B00022D004C5B1F17BD70101B46B000134DD3E
:1020C0001CD004C5B1F196D70101B46B00012CDD21
:1020D00014D00501406B416B04C5B1F10001AED7CE
:1020E000015203E0010E0501406F020E0101B46FC1
:1020F00000011ADD02D01BDD00D0ECEF10F0FE0E67
:10210000276E000C0501042D01D002D004534EE1CE
:10211000015100010BE0010A0DE0210A1CE0010A57
:102120001FE0030A30E0010A35E03DD0010E876F61
:10213000E6DF3BD0050EEA6E400EE96EE26A390E2C
:10214000E16E080E016EE6CFEEFF012EFCD706C54C
:10215000B4F1EADC2AD0020E876F8183D0DF25D06C
:10216000050EEA6E400EE96EE26A300EE16E070E71
:10217000016EE6CFEEFF012EFCD7070E0101B46F12
:102180000001D2DC12D002C586F00101B46B00015F
:10219000CBDC0BD002C538F003C537F00101B46BBE
:1021A0000001C2DC02D0C3DC00D005010001ECEF6D
:1021B00010F01F6A050100517F0B000107E0010AC2
:1021C00006E0030A05E0230A04E004D015D66ED623
:1021D00061D798D7ACDC00D0F6EF12F00101B15115
:1021E000080DF3CF01F0040E01C0E9FFEA6EEFCF56
:1021F000B3F1B251020806E1B3AD02D0B26B02D026
:10220000010EB26FB251030812E1840EB36FB151E7
:10221000080DF350040F016E040E036ED8B0032AAC
:1022200001C0E9FF03C0EAFF840EEF6E09D0B22DB2
:1022300003D0C80EB36F04D0B25302E1880EB36F5F
:10224000036A010E026EB151006E05E0D8900236AD
:102250000336002EFBD70250FF0A006EFF0E031A52
:102260000050231603502416D890B135036AF2CFDC
:10227000B6F1F29E000187EC0CF00900F5CF03F0F7
:102280000101B6BFF28EB46F03C0B5F1B151080DB4
:10229000F350010F016E040E036ED8B0032A01C083
:1022A000E9FF03C0EAFFB4C1EFFFB5B1B381B5B335
:1022B000B383B151080DF3CF01F0040E01C0E9FF63
:1022C000EA6EB3C1EFFF0001000C0101BD51080D22
:1022D000F350040F016E040E036ED8B0032A01C040
:1022E000E9FF03C0EAFFEFCFC1F1C1BF5BD0BD5131
:1022F000080DF350050F016E040E036ED8B0032ACB
:1023000001C0E9FF03C0EAFFBEC1EFFFC0510208F0
:1023100016E1BD51080DF350040F016E040E036E5B
:10232000D8B0032A01C0E9FF03C0EAFFEFCFC1F133
:10233000C1AD02D0C06B02D0010EC06F13D0C0512E
:10234000040810E1BD51080DF3CF01F0040E01C0E7
:10235000E9FFEA6EEFCFC1F1C1AD03D0010EC06F4E
:1023600001D0C06BC02D03D0C80EC16F04D0C053C4
:1023700002E1880EC16FBFB1C181BFB3C183BD513E
:10238000080DF350040F016E040E036ED8B0032A3B
:1023900001C0E9FF03C0EAFFC1C1EFFF010E016EFA
:1023A00003D000D0000E016E0001000C8751010A1D
:1023B00003E0030A14E026D0EA6A390EE96E050E3E
:1023C000E26EE16A080E016EE6CFEEFF012EFCD749
:1023D0000101B46B000194EC0DF0876B17D0EA6A31
:1023E000300EE96E050EE26EE16A070E016EE6CF71
:1023F000EEFF012EFCD7876B0101B46B000194EC5A
:102400000DF004D0876B61EC0DF000D02EEF12F0D0
:102410000101B251080DF350010F016E040E036E5D
:10242000D8B0032A01C0E9FF03C0EAFF036AEFCF77
:1024300001F003C002F0000125EF12F08381856BEB
:10244000020E0101B26F0001E3D701C084F035EF45
:1024500012F00101B15304E10001A8D717D0010126
:10246000B151020804E10001E9D710D00101036A6B
:10247000010E026EB151006E05E0D89002360336AF
:10248000002EFBD702502312035024120001000C2F
:10249000B2C16EFF0101B25303E0040E266E02D0FA
:1024A000020E266E00015AEF12F0206A1F6A2BC03E
:1024B000B2F1EED7DBEF12F00101B251080DF3508B
:1024C000040F016E040E036ED8B0032A01C0E9FFA9
:1024D00003C0EAFFEFCFBAF1BABF41D0B251080D45
:1024E000F350060F016E040E036ED8B0032A01C02C
:1024F000E9FF03C0EAFFECCF03F0ED52EFCFBBF1F1
:1025000003C0BCF1B96BB86BB951B65D1AE303E116
:10251000B551B85D16E2B3C1E9FFB4C1EAFFEFCF30
:10252000BFF1BCC1EAFFBBC1E9FFBFC1EFFFBB2BDD
:10253000D8B4BC2BB32BD8B4B42BB82BD8B4B92B8C
:10254000E3D7B2C1BDF1B6C1BFF1B5C1BEF1B7C1EC
:10255000C0F10001BADE015004D000D00101000E2C
:10256000016E0001000C82530FE08191020E010107
:10257000B26FB46B410EB36FB66B82C0B5F1020E91
:10258000B76F000199DF826B000C825302E0EBDF32
:1025900001D08181E2EF12F00101B1530EE11F2C55
:1025A00005D000019AEC0DF006D001011F50020881
:1025B00003E100017AD7010106D0B151020803E11D
:1025C0000001E3D701010001000C6C300101B06F84
:1025D000B033B0331F0EB0176C5246E10401005106
:1025E0003C0B340821E1046B0001E3D5273C07D004
:1025F0000101B16B030EB26F0001F0DD12D00101D9
:10260000B16B020EB26F0001E9DD2750FE0809E050
:102610000101BD6BBF6B27C0BEF1040EC06F00018E
:1026200054DE6D981ED0040100513C0B04081AE1E1
:102630000101B16B00010DDF0101B16B020EB26F40
:102640000001CCDD2750FE080CE0273C01D009D06A
:102650000101BD6BBF6B27C0BEF1010EC06F000151
:1026600034DE040127D001016C50040816E1FF0E8E
:10267000276EB16B000190DF273C01D00AD0010129
:10268000BD6BBF6B27C0BEF1020EC06F00011DDE27
:1026900002D061EC0DF00DD001016CB406D0B0C1D8
:1026A000B1F10001D6DE05D00101B0C1B1F10001E8
:1026B00073DF040100018EEF13F0265201E12FD0E9
:1026C00068522DE068A404D069A402D018EF0DF080
:1026D0006DA201D024D068A204D069A202D01DEF5F
:1026E0000DF068A004D069A002D070EF0DF068A8CA
:1026F00004D069A802D085EF0DF068AC04D069ACB5
:1027000002D08AEF0DF068AA04D069AA02D08DEF3A
:102710000DF068A604D069A602D057D76896A19A92
:102720002CEF0CF00101976B9551975D18E2036A4D
:1027300097519325E96E94510320EA6E975196259F
:102740009A6FF2CF9BF1F29E9AC1A9FFA69CA69E1A
:10275000A680A8509BBFF28EEF6E972BE5D70001A5
:1027600058EF1EF001019F6B9D519F5D24E29F5128
:102770009E25A06F036A9F519B25E96E9C51032003
:10278000EA6EEFCFA1F1A0C1A9FFA1C1A8FFA69C4D
:10279000A69EA684F2CF00F0F29E0F01550EA76E02
:1027A000AA0EA76EA682A6B2FED7A6940050F21279
:1027B00001019F2BD9D70001000C0F0E0101926F70
:1027C000010E9C6F920E9B6F010E9D6F9E6B000120
:1027D000C9DF5EEF1EF0886B8851070836E3036A95
:1027E0008851AA0FE96E000E0320EA6EEF6A036AB1
:1027F0008851B20FE96E000E0320EA6EEF6A036A99
:102800008851BA0FE96E000E0320EA6EEF6A896BF9
:102810008951070818E38851080DF3500101946BA2
:10282000936F036A0001895101019325016E945150
:1028300003220150C20FE96E000E0320EA6EEF6A18
:102840000001892BE5D7882BC7D761EF1EF0010166
:102850008D6B8E6B8F6B0001886B885101080AE3CA
:10286000036A8851900FE96E010E0320EA6EEF6A49
:10287000882BF3D777EF1EF08A9A939AC9509DC19F
:10288000C9FFC730FEE3C9509EC1C9FFC730FEE390
:102890008A8A939A0000000C010EEA6E930EE96E8C
:1028A000EF500EE00F0E016E006A002EFED7012ED3
:1028B000FBD78F0E006E002EFED70000EF2EF2D752
:1028C000000C0B0E01019D6F070E9E6F0001D4DFFF
:1028D0000C0E01019D6F010E9E6F0001CDDF0F0EEA
:1028E00001019D6F9E6B0001C7DF0A0E01019D6F04
:1028F0000F0E9E6F0001C0DF010E01019D6F9E6BE8
:102900000001BADF020E01019D6F9E6B0001B4DF72
:10291000030E01019D6F9E6B0001AEDF040E0101ED
:102920009D6F180E9E6F0001A7DF050E01019D6FC0
:10293000180E9E6F0001A0DF060E01019D6F9E6BB9
:1029400000019ADF070E01019D6F9E6B000194DF6D
:10295000080E01019D6F9E6B00018EDF886B885110
:102960003F0817E3400ED8808855006E0030010103
:10297000936F93333F0E93170A0E9D6F93C19EF191
:1029800000017ADF040E0101936F000185DF882BBF
:10299000E6D70A0E01019D6F0F0E9E6F00016CDFDE
:1029A000010E01019D6F9E6B000166DF020E0101A9
:1029B0009D6F9E6B000160DF030E01019D6F180E7D
:1029C0009E6F000159DF040E01019D6F240E9E6F62
:1029D000000152DF050E01019D6F240E9E6F000164
:1029E0004BDF060E01019D6F180E9E6F000144DF44
:1029F000070E01019D6F9E6B00013EDF080E010175
:102A00009D6F9E6B000138DF886B88513F0817E38C
:102A1000400ED8808855006E00300101936F9333CB
:102A20003F0E93170A0E9D6F93C19EF1000124DFA4
:102A3000040E0101936F00012FDF882BE6D70A0EE9
:102A400001019D6F0F0E9E6F000116DF010E010147
:102A50009D6F9E6B000110DF020E01019D6F180E2D
:102A60009E6F000109DF030E01019D6F240E9E6F12
:102A7000000102DF040E01019D6F420E9E6F0001F6
:102A8000FBDE050E01019D6F420E9E6F0001F4DE1C
:102A9000060E01019D6F240E9E6F0001EDDE070EF4
:102AA00001019D6F180E9E6F0001E6DE080E010108
:102AB0009D6F9E6B0001E0DE886B88513F0817E335
:102AC000400ED8808855006E00300101936F93331B
:102AD0003F0E93170A0E9D6F93C19EF10001CCDE4D
:102AE000040E0101936F0001D7DE882BE6D70A0E92
:102AF00001019D6F92C19EF10001BEDE010E886F43
:102B00008851080808E388C09DF101019E6B00010F
:102B1000B3DE882BF5D779EF1EF06D6A696A080E6F
:102B20006F6E945030090101946E266A186AF2BEE5
:102B3000188EF29E000133EC0DF018BEF28E246A5E
:102B4000236AC6EF15F0186AF2BE188EF29E33ECB7
:102B50000DF018BEF28E6D6A140E6F6E696A6D8686
:102B6000010E266EB7EF15F06DB601D0ECD7262C0E
:102B70000BD06DBA09D0686A696AA08AC00EF212D9
:102B8000110E696E020E266E000CC7D7EDDF2650BF
:102B90000208FCE17DEF1EF083B101D0FDD7855125
:102BA000852B036A880FE96E050E0320EA6EEFCFCE
:102BB000A0F1010100018451855D0EE38391186A43
:102BC000F2BE188EF29E020E0101B16FB26F0001CB
:102BD000EEEC10F018BEF28E0101A0C101F0000170
:102BE000F7EF15F001019E6B9D070001D5D701C0DD
:102BF0009FF101019F511F0810E29F517E080DE3D4
:102C00009D519E5D0AE29E519E2B036A9B25E96EB3
:102C10009C510320EA6E9FC1EFFF9F510D08E5E133
:102C2000036A9E519B25E96E9C510320EA6EEF6A70
:102C3000000186EF18F001019C6B9B512F080CE2FC
:102C40009B51390809E39C399D6FF00E9D17300E9A
:102C50009B5D9D259C6F09D09C399D6FF00E9D1743
:102C6000410E9B5D0A0F9D259C6F9CC101F00001E8
:102C7000000CA4C1A8F1A3C1A7F1A8C103F00101F0
:102C8000A7C1E9FFA8C1EAFFEF5230E0A6C1AAF14F
:102C9000A5C1A9F1AAC103F0A9C1E9FFAAC1EAFF30
:102CA000EF520AE1A351A75D006EA451A859036E2B
:102CB00000C001F023D010D0A7C1E9FFA8C1EAFFEE
:102CC000EFCFABF1AAC103F0A9C1E9FFAAC1EAFFA6
:102CD000EF50AB5D01E104D0A92BD8B4AA2BDAD711
:102CE000A72BD8B4A82B0001C8D70101A351A75D19
:102CF000006EA451A859036E00C001F00001D6EF88
:102D000016F0A4C1A8F1A3C1A7F1A8C103F0010165
:102D1000A7C1E9FFA8C1EAFFEF522AE0A6C1AAF1C4
:102D2000A5C1A9F1AAC103F0A9C1E9FFAAC1EAFF9F
:102D3000EF5218E0A7C1E9FFA8C1EAFFEFCFABF15E
:102D4000AAC103F0A9C1E9FFAAC1EAFFEF50AB5D38
:102D500005E1A7C101F0A8C102F00DD0A92BD8B49C
:102D6000AA2BE0D7A72BD8B4A82B0001CED70101FE
:102D7000000E016E026E0001F7EF16F001019B518B
:102D80009C1104E09CC103F09B5103D01AC003F0D6
:102D900019509F6F03C0A0F1A0C1A4F19FC1A3F17E
:102DA0009EC1A6F19DC1A5F1000163D701500101AB
:102DB0009F27000EA023A0C103F09FC1E9FFA0C17F
:102DC000EAFFEF520AE119C0E9FF1AC0EAFF200E3C
:102DD000EF6E000E016E026E27D0A0C1A4F19FC15C
:102DE000A3F19EC1A6F19DC1A5F100018AD702C041
:102DF000A2F101C0A1F1A2C103F00101A1C1E9FF4B
:102E0000A2C1EAFFEF5208E0A1C1E9FFA2C1EAFFB7
:102E1000EF6AA12BD8B4A22BA2C11AF0A1C119F05C
:102E20009FC101F0A0C102F00001000C006A016A1C
:102E30000101A251D890A3B1002600320132A3B300
:102E4000002600320132A3B5002600320132A3B7BA
:102E5000002600320132A3B9002600320132A3BBA2
:102E6000002600320132A3BD002600320132A3BF8A
:102E70000026003201320001ACEF17F00101A06B17
:102E80009E6B0A0E9F6F9D6B9B519C1103E1000E80
:102E9000016EC3D0A051A02B036A9B25E96E9C5103
:102EA0000320EA6EEFCFA1F1A1512D080DE1010E33
:102EB0009E6FA051A02B036A9B25E96E9C510320B5
:102EC000EA6EEFCFA1F10DD0A1512B080AE1A0517C
:102ED000A02B036A9B25E96E9C510320EA6EEFCF7D
:102EE000A1F1A1512F08D8B090D0A1513908D8A094
:102EF0008CD0A151300821E1036AA0519B25E96ED5
:102F00009C510320EA6EEF5078080AE0036AA05152
:102F10009B25E96E9C510320EA6EEF5058080DE1A5
:102F2000100E9F6FA02BA051A02B036A9B25E96E6A
:102F30009C510320EA6EEFCFA1F19F510A081DE1D9
:102F4000A1512F0819E2A151390816E30A0EA26F08
:102F50009DC1A3F100016AD7300E0101A15D0124DA
:102F60009D6FA051A02B036A9B25E96E9C51032005
:102F7000EA6EEFCFA1F1E4D748D09F51100845E1A8
:102F8000A151600806E2A1517A0803E3A151DF0BC9
:102F900001D0A151A16FA1512F0803E2A15139081D
:102FA00006E2A151400831E2A15146082EE3A151A9
:102FB0002F080CE2A151390809E39D39A26FF00EE8
:102FC000A217300EA15DA2259D6F09D09D39A26F79
:102FD000F00EA217410EA15D0A0FA2259D6FA05110
:102FE000A02B036A9B25E96E9C510320EA6EEFCF6C
:102FF000A1F1A151600806E2A1517A0803E3A151B1
:10300000DF0B01D0A151A16FC6D79E2D04D09F51D7
:103010000A0801E19D6D9DC101F00001000C010154
:103020009B51060801E212D002517F0B03E100011F
:1030300081870101010E006E9B51016E04E0D89062
:103040000036012EFCD700500213052B000154EF6F
:103050001AF001019B51060801E213D0010E006E27
:103060009B51016E04E0D8900036012EFCD7005031
:10307000FF0A021702517F0B03E100018197010152
:103080000507000154EF1AF001019D91F2BE9D81E8
:10309000F29E000182513F0802E23F0E826F825190
:1030A000822B036A410FE96E000E0320EA6E9CC179
:1030B000EFFFF29E01019DB1F28E000181A108D0C7
:1030C000186AF2BE188EF29EB3EC12F018BEF28EA1
:1030D0007BEF18F082513F080BE281A108D0186AFB
:1030E000F2BE188EF29EB3EC12F018BEF28EF2D73A
:1030F0009BC19CF1C9D7000C83A17CD201019C6BC0
:10310000980E9B6F0F0E9D6F00016CD598516C0847
:1031100054E19951300803E0995131084EE19AC0C9
:103120009BF189DD01C08CF09BC09BF184DD01C067
:103130008DF099C09BF17FDD01C08EF08E5314E0BD
:10314000036A8D518F0FE96E000E0320EA6E010EA7
:10315000006E8C51016E04E0D8900036012EFCD731
:103160000050EF10EF6E14D0036A8D518F0FE96E8F
:10317000000E0320EA6E010E006E8C51016E04E019
:10318000D8900036012EFCD70050FF0AEF14EF6EE6
:10319000010E8D2501019B6F036A00018D518F0F78
:1031A000E96E000E0320EA6EEFCF9CF19BC19DF10A
:1031B0009CC19EF13CEC14F01DD298516C08D8A42F
:1031C000B1D099516308D8A4ADD001019C6B980E81
:1031D0009B6F9E6BA70E9D6F0001D0DD02C08BF030
:1031E00001C08AF001019C6B9B6B9E6BA70E9D6FCB
:1031F0000001C4DD02C08BF001C08AF08BC09CF1DD
:103200008AC09BF13BDE01C093F101019C6B9B6B7B
:103210009E6BA70E9D6F0001B1DD02C08BF001C057
:103220008AF08BC09CF18AC09BF128DE01C094F12A
:10323000972D23D0886B885107081EE3036A8851B5
:103240008F0FE96E000E0320EA6EEF6A010E8825EB
:1032500001019B6F036A000188518F0FE96E000E18
:103260000320EA6EEFCF9CF19BC19DF19CC19EF1C2
:103270003CEC14F0882BDFD7976B886B88510708DC
:1032800050E3010E006E8851016E04E0D8900036C4
:10329000012EFCD700500101941516E0036A0001CD
:1032A00088518F0FE96E000E0320EA6E010E006E4A
:1032B00001019351016E04E0D8900036012EFCD735
:1032C0000050EF10EF6E16D0036A000188518F0F87
:1032D000E96E000E0320EA6E010E006E01019351AB
:1032E000016E04E0D8900036012EFCD70050FF0A92
:1032F000EF14EF6E010E0001882501019B6F036A38
:10330000000188518F0FE96E000E0320EA6EEFCFA7
:103310009CF19BC19DF19CC19EF13CEC14F0882B6B
:10332000ADD768D198516C08D8A47AD09951720859
:10333000D8A476D001019C6B980E9B6F9E6BA70E54
:103340009D6F00011BDD02C08BF001C08AF00101FE
:103350009C6B9B6B9E6BA70E9D6F00010FDD02C0E7
:103360008BF001C08AF08BC09CF18AC09BF186DD96
:1033700001C095F101019C6B9B6B9E6BA70E9D6F2D
:103380000001FCDC02C08BF001C08AF08BC09CF114
:103390008AC09BF173DD01C096F1972D23D0886B15
:1033A000885107081EE3036A88518F0FE96E000EEB
:1033B0000320EA6EEF6A010E882501019B6F036A04
:1033C000000188518F0FE96E000E0320EA6EEFCFE7
:1033D0009CF19BC19DF19CC19EF13CEC14F0882BAB
:1033E000DFD7976B036A010195518F0FE96E000ECD
:1033F0000320EA6E96C1EFFF010E95259B6F036ACD
:1034000095518F0FE96E000E0320EA6EEFCF9CF10D
:103410009BC19DF19CC19EF100013CEC14F0EAD0EF
:103420009851610842E1995165083FE101019C6BA7
:10343000980E9B6F9E6BA70E9D6F00019FDC02C0D4
:103440008BF001C08AF001019C6B9B6B9E6BA70EF9
:103450009D6F000193DC02C08BF001C08AF08BC02D
:103460009CF18AC09BF10ADD01C097F101019C6BC0
:103470009B6B9E6BA70E9D6F000180DC02C08BF0E2
:1034800001C08AF08BC09CF18AC09BF1F7DC01C0BF
:1034900098F10101985304E097C19BF10001BFD559
:1034A00097C19BF10001D5D5A5D09851690834E1A9
:1034B00001019C6B980E9B6F9E6BA70E9D6F000188
:1034C0005DDC02C08BF001C08AF001019C6B9B6B3C
:1034D0009E6BA70E9D6F000151DC02C08BF001C0F6
:1034E0008AF08BC09CF18AC09BF1C8DC01C092F1CC
:1034F0000A0E01019D6F92C19EF100013CEC14F097
:10350000010E01019C6F920E9B6F010E9D6F9E6BD1
:103510000001B2EC13F06ED09851740829E101015A
:103520009C6B980E9B6F9E6BA70E9D6F000126DC17
:1035300002C08BF001C08AF001019C6B9B6B9E6BFB
:10354000A70E9D6F00011ADC02C08BF001C08AF04B
:103550008BC09CF18AC09BF191DC01C099F10F0EE8
:1035600001019D6F99C19EF100013CEC14F042D025
:10357000985173082BE101019C6B980E9B6F9E6B19
:10358000A70E9D6F0001BEEC16F002C08BF001C0CB
:103590008AF001019C6B9B6B9E6BA70E9D6F0001D7
:1035A000BEEC16F002C08BF001C08AF08BC09CF11B
:1035B0008AC09BF163DC01C09AF10C0E01019D6F82
:1035C0009AC19EF100013CEC14F014D098516608A9
:1035D00011E1660E01019B6F00017CDD0A0E010105
:1035E0009B6F000177DD0000170E01019B6F00014A
:1035F00071DD000086EF1EF08195036A0101935191
:10360000AA0FE96E000E0320EA6EEFCF95F1036A70
:103610009351B20FE96E000E0320EA6EEF50951B36
:10362000010E006E9451016E04E0D8900036012E18
:10363000FCD70050951531E0036A9351AA0FE96E4B
:10364000000E0320EA6EEFCF95F1036A9351BA0F93
:10365000E96E000E0320EA6EEF50951B010E006E1E
:103660009451016E04E0D8900036012EFCD7005032
:10367000951513E09351080DF350966B956F036AFF
:1036800094519525016E965103220150C20FE96EA7
:10369000000E0320EA6EEF6AA6D0036A9351AA0FC8
:1036A000E96E000E0320EA6EEFCF95F1036A9351A5
:1036B000B20FE96E000E0320EA6EEF50951B010E6B
:1036C000006E9451016E04E0D8900036012EFCD7B4
:1036D00000509515D8A487D0036A9351AA0FE96EBC
:1036E000000E0320EA6EEFCF95F1036A9351BA0FF3
:1036F000E96E000E0320EA6EEF50951B010E006E7E
:103700009451016E04E0D8900036012EFCD7005091
:10371000951569E09351080DF350966B956F036A08
:1037200094519525016E965103220150C20FE96E06
:10373000000E0320EA6EEF50030855E39351080D85
:10374000F350966B956F036A94519525016E9651CF
:1037500003220150C20FE96E000E0320EA6EEF2A29
:10376000EF50040840E1036A9351AA0FE96E000E7E
:103770000320EA6EEFCF95F1010E006E9451016EB9
:1037800004E0D8900036012EFCD70050951514E0C7
:10379000036A9351BA0FE96E000E0320EA6E010E20
:1037A000006E9451016E04E0D8900036012EFCD7D3
:1037B0000050EF10EF6E14D0036A9351BA0FE96E08
:1037C000000E0320EA6E010E006E9451016E04E0BB
:1037D000D8900036012EFCD70050FF0AEF14EF6E90
:1037E000000181850101000E000181B5010E016E0D
:1037F0006FEF1CF0A95302E18A9E939EA9C088F046
:10380000040EA925885DD8B0AAD08A8C939C8A9C86
:10381000939C8A8E939E036A8851B20F016E000EAC
:103820000322010103C094F1036A00018851AA0F29
:10383000E96E000E0320EA6EEFCF95F1010194C10D
:10384000EAFF01C0E9FF95C1EFFF8B929492130E3E
:10385000006E002EFED700D08B8294920001896BFF
:1038600089510708D8A079D0948C82AC1ED0036A05
:103870008851AA0FE96E000E0320EA6E036A010E5A
:10388000026E8951006E05E0D89002360336002E94
:10389000FBD70250006A0006001AFF0E031A005000
:1038A000EF14006E0050EF6E15D0036A8851AA0F16
:1038B000E96E000E0320EA6E036A010E026E895162
:1038C000006E05E0D89002360336002EFBD702507A
:1038D000EF10EF6E88C093F189C094F18DD601523C
:1038E00036E0036A8851BA0FE96E000E0320EA6ED3
:1038F000EFCF93F1036A010E026E8951006E05E06D
:10390000D89002360336002EFBD7025001019315E2
:10391000006E036A0050031007E0700E9B6F0001F9
:103920006AEC18F006D00101720E9B6F00016AEC80
:1039300018F000008839006EF00E0016005089253E
:103940000101936F9B6F00016AEC18F000008B80FF
:1039500094908B909490892B83D7882B51D7A9531F
:1039600003E1040EA96F04D0A951040801E1A96B79
:1039700087EF1EF081A709D101010551080DF35011
:10398000035DD8A001D1010E006E0451016E04E068
:10399000D8900036012EFCD700500215936F010E0F
:1039A000006E0451016E04E0D8900036012EFCD761
:1039B0000050935DD8A4E2D0036A0451F2CF93F192
:1039C000F29E000107EC0DF0010193BFF28E936FA0
:1039D0009335006E0036FC0E0016C250C30B00106B
:1039E000C26EC282C2B2FED7C3CF0DF1C4CF0EF1F8
:1039F000D8900435036A0F0FE96E010E0320EA6EBA
:103A00000D51EF24016E0E51EC20ED5201C0EFFF7D
:103A1000EC6ED8900435036A0F0F016E010E03227D
:103A200001C093F103C094F103C0EAFF01C0E9FFB4
:103A3000ECCF96F1ED52EFCF95F10451100DF3500C
:103A4000986B976F036A0451060FE96E010E03200D
:103A5000EA6ED890EF34036A9725016E98510322DD
:103A600001501D0FE96E010E0320EA6EECCF03F04A
:103A7000ED52EF50955D006E0350965994C1EAFFE8
:103A800093C1E9FFEC6EED5200C0EFFF0451100D41
:103A9000F350946B936F036A0451060FE96E010EA5
:103AA0000320EA6ED890EF34036A9325016E945197
:103AB000032201501D0FE96E010E0320EA6E0EC1B4
:103AC000ECFFED520DC1EFFFD8900435036A0F0FE4
:103AD000E96E010E0320EA6EECCF94F1ED52EFCFC8
:103AE00093F194310E6F93310D6F0E330D330E330E
:103AF0000D331F0E0E17036A0451060FE96E010EF7
:103B00000320EA6EEF2A036A0451060FE96E010EE4
:103B10000320EA6EEF50080808E1036A0451060F1B
:103B2000E96E010E0320EA6EEF6A610E9B6F0001E1
:103B30006AEC18F0000001010439936FF00E93173E
:103B4000946B0E51030B956F036A9325016E000E63
:103B5000032201C093F101C09BF100016AEC18F04F
:103B6000000001010DC100F0036A0DC193F10DC108
:103B70009BF100016AEC18F000000101042B0451D4
:103B8000060801E2046B036B032B000188EF1EF0B3
:103B9000F86AD09E088EEA6AE96AC150C00B0F0924
:103BA000C16E070EB46E196A1A6A266A286A040E74
:103BB000296E160E2A6E2D6A826B876B010E976F27
:103BC000200EA76FA86BA96B0101026B0001819702
:103BD0000101036B046B056B0D6B0E6BC150C00BC9
:103BE0000509C16EC090C082C084C08EC280C69AD2
:103BF000949E93809392210EC66E400EC76ED19014
:103C0000800ED56ECD6A000ECA6EFF0ECB6EB16A05
:103C1000070EB46E9250926E270E006E002EFED7E5
:103C200000D0B450A19CB56A0001886B8851060889
:103C300034E3036A8851060FE96E010E0320EA6E31
:103C4000EF6AD8908835036A0F0FE96E010E0320E2
:103C5000EA6EEC6AED52EF6A896B895107081BE343
:103C60008851100DF3500101946B936FD8900001AF
:103C70008935036A01019325016E94510322015095
:103C80001D0FE96E010E0320EA6EEC6AED52EF6A39
:103C90000001892BE2D7882BC9D7010E0101946F4F
:103CA000920E936F010E956F966B000192EF13F0D9
:103CB0000101925303E10001DDEF13F00001EBEF8E
:103CC00013F08A8E939E886B885107080EE3036A6F
:103CD00088518F0FE96E000E0320EA6EEF6A8A8C1E
:103CE000939C8A9C939C882BEFD727EF14F061EF6D
:103CF00014F021EC0DF0C5EF15F081B301D0FDD724
:103D0000B4EC15F0205204E07CEF18F073D532D6F5
:043D1000F7D70300DE
:020000040030CA
:0E000000240E390E000580000FC00FE00F40E7
:00000001FF
;PIC18F2550
;CRC=7697  CREATED="06-7-10 00:52"
