:020000040000FA
:0418000005EF24F0DC
:08180800056ED8CF06F0E0CF19
:1018100007F00001E9CF0DF0EACF08F0E1CF09F0C1
:10182000E2CF0AF0D9CF0BF0DACF0CF0F3CF14F0FF
:10183000F4CF15F0FACF16F000C00FF001C010F091
:1018400002C011F003C012F004C013F0A0AA2CEFE4
:101850000CF0A1BAA1EF13F00FC000F010C001F01E
:1018600011C002F012C003F013C004F00DC0E9FF74
:1018700008C0EAFF088E09C0E1FF0AC0E2FF0BC002
:10188000D9FF0CC0DAFF14C0F3FF15C0F4FF16C077
:10189000FAFF055007C0E0FF06C0D8FF1000F76A46
:1018A000AE0FF66E180EF7220900F5501200040371
:1018B0000100000000000000000000000000F76AC6
:1018C000CE0FF66E180EF7220900F5501200040034
:1018D0000100000000000000000000000000F76AA6
:1018E000EE0FF66E180EF7220900F55012004000B8
:1018F00008004000000000000000000000000000A0
:10190000000000000000000000000000000008AE21
:1019100003D0F2CF0EF0F29EF76A300FF66E190E7A
:10192000F7220900F55008AE02D00EBEF28E12006A
:101930004000000040000000000000000000000027
:101940000000000000000000000000000000000097
:10195000F76A600FF66E190EF7220900F5501200B3
:1019600009024300020100C0FA090400000102025A
:1019700001000524001001042402020524060001D0
:101980000524010001070581030800FA090401008C
:10199000020A000000070502024000FA0705820261
:1019A0004000FA00F76AB40FF66E190EF72209002C
:1019B000F55012000200F76AC60FF66E190EF722F4
:1019C0000900F55012001201100102000040D80475
:1019D000C5FF020001020001F76AE80FF66E190E5A
:1019E000F7220900F55012000403090410037400E3
:1019F0006B00720077006F0072006B0073002003B1
:101A000074006B00720077006F0072006B0073004F
:101A100020005000490043006E006F006D0065001B
:101A2000F2CF0EF0F29EF76A3A0FF66E1A0EF72218
:101A30000900F5500EBEF28E1200000102030408E8
:101A40000900F2CF0EF0F29EF76A5C0FF66E1A0EE6
:101A5000F7220900F5500EBEF28E12007265706F0B
:101A600072742025642025640000F2CF0EF0F29EEF
:101A7000F76A840FF66E1A0EF7220900F5500EBEB3
:101A8000F28E120070726573732025642025642025
:101A900025640000F2CF0EF0F29EF76AAE0FF66EEC
:101AA0001A0EF7220900F5500EBEF28E1200616484
:101AB00063202564202566006D9269946894ACEFDC
:101AC00013F06A6A6892B5EF13F0336A326A250E32
:101AD000316E800E306E346A356A080E366E866B53
:101AE0008193386A376A826B83918181000C01018E
:101AF000876B875101080AE3036A87512E0FE96E4D
:101B0000000E0320EA6EEF6A872BF3D70001DDDFBA
:101B1000206A010E216E1F6A000C010E0101906FF8
:101B200090510F080EE3700E9025016E0F0E036E9C
:101B3000D8B0032A01C0E9FF03C0EAFFEF6A902B87
:101B4000EFD7246A236A0001000C400E0401016FE4
:101B5000050E036F026B880E006F046B050E076F96
:101B6000400E066F0001000C6A6A686A9F0E6B6E79
:101B7000390E696E6E6ABBDFD0DF160E706E68A616
:101B800002D06896FCD76D98E0DF030E266EBBEF9F
:101B900013F0698468986D82C1EF13F0689CC7EFF9
:101BA00013F070A002D0D1DF7090689ACDEF13F0DF
:101BB0008BC127F0000CFF0E276E000C0101896B12
:101BC0002D523DE089513F083AE32250000105E0E3
:101BD000020A0FE0010A19E024D0036A2C50F2CF68
:101BE0008BF1F29EB5DE01018BBFF28E8A6F000190
:101BF00018D0036A2C50F2CF8BF1F29EEDDE01017A
:101C00008BBFF28E8A6F00010CD0036A2C50F2CF8A
:101C10008BF1F29ED0DE01018BBFF28E8A6F000144
:101C200000D02C2A2D0601018951892B036A400F0F
:101C3000E96E050E0320EA6E8AC1EFFFC1D72D526F
:101C400004E18951400801E01F6A89C18BF100015C
:101C5000AFDF000C2C6A226A05010351010A000162
:101C600005E0030A08E0010A09E021D0120E2D6EFA
:101C7000030E226E1ED0430E2D6E1BD0020E226E5E
:101C8000036A05010251280FE96E000E0320EA6E77
:101C9000EFCF2CF0036A2C50F2CF88F1F29E0001B6
:101CA0009BDE010188BFF28E2D6E000102D083DF22
:101CB0000CD00501075305E12D50065D02E206C573
:101CC0002DF0010E1F6E000179DF98EF0FF001017A
:101CD000885306E1040E266E00011FDFCED00101FD
:101CE000050E266E8B6F800E8A6F010E896F8951EB
:101CF0000F08D8A0C2D08C6B036A8951F2CF90F143
:101D0000F29E0001DCDD010190BFF28E000A55E079
:101D1000040E8C6FD8908935036AF2CF90F1F29E51
:101D20000001F5DD0900F5CF03F0010190BFF28E4F
:101D30008D6F03C08EF18951080DF350010F016EB4
:101D4000040E036ED8B0032A01C0E9FF03C0EAFF06
:101D50008DC1EFFF8951080DF350020F016E040E83
:101D6000036ED8B0032A01C0E9FF03C0EAFF8BC1AC
:101D7000ECFFED528AC1EFFFD8908935036AF2CFAC
:101D800090F1F29E0001C3DD0900F5CF03F00101DF
:101D900090BFF28E8A2703508B23880E8F6F8EB1EF
:101DA0008F818EB38F838951080DF3CF01F0040E1C
:101DB00001C0E9FFEA6E8FC1EFFF036A8951F2CFDC
:101DC00090F1F29E00016BDD010190BFF28E000ADE
:101DD00033E08C838951080DF350060F016E040E19
:101DE000036ED8B0032A01C0E9FF03C0EAFF8BC12C
:101DF000ECFFED528AC1EFFFD8908935036AF2CF2C
:101E000090F1F29E00016BDD0900F5CF03F00101B6
:101E100090BFF28E8A2703508B238951080DF3500F
:101E2000040F016E040E036ED8B0032A01C0E9FF4F
:101E300003C0EAFF400EEF6E8C51060802E10E0E61
:101E40008C6F036A8951F2CF90F1F29E000127DD79
:101E5000010190BFF28E020801E08C89700E892585
:101E6000016E0F0E036ED8B0032A01C0E9FF03C054
:101E7000EAFF8CC1EFFF892B3AD7000190EF0FF0FA
:101E80000501015100010DE0010A15E0020A20E000
:101E9000060A2AE0030A31E00E0A30E0010A36E0C1
:101EA00045D021C040F50501416B020E01018B6F49
:101EB00000017EDE3DD00501022D07D0010E211666
:101EC00001018B6B000174DE02D0000174DE30D0A2
:101ED0000501022D06D0218201018B6B000168DE15
:101EE00002D0000168DE24D0020E1F6E02C52BF066
:101EF00001018B6B00015CDE1BD0ACD620C040F52D
:101F0000010E01018B6F000153DE12D00501025159
:101F100001080AE302C520F002C588F10001D7D606
:101F200001018B6B000144DE000102D044DE00D0D1
:101F300030EF11F020C088F105010151000105E0EA
:101F40000A0A0CE0010A31E045D00501406B416B03
:101F5000020E01018B6F00012BDE3ED00101885380
:101F600021E0010E885D036AF2CF89F1F29E000143
:101F700019DD010189BFF28E016E0501045DD8A053
:101F800002D001010FD0036A04512E0FE96E000E3A
:101F90000320EA6EEFCF40F5010E01018B6F0001C7
:101FA00007DE02D0000107DE17D0010188530FE0E1
:101FB000036A050104512E0FE96E000E0320EA6E3C
:101FC00002C5EFFF01018B6B0001F2DD02D00001C1
:101FD000F2DD02D0F0DD00D030EF11F00101899187
:101FE00088BF8981889F89A112D0036A8851F2CF66
:101FF0008AF1F29E000153DC01018ABFF28E000AD1
:1020000002E1000E01D0010E016E12D011D0036A60
:102010008851F2CF8AF1F29E000151DC01018ABFA2
:10202000F28E000A02E1000E01D0010E016E00D016
:10203000000191EF10F00101899188BF8981889F8B
:1020400089A110D08851080DF350040F016E040EC1
:10205000036ED8B0032A01C0E9FF03C0EAFF880E6F
:10206000EF6E09D08851080DF3CF01F0040E01C0C6
:10207000E9FFEA6EEF6A0001A0EF10F0010189911B
:1020800088BF8981889F89A110D08851080DF3509D
:10209000040F016E040E036ED8B0032A01C0E9FFDD
:1020A00003C0EAFF840EEF6E0AD08851080DF3CF0B
:1020B00001F0040E01C0E9FFEA6E840EEF6E00012C
:1020C000A8EF10F00101899188BF8981889F89A1BB
:1020D00010D08851080DF350040F016E040E036EEA
:1020E000D8B0032A01C0E9FF03C0EAFFEFCF8AF1AD
:1020F0000AD08851080DF3CF01F0040E01C0E9FFAA
:10210000EA6EEFCF8AF18AAF02D08AB502D0000E14
:1021100001D0010E016E0001B4EF10F004C588F18A
:102120005DD701522EE005010151010A000105E0D1
:10213000020A0BE0030A11E022D004C588F17BD724
:1021400001018B6B000134DD1CD004C588F196D7EA
:1021500001018B6B00012CDD14D00501406B416B3C
:1021600004C588F10001AED7015203E0010E05015C
:10217000406F020E01018B6F00011ADD02D01BDDE2
:1021800000D030EF11F0FE0E276E000C0501042D7B
:1021900001D002D004534EE1015100010BE0010ACD
:1021A0000DE0210A1CE0010A1FE0030A30E0010AE9
:1021B00035E03DD0010E876FE6DF3BD0050EEA6EBD
:1021C000400EE96EE26A390EE16E080E016EE6CF4E
:1021D000EEFF012EFCD706C58BF1EADC2AD0020EF9
:1021E000876F8183D0DF25D0050EEA6E400EE96E41
:1021F000E26A300EE16E070E016EE6CFEEFF012EB1
:10220000FCD7070E01018B6F0001D2DC12D002C592
:1022100086F001018B6B0001CBDC0BD002C538F0DE
:1022200003C537F001018B6B0001C2DC02D0C3DCB7
:1022300000D00501000130EF11F01F6A05010051C7
:102240007F0B000107E0010A06E0030A05E0230A0C
:1022500004E004D015D66ED661D798D7ACDC00D098
:102260003AEF13F001018851080DF3CF01F0040E8D
:1022700001C0E9FFEA6EEFCF8AF18951020806E159
:102280008AAD02D0896B02D0010E896F8951030893
:1022900012E1840E8A6F8851080DF350040F016E0D
:1022A000040E036ED8B0032A01C0E9FF03C0EAFFA1
:1022B000840EEF6E09D0892D03D0C80E8A6F04D02A
:1022C000895302E1880E8A6F036A010E026E8851FB
:1022D000006E05E0D89002360336002EFBD7025080
:1022E000FF0A006EFF0E031A005023160350241637
:1022F000D8908835036AF2CF8DF1F29E000187EC09
:102300000CF00900F5CF03F001018DBFF28E8B6F49
:1023100003C08CF18851080DF350010F016E040EBB
:10232000036ED8B0032A01C0E9FF03C0EAFF8BC1E6
:10233000EFFF8CB18A818CB38A838851080DF3CF6B
:1023400001F0040E01C0E9FFEA6E8AC1EFFF00014F
:10235000000C01019451080DF350040F016E040E9E
:10236000036ED8B0032A01C0E9FF03C0EAFFEFCF34
:1023700098F198BF5BD09451080DF350050F016E92
:10238000040E036ED8B0032A01C0E9FF03C0EAFFC0
:1023900095C1EFFF9751020816E19451080DF350D3
:1023A000040F016E040E036ED8B0032A01C0E9FFCA
:1023B00003C0EAFFEFCF98F198AD02D0976B02D03F
:1023C000010E976F13D09751040810E19451080D36
:1023D000F3CF01F0040E01C0E9FFEA6EEFCF98F1F0
:1023E00098AD03D0010E976F01D0976B972D03D056
:1023F000C80E986F04D0975302E1880E986F96B17B
:10240000988196B398839451080DF350040F016E90
:10241000040E036ED8B0032A01C0E9FF03C0EAFF2F
:1024200098C1EFFF010E016E03D000D0000E016EC7
:102430000001000C8751010A03E0030A14E026D0D2
:10244000EA6A390EE96E050EE26EE16A080E016E67
:10245000E6CFEEFF012EFCD701018B6B0001D8EC1B
:102460000DF0876B17D0EA6A300EE96E050EE26E4A
:10247000E16A070E016EE6CFEEFF012EFCD7876BF7
:1024800001018B6B0001D8EC0DF004D0876BA5EC3B
:102490000DF000D072EF12F001018951080DF350D8
:1024A000010F016E040E036ED8B0032A01C0E9FFCC
:1024B00003C0EAFF036AEFCF01F003C002F000019E
:1024C00069EF12F08381856B020E0101896F0001B3
:1024D000E3D701C084F079EF12F00101885304E1E1
:1024E0000001A8D717D001018851020804E10001BA
:1024F000E9D710D00101036A010E026E8851006E07
:1025000005E0D89002360336002EFBD70250231286
:10251000035024120001000C89C16EFF0101895390
:1025200003E0040E266E02D0020E266E00019EEF1E
:1025300012F0206A1F6A2BC089F1EED71FEF13F04B
:1025400001018951080DF350040F016E040E036E52
:10255000D8B0032A01C0E9FF03C0EAFFEFCF91F131
:1025600091BF41D08951080DF350060F016E040E42
:10257000036ED8B0032A01C0E9FF03C0EAFFECCF25
:1025800003F0ED52EFCF92F103C093F1906B8F6B9C
:1025900090518D5D1AE303E18C518F5D16E28AC183
:1025A000E9FF8BC1EAFFEFCF96F193C1EAFF92C139
:1025B000E9FF96C1EFFF922BD8B4932B8A2BD8B4A6
:1025C0008B2B8F2BD8B4902BE3D789C194F18DC17D
:1025D00096F18CC195F18EC197F10001BADE0150E0
:1025E00004D000D00101000E016E0001000C8253E6
:1025F0000FE08191020E0101896F8B6B410E8A6F92
:102600008D6B82C08CF1020E8E6F000199DF826BA0
:10261000000C825302E0EBDF01D0818126EF13F042
:10262000010188530EE11F2C05D00001DEEC0DF0F6
:1026300006D001011F50020803E100017AD7010111
:1026400006D08851020803E10001E3D7010100012F
:10265000000C6C300101876F873387331F0E87179B
:102660006C5246E1040100513C0B340821E1046B3B
:102670000001E3D5273C07D00101886B030E896F69
:102680000001F0DD12D00101886B020E896F00019C
:10269000E9DD2750FE0809E00101946B966B27C025
:1026A00095F1040E976F000154DE6D981ED0040161
:1026B00000513C0B04081AE10101886B00010DDF99
:1026C0000101886B020E896F0001CCDD2750FE08E6
:1026D0000CE0273C01D009D00101946B966B27C018
:1026E00095F1010E976F000134DE040127D001013E
:1026F0006C50040816E1FF0E276E886B000190DF16
:10270000273C01D00AD00101946B966B27C095F14C
:10271000020E976F00011DDE02D0A5EC0DF00DD06A
:1027200001016CB406D087C188F10001D6DE05D066
:10273000010187C188F1000173DF04010001D2EFBC
:1027400013F0265201E12FD068522DE068A404D086
:1027500069A402D05CEF0DF06DA201D024D068A274
:1027600004D069A202D061EF0DF068A004D069A086
:1027700002D0B4EF0DF068A804D069A802D0C9EF68
:102780000DF068AC04D069AC02D0CEEF0DF068AAB1
:1027900004D069AA02D0D1EF0DF068A604D069A6D2
:1027A00002D057D76896A19A2CEF0CF001013D6B2F
:1027B0003B513D5D18E2036A3D513925E96E3A51BE
:1027C0000320EA6E3D513C25406FF2CF41F1F29E6D
:1027D00040C1A9FFA69CA69EA680A85041BFF28E2C
:1027E000EF6E3D2BE5D70001E4EF24F00101686BAB
:1027F0006651685D24E268516725696F036A685114
:102800006425E96E65510320EA6EEFCF6AF169C174
:10281000A9FF6AC1A8FFA69CA69EA684F2CF00F0DD
:10282000F29E0F01550EA76EAA0EA76EA682A6B243
:10283000FED7A6940050F2120101682BD9D70001EF
:10284000000C0F0E0101376F010E656F370E646FBC
:10285000010E666F676B0001C9DFEAEF24F001012A
:10286000396B3951070832E3036A3951DC0FE96EDD
:10287000000E0320EA6EEF6A036A3951E40FE96E35
:10288000000E0320EA6EEF6A036A3951EC0FE96E1D
:10289000000E0320EA6EEF6A3A6B3A51070814E320
:1028A0003951080DF3503C6B3B6F036A3A513B259D
:1028B000016E3C5103220150F40FE96E000E03201B
:1028C000EA6EEF6A3A2BE9D7392BCBD70001EDEF4F
:1028D00024F08A9A939AC95066C1C9FFC730FEE3B3
:1028E000C95067C1C9FFC730FEE38A8A939A000CBA
:1028F000010EEA6E3A0EE96EEF500EE00F0E016E19
:10290000006A002EFED7012EFBD78F0E006E002E20
:10291000FED70000EF2EF2D7D0EF14F00B0E01011E
:10292000666F070E676F0001D4DF0A0E0101666F44
:1029300037C167F10001CDDF010E0101396F395157
:10294000080809E339C166F139C167F10001C1DF47
:102950000101392BF4D70C0E666F010E676F000171
:10296000B8DF0F0E0101666F676B0001B2DF010176
:10297000396B39513F0817E3400ED8803955006E46
:1029800000303A6F3A333F0E3A170A0E666F3AC17B
:1029900067F100019EDF080E01013A6F0001A8D720
:1029A0000101392BE6D70A0E666F37C167F10001C6
:1029B00090DF010E0101396F3951080808E339C170
:1029C00066F1676B000185DF0101392BF5D7000146
:1029D00005EF25F06D6A696A080E6F6E9450300934
:1029E0000101946E266A186AF2BE188EF29E0001EA
:1029F00077EC0DF018BEF28E246A236A23EF15F0EF
:102A0000186AF2BE188EF29E77EC0DF018BEF28EA8
:102A10006D6A140E6F6E696A6D86010E266E14EF74
:102A200015F06DB601D0ECD7262C0BD06DBA09D0BD
:102A3000686A696AA08AC00EF212110E696E020EEF
:102A4000266E000CC7D7EDDF26500208FCE109EF27
:102A500025F083B101D0FDD78551852B036A880FFE
:102A6000E96E050E0320EA6EEFCF69F10101000166
:102A70008451855D0EE38391186AF2BE188EF29E32
:102A8000020E0101886F896F000132EC11F018BE4F
:102A9000F28E010169C101F0000154EF15F001014E
:102AA0006607676B0001D5D701C068F10101685165
:102AB000080804E1675301E0670713D068511F0855
:102AC00010E268517E080DE36651675D0AE26751C6
:102AD000672B036A6425E96E65510320EA6E68C1BD
:102AE000EFFF68510D08DEE1036A67516425E96E66
:102AF00065510320EA6EEF6A000156EF1CF06DC1CC
:102B000071F16CC170F171C103F0010170C1E9FF95
:102B100071C1EAFFEF5230E06FC173F16EC172F123
:102B200073C103F072C1E9FF73C1EAFFEF520AE11A
:102B30006C51705D006E6D517159036E00C001F0F3
:102B400023D010D070C1E9FF71C1EAFFEFCF74F15B
:102B500073C103F072C1E9FF73C1EAFFEF50745D06
:102B600001E104D0722BD8B4732BDAD7702BD8B410
:102B7000712B0001C8D701016C51705D006E6D5161
:102B80007159036E00C001F000011CEF16F06DC119
:102B900071F16CC170F171C103F0010170C1E9FF05
:102BA00071C1EAFFEF522AE06FC173F16EC172F199
:102BB00073C103F072C1E9FF73C1EAFFEF5218E07D
:102BC00070C1E9FF71C1EAFFEFCF74F173C103F087
:102BD00072C1E9FF73C1EAFFEF50745D05E170C196
:102BE00001F071C102F00DD0722BD8B4732BE0D775
:102BF000702BD8B4712B0001CED70101000E016EED
:102C0000026E00013DEF16F001016451651104E010
:102C100065C103F0645103D01AC003F01950686F06
:102C200003C069F169C16DF168C16CF167C16FF1F1
:102C300066C16EF1000163D7015001016827000EE3
:102C4000692369C103F068C1E9FF69C1EAFFEF5276
:102C50000AE119C0E9FF1AC0EAFF200EEF6E000E6C
:102C6000016E026E27D069C16DF168C16CF167C158
:102C70006FF166C16EF100018AD702C06BF101C02D
:102C80006AF16BC103F001016AC1E9FF6BC1EAFFA0
:102C9000EF5208E06AC1E9FF6BC1EAFFEF6A6A2BF5
:102CA000D8B46B2B6BC11AF06AC119F068C101F07E
:102CB00069C102F00001000C010164C1E9FF65C1B6
:102CC000EAFFEFCF68F167C103F066C1E9FF67C1B2
:102CD000EAFFEF50685D15E165C103F064C1E9FFEB
:102CE00003C0EAFFEF5203E1000E016E1FD065C181
:102CF00003F06451642BD8B4652B662BD8B4672BD2
:102D0000DCD765C103F064C1E9FF65C1EAFFEFCF1D
:102D100068F167C103F066C1E9FF67C1EAFFEF50E0
:102D2000685D02E2FF0E01D0010E016E0001000C91
:102D3000006A016A01016B51D8906CB10026003223
:102D400001326CB30026003201326CB5002600322D
:102D500001326CB70026003201326CB90026003215
:102D600001326CBB0026003201326CBD00260032FD
:102D700001326CBF00260032013200012EEF17F045
:102D80000101696B676B0A0E686F666B64516511B0
:102D900003E1000E016EC3D06951692B036A6425FB
:102DA000E96E65510320EA6EEFCF6AF16A512D0892
:102DB0000DE1010E676F6951692B036A6425E96EA5
:102DC00065510320EA6EEFCF6AF10DD06A512B08EE
:102DD0000AE16951692B036A6425E96E6551032094
:102DE000EA6EEFCF6AF16A512F08D8B090D06A51DD
:102DF0003908D8A08CD06A51300821E1036A6951A2
:102E00006425E96E65510320EA6EEF5078080AE008
:102E1000036A69516425E96E65510320EA6EEF503B
:102E200058080DE1100E686F692B6951692B036A10
:102E30006425E96E65510320EA6EEFCF6AF16851AF
:102E40000A081DE16A512F0819E26A51390816E390
:102E50000A0E6B6F66C16CF100016AD7300E01017A
:102E60006A5D0124666F6951692B036A6425E96E06
:102E700065510320EA6EEFCF6AF1E4D748D068517C
:102E8000100845E16A51600806E26A517A0803E3D6
:102E90006A51DF0B01D06A516A6F6A512F0803E251
:102EA0006A51390806E26A51400831E26A5146081F
:102EB0002EE36A512F080CE26A51390809E366399A
:102EC0006B6FF00E6B17300E6A5D6B25666F09D065
:102ED00066396B6FF00E6B17410E6A5D0A0F6B253A
:102EE000666F6951692B036A6425E96E6551032099
:102EF000EA6EEFCF6AF16A51600806E26A517A0819
:102F000003E36A51DF0B01D06A516A6FC6D7672DA0
:102F100004D068510A0801E1666D66C101F0000144
:102F2000000C01016451060801E211D034510F0B6D
:102F300003E1000181850101010E006E6451016E03
:102F400004E0D8900036012EFCD700503413000165
:102F500060EF1EF001016451060801E212D0010E7B
:102F6000006E6451016E04E0D8900036012EFCD74B
:102F70000050FF0A341734510F0B03E10001819513
:102F80000101000160EF1EF001017351D8B471D04E
:102F9000006E7751D8B46DD0002604E3810E002670
:102FA00068E204D07F0E005E64E363E074C17BF1ED
:102FB00078517B1B748F788F76517A03F4CF7DF133
:102FC00075517903F4CF03F0F3CF7CF17A03F3501A
:102FD0007D27F4507C23000E032276517903F350B1
:102FE0007D27F4507C23000E026A032202227451D2
:102FF0007A03F3507C27F4500322000E022274510E
:103000007903F3500326F4500222000E016A0122D4
:1030100076517803F3507C27F4500322000E0222ED
:10302000012275517803F3500326F4500222000E5A
:10303000012274517803F3500226F4500122002A31
:1030400001BE05D07C370336023601360006000E7D
:103050007CAF0AD0032A02220122015005E102506E
:1030600003E1035001E1002A7BBF018E7BAF019E8B
:1030700004D0006A016A026A036A0001000C8E0E25
:10308000006E78C101F077C102F0036A015209E1D4
:1030900002C001F0026A080E005E015202E1006AFD
:1030A00008D0D89001BE04D0023601360006F9D708
:1030B000019E000C01017751D8B4A5D0836F7B51DC
:1030C000D8B4A1D0835F05E37F0E8327D8B09BD00F
:1030D00006D0810E835FD8A096D0D8B494D083C197
:1030E00000F0016A026A036A826B78C181F1818F04
:1030F00079C180F17AC17FF1190E836F7E517F5FB4
:103100000DE2010E805F0AE2815F08E2825F06E263
:10311000822B812B802B7E517F2728D07D51805F91
:1031200012E2010E815F0FE2825F0DE2822B812BA2
:103130007D5180277E517F2719E3802B17E1812B5A
:1031400015E1822B13D07C518009815F0EE2010EC4
:10315000825F0BE2822B7C51800981277D51802781
:10316000E9E3812BE7E1822BE5D70380832F01D0B0
:103170000BD0D8907F37803781378237D89003368D
:10318000023601368437BAD784A106D0D8900132EE
:1031900002320332843302D0000635E084BF1ED0F1
:1031A000D8907F378037813782377E517F5F07E243
:1031B000010E805F04E2815F02E2825F1AE37D51CB
:1031C000805F05E2010E815F02E2825F12E37C51C3
:1031D0008009815F03E2010E825F0BE3032A09E1AC
:1031E000022A07E1012A05E1002A0DE0013202323C
:1031F000033278C183F17C51831B83AF02D0018EEF
:1032000006D0019E04D0006A016A026A036A0001C6
:10321000000C800ED8A202D001017C1B0101816B41
:10322000826B78C180F17C51801B7751D8B4DFD09C
:103230007F6F006E7B51D8B4E3D07F5FD8B483D06A
:103240003EE37CC185F1858F7DC184F17EC183F130
:10325000826BD89085338433833382337F2FF8D7C2
:1032600080AF03D08181E0D081917F918189010E6F
:10327000EA6E7A0EE96EEBD0819980BF0AD07FA109
:1032800013D08533843383338233002AD8B4C7D034
:103290000BD085BF0CD0D8908237833784378537E1
:1032A0000006D8B4BCD0F5D7818D6DD0819D78C192
:1032B00080F178AF02D0858FABD0859FA9D07BC13C
:1032C0007FF17BC100F077517F5F78C185F1858FF9
:1032D00079C184F17AC183F1826BD89085338433CC
:1032E000833382337F2FF8D780AF03D081839CD084
:1032F00081937F91818B010EEA6E7E0EE96EA7D0DD
:10330000819B80BF0AD07FA113D085338433833360
:103310008233002AD8B483D00BD085BF0CD0D8908C
:1033200082378337843785370006D8B478D0F5D70D
:10333000818F29D0819F7CC180F17CAF02D0858FA5
:1033400067D0859F65D07CC185F1858F7DC184F173
:103350007EC183F180AF04D0859F818565D0819542
:10336000826B7F91010EEA6E7A0EE96E70D080BF9B
:103370001CD078C180F17FA106D08533843383339C
:103380008233002A4CE082AF0BD0832B09E1842BDF
:1033900007E1852B05E1853384338333002A3FE041
:1033A00081BD84D781BFC6D71CD0800E851B85AF59
:1033B00004D03AD07CC180F10AD078C180F1855325
:1033C00006E1845304E1835302E1006A21D085BF02
:1033D00008D0D8908237833784378537002EF7D7C7
:1033E0001ED080AF02D0858F13D0859F11D07BC1B6
:1033F00000F07CC185F17DC184F17EC183F108D0EC
:1034000077C100F078C185F179C184F17AC183F187
:1034100085C101F084C102F083C103F034D0006A99
:10342000016A026A036A2FD0826B831F841F851F83
:10343000821F822B05E1832B03E1842B01E1852B85
:1034400081B112D781B354D781B589D7B3D7EF50A3
:10345000832705E3842B03E1852BD8B47F81ED52CC
:10346000EF50842703E3852BD8B47F81ED52EF50D2
:10347000EFBE01D0800A8527D8B07F8181B9FCD604
:1034800081BB3ED774D70001000C7F0E0101686F2D
:10349000696B6A6B6B6B6C6B6D6B6E6B6F6B70815A
:1034A00070937095726B6451651105E1006A016A51
:1034B000026A036A0FD17251722B036A6425E96EA6
:1034C00065510320EA6EEFCF71F17153D8B4C5D0C6
:1034D00070A10FD0715120080CE0709171512B0830
:1034E00003E17093ADD005D071512D0802E17083D6
:1034F000A7D070B107D071512E0804E170B502D089
:1035000070859ED070B199D071512F08D8B095D0E8
:1035100071513908D8A091D0300E715F70A553D089
:103520006BC176F16AC175F169C174F168C173F15B
:103530007A6B796B200E786F820E776F000124DD35
:1035400003C06BF102C06AF101C069F100C068F10B
:103550000101786B71C177F1000191DD00C073F159
:1035600001C074F102C075F103C076F103C07AF1B5
:1035700002C079F101C078F100C077F16BC17EF132
:103580006AC17DF169C17CF168C17BF193DDD8929C
:103590006FC17AF16EC179F16DC178F16CC177F1CB
:1035A00003C07EF102C07DF101C07CF100C07BF15F
:1035B00030DE03C06FF102C06EF101C06DF100C0DA
:1035C0006CF139D00101766B756B200E746F820E31
:1035D000736F6FC17AF16EC179F16DC178F16CC111
:1035E00077F10001D1DC00C073F101C074F102C0B9
:1035F00075F103C076F10101786B71C177F10001BB
:103600003EDDD89276C17AF175C179F174C178F155
:1036100073C177F103C07EF102C07DF101C07CF17E
:1036200000C07BF1F6DD03C06FF102C06EF101C096
:103630006DF100C06CF105D0010170B101D00DD069
:10364000000101017251722B036A6425E96E655114
:103650000320EA6EEFCF71F138D770A319D0766BE3
:10366000756B800E746F7F0E736F6FC17AF16EC1D0
:1036700079F16DC178F16CC177F1000185DC03C08F
:103680006FF102C06EF101C06DF100C06CF101017B
:103690006651671117E072530CE0720766C1E9FFCB
:1036A00067C1EAFF72516425EF6E000E6521EC6E72
:1036B00009D066C1E9FF67C1EAFF65C1ECFFED52C1
:1036C00064C1EFFF6CC100F06DC101F06EC102F08A
:1036D0006FC103F00001B0EF1EF08E0E006E01010D
:1036E0006451005E65C102F066C101F0028E0052B5
:1036F00009E0D890025202E1015204E002320132A4
:10370000002EF7D765AF05D0011E021E012AD8B4DE
:10371000022A0001EBEF1EF001016C91F2BE6C81F8
:10372000F29E000182513F0802E23F0E826F8251F9
:10373000822B036A410FE96E000E0320EA6E6BC113
:10374000EFFFF29E01016CB1F28E000181A108D061
:10375000186AF2BE188EF29EF7EC12F018BEF28EC6
:10376000C3EF1BF082513F080BE281A108D0186A19
:10377000F2BE188EF29EF7EC12F018BEF28EF2D75F
:103780006AC16BF1C9D7000C01016B51016A6A5D16
:1037900003E26AC100F00CD0006A080E6C6F6A3751
:1037A00000366B51005CD8B0006E01366C2FF7D735
:1037B0000001000C200E010165A9300E666F64C186
:1037C00000F064AF07D0001E002A00C064F12D0E87
:1037D000666F658F015064C16AF1640E6B6F000102
:1037E000D3DF00C064F1300E01240101676F64C1B2
:1037F0006AF10A0E6B6F0001C7DF300E0024010171
:10380000696F300E0124686F66C100F065A702D0B1
:1038100065AF659565B90BD065AF22D065B520D091
:1038200000C067F165B31CD000C068F119D0300E3C
:10383000675D16E100C067F1200E666F65A704D0D2
:103840006595658365AF6593300E685D09E100C0DD
:1038500068F1200E676F65A7F7D7659365AF65912F
:1038600065A505D066C16AF100017CDF010165A391
:1038700005D067C16AF1000175DF010165A104D0BF
:1038800068C16AF100016EDF69C16AF100016ADF97
:10389000000C83A124EF20F0010E0101656F3A0EA8
:1038A000646F140E666F00014FEF15F0010E0101F9
:1038B000656F3A0E646F676B910E666F000104ECE2
:1038C00016F002C04FF101C04EF14FC165F14EC17B
:1038D00064F10101676B930E666F00015CEC16F0FA
:1038E0000152D8A47ED00101656B646B676B910EA9
:1038F000666F000104EC16F002C04FF101C04EF1FA
:103900004FC165F14EC164F1C0EC16F001C050F139
:103910000101656B646B676B910E666F000104ECCF
:1039200016F002C04FF101C04EF14FC165F14EC11A
:1039300064F1C0EC16F001C051F10101656B646BDC
:10394000676B910E666F000104EC16F002C04FF138
:1039500001C04EF14FC165F14EC164F1C0EC16F0EB
:1039600001C052F10101525315E1036A5151880F10
:10397000E96E000E0320EA6E010E006E5051016EDA
:1039800004E0D8900036012EFCD70050FF0AEF1457
:10399000EF6E13D0036A5151880FE96E000E0320B9
:1039A000EA6E010E006E5051016E04E0D8900036B0
:1039B000012EFCD70050EF10EF6E010E5125646F01
:1039C000036A5151880FE96E000E0320EA6EEFCFB3
:1039D00065F164C166F165C167F1000169EC14F03D
:1039E00033D34FC165F14EC164F10101676B970E8E
:1039F000666F00015CEC16F00152D8A4A1D0010161
:103A0000656B646B676B910E666F000104EC16F0DA
:103A100002C04FF101C04EF14FC165F14EC164F1DA
:103A2000C0EC16F001C053F10101656B646B676B6C
:103A3000910E666F000104EC16F002C04FF101C058
:103A40004EF14FC165F14EC164F1C0EC16F001C0FA
:103A500054F1902D25D00101396B395107081EE32F
:103A6000036A3951880FE96E000E0320EA6EEF6A8F
:103A7000010E3925646F036A3951880FE96E000E13
:103A80000320EA6EEFCF65F164C166F165C167F1AD
:103A9000000169EC14F00101392BDFD70001906BB4
:103AA0000101396B395107084AE3010E006E3951A3
:103AB000016E04E0D8900036012EFCD7005054155A
:103AC00014E0036A3951880FE96E000E0320EA6E94
:103AD000010E006E5351016E04E0D8900036012EA5
:103AE000FCD70050EF10EF6E14D0036A3951880FE5
:103AF000E96E000E0320EA6E010E006E5351016E56
:103B000004E0D8900036012EFCD70050FF0AEF14D5
:103B1000EF6E010E3925646F036A3951880FE96E23
:103B2000000E0320EA6EEFCF65F164C166F165C156
:103B300067F1000169EC14F00101392BB3D785D28C
:103B40004FC165F14EC164F10101676B9F0E666F55
:103B500000015CEC16F001526FE10101656B646BD2
:103B6000676B910E666F000104EC16F002C04FF116
:103B700001C04EF14FC165F14EC164F1C0EC16F0C9
:103B800001C055F10101656B646B676B910E666F47
:103B9000000104EC16F002C04FF101C04EF14FC11C
:103BA00065F14EC164F1C0EC16F001C056F1902DE4
:103BB00025D00101396B395107081EE3036A3951D9
:103BC000880FE96E000E0320EA6EEF6A010E3925B8
:103BD000646F036A3951880FE96E000E0320EA6EA4
:103BE000EFCF65F164C166F165C167F1000169EC71
:103BF00014F00101392BDFD70001906B036A01013A
:103C00005551880FE96E000E0320EA6E56C1EFFF92
:103C1000010E5525646F036A5551880FE96E000E39
:103C20000320EA6EEFCF65F164C166F165C167F10B
:103C3000000169EC14F008D24FC165F14EC164F186
:103C40000101676BA70E666F00015CEC16F0015274
:103C500038E10101656B646B676B910E666F000163
:103C600004EC16F002C04FF101C04EF14FC165F1F6
:103C70004EC164F1C0EC16F001C057F10101656B53
:103C8000646B676B910E666F000104EC16F002C066
:103C90004FF101C04EF14FC165F14EC164F1C0EC6E
:103CA00016F001C058F10101585305E057C164F105
:103CB000000191EF17F057C164F10001AAEF17F06E
:103CC000C3D14FC165F14EC164F10101676BB20E02
:103CD000666F00015CEC16F00152D8A491D001018E
:103CE000656B646B676B910E666F000104EC16F0F8
:103CF00002C04FF101C04EF14FC165F14EC164F1F8
:103D0000C0EC16F001C059F10101656B646B676B83
:103D1000910E666F000104EC16F002C04FF101C075
:103D20004EF14FC165F14EC164F1C0EC16F001C017
:103D30005AF10101656B646B676B910E666F000150
:103D400004EC16F002C04FF101C04EF14FC165F115
:103D50004EC164F10101676B666B000145EF1AF01B
:103D600003C05EF102C05DF101C05CF100C05BF117
:103D70000101592D06D0000E0409CA6E5AC1CBFFAD
:103D800011D05951040806E1000E0509CA6E5AC146
:103D9000CBFF08D05951100805E1000E0609CA6E84
:103DA0005AC1CBFF766B756B746B890E736F5EC1F6
:103DB0007AF15DC179F15CC178F15BC177F1000105
:103DC000C4EC17F003C067F102C066F101C065F1F1
:103DD00000C064F182D402C065F101C064F1010148
:103DE0006533643365336433653364C1BEFF653363
:103DF0006531300B006EBD50CF0B0010BD6E25D16C
:103E00004FC165F14EC164F10101676BB60E666F7B
:103E100000015CEC16F001523DE10101656B646B41
:103E2000676B910E666F000104EC16F002C04FF153
:103E300001C04EF14FC165F14EC164F1C0EC16F006
:103E400001C05FF10101656B646B676B910E666F7A
:103E5000000104EC16F002C04FF101C04EF14FC159
:103E600065F14EC164F1C0EC16F001C060F10101D2
:103E70005F5307E1605302E18A9801D08A889398E2
:103E800008D05F2D06D0605302E18A9001D08A806D
:103E90009390DBD04FC165F14EC164F10101676BB6
:103EA000BD0E666F00015CEC16F0015229E10101C4
:103EB000656B646B676B910E666F000104EC16F026
:103EC00002C04FF101C04EF14FC165F14EC164F126
:103ED000C0EC16F001C037F10A0E0101666F37C160
:103EE00067F1000169EC14F0010E0101656F370EF6
:103EF000646F010E666F676B0001F6EC13F0A4D0DF
:103F00004FC165F14EC164F10101676BC70E666F69
:103F100000015CEC16F001521EE10101656B646B5F
:103F2000676B910E666F000104EC16F002C04FF152
:103F300001C04EF14FC165F14EC164F1C0EC16F005
:103F400001C061F10F0E0101666F61C167F10001EF
:103F500069EC14F079D04FC165F14EC164F10101F3
:103F6000676BCC0E666F00015CEC16F001521EE12F
:103F70000101656B646B676B910E666F000104EC69
:103F800016F002C04FF101C04EF14FC165F14EC1B4
:103F900064F1C0EC16F001C062F10C0E0101666F15
:103FA00062C167F1000169EC14F04ED04FC165F1B8
:103FB0004EC164F10101676BD50E666F00015CECC8
:103FC00016F0015241E10101656B646B676B910E64
:103FD000666F000104EC16F002C04FF101C04EF113
:103FE0004FC165F14EC164F1C0EC16F001C063F140
:103FF0000101646B6451000121EC0DF00101642B9F
:10400000006E6A6F0001B2EC1BF0070E0101645DE7
:10401000F1E163C164F11F0E656F0001DAEC1BF082
:10402000200E01016A6F0001B2EC1BF0010E0101CC
:10403000646F1F0E656F0001DAEC1BF00D0E0101BD
:104040006A6F0001B2EC1BF00101000112EF25F0D4
:1040500001013E91036A3C51DC0FE96E000E032022
:10406000EA6EEFCF3FF1036A3C51E40FE96E000EB8
:104070000320EA6EEF503F1B010E006E3D51016EB2
:1040800004E0D8900036012EFCD700503F1531E0F7
:10409000036A3C51DC0FE96E000E0320EA6EEFCF9D
:1040A0003FF1036A3C51EC0FE96E000E0320EA6E0B
:1040B000EF503F1B010E006E3D51016E04E0D890A1
:1040C0000036012EFCD700503F1513E03C51080D7F
:1040D000F350406B3F6F036A3D513F25016E4051E5
:1040E00003220150F40FE96E000E0320EA6EEF6A1E
:1040F000A4D0036A3C51DC0FE96E000E0320EA6E87
:10410000EFCF3FF1036A3C51E40FE96E000E03204C
:10411000EA6EEF503F1B010E006E3D51016E04E050
:10412000D8900036012EFCD700503F15D8A485D07A
:10413000036A3C51DC0FE96E000E0320EA6EEFCFFC
:104140003FF1036A3C51EC0FE96E000E0320EA6E6A
:10415000EF503F1B010E006E3D51016E04E0D89000
:104160000036012EFCD700503F1567E03C51080D8A
:10417000F350406B3F6F036A3D513F25016E405144
:1041800003220150F40FE96E000E0320EA6EEF5097
:104190001F0853E33C51080DF350406B3F6F036A17
:1041A0003D513F25016E405103220150F40FE96E4D
:1041B000000E0320EA6EEF2AEF5020083EE1036A6A
:1041C0003C51DC0FE96E000E0320EA6EEFCF3FF1A9
:1041D000010E006E3D51016E04E0D8900036012EB4
:1041E000FCD700503F1514E0036A3C51EC0FE96E18
:1041F000000E0320EA6E010E006E3D51016E04E0D8
:10420000D8900036012EFCD70050EF10EF6E14D07E
:10421000036A3C51EC0FE96E000E0320EA6E010EBA
:10422000006E3D51016E04E0D8900036012EFCD79F
:104230000050FF0AEF14EF6E3E81000E3EB1010EFA
:10424000016E000191EF21F08A9E939E0101396B6E
:1042500039510708D8A0C3D08A8C939C8A9C939C20
:104260008A8E939E036A3951E40F016E000E032279
:1042700003C03DF1036A3951DC0FE96E000E0320E3
:10428000EA6EEFCF3EF13DC1EAFF01C0E9FF3EC15A
:10429000EFFF8B929492130E006E002EFED700D08B
:1042A0008B8294923A6B3A510708D8A096D0948C9E
:1042B0003B6B82BC3B2B3B5302E0000E01D0010E56
:1042C0003B6F3B5314E0036A3951DC0FE96E000E7B
:1042D0000320EA6E010E006E3A51016E04E0D890A0
:1042E0000036012EFCD70050EF10EF6E14D0036A99
:1042F0003951DC0FE96E000E0320EA6E010E006EEC
:104300003A51016E04E0D8900036012EFCD70050DF
:10431000FF0AEF14EF6E39C13CF13AC13DF10001E3
:1043200097D6015253E0036A01013951EC0FE96E4F
:10433000000E0320EA6EEFCF3CF1010E006E3A5101
:10434000016E04E0D8900036012EFCD700503C15D9
:1043500002E0010E01D0000E3C6F3D6B3D510001AB
:1043600035EC0DF001013D2B006E6A6F0001B2ECDF
:104370001BF0060E01013D5DF1E13AC164F11F0E33
:10438000656F0001DAEC1BF0200E01016A6F00017D
:10439000B2EC1BF039C164F11F0E0101656F000121
:1043A000DAEC1BF0200E01016A6F0001B2EC1BF089
:1043B0003CC164F11F0E0101656F0001DAEC1BF0D6
:1043C0000D0E01016A6F0001B2EC1BF08B8094901E
:1043D0008B90949001013A2B66D7392B39D7000185
:1043E00013EF25F001014B51B6084B6F036A4CC126
:1043F0004FF14C8FD8904C334D334E330332023251
:10440000013200324B2FF6D74FAF0BD0001E011EEA
:10441000021E031E002AD8B4012AD8B4022AD8B436
:10442000032A000180EF22F0006A016A026A036A2F
:104430000101536B546B556B566B52515111501116
:104440004F112CE0200E576FD8904B374C374D371B
:104450004E3753375437553756375251565D08E16A
:104460005151555D05E15051545D02E14F51535D8D
:104470000FE34F51535F5051D8A0503D545F5151FD
:10448000D8A0513D555F5251D8A0523D565FD880BB
:104490000036013602360336572FD6D7010EEA6EA4
:1044A000530EE96E0001000CE9500101436F4251C7
:1044B000456F1CE041C176F140C175F13FC174F117
:1044C0003EC173F17A6B796B200E786F820E776F35
:1044D0000001C4EC17F003C041F102C040F101C07B
:1044E0003FF100C03EF10101452FE4D741C14EF13B
:1044F00040C14DF13FC14CF13EC14BF1000172D7BB
:1045000003C041F102C040F101C03FF100C03EF1E3
:10451000010141AF0DD04307438B3E1F3F1F401F9A
:10452000411F3E2BD8B43F2BD8B4402BD8B4412BDD
:104530003B0E4A6F9A0E496FCA0E486F476B0A0EC0
:10454000456F4251D8B4432B41C14EF140C14DF1AA
:104550003FC14CF13EC14BF14AC152F149C151F149
:1045600048C150F147C14FF100015EDF0150EFCF6C
:104570003EF1ECCF3FF1ECCF40F1ECCF41F10052F6
:1045800013E101014229455DD8A402D000010CD0FD
:1045900043510DE00F0B455D01E044E243BF42D0C3
:1045A00043BD05D0200E37D0200E0101431743AB89
:1045B0000FD0439B4251D8A443070050436F2D0EA8
:1045C0006A6F0001B2EC1BF001014351006E436BB6
:1045D0004251455D0DE10050436F2E0E6A6F0001A0
:1045E000B2EC1BF001014351006E200E4317000E88
:1045F000300E43AB10D0439B4251D8A44307005028
:10460000436F2D0E6A6F0001B2EC1BF001014351A4
:10461000006E436B300E002600C06AF10001B2EC60
:104620001BF001014AC14EF149C14DF148C14CF1A5
:1046300047C14BF1526B516B506B0A0E4F6F00012B
:10464000F3DE03C04AF102C049F101C048F100C0E5
:1046500047F10101452F78D70001F4EF23F081A540
:10466000D1D0010135511808D8B0CBD0010E006E61
:104670003651016E04E0D8900036012EFCD7005070
:1046800034153E6F010E006E3651016E04E0D89075
:104690000036012EFCD700503E5DD8A4ACD03A6B5A
:1046A0003B6B3C6B3D6B396B395107083FE3036A49
:1046B0003651F2CF3EF1F29E000110EC0DF00101F7
:1046C0003EBFF28E3E6F3E35006E0036FC0E001689
:1046D000C250C30B0010C26EC282C2B2FED7C4CF9A
:1046E00003F0C3CF77F1C4CF78F100013FEC18F0AD
:1046F000D8923DC17AF13CC179F13BC178F13AC120
:1047000077F103C07EF102C07DF101C07CF100C0F1
:104710007BF109EC19F003C03DF102C03CF101C08E
:104720003BF100C03AF10101392BBED73DC17AF10E
:104730003CC179F13BC178F13AC177F17E6B7D6B79
:104740007C6B820E7B6F00015AEC18F000C03EF1CA
:1047500001C03FF102C040F103C041F103C07AF152
:1047600002C079F101C078F100C077F101017E6BE0
:104770007D6B7C6B890E7B6F00015AEC18F003C0D7
:104780003DF102C03CF101C03BF100C03AF1010132
:104790003E6B3E5100014AEC0DF001013E2B006ED4
:1047A0006A6F0001B2EC1BF0040E01013E5DF1E105
:1047B00036C164F11F0E656F0001DAEC1BF0200EAC
:1047C00001016A6F0001B2EC1BF0890EE96E3DC178
:1047D00041F13CC140F13BC13FF13AC13EF1020E13
:1047E0000101426F000160D60D0E01016A6F0001E8
:1047F000B2EC1BF00101362B3651060801E2366B94
:10480000356B352B000114EF25F0F86AD09E088E29
:10481000EA6AE96AC150C00B0F09C16E070EB46E97
:10482000196A1A6A266A286A040E296E0C0E2A6E04
:104830002D6A826B876B010E906F200E916F926BC9
:104840006C0E936F650E946F640E956F966B6C0E85
:10485000976F650E986F640E996F5F0E9A6F630E77
:104860009B6F6F0E9C6F6C0E9D6F9E6B9F6F650EA6
:10487000A06F640EA16F5F0EA26F720EA36F6F0E1A
:10488000A46F770EA56FA66B610EA76F640EA86F5D
:10489000630EA96F5F0EAA6F650EAB6F6E0EAC6FE5
:1048A000610EAD6F620EAE6F6C0EAF6F650EB06FC6
:1048B000B16B700EB26F770EB36F6D0EB46FB56BD8
:1048C0006F0EB66F750EB76F740EB86F700EB96F4E
:1048D000750EBA6F740EBB6FBC6B690EBD6F6E0E3A
:1048E000BE6F740EBF6F650EC06F6E0EC16F730E1C
:1048F000C26F690EC36F740EC46F790EC56FC66B3D
:10490000740EC76F650EC86F730EC96F740ECA6FD1
:10491000CB6B730ECC6F680ECD6F750ECE6F740EB1
:10492000CF6F640ED06F6F0ED16F770ED26F6E0E99
:10493000D36FD46B720ED56F650ED66F700ED76FB6
:104940006F0ED86F720ED96F740EDA6FDB6B0101C8
:10495000346B000181950101356B366BC150C00B82
:104960000509C16EC090C082C084C08EC280C69A44
:10497000949E93809392210EC66E400EC76ED19086
:10498000800ED56ECD6A000E0409CA6EFF0ECB6E86
:10499000B16A070EB46E9250926E270E006E002E12
:1049A000FED700D0B450A19CB56A94948B940C0EA1
:1049B000BD6EBE6A010E3A6F370E396F010E3B6F46
:1049C0003C6B0001D6EF13F00101375303E1000106
:1049D00021EF14F000012FEF14F08A8E939E010155
:1049E000386B385107080EE3036A3851880FE96EB7
:1049F000000E0320EA6EEF6A8A8C939C8A9C939C3B
:104A0000382BEFD700018EEF14F065EC0DF022EF9C
:104A100015F081B301D0FDD711EC15F0205204E060
:0C4A200049EF1CF011D41BD6F7D703009F
:020000040030CA
:0E000000240E390E000580000FC00FE00F40E7
:00000001FF
;PIC18F2550
;CRC=E56D  CREATED="03-7-09 09:22"
