:020000040000FA
:0418000046EF22F09D
:08180800056ED8CF06F0E0CF19
:1018100007F00001E9CF0DF0EACF08F0E1CF09F0C1
:10182000E2CF0AF0D9CF0BF0DACF0CF0F3CF14F0FF
:10183000F4CF15F0FACF16F000C00FF001C010F091
:1018400002C011F003C012F004C013F0A0AA2CEFE4
:101850000CF0A1BA60EF13F00FC000F010C001F05F
:1018600011C002F012C003F013C004F00DC0E9FF74
:1018700008C0EAFF088E09C0E1FF0AC0E2FF0BC002
:10188000D9FF0CC0DAFF14C0F3FF15C0F4FF16C077
:10189000FAFF055007C0E0FF06C0D8FF1000F76A46
:1018A000AE0FF66E180EF7220900F5501200040371
:1018B0000100000000000000000000000000F76AC6
:1018C000CE0FF66E180EF7220900F5501200040034
:1018D0000100000000000000000000000000F76AA6
:1018E000EE0FF66E180EF7220900F55012004000B8
:1018F00008004000000000000000000000000000A0
:10190000000000000000000000000000000008AE21
:1019100003D0F2CF0EF0F29EF76A300FF66E190E7A
:10192000F7220900F55008AE02D00EBEF28E12006A
:101930004000000040000000000000000000000027
:101940000000000000000000000000000000000097
:10195000F76A600FF66E190EF7220900F5501200B3
:1019600009024300020100C0FA090400000102025A
:1019700001000524001001042402020524060001D0
:101980000524010001070581030800FA090401008C
:10199000020A000000070502024000FA0705820261
:1019A0004000FA00F76AB40FF66E190EF72209002C
:1019B000F55012000200F76AC60FF66E190EF722F4
:1019C0000900F55012001201100102000040D80475
:1019D00000FD020001020001F76AE80FF66E190E21
:1019E000F7220900F55012000403090412037400E1
:1019F0006B00720077006F0072006B0073001603BB
:101A00005000490043006E006F006D00650031001A
:101A100032003800F2CF0EF0F29EF76A2E0FF66E0B
:101A20001A0EF7220900F5500EBEF28E12000001C8
:101A30000203040809006D92699468946BEF13F037
:101A40006A6A689274EF13F0336A326A250E316E57
:101A5000800E306E346A356A080E366E866B81935E
:101A6000386A376A826B83918181000C0201996B1D
:101A7000995101080AE3036A99512E0FE96E000E8D
:101A80000320EA6EEF6A992BF3D70001DDDF206AAD
:101A9000010E216E1F6A000C010E0201A26FA251FD
:101AA0000F080EE3700EA225016E0F0E036ED8B064
:101AB000032A01C0E9FF03C0EAFFEF6AA22BEFD7B8
:101AC000246A236A0001000C400E0401016F050E18
:101AD000036F026B880E006F046B050E076F400EDC
:101AE000066F0001000C6A6A686A9F0E6B6E390E01
:101AF000696E6E6ABBDFD0DF160E706E68A602D00C
:101B00006896FCD76D98E0DF030E266E7AEF13F02F
:101B1000698468986D8280EF13F0689C86EF13F0FB
:101B200070A002D0D1DF7090689A8CEF13F09DC244
:101B300027F0000CFF0E276E000C02019B6B2D524C
:101B40003DE09B513F083AE32250000105E0020AC4
:101B50000FE0010A19E024D0036A2C50F2CF9DF265
:101B6000F29EF6DE02019DBFF28E9C6F000118D03E
:101B7000036A2C50F2CF9DF2F29E2EDF02019DBF30
:101B8000F28E9C6F00010CD0036A2C50F2CF9DF2B4
:101B9000F29E11DF02019DBFF28E9C6F000100D00A
:101BA0002C2A2D0602019B519B2B036A400FE96EE4
:101BB000050E0320EA6E9CC2EFFFC1D72D5204E14F
:101BC0009B51400801E01F6A9BC29DF20001AFDFFC
:101BD000000C2C6A226A05010351010A000105E08C
:101BE000030A08E0010A09E021D0120E2D6E030E4F
:101BF000226E1ED0430E2D6E1BD0020E226E036A83
:101C000005010251280FE96E000E0320EA6EEFCFA6
:101C10002CF0036A2C50F2CF9AF2F29E0001DCDE27
:101C200002019ABFF28E2D6E000102D083DF0CD02C
:101C30000501075305E12D50065D02E206C52DF0B2
:101C4000010E1F6E000179DF57EF0FF002019A536A
:101C500006E1040E266E00011FDFCED00201050E44
:101C6000266E9D6F800E9C6F010E9B6F9B510F081F
:101C7000D8A0C2D09E6B036A9B51F2CFA2F2F29E13
:101C800000011DDE0201A2BFF28E000A55E0040E23
:101C90009E6FD8909B35036AF2CFA2F2F29E0001AC
:101CA00036DE0900F5CF03F00201A2BFF28E9F6F6E
:101CB00003C0A0F29B51080DF350010F016E040EFA
:101CC000036ED8B0032A01C0E9FF03C0EAFF9FC238
:101CD000EFFF9B51080DF350020F016E040E036ECF
:101CE000D8B0032A01C0E9FF03C0EAFF9DC2ECFFA0
:101CF000ED529CC2EFFFD8909B35036AF2CFA2F25F
:101D0000F29E000104DE0900F5CF03F00201A2BF3C
:101D1000F28E9C2703509D23880EA16FA0B1A18154
:101D2000A0B3A1839B51080DF3CF01F0040E01C0B5
:101D3000E9FFEA6EA1C2EFFF036A9B51F2CFA2F264
:101D4000F29E0001ACDD0201A2BFF28E000A33E078
:101D50009E839B51080DF350060F016E040E036E17
:101D6000D8B0032A01C0E9FF03C0EAFF9DC2ECFF1F
:101D7000ED529CC2EFFFD8909B35036AF2CFA2F2DE
:101D8000F29E0001ACDD0900F5CF03F00201A2BF15
:101D9000F28E9C2703509D239B51080DF350040F96
:101DA000016E040E036ED8B0032A01C0E9FF03C020
:101DB000EAFF400EEF6E9E51060802E10E0E9E6F86
:101DC000036A9B51F2CFA2F2F29E000168DD02018C
:101DD000A2BFF28E020801E09E89700E9B25016E63
:101DE0000F0E036ED8B0032A01C0E9FF03C0EAFF5B
:101DF0009EC2EFFF9B2B3AD700014FEF0FF005017A
:101E0000015100010DE0010A15E0020A20E0060A76
:101E10002AE0030A31E00E0A30E0010A36E045D03C
:101E200021C040F50501416B020E02019D6F0001CA
:101E30007EDE3DD00501022D07D0010E21160201E4
:101E40009D6B000174DE02D0000174DE30D005010C
:101E5000022D06D0218202019D6B000168DE02D0B6
:101E6000000168DE24D0020E1F6E02C52BF00201B5
:101E70009D6B00015CDE1BD0ACD620C040F5010E8E
:101E800002019D6F000153DE12D0050102510108CD
:101E90000AE302C520F002C59AF20001D7D602017A
:101EA0009D6B000144DE000102D044DE00D0EFEF64
:101EB00010F020C09AF205010151000105E00A0A64
:101EC0000CE0010A31E045D00501406B416B020E88
:101ED00002019D6F00012BDE3ED002019A5321E0EA
:101EE000010E9A5D036AF2CF9BF2F29E00015ADD69
:101EF00002019BBFF28E016E0501045DD8A002D0E5
:101F000002010FD0036A04512E0FE96E000E032068
:101F1000EA6EEFCF40F5010E02019D6F000107DE72
:101F200002D0000107DE17D002019A530FE0036AC6
:101F3000050104512E0FE96E000E0320EA6E02C562
:101F4000EFFF02019D6B0001F2DD02D00001F2DD26
:101F500002D0F0DD00D0EFEF10F002019B919ABFAC
:101F60009B819A9F9BA112D0036A9A51F2CF9CF257
:101F7000F29E000194DC02019CBFF28E000A02E195
:101F8000000E01D0010E016E12D011D0036A9A51D9
:101F9000F2CF9CF2F29E000192DC02019CBFF28E15
:101FA000000A02E1000E01D0010E016E00D0000116
:101FB00050EF10F002019B919ABF9B819A9F9BA1C9
:101FC00010D09A51080DF350040F016E040E036EE9
:101FD000D8B0032A01C0E9FF03C0EAFF880EEF6E04
:101FE00009D09A51080DF3CF01F0040E01C0E9FFAA
:101FF000EA6EEF6A00015FEF10F002019B919ABF59
:102000009B819A9F9BA110D09A51080DF350040F09
:10201000016E040E036ED8B0032A01C0E9FF03C0AD
:10202000EAFF840EEF6E0AD09A51080DF3CF01F04B
:10203000040E01C0E9FFEA6E840EEF6E000167EF47
:1020400010F002019B919ABF9B819A9F9BA110D097
:102050009A51080DF350040F016E040E036ED8B0B0
:10206000032A01C0E9FF03C0EAFFEFCF9CF20AD0C8
:102070009A51080DF3CF01F0040E01C0E9FFEA6E9A
:10208000EFCF9CF29CAF02D09CB502D0000E01D0E5
:10209000010E016E000173EF10F004C59AF25DD7D6
:1020A00001522EE005010151010A000105E0020A7A
:1020B0000BE0030A11E022D004C59AF27BD702019B
:1020C0009D6B000134DD1CD004C59AF296D7020145
:1020D0009D6B00012CDD14D00501406B416B04C5E4
:1020E0009AF20001AED7015203E0010E0501406FE4
:1020F000020E02019D6F00011ADD02D01BDD00D02F
:10210000EFEF10F0FE0E276E000C0501042D01D03C
:1021100002D004534EE1015100010BE0010A0DE031
:10212000210A1CE0010A1FE0030A30E0010A35E041
:102130003DD0010E876FE6DF3BD0050EEA6E400E04
:10214000E96EE26A390EE16E080E016EE6CFEEFF2F
:10215000012EFCD706C59DF2EADC2AD0020E876F5D
:102160008183D0DF25D0050EEA6E400EE96EE26A6B
:10217000300EE16E070E016EE6CFEEFF012EFCD7AA
:10218000070E02019D6F0001D2DC12D002C586F05D
:1021900002019D6B0001CBDC0BD002C538F003C5FA
:1021A00037F002019D6B0001C2DC02D0C3DC00D01D
:1021B00005010001EFEF10F01F6A050100517F0BD0
:1021C000000107E0010A06E0030A05E0230A04E033
:1021D00004D015D66ED661D798D7ACDC00D0F9EF15
:1021E00012F002019A51080DF3CF01F0040E01C064
:1021F000E9FFEA6EEFCF9CF29B51020806E19CAD2D
:1022000002D09B6B02D0010E9B6F9B51030812E121
:10221000840E9C6F9A51080DF350040F016E040E4A
:10222000036ED8B0032A01C0E9FF03C0EAFF840EA1
:10223000EF6E09D09B2D03D0C80E9C6F04D09B532A
:1022400002E1880E9C6F036A010E026E9A51006EC5
:1022500005E0D89002360336002EFBD70250FF0A65
:10226000006EFF0E031A0050231603502416D89058
:102270009A35036AF2CF9FF2F29E000187EC0CF0D0
:102280000900F5CF03F002019FBFF28E9D6F03C0DE
:102290009EF29A51080DF350010F016E040E036E69
:1022A000D8B0032A01C0E9FF03C0EAFF9DC2EFFFD7
:1022B0009EB19C819EB39C839A51080DF3CF01F08F
:1022C000040E01C0E9FFEA6E9CC2EFFF0001000CA2
:1022D0000201A651080DF350040F016E040E036EA7
:1022E000D8B0032A01C0E9FF03C0EAFFEFCFAAF28A
:1022F000AABF5BD0A651080DF350050F016E040E66
:10230000036ED8B0032A01C0E9FF03C0EAFFA7C2E9
:10231000EFFFA951020816E1A651080DF350040F72
:10232000016E040E036ED8B0032A01C0E9FF03C09A
:10233000EAFFEFCFAAF2AAAD02D0A96B02D0010E3C
:10234000A96F13D0A951040810E1A651080DF3CFCD
:1023500001F0040E01C0E9FFEA6EEFCFAAF2AAADC8
:1023600003D0010EA96F01D0A96BA92D03D0C80E0F
:10237000AA6F04D0A95302E1880EAA6FA8B1AA815E
:10238000A8B3AA83A651080DF350040F016E040EE2
:10239000036ED8B0032A01C0E9FF03C0EAFFAAC256
:1023A000EFFF010E016E03D000D0000E016E0001A0
:1023B000000C8751010A03E0030A14E026D0EA6A00
:1023C000390EE96E050EE26EE16A080E016EE6CF87
:1023D000EEFF012EFCD702019D6B000197EC0DF082
:1023E000876B17D0EA6A300EE96E050EE26EE16A7D
:1023F000070E016EE6CFEEFF012EFCD7876B0201C0
:102400009D6B000197EC0DF004D0876B64EC0DF030
:1024100000D031EF12F002019B51080DF350010F73
:10242000016E040E036ED8B0032A01C0E9FF03C099
:10243000EAFF036AEFCF01F003C002F0000128EFCA
:1024400012F08381856B020E02019B6F0001E3D7BE
:1024500001C084F038EF12F002019A5304E1000148
:10246000A8D717D002019A51020804E10001E9D768
:1024700010D00201036A010E026E9A51006E05E04F
:10248000D89002360336002EFBD702502312035099
:1024900024120001000C9BC26EFF02019B5303E05B
:1024A000040E266E02D0020E266E00015DEF12F0C1
:1024B000206A1F6A2BC09BF2EED7DEEF12F00201FA
:1024C0009B51080DF350040F016E040E036ED8B03B
:1024D000032A01C0E9FF03C0EAFFEFCFA3F2A3BFC5
:1024E00041D09B51080DF350060F016E040E036E90
:1024F000D8B0032A01C0E9FF03C0EAFFECCF03F024
:10250000ED52EFCFA4F203C0A5F2A26BA16BA251D2
:102510009F5D1AE303E19E51A15D16E29CC2E9FFB3
:102520009DC2EAFFEFCFA8F2A5C2EAFFA4C2E9FF6D
:10253000A8C2EFFFA42BD8B4A52B9C2BD8B49D2BFD
:10254000A12BD8B4A22BE3D79BC2A6F29FC2A8F2BC
:102550009EC2A7F2A0C2A9F20001BADE015004D0C7
:1025600000D00201000E016E0001000C82530FE04A
:102570008191020E02019B6F9D6B410E9C6F9F6BC0
:1025800082C09EF2020EA06F000199DF826B000CE8
:10259000825302E0EBDF01D08181E5EF12F002010E
:1025A0009A530EE11F2C05D000019DEC0DF006D0D2
:1025B00002011F50020803E100017AD7020106D090
:1025C0009A51020803E10001E3D702010001000C67
:1025D0006C300201996F993399331F0E99176C5221
:1025E00046E1040100513C0B340821E1046B000179
:1025F000E3D5273C07D002019A6B030E9B6F0001C5
:10260000F0DD12D002019A6B020E9B6F0001E9DD32
:102610002750FE0809E00201A66BA86B27C0A7F2AD
:10262000040EA96F000154DE6D981ED00401005104
:102630003C0B04081AE102019A6B00010DDF020154
:102640009A6B020E9B6F0001CCDD2750FE080CE058
:10265000273C01D009D00201A66BA86B27C0A7F2C6
:10266000010EA96F000134DE040127D002016C5075
:10267000040816E1FF0E276E9A6B000190DF273CDD
:1026800001D00AD00201A66BA86B27C0A7F2020EE8
:10269000A96F00011DDE02D064EC0DF00DD0020127
:1026A0006CB406D099C29AF20001D6DE05D00201C0
:1026B00099C29AF2000173DF0401000191EF13F057
:1026C000265201E12FD068522DE068A404D069A4FD
:1026D00002D01BEF0DF06DA201D024D068A204D06F
:1026E00069A202D020EF0DF068A004D069A002D04A
:1026F00073EF0DF068A804D069A802D088EF0DF040
:1027000068AC04D069AC02D08DEF0DF068AA04D09B
:1027100069AA02D090EF0DF068A604D069A602D095
:1027200057D76896A19A2CEF0CF002017B6B795178
:102730007B5D18E2036A7B517725E96E78510320AF
:10274000EA6E7B517A257E6FF2CF7FF2F29E7EC2D7
:10275000A9FFA69CA69EA680A8507FBFF28EEF6E12
:102760007B2BE5D70001D6EF22F00201886B865162
:10277000885D24E288518725896F036A8851842502
:10278000E96E85510320EA6EEFCF8AF289C2A9FF74
:102790008AC2A8FFA69CA69EA684F2CF00F0F29E55
:1027A0000F01550EA76EAA0EA76EA682A6B2FED77F
:1027B000A6940050F2120201882BD9D70001000C18
:1027C0000F0E0201766F020E856F760E846F010E7A
:1027D000866F876B0001C9DFDCEF22F0886B8851C0
:1027E000070842E3D8908835036AB60FE96E000EF9
:1027F0000320EA6EEC6AED52EF6AD8908835036ADE
:10280000C60FE96E000E0320EA6EEC6AED52EF6A25
:10281000D8908835036AD60FE96E000E0320EA6E61
:10282000EC6AED52EF6A896B89510F081BE38851FE
:10283000200DF3500201786B776FD8900001893535
:10284000036A02017725016E785103220150E60FD9
:10285000E96E000E0320EA6EEC6AED52EF6A0001A9
:10286000892BE2D7882BBBD7DFEF22F00201716BF7
:10287000726B736B0001886B885101080AE3036A6D
:102880008851740FE96E020E0320EA6EEF6A882BFE
:10289000F3D7F8EF22F08A9A939AC95089C2C9FFF8
:1028A000C730FEE3C9508AC2C9FFC730FEE3C95032
:1028B00087C2C9FFC730FEE3C95088C2C9FFC7300D
:1028C000FEE38A8A939A0000000C020EEA6E770EED
:1028D000E96EEF500EE00F0E016E006A002EFED77B
:1028E000012EFBD78F0E006E002EFED70000EF2EBC
:1028F000F2D7000C0B0E0201876F070E886F0B0ECC
:10290000896F070E8A6F0001C6DF0C0E0201876F08
:10291000010E886F0C0E896F010E8A6F0001BBDFFC
:102920000F0E0201876F886B896F8A6B0001B3DF1E
:102930000A0E0201876F0F0E886F0A0E896F0F0E45
:102940008A6F0001A8DF010E0201876F886B896F13
:102950008A6B0001A0DF020E0201876F886B896F0E
:102960008A6B000198DF030E0201876F886B896F05
:102970008A6B000190DF040E0201876F180E886FCA
:10298000040E896F8A6B000186DF050E0201876FD6
:10299000180E886F050E896F8A6B00017CDF060EAA
:1029A0000201876F886B896F8A6B000174DF070EE5
:1029B0000201876F886B896F8A6B00016CDF080EDC
:1029C0000201876F886B896F8A6B000164DF886BF7
:1029D00088513F0825E3400ED8808855006E0030AE
:1029E0000201776F77333F0E7717400ED8800001D2
:1029F0008855006E00300201786F78333F0E7817EB
:102A00000A0E876F77C288F2896F78C28AF2000156
:102A100042DF040E0201776F000157DF882BD8D701
:102A20000A0E0201876F0F0E886F0A0E896F0F0E54
:102A30008A6F000130DF010E0201876F886B896F9A
:102A40008A6B000128DF020E0201876F886B896F95
:102A50008A6B000120DF030E0201876F180E886F5A
:102A6000030E896F8A6B000116DF040E0201876F67
:102A7000240E886F040E896F8A6B00010CDF050E2F
:102A80000201876F240E886F050E896F8A6B000123
:102A900002DF060E0201876F180E886F060E896F1F
:102AA0008A6B0001F8DE070E0201876F886B896F61
:102AB0008A6B0001F0DE080E0201876F886B896F58
:102AC0008A6B0001E8DE886B88513F0825E3400EE1
:102AD000D8808855006E00300201776F77333F0E43
:102AE0007717400ED88000018855006E0030020133
:102AF000786F78333F0E78170A0E876F77C288F2A7
:102B0000896F78C28AF20001C6DE040E0201776F77
:102B10000001DBDE882BD8D70A0E0201876F0F0E6B
:102B2000886F0A0E896F0F0E8A6F0001B4DE010EE6
:102B30000201876F886B896F8A6B0001ACDE020E21
:102B40000201876F180E886F020E896F8A6B000171
:102B5000A2DE030E0201876F240E886F030E896FB9
:102B60008A6B000198DE040E0201876F420E886FA7
:102B7000040E896F8A6B00018EDE050E0201876FDD
:102B8000420E886F050E896F8A6B000184DE060E87
:102B90000201876F240E886F060E896F8A6B000111
:102BA0007ADE070E0201876F180E886F070E896F95
:102BB0008A6B000170DE080E0201876F886B896FD7
:102BC0008A6B000168DE886B88513F0825E3400E60
:102BD000D8808855006E00300201776F77333F0E42
:102BE0007717400ED88000018855006E0030020132
:102BF000786F78333F0E78170A0E876F77C288F2A6
:102C0000896F78C28AF2000146DE040E0201776FF6
:102C100000015BDE882BD8D70A0E0201876F76C2CF
:102C200088F2896F76C28AF2000135DE010E886F64
:102C3000885108080BE388C087F20201886B88C0BE
:102C400089F28A6B000127DE882BF2D7FAEF22F097
:102C50006D6A696A080E6F6E945030090201946EB5
:102C6000266A186AF2BE188EF29E000136EC0DF04C
:102C700018BEF28E246A236A61EF16F0186AF2BE5B
:102C8000188EF29E36EC0DF018BEF28E6D6A140EA0
:102C90006F6E696A6D86010E266E52EF16F06DB684
:102CA00001D0ECD7262C0BD06DBA09D0686A696ABE
:102CB000A08AC00EF212110E696E020E266E000C72
:102CC000C7D7EDDF26500208FCE1FEEF22F083B10A
:102CD00001D0FDD78551852B036A880FE96E050E5B
:102CE0000320EA6EEFCF89F2020100018451855D75
:102CF0000EE38391186AF2BE188EF29E020E020154
:102D00009A6F9B6F0001F1EC10F018BEF28E020179
:102D100089C201F0000192EF16F00201876B86076D
:102D20000001D5D701C088F2020188511F0810E2C6
:102D300088517E080DE38651875D0AE28751872B13
:102D4000036A8425E96E85510320EA6E88C2EFFF8D
:102D500088510D08E5E1036A87518425E96E8551A4
:102D60000320EA6EEF6A000133EF1AF00201856B6F
:102D700084512F080CE28451390809E38539866FA4
:102D8000F00E8617300E845D8625856F09D0853953
:102D9000866FF00E8617410E845D0A0F8625856FBB
:102DA00085C201F00001000C8DC291F28CC290F23C
:102DB00091C203F0020190C2E9FF91C2EAFFEF5213
:102DC00030E08FC293F28EC292F293C203F092C2AD
:102DD000E9FF93C2EAFFEF520AE18C51905D006E69
:102DE0008D519159036E00C001F023D010D090C2D4
:102DF000E9FF91C2EAFFEFCF94F293C203F092C2CF
:102E0000E9FF93C2EAFFEF50945D01E104D0922BF9
:102E1000D8B4932BDAD7902BD8B4912B0001C8D714
:102E200002018C51905D006E8D519159036E00C06E
:102E300001F0000171EF17F08DC291F28CC290F297
:102E400091C203F0020190C2E9FF91C2EAFFEF5282
:102E50002AE08FC293F28EC292F293C203F092C222
:102E6000E9FF93C2EAFFEF5218E090C2E9FF91C276
:102E7000EAFFEFCF94F293C203F092C2E9FF93C24C
:102E8000EAFFEF50945D05E190C201F091C202F0BB
:102E90000DD0922BD8B4932BE0D7902BD8B4912B94
:102EA0000001CED70201000E016E026E000192EF0A
:102EB00017F002018451851104E085C203F08451AA
:102EC00003D01AC003F01950886F03C089F289C279
:102ED0008DF288C28CF287C28FF286C28EF2000118
:102EE00063D7015002018827000E892389C203F0AD
:102EF00088C2E9FF89C2EAFFEF520AE119C0E9FF7F
:102F00001AC0EAFF200EEF6E000E016E026E27D08F
:102F100089C28DF288C28CF287C28FF286C28EF28D
:102F200000018AD702C08BF201C08AF28BC203F083
:102F300002018AC2E9FF8BC2EAFFEF5208E08AC2AF
:102F4000E9FF8BC2EAFFEF6A8A2BD8B48B2B8BC2C6
:102F50001AF08AC219F088C201F089C202F0000199
:102F6000000C006A016A02018B51D8908CB10026D6
:102F7000003201328CB30026003201328CB50026BB
:102F8000003201328CB70026003201328CB90026A3
:102F9000003201328CBB0026003201328CBD00268B
:102FA000003201328CBF002600320132000147EFAF
:102FB00018F00201896B876B0A0E886F866B84514B
:102FC000851103E1000E016EC3D08951892B036A7C
:102FD0008425E96E85510320EA6EEFCF8AF28A518B
:102FE0002D080DE1010E876F8951892B036A842515
:102FF000E96E85510320EA6EEFCF8AF20DD08A5137
:103000002B080AE18951892B036A8425E96E8551D1
:103010000320EA6EEFCF8AF28A512F08D8B090D001
:103020008A513908D8A08CD08A51300821E1036A2E
:1030300089518425E96E85510320EA6EEF507808A6
:103040000AE0036A89518425E96E85510320EA6EFE
:10305000EF5058080DE1100E886F892B8951892B8C
:10306000036A8425E96E85510320EA6EEFCF8AF268
:1030700088510A081DE18A512F0819E28A5139083E
:1030800016E30A0E8B6F86C28CF200016AD7300EEF
:1030900002018A5D0124866F8951892B036A842588
:1030A000E96E85510320EA6EEFCF8AF2E4D748D06B
:1030B0008851100845E18A51600806E28A517A0871
:1030C00003E38A51DF0B01D08A518A6F8A512F089E
:1030D00003E28A51390806E28A51400831E28A51F6
:1030E00046082EE38A512F080CE28A51390809E379
:1030F00086398B6FF00E8B17300E8A5D8B25866FAD
:1031000009D086398B6FF00E8B17410E8A5D0A0F3E
:103110008B25866F8951892B036A8425E96E855139
:103120000320EA6EEFCF8AF28A51600806E28A51E4
:103130007A0803E38A51DF0B01D08A518A6FC6D720
:10314000872D04D088510A0801E1866D86C201F0FE
:103150000001000C02018C518E03F3CF01F0F4CF7B
:1031600000F08F03F35000268D518E03F3500020A2
:10317000026E00012FEF19F002018A6B886B0A0EB4
:10318000896F876B866B8451851104E1000E016E97
:10319000026EE8D08A518A2B036A8425E96E855134
:1031A0000320EA6EEFCF8BF28B512D080DE1010E5B
:1031B000886F8A518A2B036A8425E96E8551032022
:1031C000EA6EEFCF8BF20DD08B512B080AE18A51BA
:1031D0008A2B036A8425E96E85510320EA6EEFCFBE
:1031E0008BF28B512F08D8B0AFD08B513908D8A0B3
:1031F000ABD08B51300821E1036A8A518425E96EF6
:1032000085510320EA6EEF5078080AE0036A8A517C
:103210008425E96E85510320EA6EEF5058080DE1D0
:10322000100E896F8A2B8A518A2B036A8425E96ED6
:1032300085510320EA6EEFCF8BF289510A0823E112
:103240008B512F081FE28B5139081CE38D6B0A0E3E
:103250008C6F87C28FF286C28EF200017BD7300E50
:1032600002018B5D0124866F000E0220876F8A5158
:103270008A2B036A8425E96E85510320EA6EEFCF1D
:103280008BF2DED761D0895110085EE18B51600866
:1032900006E28B517A0803E38B51DF0B01D08B518F
:1032A0008B6F8B512F0803E28B51390806E28B514B
:1032B00040084AE28B51460847E38B512F0819E238
:1032C0008B51390816E386358C6F87358D6F8C37B7
:1032D0008D378C378D378C378D37F00E8C17300E3D
:1032E0008B5D8C25016E000E8D2101C086F2876FEB
:1032F00016D086358C6F87358D6F8C378D378C3730
:103300008D378C378D37F00E8C17410E8B5D0A0F81
:103310008C25016E000E8D2101C086F2876F8A51C7
:103320008A2B036A8425E96E85510320EA6EEF50EB
:103330008B6F600806E28B517A0803E38B51DF0B39
:1033400001D08B518B6FADD789510A0807E1882DC9
:1033500005D0861F871F862BD8B4872B86C201F025
:1033600087C202F000013DEF1CF002018451060803
:1033700001E216D00101E6517F0B03E100018187D4
:103380000101010E006E02018451016E04E0D8902B
:103390000036012EFCD700500101E613E92B020193
:1033A0000001BCEF1DF002018451060801E215D0B6
:1033B000010E006E8451016E04E0D8900036012E9B
:1033C000FCD70050FF0A0101E617E6517F0B03E12D
:1033D000000181970101E90702010001BCEF1DF026
:1033E00002018691F2BE8681F29E000182513F0861
:1033F00002E23F0E826F8251822B036A410FE96E17
:10340000000E0320EA6E85C2EFFFF29E020186B134
:10341000F28E000181A108D0186AF2BE188EF29EC9
:10342000B6EC12F018BEF28E27EF1AF082513F0868
:103430000BE281A108D0186AF2BE188EF29EB6EC9B
:1034400012F018BEF28EF2D784C285F2C9D7000CF2
:1034500083A175EF1EF00201856BA40E846F0F0E21
:10346000866F00015AD4A4516C08D8A49ED0A551EF
:10347000300804E0A5513108D8A497D0A6C084F242
:1034800075DC01C08CF0A7C084F270DC01C08DF047
:10349000A5C084F26BDC01C08EF08C5107080AE3F2
:1034A0008DC08FF0070ED8808C55906F8FC08CF038
:1034B00090C08DF08E5325E1D8908D35036A930F1F
:1034C000E96E000E0320EA6E036A010E026E8C5153
:1034D000006E05E0D89002360336002EFBD702506E
:1034E000006A0006001AFF0E031A0050EF14006E67
:1034F0000350EC14036E0050ED52EF6E03C0ECFF6E
:103500001ED0D8908D35036A930FE96E000E03200C
:10351000EA6E036A010E026E8C51006E05E0D890CF
:1035200002360336002EFBD70250EF10006E035018
:10353000EC10036E0050ED52EF6E03C0ECFFD8901C
:103540008D35036A930FE96E000E0320EA6EECCF0F
:1035500085F2ED52EFCF84F284C291F00001D89051
:103560008D35036A930FE96E000E0320EA6EECCFEF
:1035700085F2ED52EFCF84F20201846B8551000198
:10358000926F010E8D250201846F010E00018D25C1
:103590000201856F84C287F291C088F2896F92C060
:1035A0008AF200014BEC14F0A0D3A4516C08D8A40B
:1035B00027D1A5516308D8A423D10201856BA40E9D
:1035C000846F876BB30E866F000173DC02C08BF0D3
:1035D00001C08AF00201856B846B876BB30E866F26
:1035E000000167DC02C08BF001C08AF08BC085F25D
:1035F0008AC084F2DEDC01C077F20201856B846B45
:10360000876BB30E866F000154DC02C08BF001C0E3
:103610008AF08BC085F28AC084F2CBDC01C078F2DC
:10362000A32D47D0886B8851070842E3D89088358E
:10363000036A930FE96E000E0320EA6EEC6AED5206
:10364000EF6AD8908835036A930FE96E000E032065
:10365000EA6EECCF85F2ED52EFCF84F284C291F0A6
:103660000001D8908835036A930FE96E000E03209D
:10367000EA6EECCF85F2ED52EFCF84F20201846B5B
:1036800085510001926F010E88250201846F010EA1
:10369000000188250201856F84C287F291C088F2FB
:1036A000896F92C08AF200014BEC14F0882BBBD7D3
:1036B000A36B886B88510708D8A0A1D0020177516D
:1036C000070807E388C079F2070ED88077557A6F2C
:1036D00004D077C279F288C07AF2010E006E000140
:1036E0008851016E04E0D8900036012EFCD70050BE
:1036F000020178151FE0D8907A35036A930FE96EBE
:10370000000E0320EA6E036A010E026E7951006E0C
:1037100005E0D89002360336002EFBD70250EF109A
:10372000006E0350EC10036E0050ED52EF6E03C0BC
:10373000ECFF24D0D8907A35036A930FE96E000E1F
:103740000320EA6E036A010E026E7951006E05E0F5
:10375000D89002360336002EFBD70250006A0006CE
:10376000001AFF0E031A0050EF14006E0350EC1401
:10377000036E0050ED52EF6E03C0ECFF7751070867
:103780001EE3D8907A35036A930FE96E000E03208A
:10379000EA6EECCF85F2ED52EFCF84F284C291F065
:1037A0000001010E02017A25846F876F91C088F2B3
:1037B000896B8A6B00014BEC14F01FD00201D8908A
:1037C0007A35036A930FE96E000E0320EA6EECCFA0
:1037D00085F2ED52EFCF84F285C284F284C292F07A
:1037E0000001010E02017A25846F876B886B896F57
:1037F00092C08AF200014BEC14F0882B5BD775D293
:10380000A4516C08D8A46ED1A5517208D8A46AD16D
:103810000201856BA40E846F876BB30E866F000167
:1038200059EC17F002C08BF001C08AF00201856BE1
:10383000846B876BB30E866F000159EC17F002C0E2
:103840008BF001C08AF08BC085F28AC084F2D9EC7B
:1038500017F001C07BF20201856B846B876BB30E9E
:10386000866F000159EC17F002C08BF001C08AF09E
:103870008BC085F28AC084F27FD402C07DF201C081
:103880007CF2A32D47D0886B8851070842E3D8907B
:103890008835036A930FE96E000E0320EA6EEC6A26
:1038A000ED52EF6AD8908835036A930FE96E000EE7
:1038B0000320EA6EECCF85F2ED52EFCF84F284C2A2
:1038C00091F00001D8908835036A930FE96E000EDD
:1038D0000320EA6EECCF85F2ED52EFCF84F20201C5
:1038E000846B85510001926F010E88250201846F5F
:1038F000010E000188250201856F84C287F291C004
:1039000088F2896F92C08AF200014BEC14F0882B88
:10391000BBD7A36B886B88510F08D8A0D3D0885130
:103920000708D8A076D07BC27FF2070ED8808855D2
:1039300002017E6F010E006E00018851016E04E0ED
:10394000D8900036012EFCD7005002017C15006E85
:10395000036A005003101FE0D8907E35036A930F6E
:10396000E96E000E0320EA6E036A010E026E7F51BB
:10397000006E05E0D89002360336002EFBD70250C9
:10398000EF10006E0350EC10036E0050ED52EF6E1E
:1039900003C0ECFF24D0D8907E35036A930FE96E04
:1039A000000E0320EA6E036A010E026E7F51006E64
:1039B00005E0D89002360336002EFBD70250006A8D
:1039C0000006001AFF0E031A0050EF14006E035099
:1039D000EC14036E0050ED52EF6E03C0ECFF010ECD
:1039E0007E25846FD8907E35036A930FE96E000EB2
:1039F0000320EA6EECCF86F2ED52EFCF85F284C25F
:103A000087F285C288F2896B8A6B00014BEC14F057
:103A100057D0010E006E8851016E04E0D890003638
:103A2000012EFCD7005002017C15006E036A005085
:103A3000031021E0D8907B35036A930FE96E000EE6
:103A40000320EA6E036A010E026E00018851006EC7
:103A500005E0D89002360336002EFBD70250EF1057
:103A6000006E0350EC10036E0050ED52EF6E03C079
:103A7000ECFF26D00201D8907B35036A930FE96EE4
:103A8000000E0320EA6E036A010E026E00018851E7
:103A9000006E05E0D89002360336002EFBD70250A8
:103AA000006A0006001AFF0E031A0050EF14006EA1
:103AB0000350EC14036E0050ED52EF6E03C0ECFFA8
:103AC000882B29D77DC292F00001010E02017B25CF
:103AD000846F876B886B896F92C08AF200014BEC10
:103AE00014F003D1A451610848E1A551650845E1EE
:103AF0000201856BA40E846F876BB30E866F000185
:103B000059EC17F002C08BF001C08AF00201856BFE
:103B1000846B876BB30E866F000159EC17F002C0FF
:103B20008BF001C08AF08BC085F28AC084F2D9EC98
:103B300017F001C080F20201856B846B876BB30EB6
:103B4000866F000159EC17F002C08BF001C08AF0BB
:103B50008BC085F28AC084F2D9EC17F001C081F2E3
:103B60000201815305E080C284F20001B5EF19F033
:103B700080C284F2000117D4B8D0A45169083AE198
:103B80000201856BA40E846F876BB30E866F0001F4
:103B900059EC17F002C08BF001C08AF00201856B6E
:103BA000846B876BB30E866F000159EC17F002C06F
:103BB0008BF001C08AF08BC085F28AC084F2D9EC08
:103BC00017F001C076F20A0E0201876F76C288F202
:103BD000896F76C28AF200014BEC14F0020E0201EA
:103BE000856F760E846F010E866F876B0001B5ECD2
:103BF00013F07BD0A45174082FE10201856BA40E51
:103C0000846F876BB30E866F000159EC17F002C00A
:103C10008BF001C08AF00201856B846B876BB30E59
:103C2000866F000159EC17F002C08BF001C08AF0DA
:103C30008BC085F28AC084F2D9EC17F001C082F201
:103C40000F0E0201876F82C288F2896F82C28AF2E8
:103C500000014BEC14F049D0A45173082FE102018C
:103C6000856BA40E846F876BB30E866F000159ECD1
:103C700017F002C08BF001C08AF00201856B846BE3
:103C8000876BB30E866F000159EC17F002C08BF002
:103C900001C08AF08BC085F28AC084F2D9EC17F09B
:103CA00001C083F20C0E0201876F83C288F2896F14
:103CB00083C28AF200014BEC14F017D0A4516608BD
:103CC00014E1660E0201846F000116EC1AF00A0E70
:103CD0000201846F000116EC1AF00000170E0201B9
:103CE000846F000116EC1AF0000007EF23F08195B5
:103CF000D89002017735036AB60FE96E000E0320F3
:103D0000EA6EECCF7AF2ED52EFCF79F2D8907735B8
:103D1000036AC60FE96E000E0320EA6EECCF03F0D3
:103D2000ED52EF50791B03507A1B036A010E026EAD
:103D30007851006E05E0D89002360336002EFBD78E
:103D400002507915006E03507A15036E005003106F
:103D500046E0D8907735036AB60FE96E000E03206F
:103D6000EA6EECCF7AF2ED52EFCF79F2D890773558
:103D7000036AD60FE96E000E0320EA6EECCF03F063
:103D8000ED52EF50791B03507A1B036A010E026E4D
:103D90007851006E05E0D89002360336002EFBD72E
:103DA00002507915006E03507A15036E005003100F
:103DB00016E07751200DF3507A6B796FD8907835F3
:103DC000036A7925016E7A5103220150E60FE96EEC
:103DD000000E0320EA6EEC6AED52EF6A08D1D8902B
:103DE0007735036AB60FE96E000E0320EA6EECCF5A
:103DF0007AF2ED52EFCF79F2D8907735036AC60F99
:103E0000E96E000E0320EA6EECCF03F0ED52EF50A6
:103E1000791B03507A1B036A010E026E7851006E03
:103E200005E0D89002360336002EFBD702507917F2
:103E300003507A177953D8A4DAD07A53D8A4D7D0BC
:103E4000D8907735036AB60FE96E000E0320EA6E4C
:103E5000ECCF7AF2ED52EFCF79F2D8907735036A52
:103E6000D60FE96E000E0320EA6EECCF03F0ED52A0
:103E7000EF50791B03507A1B036A010E026E7851D2
:103E8000006E05E0D89002360336002EFBD70250B4
:103E90007915006E03507A15036E00500310D8B4E4
:103EA000A6D07751200DF3507A6B796FD890783582
:103EB000036A7925016E7A5103220150E60FE96EFB
:103EC000000E0320EA6EECCF7AF2ED52EFCF79F2DA
:103ED0007A53D8A48CD079510308D8A088D07751D0
:103EE000200DF3507A6B796FD8907835036A792575
:103EF000016E7A5103220150E60FE96E000E032095
:103F0000EA6E010EEE2601E3EF2AED52ECCF7AF2D3
:103F1000ED52EFCF79F27951040869E17A5367E104
:103F2000D8907735036AB60FE96E000E0320EA6E6B
:103F3000ECCF7AF2ED52EFCF79F2036A010E026E06
:103F40007851006E05E0D89002360336002EFBD77C
:103F500002507915006E03507A15036E005003105D
:103F60001FE0D8907735036AD60FE96E000E032064
:103F7000EA6E036A010E026E7851006E05E0D89079
:103F800002360336002EFBD70250EF10006E0350AE
:103F9000EC10036E0050ED52EF6E03C0ECFF24D026
:103FA000D8907735036AD60FE96E000E0320EA6ECB
:103FB000036A010E026E7851006E05E0D890023659
:103FC0000336002EFBD70250006A0006001AFF0ECF
:103FD000031A0050EF14006E0350EC14036E0050EF
:103FE000ED52EF6E03C0ECFF000181850201000E6F
:103FF000000181B5010E016E8BEF20F0B55302E197
:104000008A9E939EB5C088F0040EB525885DD8B011
:104010000DD18A8C939C8A9C939C8A8E939ED89077
:104020008835036AC60F016E000E0322020103C029
:1040300078F2D89000018835036AB60FE96E000E59
:104040000320EA6EECCF03F0ED52EFCF79F20201DC
:1040500078C2EAFF01C0E9FF03C0ECFFED5279C26C
:10406000EFFF8B929492130E006E002EFED700D0BD
:104070008B8294920001896B89510F08D8A0D4D00B
:10408000948C82AC25D0D8908835036AB60FE96E3F
:10409000000E0320EA6E036A010E026E8951006E63
:1040A00005E0D89002360336002EFBD70250006A96
:1040B0000006001AFF0E031A0050EF14006E0350A2
:1040C000EC14036E0050ED52EF6E03C0ECFF1ED0F7
:1040D000D8908835036AB60FE96E000E0320EA6EA9
:1040E000036A010E026E8951006E05E0D890023617
:1040F0000336002EFBD70250EF10006E0350EC1079
:10410000036E0050ED52EF6E03C0ECFF88C077F2F3
:1041100089C078F2ECD50152D8B480D08951070813
:1041200041E3D8908835036AD60FE96E000E03206C
:10413000EA6EECCF78F2ED52EFCF77F2036A010E20
:10414000026E8951006E05E0D89002360336002ECB
:10415000FBD7025002017715006E03507815036EED
:104160000050031007E0700E846F000116EC1AF087
:1041700006D00201720E846F000116EC1AF00000E6
:1041800089390201776FF00E7717070ED88000018A
:1041900088550201772777C284F2000116EC1AF0E5
:1041A00000003CD0D8908835036AD60FE96E000E27
:1041B0000320EA6EECCF78F2ED52EFCF77F2036A8C
:1041C000010E026E8951006E05E0D890023603366A
:1041D000002EFBD7025002017715006E03507815B0
:1041E000036E0050031007E0700E846F000116ECA0
:1041F0001AF006D00201720E846F000116EC1AF05C
:1042000000008839006EF00E00160050892502016A
:10421000776F846F000116EC1AF000008B80949089
:104220008B909490892B28D7882BEED6B55303E139
:10423000040EB56F04D0B551040801E1B56B08EF69
:1042400023F081A720D10101E951080DF350E75D6A
:10425000D8A018D1010E006EE851016E04E0D8908C
:104260000036012EFCD70050E6150201776F010ED3
:10427000006E0101E851016E04E0D8900036012E75
:10428000FCD700500201775DD8A4F5D0036A010184
:10429000E851F2CF77F2F29E00010AEC0DF0020134
:1042A00077BFF28E776F7735006E0036FC0E001602
:1042B000C250C30B0010C26EC282C2B2FED7C4CFBE
:1042C000F2F10101C3CFF1F1D890E835036AF30FA1
:1042D000E96E010E0320EA6EF151EF24016EF251F6
:1042E000EC20ED5201C0EFFFEC6ED890E835036A88
:1042F000F30F016E010E032201C077F2020103C029
:1043000078F203C0EAFF01C0E9FFECCF7AF2ED5288
:10431000EFCF79F20101E851100DF35002017C6BEF
:104320007B6F036A0101E851EA0FE96E010E032079
:10433000EA6ED890EF34036A02017B25016E7C514E
:1043400003220150010FE96E020E0320EA6EECCF4A
:1043500003F0ED52EF50795D006E03507A5978C248
:10436000EAFF77C2E9FFEC6EED5200C0EFFF0101FA
:10437000E851100DF3500201786B776F036A010169
:10438000E851EA0FE96E010E0320EA6ED890EF348F
:10439000036A02017725016E785103220150010F53
:1043A000E96E020E0320EA6EF2C1ECFFED52F1C19C
:1043B000EFFFD8900101E835036AF30FE96E010EB3
:1043C0000320EA6EECCF78F2ED52EFCF77F20201E4
:1043D00078310101F26F020177310101F16FF2339F
:1043E000F133F233F1331F0EF217036AE851EA0F8B
:1043F000E96E010E0320EA6EEF2A036AE851EA0F24
:10440000E96E010E0320EA6EEF50080808E1036A26
:10441000E851EA0FE96E010E0320EA6EEF6A610EC1
:104420000201846F000116EC1AF000000101E83966
:104430000201776FF00E7717786B0101F251030BD1
:104440000201796F036A7725016E000E032201C015
:1044500077F201C084F2000116EC1AF000000101AD
:10446000F1C100F0036AF1C177F2F1C184F20001F9
:1044700016EC1AF000000101E82BE851060801E2F1
:10448000E86BE76BE72B000109EF23F0F86AD09E99
:10449000088EEA6AE96AC150C00B0F09C16E070EA7
:1044A000B46E196A1A6A266A286A040E296E160EF4
:1044B0002A6E2D6A826B876B010EA36F200EB36F7D
:1044C000B46BB56B0101E66B000181970101E76BED
:1044D000E86BE96BF16BF26BC150C00B0509C16E63
:1044E000C090C082C084C08EC280C69A949E9380C1
:1044F0009392210EC66E400EC76ED190800ED56E7F
:10450000CD6A000ECA6EFF0ECB6EB16A070EB46E96
:104510009250926E270E006E002EFED700D0B4503F
:10452000A19CB56A0001886B8851060834E3036AD0
:104530008851EA0FE96E010E0320EA6EEF6AD89007
:104540008835036AF30FE96E010E0320EA6EEC6A08
:10455000ED52EF6A896B895107081BE38851100DF2
:10456000F3500201786B776FD89000018935036AA8
:1045700002017725016E785103220150010FE96E87
:10458000020E0320EA6EEC6AED52EF6A0001892BFD
:10459000E2D7882BC9D7020E0201786F760E776FAB
:1045A000010E796F7A6B000195EF13F002017653DB
:1045B00003E10001E0EF13F00001EEEF13F08A8E4B
:1045C000939E886B8851070811E3D8908835036A59
:1045D000930FE96E000E0320EA6EEC6AED52EF6A6B
:1045E0008A8C939C8A9C939C882BECD736EF14F092
:1045F0007AEF14F024EC0DF060EF16F081B301D0E7
:10460000FDD74FEC16F0205204E028EF1AF0F6D454
:0646100018D6F7D70300E5
:020000040030CA
:0E000000240E390E000580000FC00FE00F40E7
:00000001FF
;PIC18F2550
;CRC=D5E1  CREATED="06-7-10 00:37"
