:020000040000fa
:08000000c4260400000000000a
:020000040000fa
:10280000c42604000000000032480400000000005c
:1028100032480400000000003248040000000000bc
:1028200032480400000000003248040000000000ac
:10283000324804000000000032480400000000009c
:10284000324804000000000032480400000000008c
:10285000324804000000000032480400000000007c
:10286000324804000000000032480400000000006c
:10287000324804000000000032480400000000005c
:10288000324804000000000032480400000000004c
:10289000de40040000000000324804000000000098
:1028a000324804000000000032480400000000002c
:1028b000324804000000000032480400000000001c
:1028c000324804000000000032480400000000000c
:1028d00032480400000000003248040000000000fc
:1028e00032480400000000003248040000000000ec
:1028f00032480400000000003248040000000000dc
:1029000032480400000000003248040000000000cb
:1029100032480400000000003248040000000000bb
:1029200032480400000000003248040000000000ab
:10293000324804000000000032480400000000009b
:10294000324804000000000032480400000000008b
:10295000324804000000000032480400000000007b
:10296000324804000000000032480400000000006b
:10297000982a040000000000324804000000000013
:020000040000fa
:102980000000000000000000000000000000000047
:102990000000000000000000000000000000000037
:1029a0000000000000000000000000000000000027
:1029b0000000000000000000000000000000000017
:104d8000ffffff00ffffff004fb42000007f220065
:104d900000018800000000000c000700807a240059
:104da0000100200011000700000020000000e000ca
:104db0000200320000000200000000005e37020026
:104dc000000000000040da000000fe004440a9009e
:104dd000400820000000e000030032000000200036
:104de000a00188004440a80000000600910188004e
:104df000800078000000eb0015003700e2804000e2
:104e000032a0b4009101ba00e280400032a0b400a8
:104e10009102ba00e280400032a0b4000002eb0030
:104e2000472bde00f507b200602ce10004003a00d9
:104e30000059eb008301e900fdff3e00040037004c
:104e40006128e100010032000082eb00040007004d
:104e50001101ba000200e000e8ff3a00000006007d
:104e60003159ba008301e9000c0032002159ba001f
:104e70008301e900080032000400e00003003a006a
:104e8000e280400032a0b400f5ff370011d9ba002b
:104e90008301e900faff3a008100e800e180400068
:104ea00032a0b40000000600889fbe000004be00cf
:104eb000e04f80000000e00001003200000001002f
:104ec0000800e00001003a00d84f80000800be0052
:104ed000a5000700000444001804e00004003a00a4
:104ee000e09f2000d04f88000004eb00070037004f
:104ef0000800be00ae000700000044001004e000ff
:104f0000010032000058eb00d04f88000800780004
:104f10004f04be0000000600ec874700889fbe00db
:104f20008a9fbe008c9fbe008e1f7800f0b79f0046
:104f300081bf9f00820478000004780001003700e0
:104f40000804e800184778000e00fb00aa000700dc
:104f50000000e000faff3a00d0c2b300804f5700d3
:104f60000500320000c0e900804f57000200320007
:104f700000477800010037000804e8000900e0005d
:104f800045003500e18f540043003200400220000c
:104f9000808f540040003c000900e0000e00340007
:104fa000f08f54001a003a0000c3b300984f10006d
:104fb00016003a009840900080c7b30080cf5000a0
:104fc0000300320080c5b30080cf50000f003a00cc
:104fd0000884e8000e003700a900200000c3b300d9
:104fe000984f10000a003a009840900080c7b30024
:104ff00080cf5000040032008900200080c5b3003b
:1050000080cf500002003a000884e8000901200027
:105010000805780000c3b300010037000a05e80066
:105020009a4f1000fdff32008a0578006066b800d4
:105030000e003700f0b1200000425200c4ef9f0084
:105040006149b9000c00be008a0007004fea9700d2
:105050000401fb00cf91de008b05e800ccb79f0078
:10506000ddb79f0000064100818649001b00fb0060
:10507000690007008000780009017800f0b1200085
:105080006c000700000278000000e000e9ff3a0031
:105090008b0f540006003a000fb897000000e000a4
:1050a00029003200ffb09700010878002600370081
:1050b0008a805500a0af200060c07c000000fb008b
:1050c00000805000160033004240a9000f003c0051
:1050d0004fe997000200fb00cf80de000000560081
:1050e00081805e00800f5600818f5e0007003900ce
:1050f0006149b900650007004fb19700dfb1970023
:10510000820f5000838f58000500320020022000db
:10511000c04f88000086eb008086eb00050037005a
:10512000d0c2b300804f570002003a00600616005c
:10513000e0861e008fb997000300e00003003200f4
:105140008b097800010037006066b8000c00be00d3
:105150004f0778004f06be004f05be004f04be004b
:10516000cf00b10000000600000278000b003700fd
:1051700001017800924178000304e00002003a0047
:10518000040050000000060083cf520002003200ed
:105190000201e800f7ff37000000e80090427800c5
:1051a0000504e000f2ff3a00040050000000060091
:1051b000000278000700370083cf52000a00320057
:1051c0000201e800924178000304e000faff3a008f
:1051d0000000e800904278000504e000040032007e
:1051e00001017800f7ff37000400500000000600be
:1051f00004005000000006006900e10004003500d2
:105200006d00e100030034000002b1000100320033
:105210000000050010000500800078001104b100b6
:10522000030035009101b10001003c000050a000d6
:10523000000006008001eb00040037008301e80055
:1052400090cf1000040032000000e800828f51006f
:10525000faff3a000000eb0000000600b04f8000ab
:105260000000e0000100320000000100809f2000eb
:1052700000000600020ab900001bb9000200b800d5
:105280008100420081004300000006006022b80057
:10529000060220000000d0008180d2000482d200eb
:1052a0008582d2000000a0000202520083825a00d0
:1052b000030031000202420083824a000000a10084
:0c52c0000603e900f3ff3a0000000600be
:020000040000fa
:020000040001f9
:0457f00010ff0000a6
:020000040000fa
:020000040001f9
:0457f400c0fc0000f5
:020000040000fa
:020000040001f9
:0457f800ae4b0000b4
:020000040000fa
:020000040001f9
:0457fc00603d00000c
:020000040000fa
:100008003248000032480000324800003248000000
:1000180032480000324800003248000032480000f0
:1000280032480000324800003248000032480000e0
:1000380032480000324800003248000032480000d0
:1000480032480000324800003248000032480000c0
:1000580032480000de40000032480000324800000c
:1000680032480000324800003248000032480000a0
:100078003248000032480000324800003248000090
:100088003248000032480000324800003248000080
:100098003248000032480000324800003248000070
:1000a8003248000032480000324800003248000060
:1000b8003248000032480000324800003248000050
:1000c8003248000032480000324800003248000040
:1000d8003248000032480000324800003248000030
:1000e8003248000032480000324800003248000020
:1000f8003248000032480000324800003248000010
:1001080032480000324800003248000032480000ff
:1001180032480000324800003248000032480000ef
:1001280032480000324800003248000032480000df
:1001380032480000324800003248000032480000cf
:1001480032480000324800003248000032480000bf
:1001580032480000324800003248000032480000af
:10016800324800003248000032480000324800009f
:100178003248000032480000982a00003248000047
:10018800324800003248000032480000324800007f
:10019800324800003248000032480000324800006f
:1001a800324800003248000032480000324800005f
:1001b800324800003248000032480000324800004f
:1001c800324800003248000032480000324800003f
:1001d800324800003248000032480000324800002f
:1001e800324800003248000032480000324800001f
:0801f80032480000324800000b
:020000040000fa
:1002080032480000324800003248000032480000fe
:1002180032480000324800003248000032480000ee
:1002280032480000324800003248000032480000de
:1002380032480000324800003248000032480000ce
:1002480032480000324800003248000032480000be
:1002580032480000de40000032480000324800000a
:10026800324800003248000032480000324800009e
:10027800324800003248000032480000324800008e
:10028800324800003248000032480000324800007e
:10029800324800003248000032480000324800006e
:1002a800324800003248000032480000324800005e
:1002b800324800003248000032480000324800004e
:1002c800324800003248000032480000324800003e
:1002d800324800003248000032480000324800002e
:1002e800324800003248000032480000324800001e
:1002f800324800003248000032480000324800000e
:1003080032480000324800003248000032480000fd
:1003180032480000324800003248000032480000ed
:1003280032480000324800003248000032480000dd
:1003380032480000324800003248000032480000cd
:1003480032480000324800003248000032480000bd
:1003580032480000324800003248000032480000ad
:10036800324800003248000032480000324800009d
:100378003248000032480000982a00003248000045
:10038800324800003248000032480000324800007d
:10039800324800003248000032480000324800006d
:1003a800324800003248000032480000324800005d
:1003b800324800003248000032480000324800004d
:1003c800324800003248000032480000324800003d
:1003d800324800003248000032480000324800002d
:1003e800324800003248000032480000324800001d
:0803f800324800003248000009
:020000040000fa
:1052cc0012010000000200000200000000080000b3
:1052dc00d8040000c5ff000000010000010200001e
:1052ec000001000009020000430000000201000060
:1052fc0000c00000fa0900000400000000010000da
:10530c000202000001000000052400000010000053
:10531c000104000024020000020500002406000025
:10532c00000100000524000001000000010700003e
:10533c0005820000030800000002000009040000c0
:10534c0001000000020a000000000000000700003d
:10535c0005030000024000000000000007050000eb
:10536c008302000040000000000000000403000065
:10537c000904000012030000740000006b00000020
:10538c0072000000770000006f0000007200000047
:10539c006b000000730000001003000050000000c0
:1053ac0049000000430000006e0000006f00000088
:1053bc006d0000006500000078a90000bca9000089
:0853cc00c0a90000d2a90000f5
:020000040000fa
:1053d4000200fa009ec0a900f00f2000702488008b
:1053e400f00f200050248800200020003025880081
:1053f4000000eb00402588008644a900f009200045
:1054040080248800f0092000602488008804a80013
:1054140000a020004800de00c02488009424a800d6
:105424000000eb00b02488006000b800602588000c
:10543400712588000000eb00802588009424a900d1
:105444000040eb00004f7800070037001e80fb008f
:10545400c200dd0000a02000008140006000b80010
:105464000089be001e4fe800f0c0b3009e4f10003c
:10547400f6ff3600d00020005025880002003700d7
:1054840080002000502488008ac4bf006840600067
:105494000004e000faff3a000040eb00ace9b7007a
:1054a4000040eb00b7e9b700b8c9bf006040600036
:1054b400b8e9b700b9c9bf0060406000b9e9b700f6
:1054c40094a4a9000040eb00004f78000b003700c3
:1054d4001e80fb00c29b2000800040000000eb0007
:1054e400803079001e80fb00a29c200080004000d8
:1054f4000000eb00803079001e4fe80030c0b3009c
:105504009e4f1000f2ff360081a02000c09b2000b7
:10551400010878000040eb00b4e9b7000000eb009c
:10552400904d88000080fa00000006003600f80064
:10553400809fbe00829fbe00849fbe00869fbe00e7
:105544003400f80000002000a00188000200fa00e6
:10555400904d8000e10f50000a003a0094c4bf004f
:105564000044b2000004e00006003a00f00f2000fe
:10557400502488008c04a8008c84a80020002000fb
:10558400904d880080c4bf00704060000004e000bb
:105594000700320082c4bf00704060000004e000d5
:1055a400030032000001200000248800a30007004b
:1055b40088c4bf00624060000004e00002003200c2
:1055c4008ec0a900730037008ac4bf006140600028
:1055d4000004e000180032008cc4bf006140600089
:1055e4000004e0001400320079ff07009ec0a80008
:1055f40040002000904d8800609e200010508800dc
:1056040080c0b30000eab70011a0200091407800e8
:1056140030c0b30000c0600001eab70011a0200050
:1056240091407800c0c8b30000c0700001eab70020
:1056340010002000502488008ac4bf00704060001d
:105644000004e000070032008cc4bf00704060001a
:105654000004e000030032006e0007000001200097
:10566400502488008ac4bf00644060000004e00045
:105674000a0032008cc4bf00644060000004e000f3
:1056840006003200120020008000eb0030072000ea
:105694003b0c070040002000502488008ac4bf004f
:1056a40001c8b300014060000004e00006003200bd
:1056b4008cc4bf0001c8b300014060000004e000d6
:1056c400010032003b0007008ac4bf006240600052
:1056d4000004e0000a0032008cc4bf006240600095
:1056e4000004e00006003200120020008000eb00fd
:1056f400f0ff2700220c0700f00f20007024880020
:10570400904d8000e30f500002003e008ec0a900bf
:10571400200037008cc4bf00684060000004e00033
:105724001b0032000040eb00004f780015003700ea
:105734008ac4bf00684060000004e0001400320026
:1057440090248000d6e9b70080002000502488000f
:10575400d6c9bf008080fb00000f200000806000dd
:105764000000e00002003a003e0007000400370099
:10577400619d20000001eb0020072000000c0700c1
:105784001e4fe80030c0b3009e4f1000e8ff360003
:105794008ec0a9000080fa003400f9004f03be0057
:1057a4004f02be004f01be004f00be003600f9009c
:1057b400004006000000fa00aac4bf006240600076
:1057c4000004e0000f003200304e80009040900052
:1057d40000c8b30080cf500009003a00c09b2000ed
:1057e400100078009040900040c8b30080cf500073
:1057f40003003a00314e8000c0c8b30090409800c6
:10580400aa24a90000082000502488000080fa007f
:10581400000006000000fa008284a80000012000b5
:10582400502488000001eb008000eb0050072000aa
:10583400d30b07000080fa00000006000000fa0005
:105844000001eb008000eb0040072000cc0b0700b8
:105854008284a90000012000002488000080fa004e
:10586400000006000200fa00d6c9bf008080fb00d9
:10587400b0ff2f00008060000000e00035003a0017
:10588400d6c9bf008080fb00c00f200000806000ec
:105894004280de004200dd008000780000a020008d
:1058a40000804000304e8800304e8000404e88001a
:1058b400819c2000809c2000104078000024a200dd
:1058c40080487800304e800010409000c2c3b3007e
:1058d4008240600040c3b30080cf50001b003a00f8
:1058e400304e800090009000e09e2000808f500099
:1058f40014003a00314e8000609e20009000980011
:105904000040eb00004f78000b0037001e80fb00c6
:1059140080007800609e2000008140001e80fb0013
:1059240080007800e09e2000008040001040780055
:10593400004978001e4fe80070c0b3009e4f10006d
:10594400f2ff36000c000700090037002a000700a8
:1059540007003700d6c9bf008080fb00b0ff2f00ce
:1059640000806000e80f500001003a003a00070090
:105974000080fa00000006000000fa00c09b20002e
:10598400100078009040900000c8b30000c0600090
:105994000004e00004003200c09b20009000780066
:1059a4000040eb00904098000040eb00d2e9b700c3
:1059b4000040eb00d3e9b700adc9bf006040600010
:1059c400ade9b700aec9bf0060406000aee9b70002
:1059d4000040eb00ace9b7007f0007000001eb00da
:1059e4008000eb0030002000650b07001102070067
:1059f4000080fa00000006000000fa00d3c9bf00ce
:105a0400e24f500002003a001e0307001000370066
:105a14004b000700c04e80000000e0000a003a007e
:105a2400414e800080c0b30080487800414e800021
:105a3400609e200090009800414e8000c0c8b300d2
:105a440090409800020037000000eb00c04e880030
:105a54000080fa00000006000200fa00c09b20004b
:105a640010007800104090000080fb004600de002b
:105a740061406000004f7800c19b2000c09b200063
:105a8400104078000024a20080487800904d8000e7
:105a9400e80f50000b003a00e8c9bf000080fb008b
:105aa400b0248800b02480000000e000030032002d
:105ab40000012000904d88000200370040002000c3
:105ac400904d8800d3c9bf00e14f500019003a003f
:105ad400c09b200090007800e09e20009000980079
:105ae40064020700d2c9bf00e24f500005003a002b
:105af400c09b20009000780040c8b30090409800fc
:105b04000d0037001e04e00005003a00c09b200091
:105b14009000780080ccb3009040980006003700d5
:105b2400c09b20009000780080c8b300904098008b
:105b340001003700020007000080fa0000000600a0
:105b44000200fa000040eb00d3e9b700c09b20003c
:105b5400900078000040eb0090409800c09b20002b
:105b6400100078000020a200000f78009e0078004a
:105b74000040eb0090409800719b20009140780019
:105b840000c8b30000c060000004e0001000320050
:105b9400bac9bf008080fb00bbc9bf000080fb0006
:105ba4004800dd00010070000000e0000700320042
:105bb400bac9bf008080fb00bbc9bf000080fb00e6
:105bc4004800dd000100700000000100b7e9a900f1
:105bd4000080fa00000006000400fa00e6c9bf00d5
:105be4000046b2000004e00058003a00e7c9bf00d4
:105bf4000080fb006101b900028fbe00b0002000ec
:105c0400010020001e01be00800f5100818f590049
:105c14004e003e001e00be0000600100240037005c
:105c240025003700490037002300370047003700bc
:105c34000600370009003700400037000b0037002a
:105c4400080037001e00370033003700ace9a80015
:105c540080002000904d88003c003700a20007001f
:105c64003a0037000603070038003700429b200043
:105c7400f00f200080006100aac9bf0060406000ee
:105c840001407000aae9b700c810de00abc9bf002c
:105c94006040600001407000abe9b700ac09a800a7
:105ca40010c0b300ade9b700ace9a8002700370085
:105cb4000c010700250037002600070023003700e9
:105cc400eac9bf000080fb0080007800409c2000ef
:105cd4000080400000017800f00f20008000610087
:105ce400aac9bf006040600001407000aae9b70083
:105cf400c810de00abc9bf00604060000140700006
:105d0400abe9b700ac09a80010c0b300ade9b70017
:105d1400ace9a8000d003700ace9a800eac9bf004f
:105d24008080fb00829e200012417800409c20006d
:105d34000080400002487800040037000001eb00b6
:105d44008000eb00200020008d0a07000080fa008c
:105d5400000006000400fa00e8c9bf00e14f50004b
:105d64000d003a00e6c9bf007f4060000004e00077
:105d740009003a00ace9a800e7c9bf00e34f5000ae
:105d840003003a0010002000804d88000200370014
:105d94000000eb00804d8800e8c9bf000004e0006b
:105da4004f003a00e6c9bf007f406000e24f500058
:105db4004b003a00eac9bf006f4060000004e000f5
:105dc40047003200ace9a800eac9bf0001c8b3002b
:105dd400014060000004e00008003a00eac9bf0086
:105de4006f4060000080fb00a19c20000000400088
:105df400608078001007980007003700eac9bf00e8
:105e04006f4060000080fb00c19b20000000400048
:105e14006080780010079800e7c9bf00e34f500086
:105e240004003a009e00900040c8b30090409800df
:105e34002b003700eac9bf006f4060000080fb0000
:105e44000000400080007800a04a2000008040004c
:105e5400000f78001e00780090407800d0cfb30087
:105e640080c060001e00780001487800a19e2000d8
:105e74009140780000c8b30000c060000004e00056
:105e84000c0032009e0090000040eb00904098000f
:105e94008e80e8000e80e800104078000024a20004
:105ea400804878009e00900000c4b30090409800a1
:105eb4000b0037009e00900080c8b300904098000b
:105ec4008e80e8000e80e800104078000024a200d4
:105ed400804878009e00900080ccb30090409800e9
:105ee4000080fa00000006000200fa00619e200013
:105ef4009140780000c8b30080cf500077003a008a
:105f040000ccb300ace9b700e9c9bf000080fb00d6
:105f1400000f78001e007800e20f50001b003200d2
:105f24001e007800e30f50003e0032001e0078008f
:105f3400e10f5000010032006600370062962a002b
:105f4400f00f200080006100aac9bf00604060001b
:105f540001407000aae9b700c810de00abc9bf0059
:105f64006040600001407000abe9b700adc9bf00fc
:105f7400604060002041b300ade9b700aec9bf0086
:105f840060406000aee9b70054003700e8c9bf00c4
:105f94000080fb000000400080007800209e2a0062
:105fa4000080400010017800f00f200080006100a4
:105fb400aac9bf006040600001407000aae9b700b0
:105fc400c810de00abc9bf00604060000140700033
:105fd400abe9b700aac9bf008080fb00abc9bf0012
:105fe4000080fb004800dd000100700062004000fa
:105ff40010017800f00f200080006100adc9bf00df
:106004006040600001407000ade9b700c810de00d8
:10601400aec9bf006040600001407000aee9b70047
:106024002e003700e8c9bf00e24f500026003e00b2
:10603400e8c9bf000080fb00000040008000780039
:10604400409e2a000080400010017800f00f2000dc
:1060540080006100aac9bf00604060000140700078
:10606400aae9b700c810de00abc9bf0060406000f9
:1060740001407000abe9b700aac9bf008080fb00f3
:10608400abc9bf000080fb004800dd0001007000c8
:10609400104078000081fb00f00f200080006100b8
:1060a400adc9bf006040600001407000ade9b700b9
:1060b400c810de00aec9bf0060406000014070003f
:1060c400aee9b700050037000040eb00ace9b700cb
:1060d400020037000040eb00ace9b7000080fa0092
:1060e400000006000400fa000040eb00eee9b700ef
:1060f4000040eb00efe9b700e6c9bf007f40600055
:106104000080fb00100798001e009000e10f500073
:10611400120032001e009000e20f50001100320005
:106124001e0090000000e000010032002b00370048
:10613400ace9a800eec9bf000004a000eee9b70076
:10614400804d8000e10f500024003a00eec9bf00ea
:106154000014a000eee9b70020003700ace9a80065
:106164001e003700ace9a800eac9bf0001c8b300ab
:10617400014060000004e00008003a00eac9bf00e2
:106184006f4060000080fb00a19c200000004000e4
:1061940060807800000f780007003700eac9bf006c
:1061a4006f4060000080fb00c19b200000004000a5
:1061b40060807800000f78001e0078001040900086
:1061c4000080fb004200de00610060000004e0008b
:1061d4000200320010c0b300eee9b700acc9bf0042
:1061e40001c8b300014060000004e0000f00320069
:1061f400e29e2000f00f200080006100aac9bf00c9
:106204006040600001407000aae9b700c810de00d9
:10621400abc9bf006040600001407000abe9b7004b
:10622400ac09a80020c0b300ade9b7000080fa00b3
:10623400000006000000fa0094a4a900acc9bf0045
:1062440001c8b300014060000004e00027003a00e8
:10625400b7c9bf0001c8b300014060000004e000fa
:106264001400320020c0b300d3e9b700c09b200063
:10627400900078000040eb0080487800c09b20002c
:106284009000780080ccb30090409800414e80008c
:1062940080c0b30080487800414e8000e09e20001a
:1062a40090009800414e800080ccb300904098004c
:1062b4006e003700414e800080c0b30080487800f3
:1062c400414e8000609e200090009800414e800066
:1062d400c0c8b30090409800c09b20009000780094
:1062e40040c8b3009040980060003700b7c9bf00b1
:1062f40001c8b300014060000004e0005b003a0004
:10630400e6c9bf0001c8b300014060000004e0001a
:1063140043003200ecc9bf008080fb00edc9bf0020
:106324000080fb004800dd000100700000017800df
:10633400adc9bf008080fb00aec9bf000080fb0078
:106344004800dd0001007000800f51001200310090
:10635400ecc9bf008080fb00edc9bf000080fb00da
:106364004800dd000100700000017800f00f2000fb
:1063740080006100adc9bf00604060000140700052
:10638400ade9b700c810de00aec9bf0060406000d0
:1063940001407000aee9b7003600070010c0b3003a
:1063a400d3e9b700414e800080c0b3008048780034
:1063b400414e8000609e200090009800414e800075
:1063c40000c8b300904098000000eb00c04e880065
:1063d400314e800080c0b30080487800314e800088
:1063e400609e200090009800314e800040c8b300a9
:1063f4009040980010002000c04e8800c09b2000f0
:1064040090007800e09e200090009800c09b20003f
:106414009000780080ccb3009040980013003700bf
:1064240020c0b300d3e9b700c09b200090007800df
:106434000040eb0080487800c09b2000900078006a
:1064440080ccb30090409800414e800080c0b300df
:1064540080487800414e8000e09e20009000980023
:10646400414e800080ccb300904098000080fa0038
:10647400000006000200fa00adc9bf008080fb00e6
:10648400aec9bf000080fb004800dd0001007000c1
:10649400e70f500013003e00adc9bf008080fb0031
:1064a400aec9bf000080fb004800dd0001007000a1
:1064b400000f7800d2c9bf000004e00003003a00d6
:1064c40010c0b300d2e9b70008003700d2c9bf003a
:1064d400e14f500005003a0020c0b300d2e9b700f4
:1064e4000200370080002000000f7800c09b2000cd
:1064f40010017800c09b20001000780090409000ac
:106504001e40900000c0700010419800c09b200005
:10651400900078001e40780080487800adc9bf0024
:106524008080fb00aec9bf000080fb004800dd0096
:1065340001007000800078001e0078000081500087
:10654400f00f200080006100adc9bf006040600012
:1065540001407000ade9b700c810de00aec9bf004d
:106564006040600001407000aee9b700e09e20008a
:10657400a04e8800acc9bf00614060000004e00088
:106584003b003a001b003700a24e8000aac9bf009e
:106594008080fb00abc9bf000080fb004800dd0029
:1065a40001007000800078001140780000497800f4
:1065b4000200e800a04e880061814000f00f200036
:1065c40080006100aac9bf00604060000140700003
:1065d400aae9b700c810de00abc9bf006040600084
:1065e40001407000abe9b7001e0078000000e9002c
:1065f400000f78001e0078000000e000e2ff3a007f
:106604001e003700a24e8000aac9bf008080fb0094
:10661400abc9bf000080fb004800dd000100700032
:106624008000780011407800004978000200e800fa
:10663400a04e88000101e800f00f200080006100f6
:10664400aac9bf006040600001407000aae9b70019
:10665400c810de00abc9bf0060406000014070009c
:10666400abe9b7001e0078000000e900000f7800d5
:106674001e0078000000e000e2ff3a000080fa000b
:10668400000006000200fa00304e800090407800be
:10669400114798001e4090000081fb00b8c9bf005c
:1066a4008080fb00b9c9bf000080fb004800dd000a
:1066b40001007000800f510007003600b8c9bf0008
:1066c4008080fb00b9c9bf000080fb004800dd00ea
:1066d4000100700010479800b8c9bf008080fb001b
:1066e400b9c9bf000080fb004800dd000100700054
:1066f400800078001e4090000080fb000081500064
:10670400f00f200080006100b8c9bf006040600045
:1067140001407000b8e9b700c810de00b9c9bf0075
:106724006040600001407000b9e9b7000040eb0030
:10673400004f780019003700b5c9bf008080fb0006
:10674400b6c9bf000080fb004800dd0001007000f6
:10675400000178009e80fb00e09e20000080400045
:1067640010407800004978000201e800f00f200092
:1067740080006100b5c9bf00604060000140700046
:10678400b5e9b700c810de00b6c9bf0060406000bc
:1067940001407000b6e9b7001e4fe8001e409000ab
:1067a4009e4f1000e4ff3900b8c9bf008080fb0091
:1067b400b9c9bf000080fb004800dd000100700083
:1067c4000000e00013003200414e800080c0b3009e
:1067d40080487800414e8000e09e200090009800a0
:1067e400304e8000104090000044b2000004e000ed
:1067f40004003a00414e800080ccb30090409800e1
:106804001d003700414e800080c8b30090409800be
:1068140019003700414e800080c0b30080487800e2
:10682400414e8000609e200090009800414e800000
:1068340040c8b30090409800bac9bf008080fb00f4
:10684400bbc9bf000080fb004800dd0001007000f0
:106854000000e00007003200bac9bf008080fb00de
:10686400bbc9bf000080fb004800dd0001007000d0
:1068740000000100b7e9a9000080fa00000006004a
:106884000200fa00ace9a8006000b80060258800a6
:10689400712588000000eb00802588000040eb0093
:1068a400004f7800070037001e80fb00c200dd00a7
:1068b40000a02000008140006000b8000089be00f4
:1068c4001e4fe800f0c0b3009e4f1000f6ff3600e4
:1068d4009424a8000040eb00c4e9b7009424a90064
:1068e40081a02000c09b20000108780000a02000a7
:1068f400304e8800304e8000404e8800e8c9bf000a
:10690400b4e9b700b4c9bf000004e00003003a00d2
:1069140000012000904d880006003700120020007e
:10692400419b200010002000950707000002200072
:10693400904d88000080fa00000006000400fa0070
:10694400204798003147980000a02000000f7800ed
:106954002e4090000080fb00000040008000780082
:106964003e4090000080fb00008040004300dd00ba
:106974004200de004200dd001e0f40009e00780051
:10698400114090000070a100904098003e4090009b
:106994000004e00006003a002e4090000080fb0056
:1069a400a19c2000000040001eb0780005003700c4
:1069b4002e4090000080fb00c19b2000000040009e
:1069c4001eb078009e007800114090000060a10085
:1069d400904098001e007800e400400011409000b0
:1069e4000060a000904098000080fa0000000600bb
:1069f4000400fa0020479800314798002e40900088
:106a04000080fb000000400080007800a04a2000c5
:106a140000804000000f78001e007800be40900007
:106a2400014878003e4090000080fb004300de00f7
:106a3400610060000004e000030032008040eb00cd
:106a44002e409000bdff07003e4090000080fb00f8
:106a54004200de00610060000004e0000300320038
:106a640011c0b3002e409000b4ff07000080fa006c
:106a7400000006000400fa002047980031479800ff
:106a84002e4090000004e0000e003a00414e8000c9
:106a940080c0b30080487800414e8000609e200092
:106aa40090009800414e8000c0c8b3009040980008
:106ab400c09b20009000780040c8b300904098002c
:106ac400230037002e4090000080fb0000004000af
:106ad400800078003e4090000080fb000080400071
:106ae4004300dd008000780000a02000008040000a
:106af400000f78001e0078009040900040c8b3005a
:106b040080c070001e007800114098002e40900054
:106b14000080fb0000004000800078003e409000b0
:106b24000080fb00008040004300dd00800078000e
:106b340040a02000008f40001e007800904090008c
:106b440040c8b30080c070001e0078001140980057
:106b54000080fa00000006000a00fa0020479800ae
:106b64003147980022079800634798003e40900000
:106b74000004e000060032002e4090000080fb007c
:106b8400c19b200000004000608f780005003700a2
:106b94002e4090000080fb00a19c200000004000db
:106ba400608f78001e00e00003003a000000eb0054
:106bb40040079800390037002e00900080007800cc
:106bc4001e007800110098001e007800ee4090002e
:106bd400014878001e0078001040900002c4b30001
:106be400824060001e007800114098001e0078006a
:106bf4009040900080c8b30080c070001e007800f0
:106c0400114098003e4090000004e0001100320062
:106c14002e4090000080fb000000400080007800bf
:106c2400c09b200000804000000178002e409000ae
:106c34000080fb000000400080007800c09b200022
:106c440000804000104078000024a2000049780031
:106c5400100037002e4090000080fb000000400030
:106c640080007800a09c2000008040000001780093
:106c74002e4090000080fb0000004000800078005f
:106c8400a09c200000804000104078000024a20056
:106c9400004978001e007800400798004e009000dc
:106ca4000080fa00000006000600fa00004f780099
:106cb40094c4bf000042b2000004e0005700320058
:106cc4001e80fb00c19b2000000040006083780010
:106cd4001e80fb00c19b2000000040006080780003
:106ce4001000be000204200003002000000278000f
:106cf40081027800020078008300780000016200bd
:106d0400018062006102b80014079800250798000a
:106d14001e009000ae009000c000dd0000002000c6
:106d240010079800210798001e009000ae00900004
:106d34006112b80014079800250798001e019000fe
:106d4400ae0190000200700083807000008bbe00d2
:106d54001e80fb00c19b2000000040006082780080
:106d64001e80fb00c19b2000000040006080780072
:106d74001001be0000042000010020000000690092
:106d840081806900008abe001e80fb000000400074
:106d940080007800c09b2000008040000001780043
:106da4001e80fb000000400080007800c09b200093
:106db40000804000104078000024a20000497800c0
:106dc4001e80fb00c19b2000000040006081780011
:106dd4001e80fb00c19b2000000040006080780002
:106de400104090000044b200104198001e80fb0047
:106df400c19b200000004000608178001e80fb00e1
:106e0400c19b20000000400060807800904090000a
:106e140000c4b30000c06800104198000080fa006c
:106e2400000006000000fa000000eb00a024880027
:106e34000000eb00602488000000eb00904d880007
:106e44000080fa00000006000000fa00904d800067
:106e54000000e00016003a000000eb00a0248800c7
:106e64000000eb006024880020002000302588000a
:106e74000000eb00402588008644a900f0092000aa
:106e840080248800f0092000602488009ec0a800a7
:106e9400010037009404a80094c4bf00614060005e
:106ea4000004e000fbff320010002000904d880039
:106eb4000080fa00000006000200fa000000eb0067
:106ec400203a880000fc2f00601988003000200060
:106ed40000168800f00a200040168800cf22a8007f
:106ee400ce82a800c682a800cfa2a800cfc2a80064
:106ef40080252000000f780044a7a8001e0fe90099
:106f04000080eb009e0f1000fcff3a00716c200023
:106f14009140780000ceb30000c060007040b30020
:106f2400c7e6b700816c20009140780000ceb30022
:106f340000c060000034a000c8e6b700b0532000d1
:106f4400101288000000eb002012880041e2a80023
:106f54008540a900910a20009140780080cfb300b9
:106f640000c06000a9e0b7009540a90040002000df
:106f74007008880000032800900888004004280056
:106f840000198800c04220001019880020f0210058
:106f9400201988000000eb004019880000fc2f0035
:106fa40060198800f00320008019880095a0a800cb
:106fb4000040eb006eeab7000040eb0000e8b700c9
:106fc4001800370000c8bf000080fb0080004000ac
:106fd400c0912000808040000000eb008008780011
:106fe40000c8bf000080fb008000400080922000a9
:106ff400808040000000eb008008780000c8bf00db
:107004000080fb0080004000409920008080400008
:107014000000eb008008780000c8bf000040e800d2
:1070240000e8b70000c8bf00e54f5000e5ff360098
:10703400400620008d050700cdc2a8000040eb00eb
:1070440000e8b7000b00370000c8bf008080fb00d9
:10705400009a2000808040000040eb0080487800c7
:10706400cda2a800cda2a90000c8bf000040e8003e
:1070740000e8b70000c8bf00e74f5000f2ff360039
:107084008102070013000700d1f807006eff070014
:1070940010c0b30000e8b70010c0b30001e8b700a7
:1070a40000003700904d8000ff0f5000fdff3600b8
:1070b40088c4bf00624060000004e000f9ff3a00a9
:1070c4004a030700f3040700ca0007003207070059
:1070d400f4ff37000000fa0071c0b300b0c0b30081
:1070e400ad00070011c0b300c0c0b300aa00070080
:1070f4008040eb00f0c0b300a7000700f1c0b3006c
:10710400a0c0b300a40007008040eb0010c0b3008f
:10711400a10007008040eb0020c0b3009e000700e0
:107124008040eb0030c0b3009b00070081c1b30076
:1071340040c0b3009800070081c1b30050c0b30041
:10714400950007008040eb0060c0b3009200070088
:107154008040eb0070c0b3008f0007008040eb005c
:1071640080c0b3008c0007000040eb0000e8b700cb
:107174000f00370000c8bf008080fb00000420001f
:107184000100500042002000110009000200d80054
:1071940080407800a0c0b3007f00070040002000ba
:1071a4003205070000c8bf000040e80000e8b7004f
:1071b4000180200091407800f0c3b30080cf5000dc
:1071c400ecff3600f1c0b300a0c0b30072000700aa
:1071d4008040eb0010c0b3006f0007008040eb005c
:1071e40020c0b3006c00070081c1b30030c0b300fd
:1071f4006900070041c2b30040c0b3006600070045
:1072040041c2b30050c0b3006300070081c1b300a2
:1072140060c0b300600007008040eb0070c0b300a2
:107224005d0007008040eb0080c0b3005a000700f7
:107234000040eb0000e8b7000f00370000c8bf00b3
:107244008080fb0000042000010050004200200068
:10725400110009000200d80080407800a0c0b300eb
:107264004d000700400020000005070000c8bf00d3
:107274000040e80000e8b700018020009140780059
:10728400f0c3b30080cf5000ecff3600f1c0b30070
:10729400a0c0b300400007008040eb0010c0b30062
:1072a4003d00070081c1b30020c0b3003a000700cd
:1072b40041c2b30030c0b3003700070021c4b3009b
:1072c40040c0b3003400070021c4b30050c0b30071
:1072d4003100070041c2b30060c0b3002e000700b4
:1072e40081c1b30070c0b3002b0007008040eb00e5
:1072f40080c0b300280007000040eb0000e8b7009e
:107304000f00370000c8bf008080fb00000420008d
:107314000100500042002000110009000200d800c2
:1073240080407800a0c0b3001b000700400020008c
:10733400ce04070000c8bf000040e80000e8b70022
:107344000180200091407800f0c3b30080cf50004a
:10735400ecff3600f1c0b300a0c0b3000e0007007c
:1073640010c0b30000e8b7000600370000c8bf0033
:107374008040eb000800070000c8bf000040e800a0
:1073840000e8b70000c8bf00e84f5000f7ff360020
:107394000080fa00000006000200fa00004f7800a6
:1073a400114798001e80fb00c800dd0000f02f008c
:1073b400808060001e4090000080fb000080400040
:1073c40030538800cd22a90040c2bf006240600053
:1073d4000004e000fcff3a003053800040128800b3
:1073e400100020008e040700cd22a8000080fa00bf
:1073f400000006000800fa00f1c0b300d0852000a8
:10740400ca0507000004e0009d013200d185200078
:1074140091407800c0c6b30080cf500049003a00c4
:10742400e18520009140780000c3b30080cf500074
:1074340005003200e18520009140780010c3b300bc
:1074440080cf50003f003a0060c8bf009704070097
:107454005be8b7005bc8bf00e74f500088013e00ff
:107464005fc8bf00910407005ae8b7005ec8bf00b8
:107474008e0407005ce8b7005cc8bf000004e000ad
:10748400120032005bc8bf008081fb005bc8bf00f4
:107494008080fb00009a20000080400010407800ab
:1074a400004178005ac8bf008080fb001000200013
:1074b4000100dd000040710080407800009a200047
:1074c4000080410001487800150037005bc8bf0008
:1074d4000082fb005bc8bf008080fb00009a200094
:1074e4000080400010407800804178005ac8bf00f6
:1074f4008080fb00100020000100dd0000417800c6
:10750400024078000080ea008180ea0000c0610047
:1075140080407800009a2000000042000148780072
:107524005bc8bf008080fb00009a20000080400000
:10753400904078005bc8bf000040e80096ff070059
:107544004f013700d185200091407800c0c6b300b8
:1075540080cf500078003a00e18520009140780007
:1075640030c6b30080cf500073003a0081a62000db
:10757400d08520004bf607003040880081a620000b
:107584000000eb0047f607003040880030408000e0
:10759400a20020008000eb005ef607007047980010
:1075a40081a620000000eb003ef607003040880072
:1075b40030408000a20020008000eb0055f6070058
:1075c4006047980080538000e10f500019003a0092
:1075d4000040eb0000e8b7001100370000c8bf000e
:1075e4008080fb00009a2000808040000040eb0077
:1075f4008048780000c8bf008080fb00009a20000b
:10760400008040009040780000c8bf000040e800bf
:1076140061ff070000c8bf000040e80000e8b700b1
:1076240000c8bf00e74f5000ecff36000000eb003d
:10763400805388000040eb0000e8b7003a003700b0
:107644006e4090008080fb0000c8bf000080fb00fb
:107654000088de00610060000004e00012003200d7
:1076640000c8bf008081fb0000c8bf008080fb0011
:10767400009a20000080400010407800004178000b
:107684007e4090008080fb00100020000100dd009f
:107694000040710080407800009a20000080410082
:1076a400014878001500370000c8bf000082fb00c5
:1076b40000c8bf008080fb00009a200000804000ca
:1076c40010407800804178007e4090008080fb006c
:1076d400100020000100dd00004178000240780025
:1076e4000080ea008180ea0000c0610080407800e8
:1076f400009a2000000042000148780000c8bf0042
:107704008080fb00009a20000080400090407800b8
:1077140000c8bf000040e8001fff070000c8bf000a
:107724000040e80000e8b70000c8bf00e74f500081
:10773400c3ff3600d2003700d18520009140780085
:10774400c0c6b30080cf500046003a00e185200057
:107754009140780020c7b30080cf500041003a0028
:1077640081a62000d0852000cef507003040880097
:1077740081a620000000eb00caf507003040880015
:1077840030408000a20020008000eb00e1f50700fb
:107794005047980081a620000000eb00c1f50700c7
:1077a4003040880030408000a20020008000eb00c0
:1077b400d8f507004047980080538000e10f50003f
:1077c40019003a000040eb0000e8b7001100370050
:1077d40000c8bf008080fb00009a20008080400029
:1077e4000040eb008048780000c8bf008080fb00a8
:1077f400009a2000008040009040780000c8bf003c
:107804000040e800e4fe070000c8bf000040e800b4
:1078140000e8b70000c8bf00e74f5000ecff360097
:107824000000eb00805388005e4090008080fb00e5
:10783400009a200000804000ce409000014878006b
:107844005e4090008080fb00009a20000080400091
:10785400904078005e4090000040e800cefe0700b3
:1078640087003700d18520009140780010c6b3000e
:1078740080cf500026003a00e18520009140780036
:1078840050c6b30080cf500021003a0081a62000ea
:10789400d085200083f507003040880081a62000b1
:1078a4000000eb007ff50700304088003040800086
:1078b400a20020008000eb0096f5070030479800f6
:1078c40081a620000000eb0076f507003040880018
:1078d40030408000a20020008000eb008df50700fe
:1078e400204798002e4090000004e000040032007d
:1078f4003e4090000080fb00f90107006000370063
:107904003e4090000080fb000e0207005c00370040
:10791400d18520009140780090c6b30080cf5000fc
:1079240012003a0081a62000d08520005df50700f2
:107934003040880081a620000000eb0059f50700c4
:107944003040880030408000a20020008000eb001e
:1079540070f50700404d8800404d8000804078005d
:10796400a0c0b3008cfe070045003700d18520007d
:107974009140780040c7b30080cf500011003a0016
:1079840081a62000d085200046f5070030408800fd
:1079940081a620000000eb0042f50700304088007b
:1079a40030408000a20020008000eb0059f5070061
:1079b400104798009e409000f0c0b30076fe070088
:1079c4002f003700d18520009140780030c7b300e4
:1079d40080cf500011003a0081a62000d0852000fd
:1079e40030f507003040880081a620000000eb003d
:1079f4002cf507003040880030408000a2002000b1
:107a04008000eb0043f50700004f78009e407800ab
:107a1400c0c0b30060fe070019003700d185200004
:107a24009140780060c6b30080cf500014003a0043
:107a340060c6b30008e8b700b0c0b30009e8b700f7
:107a440050c0b3000ae8b70041cabf000004e00018
:107a540008003a00808020001052880030c0b30033
:107a640044eab70010c0b30045eab70010c0b30041
:107a740041eab700c804070020002000e80207001c
:107a84000080fa00000006000000fa000040eb004d
:107a940000e8b7002c00370000c8bf000080fb00de
:107aa40080004000c0862000808040000000eb0081
:107ab4008008780000c8bf000080fb008000400000
:107ac400c0872000808040000000eb008008780020
:107ad40000c8bf000080fb0080004000c088200078
:107ae400808040000000eb00800878000040eb003c
:107af40001e8b7000e00370000c8bf000081fb009a
:107b040001c8bf008080fb004310dd00010040007d
:107b140080004000c0892000808040000000eb000d
:107b24008008780001c8bf000040e80001e8b70001
:107b340001c8bf00e74f5000efff360000c8bf0088
:107b44000040e80000e8b70000c8bf00e74f50005d
:107b5400d1ff36000080fa00000006000400fa009d
:107b6400000f7800110798000000eb001053880004
:107b74001e00780080004000c08620000080400085
:107b8400100178001e00780080004000c0872000ab
:107b940000804000100078000001690011002000fe
:107ba4001e0090000008dd00000061000000e000fd
:107bb4001b0032001e00780080004000c0862000b8
:107bc40000804000100178001e0078008000400012
:107bd400c088200000804000100078000001690087
:107be400110020001e0090000008dd00000061006c
:107bf4000000e0000a0032001e0078009e009000a1
:107c04004300dd000100400080004000c0892000e6
:107c1400808040000000eb0080087800700037008e
:107c24001e00780080004000c086200000804000d4
:107c3400100178001e00780080004000c0872000fa
:107c4400008040001000780000016900110020004d
:107c54001e0090000008dd00000061000000e0004c
:107c64005f003a001e00780080004000c0862000bb
:107c740000804000100178001e0078008000400061
:107c8400c0882000008040001000780000016900d6
:107c9400110020001e0090000008dd0000006100bb
:107ca4000000e0004e0032001e0078009e009000ac
:107cb4004300dd000100400080004000c089200036
:107cc4000080400010007800e30f500044003e00a4
:107cd4001e0178009e0190004310dd000300400067
:107ce40080004000c089200000804000100078001f
:107cf4000002e8004310dd00030040008000400063
:107d0400c089200000804000040878004310dd0092
:107d14000300400080004000c08920000080400033
:107d240010007800e40f50002d003a001e00780087
:107d340080004000c08620000080400010017800d0
:107d4400110020001e0090000008dd00000061000a
:107d54000000e0000f0032009e0178001e00780051
:107d640080004000c088200000804000100178009e
:107d7400110020001e0090000008dd0000017100c9
:107d840083804100c0882000008040000208780001
:107d9400110037009e0178001e007800800040002a
:107da400c0882000008040001002780011002000ec
:107db4001e0090000009dd00020078000080ea0047
:107dc4008180ea000001620083804100c0882000b5
:107dd4000080400002087800100020001053880042
:107de400105380000080fa00000006000000fa0032
:107df4006acabf000004e00003003a00cdc2a90033
:107e0400cda2a800cdc2a8006acabf0000e8b7008e
:107e14008f003700cda2a8000040eb0002e8b700b5
:107e2400040037000000000002c8bf000040e80062
:107e340002e8b70002c8bf00e44f5000f9ff360063
:107e4400cda2a90000c8bf000081fb0000c8bf008c
:107e54000080fb0080004000c086200000804000bd
:107e64009001780082004100c0872000008040001b
:107e740003087800c482a90010002000e80107006c
:107e8400c482a8000040eb0001e8b7006a00370094
:107e9400cac2bf000042b2000004e0001500320074
:107ea40000c8bf000082fb0000c8bf000080fb00c8
:107eb40080004000c08620000080400090017800cf
:107ec40001c8bf008080fb00100020000101dd001c
:107ed400020078000080ea008180ea0000816100ed
:107ee40084004200c0862000008040000208780020
:107ef4001100370000c8bf008081fb0000c8bf002c
:107f04000080fb0080004000c0862000008040000c
:107f14001001780001c8bf008080fb001000200021
:107f24000100dd000001710083804100c086200053
:107f34000080400002087800cc82a8000040eb00da
:107f440002e8b700040037000000000002c8bf00c8
:107f54000040e80002e8b70002c8bf00e14f50004b
:107f6400f9ff3600cc82a90001c8bf008080fb0065
:107f740000c8bf000080fb00f8fe07000000e0001e
:107f84002a00320000c8bf000080fb0080004000cf
:107f9400c0862000008040001001780001c8bf00a6
:107fa4008080fb00100020000100dd000000610063
:107fb4000000e0000700320064cabf008080fb00bc
:107fc400808020008080400000c7b3008048780093
:107fd4000600370064cabf008080fb008080200058
:107fe4008080400020c7b3008048780064cabf0086
:107ff4000080fb000001e80000c8bf000080fb0017
:108004004400dd008040780001c8bf0000c040008b
:108014008040780080802000000041000148780002
:1080240064cabf0000c0e80064eab70001c8bf002a
:108034000040e80001e8b70001c8bf00e74f500066
:1080440093ff360000c8bf000040e80000e8b70016
:1080540000c8bf008080fb006acabf000080fb002c
:1080640064004000808f50006aff350064cabf007e
:108074000004e0000d00320041cabf000004e0002b
:108084000a003a00808020001052880064cabf00b1
:1080940044eab70010c0b30045eab70010c0b3000b
:1080a40041eab7000040eb0064eab7003a03070076
:1080b400200020005a0107006acabf006440400043
:1080c4006aeab7006acabf00e74f500002003600f0
:1080d4000040eb006aeab7000080fa0000000600e6
:1080e4000200fa00000f7800500020009e0f1000dc
:1080f40012003c006bcabf008080fb00f00320002c
:10810400008060000000e00002003a00100020003f
:1081140060538800110020001e0078000008dd0074
:10812400804078006bcabf0000c070006beab700e3
:108134006fcabf000040e8006feab7000080fa0091
:10814400000006000200fa00000f78005000200032
:108154009e0f100016003c00110020001e00780045
:108164000008dd0000417800024078000080ea0049
:108174008180ea00804078006bcabf0000c06000c4
:108184006beab7006bcabf008080fb00f0032000dd
:10819400008060000000e00002003a000000eb00f4
:1081a400605388006fcabf000040e9006feab7005f
:1081b4000080fa0000000600809fbe00829fbe007f
:1081c4003400f80000002000a00188000400fa0038
:1081d40085a0a9006ecabf000081fb0001188000c1
:1081e40060188000008040008001d1006c10b9004c
:1081f400800078004093200000804000030878004d
:108204006ecabf000081fb00111880007018800046
:10821400008040008001d1006c10b9008080e8002b
:108224004093200000804000030878006ecabf001d
:108234000081fb002118800080188000008040002d
:108244008001d1006c10b900e4004000409320008c
:1082540000804000030878006ecabf000081fb0064
:108264003118800090188000008040008001d10007
:108274006c10b900e60040004093200000804000ec
:10828400030878006ecabf000081fb00411880001b
:10829400a0188000008040008001d1006c10b9005b
:1082a400e80040004093200000804000030878006c
:1082b4006ecabf000081fb0051188000b018800016
:1082c400008040008001d1006c10b900ea00400039
:1082d4004093200000804000030878006ecabf006d
:1082e4000040e8006eeab7006ecabf00e74f5000d6
:1082f400020036000040eb006eeab7000040eb00dd
:1083040003e8b7005b0037006ecabf000004e0005a
:1083140055003a006bcabf000081fb0003c8bf00d0
:108324008080fb00100020000100dd0000016100de
:1083340003c8bf008080fb00100020000100dd00a6
:10834400800f510048003a000000eb00000f780055
:108354000040eb0004e8b7000e00370004c8bf007b
:108364008080fb0003c8bf000081fb006608b900e1
:108374000200400080004000409320000080400044
:10838400100078001e0f400004c8bf000040e80041
:1083940004e8b70004c8bf00e74f5000efff360001
:1083a40003c8bf008080fb001e0078004301de008c
:1083b4008180400080922000008040000208780004
:1083c40003c8bf000080fb008000400080922000b2
:1083d400008040001001780003c8bf000080fb004b
:1083e4008000400040992000008040001000780088
:1083f40000005100100798001e0090000000e000eb
:1084040003003d001e0090000000ea0010079800e1
:108414001e009000e40f50001300340003c8bf0096
:108424000080fb0080004000c0912000808040005c
:10843400100020008008780003c8bf000081fb0002
:1084440003c8bf000080fb00800040008092200031
:108454000080400090017800820041004099200093
:10846400008040000308780003c8bf000040e80013
:1084740003e8b70003c8bf00e54f5000a2ff360071
:108484000080fa003400f9004f01be004f00be0026
:10849400004006000000fa000040eb0000e8b700ce
:1084a400470037006bcabf000081fb0000c8bf0053
:1084b4008080fb00100020000100dd00000161004d
:1084c40000c8bf008080fb00100020000100dd0018
:1084d400800f510037003a0000c8bf000080fb0045
:1084e40080004000c091200000804000100078000f
:1084f400e10f50002f003a0065cabf008080fb00e6
:10850400808420008080400010c6b300804878003a
:1085140065cabf000080fb000001e80000c8bf007e
:10852400c401dd0000c8bf000080fb0080004000e3
:1085340080922000008040009000780000302000ed
:10854400008060004800de0080c04100808420007c
:10855400000041000148780065cabf000080fb00ac
:108564000081e80000c8bf000080fb0080004000dc
:108574008092200000804000100078008040780045
:1085840080842000000041000148780065cabf00d3
:108594006340400065eab70000c8bf000080fb00ec
:1085a40080004000c0912000808040000000eb006b
:1085b4008008780000c8bf000040e80000e8b70069
:1085c40000c8bf00e54f5000b6ff360065cabf00c3
:1085d4000004e0000e00320041cabf000004e000c5
:1085e4000b003a00808420001052880065cabf0046
:1085f40044eab70010c0b30045eab70010c0b300a6
:1086040041eab7000040eb0065eab700e201070069
:1086140010002000020007000080fa00000006009d
:108624000200fa00000f78001e0078004500dd000b
:10863400a2002000110009000280d800000f780079
:1086440006003700000000000000000000000000e9
:1086540000000000000000001e0fe9001e00e00002
:10866400f8ff3a000080fa00000006000200fa0059
:10867400000f78000040eb0002e8b7000500370067
:10868400803e2000e6ff070002c8bf000040e8006b
:1086940002e8b70002c8bf000080fb009e0f500034
:1086a400f7ff39000080fa00000006000400fa0019
:1086b400204798000000eb00000f7800ae409000c7
:1086c400f0c2b30080cf50000c003400ae409000e4
:1086d40090c3b30080cf500008003c001e00780017
:1086e400c400dd002e4090000000fb0080804000ac
:1086f40000fd2f00008f4000070037001e007800a7
:10870400c400dd002e4090000000fb00808040008b
:1087140090fc2f00008f40001e0078000080fa00bb
:10872400000006000000fa000080fa0000000600c5
:108734000000fa000080fa00000006000000fa00c1
:108744000080fa00000006000000fa000080fa0031
:10875400000006000000fa00440007000080fa0050
:10876400000006000000fa000080fa000000060085
:108774000000fa00ce0007000080fa0000000600a6
:108784000800fa00000f78001107980022079800eb
:108794001e0078003007980020072000be009000db
:1087a400808f50002d00320020072000be00900072
:1087b400808f50000a003e003e009000e20f5000ff
:1087c4001a003200be009000e38f500019003200fe
:1087d4003e009000e10f50001200320020003700ec
:1087e40040072000be009000808f50001700320028
:1087f40040072000be009000808f50000f00390019
:1088040050072000be009000808f50000d00320001
:10881400f0ff2700be009000808f50000d00320052
:108824000f003700d2ff07000d003700cdff07000f
:108834000b003700c7ff070009003700bfff070020
:1088440007003700b7ff070005003700b8ff07002f
:1088540003003700bcff07000100370000000000e0
:10886400100020000080fa00000006000200fa0058
:10887400e6c9bf007f406000e14f50008a003a0023
:10888400e6c9bf0002c6b3008240600000c2b30064
:1088940080cf500084003a00eac9bf000004e00021
:1088a40003003200eac9bf00e14f50007e003a00e5
:1088b400e7c9bf000080fb00000f78000002200021
:1088c4009e007800808f50003800320000022000a3
:1088d4001e017800800f510007003c001e00780044
:1088e4000000e0000d0032009e007800e18f50008f
:1088f400200032006c003700100220001e017800b6
:10890400800f51004f003200200220009e007800aa
:10891400808f50006100320063003700a2a5200060
:10892400f00f200080006100aac9bf006040600011
:1089340001407000aae9b700c810de00abc9bf004f
:108944006040600001407000abe9b700adc9bf00f2
:10895400604060000034a000ade9b700aec9bf00bc
:1089640060406000aee9b700ac09a800ace9a8001b
:108974004d003700a2a52000f00f20008000610008
:10898400aac9bf006040600001407000aae9b700b6
:10899400c810de00abc9bf00604060000140700039
:1089a400abe9b700ace9a8003f003700ecc9bf0051
:1089b4008080fb00edc9bf000080fb004800dd00a3
:1089c4000100700000017800f00f200080006100b9
:1089d400b8c9bf006040600001407000b8e9b7004a
:1089e400c810de00b9c9bf006040600001407000db
:1089f400b9e9b70062a42000f00f200080006100f4
:108a0400b5c9bf006040600001407000b5e9b7001f
:108a1400c810de00b6c9bf006040600001407000ad
:108a2400b6e9b700bac9bf0060406000bae9b70050
:108a3400bbc9bf0060406000bbe9b700b7e9a8004c
:108a44001900370062a42000f00f200080006100ac
:108a5400aac9bf006040600001407000aae9b700e5
:108a6400c810de00abc9bf00604060000140700068
:108a7400abe9b700adc9bf00604060007040b3000f
:108a8400ade9b700aec9bf0060406000aee9b70011
:108a940010ccb300ace9b70003003700e8c9bf004d
:108aa40054eab700ace9a8000080fa000000060010
:108ab4000000fa0000b024000100200030528800b9
:108ac400415288000040eb004aeab7000040eb0046
:108ad4004beab70080c0b3004ceab7000040eb009b
:108ae40041eab7000040eb0040eab70051c1b300cf
:108af40020c0b300bef70700d1c1b30030c0b3003b
:108b0400bbf7070003c4b300a2a720008040eb001a
:108b140030c0b30010f80700805288000000eb005a
:108b2400905288000080fa00000006000400fa0059
:108b3400000f7800214798000040eb0040eab7009e
:108b4400805280000000e000060032008052800065
:108b54009040900000c8b30000c060000004e00032
:108b640022003a0080528000904078002e4090000d
:108b740080cf500003003100805280009040780084
:108b8400214798000040eb0040eab7000c00370092
:108b940040cabf000080fb001e01400040cabf0065
:108ba4008080fb00a0a720000080400010407800d7
:108bb4000049780040cabf000040e80040eab7001e
:108bc40001a42000914078002e40900080cf5000f6
:108bd400efff390003c4b300a2a720008040eb00dc
:108be40030c0b300dcf707008052880040cabf00e1
:108bf4000080fb000080fa00000006000400fa0078
:108c0400000f7800214798009ec0a90041cabf0008
:108c14000004e00008003a001e00780010528800aa
:108c24002e40900044eab70010c0b30045eab700f4
:108c340010c0b30041eab7009ec0a8000080fa004b
:108c4400000006000800fa00200798009ec0a90052
:108c540041cabf000004e000020032009ec0a80028
:108c64001f0037000040eb00204798002e009000c2
:108c7400000f78002e4090000040e8002047980044
:108c84002e409000e14f40000c0032001e0078009e
:108c940010407800604798006e4090000004e000a7
:108ca4000200320010c0b300604798006e4090008c
:108cb4001e0fe8000004e000eeff3a002e009000d2
:108cc400105288002e40900044eab70010c0b30050
:108cd40045eab70010c0b30041eab7009ec0a8003f
:108ce4000080fa00000006000800fa00e4004700d3
:108cf400800878009ec0a90041cabf000004e000bb
:108d0400020032009ec0a800210037000040eb00a2
:108d14002047980064004700100f78002e40900010
:108d24000040e800204798002e409000e14f4000aa
:108d34000d0032001e007800104078006047980053
:108d44006e4090000004e0000200320011c0b30045
:108d5400614798006e4090009e007800618f40004b
:108d64000004e000edff3a006400470010007800c2
:108d7400105288002e40900044eab7000040eb00f7
:108d840045eab70010c0b30041eab7009ec0a8008e
:108d94000080fa00000006000200fa009ec0a9004c
:108da400905280000000e0000800320090528000e1
:108db4009040900000c8b30000c060000004e000d0
:108dc400020032009ec0a8005e00370041cabf0006
:108dd400e34f500002003a000040eb0041eab700c4
:108de40041cabf000004e00002003a009ec0a8008f
:108df4005400370041cabf00e24f500009003a0056
:108e04008041eb000001eb0011c0b30030c0b3009f
:108e140051f707009052880030c0b30041eab70010
:108e24004700370041cabf00e14f500044003a00f8
:108e340041a420009140780000c4b30080cf5000ca
:108e44000300360000c4b300104798000200370046
:108e540044cabf001047980041a420009140780004
:108e64001e40900000c0500044eab700a0ab2000b0
:108e7400705288001e409000004f780045cabf0021
:108e84000004e0001a003a000b0037007152800021
:108e940010528000104078008048780070528000a2
:108ea4000000e80070528800105280006100400009
:108eb400105288001e4fe9001e04e000f3ff3a0040
:108ec4000d0037007152800010528000104078006d
:108ed40080487800705280000000e80070528800da
:108ee400105280000000e800105288001e4fe90074
:108ef4001e04e000f3ff3a0044cabf000004e0008f
:108f040009003a009e40900000c4b30080cf500096
:108f140003003a0020c0b30041eab7000200370062
:108f240030c0b30041eab7009e419000a2ab2000dc
:108f340011c0b30030c0b30007f707009052880097
:0c8f44009ec0a8000080fa00000006009b
:020000040000fa
:108f5000620a000010000000020000000000000093
:108f600000000000200000000000000000000100e0
:108f70000000000000080000aa010000000000003e
:108f8000aa0900004c00000000000000000a0000d8
:108f90004000000000000000720a0000880000008d
:108fa00000000000400a0000220000000000000055
:108fb000fa0900000200000002000000fe090000a3
:108fc000fc0900000200000000000000fe09000093
:108fd000020000000200000000000000fa0a000089
:108fe0004a000000020000000000210015110e00e0
:108ff0000d0c0b000b0a0a000909090009090800f9
:109000000808080008080800070707000707070006
:109010000707070007070700073031003233340025
:109020003536370038396100626364006566670071
:1090300068696a006b6c6d006e6f7000717273000e
:1090400074757600777879007a000000f6090000e0
:10905000040000000200000000000000000000000a
:04906000000000000c
:020000040000fa
:049064000000fe000a
:00000001FF
