:020000040000fa
:08000000c4260400000000000a
:020000040000fa
:10280000c426040000000000ea49040000000000a3
:10281000ea49040000000000ea490400000000004a
:10282000ea49040000000000ea490400000000003a
:10283000ea49040000000000ea490400000000002a
:10284000ea49040000000000ea490400000000001a
:10285000ea49040000000000ea490400000000000a
:10286000ea49040000000000ea49040000000000fa
:10287000ea49040000000000ea49040000000000ea
:10288000ea49040000000000ea49040000000000da
:102890002235040000000000ea49040000000000a6
:1028a000ea49040000000000ea49040000000000ba
:1028b000ea49040000000000ea49040000000000aa
:1028c000ea49040000000000ea490400000000009a
:1028d000ea49040000000000ea490400000000008a
:1028e000ea49040000000000ea490400000000007a
:1028f000ea49040000000000ea490400000000006a
:10290000ea49040000000000ea4904000000000059
:10291000ea49040000000000ea4904000000000049
:10292000ea49040000000000ea4904000000000039
:10293000ea49040000000000ea4904000000000029
:10294000ea49040000000000ea4904000000000019
:10295000ea49040000000000ea4904000000000009
:10296000ea49040000000000ea49040000000000f9
:102970002a39040000000000ea49040000000000b9
:020000040000fa
:102980000000000000000000000000000000000047
:102990000000000000000000000000000000000037
:1029a0000000000000000000000000000000000027
:1029b0000000000000000000000000000000000017
:104d8000ffffff00ffffff000fc42000007f220095
:104d900000018800000000000c00070000962400bd
:104da0000100200011000700000020000000e000ca
:104db000020032000000020000000000f0290200a2
:104dc000000000000040da000000fe004440a9009e
:104dd000a00820000000e0000300320000002000d6
:104de000a00188004440a80000000600910188004e
:104df000800078000000eb0015003700e2804000e2
:104e000032a0b4009101ba00e280400032a0b400a8
:104e10009102ba00e280400032a0b4000002eb0030
:104e2000472bde00f507b200602ce10004003a00d9
:104e30000059eb008301e900fdff3e00040037004c
:104e40006128e100010032000082eb00040007004d
:104e50001101ba000200e000e8ff3a00000006007d
:104e60003159ba008301e9000c0032002159ba001f
:104e70008301e900080032000400e00003003a006a
:104e8000e280400032a0b400f5ff370011d9ba002b
:104e90008301e900faff3a008100e800e180400068
:104ea00032a0b40000000600889fbe000004be00cf
:104eb000505e80000000e0000100320000000100b0
:104ec0000800e00001003a00485e80000800be00d3
:104ed000a5000700000444001804e00004003a00a4
:104ee000c0bc2000405e88000004eb0007003700d3
:104ef0000800be00ae000700000044001004e000ff
:104f0000010032000058eb00405e88000800780085
:104f10004f04be0000000600ec874700889fbe00db
:104f20008a9fbe008c9fbe008e1f7800f0b79f0046
:104f300081bf9f00820478000004780001003700e0
:104f40000804e800184778000e00fb00aa000700dc
:104f50000000e000faff3a00d0c2b300804f5700d3
:104f60000500320000c0e900804f57000200320007
:104f700000477800010037000804e8000900e0005d
:104f800045003500e18f540043003200400220000c
:104f9000808f540040003c000900e0000e00340007
:104fa000f08f54001a003a0000c3b300984f10006d
:104fb00016003a009840900080c7b30080cf5000a0
:104fc0000300320080c5b30080cf50000f003a00cc
:104fd0000884e8000e003700a900200000c3b300d9
:104fe000984f10000a003a009840900080c7b30024
:104ff00080cf5000040032008900200080c5b3003b
:1050000080cf500002003a000884e8000901200027
:105010000805780000c3b300010037000a05e80066
:105020009a4f1000fdff32008a0578006066b800d4
:105030000e003700f0b9200000425200c4ef9f007c
:105040006149b9000c00be008a0007004fea9700d2
:105050000401fb00cf91de008b05e800ccb79f0078
:10506000ddb79f0000064100818649001b00fb0060
:10507000690007008000780009017800f0b920007d
:105080006c000700000278000000e000e9ff3a0031
:105090008b0f540006003a000fb897000000e000a4
:1050a00029003200ffb09700010878002600370081
:1050b0008a805500a0b7200060c07c000000fb0083
:1050c00000805000160033004240a9000f003c0051
:1050d0004fe997000200fb00cf80de000000560081
:1050e00081805e00800f5600818f5e0007003900ce
:1050f0006149b900650007004fb19700dfb1970023
:10510000820f5000838f58000500320020022000db
:10511000305e88000086eb008086eb0005003700db
:10512000d0c2b300804f570002003a00600616005c
:10513000e0861e008fb997000300e00003003200f4
:105140008b097800010037006066b8000c00be00d3
:105150004f0778004f06be004f05be004f04be004b
:10516000cf00b10000000600000278000b003700fd
:1051700001017800924178000304e00002003a0047
:10518000040050000000060083cf520002003200ed
:105190000201e800f7ff37000000e80090427800c5
:1051a0000504e000f2ff3a00040050000000060091
:1051b000000278000700370083cf52000a00320057
:1051c0000201e800924178000304e000faff3a008f
:1051d0000000e800904278000504e000040032007e
:1051e00001017800f7ff37000400500000000600be
:1051f00004005000000006006900e10004003500d2
:105200006d00e100030034000002b1000100320033
:105210000000050010000500800078001104b100b6
:10522000030035009101b10001003c000050a000d6
:10523000000006008001eb00040037008301e80055
:1052400090cf1000040032000000e800828f51006f
:10525000faff3a000000eb0000000600205e80002c
:105260000000e000010032000000010060bc2000ee
:1052700000000600020ab900001bb9000200b800d5
:105280008100420081004300000006006022b80057
:10529000060220000000d0008180d2000482d200eb
:1052a0008582d2000000a0000202520083825a00d0
:1052b000030031000202420083824a000000a10084
:0c52c0000603e900f3ff3a0000000600be
:020000040000fa
:020000040001f9
:0457f00010ff0000a6
:020000040000fa
:020000040001f9
:0457f400c0fc0000f5
:020000040000fa
:020000040001f9
:0457f800ae4b0000b4
:020000040000fa
:020000040001f9
:0457fc00603d00000c
:020000040000fa
:10000800ea490000ea490000ea490000ea4900001c
:10001800ea490000ea490000ea490000ea4900000c
:10002800ea490000ea490000ea490000ea490000fc
:10003800ea490000ea490000ea490000ea490000ec
:10004800ea490000ea490000ea490000ea490000dc
:10005800ea49000022350000ea490000ea490000a8
:10006800ea490000ea490000ea490000ea490000bc
:10007800ea490000ea490000ea490000ea490000ac
:10008800ea490000ea490000ea490000ea4900009c
:10009800ea490000ea490000ea490000ea4900008c
:1000a800ea490000ea490000ea490000ea4900007c
:1000b800ea490000ea490000ea490000ea4900006c
:1000c800ea490000ea490000ea490000ea4900005c
:1000d800ea490000ea490000ea490000ea4900004c
:1000e800ea490000ea490000ea490000ea4900003c
:1000f800ea490000ea490000ea490000ea4900002c
:10010800ea490000ea490000ea490000ea4900001b
:10011800ea490000ea490000ea490000ea4900000b
:10012800ea490000ea490000ea490000ea490000fb
:10013800ea490000ea490000ea490000ea490000eb
:10014800ea490000ea490000ea490000ea490000db
:10015800ea490000ea490000ea490000ea490000cb
:10016800ea490000ea490000ea490000ea490000bb
:10017800ea490000ea4900002a390000ea4900007b
:10018800ea490000ea490000ea490000ea4900009b
:10019800ea490000ea490000ea490000ea4900008b
:1001a800ea490000ea490000ea490000ea4900007b
:1001b800ea490000ea490000ea490000ea4900006b
:1001c800ea490000ea490000ea490000ea4900005b
:1001d800ea490000ea490000ea490000ea4900004b
:1001e800ea490000ea490000ea490000ea4900003b
:0801f800ea490000ea49000099
:020000040000fa
:10020800ea490000ea490000ea490000ea4900001a
:10021800ea490000ea490000ea490000ea4900000a
:10022800ea490000ea490000ea490000ea490000fa
:10023800ea490000ea490000ea490000ea490000ea
:10024800ea490000ea490000ea490000ea490000da
:10025800ea49000022350000ea490000ea490000a6
:10026800ea490000ea490000ea490000ea490000ba
:10027800ea490000ea490000ea490000ea490000aa
:10028800ea490000ea490000ea490000ea4900009a
:10029800ea490000ea490000ea490000ea4900008a
:1002a800ea490000ea490000ea490000ea4900007a
:1002b800ea490000ea490000ea490000ea4900006a
:1002c800ea490000ea490000ea490000ea4900005a
:1002d800ea490000ea490000ea490000ea4900004a
:1002e800ea490000ea490000ea490000ea4900003a
:1002f800ea490000ea490000ea490000ea4900002a
:10030800ea490000ea490000ea490000ea49000019
:10031800ea490000ea490000ea490000ea49000009
:10032800ea490000ea490000ea490000ea490000f9
:10033800ea490000ea490000ea490000ea490000e9
:10034800ea490000ea490000ea490000ea490000d9
:10035800ea490000ea490000ea490000ea490000c9
:10036800ea490000ea490000ea490000ea490000b9
:10037800ea490000ea4900002a390000ea49000079
:10038800ea490000ea490000ea490000ea49000099
:10039800ea490000ea490000ea490000ea49000089
:1003a800ea490000ea490000ea490000ea49000079
:1003b800ea490000ea490000ea490000ea49000069
:1003c800ea490000ea490000ea490000ea49000059
:1003d800ea490000ea490000ea490000ea49000049
:1003e800ea490000ea490000ea490000ea49000039
:0803f800ea490000ea49000097
:020000040000fa
:1052cc0012010000000200000200000000080000b3
:1052dc00d804000000fd00000001000001020000e5
:1052ec000001000009020000430000000201000060
:1052fc0000c00000fa0900000400000000010000da
:10530c000202000001000000052400000010000053
:10531c000104000024020000020500002406000025
:10532c00000100000524000001000000010700003e
:10533c0005820000030800000002000009040000c0
:10534c0001000000020a000000000000000700003d
:10535c0005030000024000000000000007050000eb
:10536c008302000040000000000000000403000065
:10537c000904000012030000740000006b00000020
:10538c0072000000770000006f0000007200000047
:10539c006b000000730000001603000050000000ba
:1053ac0049000000430000006e0000006f00000088
:1053bc006d000000650000003100000032000000ac
:1053cc003800000078a90000bca90000c0a90000aa
:0453dc00d2a9000052
:020000040000fa
:1053e0000200fa000000eb00203a880000fc2f00c9
:1053f000601988003000200000168800f00a2000a4
:1054000040168800cf22a800ce82a800c682a8003d
:10541000cfa2a800cfc2a80080252000000f7800ee
:1054200044a7a8001e0fe9000080eb009e0f1000ab
:10543000fcff3a00716c20009140780000ceb30070
:1054400000c060007040b300c7e6b700816c200068
:105450009140780000ceb30000c060000034a0008e
:10546000c8e6b700b0532000101288000000eb001f
:105470002012880041e2a8008540a900910a20007e
:105480009140780080cfb30000c06000a9e0b70071
:105490009540a90040002000700888000003280003
:1054a000900888004004280000198800c0422000ad
:1054b0001019880020f02100201988000000eb005e
:1054c0004019880000fc2f0060198800f0032000bc
:1054d0008019880095a0a8000040eb00eeeab70014
:1054e0000040eb0000e8b7001800370000c8bf001c
:1054f0000080fb0080004000e09d20008080400094
:105500000000eb008008780000c8bf000080fb00ae
:1055100080004000a09e2000808040000000eb0042
:105520008008780000c8bf000080fb0080004000b9
:1055300060a52000808040000000eb00800878001b
:1055400000c8bf000040e80000e8b70000c8bf0086
:10555000e54f5000e5ff36004006200066060700d4
:10556000cdc2a8000040eb0000e8b7000c003700f7
:1055700000c8bf000080fb008000400020a6200083
:10558000808040000000eb0080087800cda2a800d9
:10559000cda2a90000c8bf000040e80000e8b700a5
:1055a00000c8bf00e74f5000f1ff36005903070065
:1055b00013000700d00607006d0d070010c0b300f0
:1055c00000e8b70010c0b30001e8b70000003700e2
:1055d000e0538000ff0f5000fdff360088c4bf007d
:1055e000624060000004e000f9ff3a002204070076
:1055f000cb05070034010700c40e0700f4ff370095
:105600000000fa0073c0b300b2c0b30071c0b300b1
:10561000b0c0b3000701070013c0b300c2c0b3009d
:1056200011c0b300c0c0b300020107008041eb000d
:10563000f2c0b3008040eb00f0c0b300fd000700f3
:10564000f3c0b300a2c0b300f1c0b300a0c0b30068
:10565000f80007008041eb0012c0b3008040eb006f
:1056600010c0b300f30007008041eb0022c0b3007c
:105670008040eb0020c0b300ee0007008041eb004b
:1056800032c0b3008040eb0030c0b300e900070037
:105690008041eb0042c0b30081c1b30040c0b30001
:1056a000e40007008041eb0052c0b30081c1b300a9
:1056b00050c0b300df0007008041eb0062c0b300c0
:1056c0008040eb0060c0b300da0007008041eb00cf
:1056d00072c0b3008040eb0070c0b300d50007007b
:1056e0008041eb0082c0b3008040eb0080c0b3007b
:1056f000d00007000040eb0000e8b70018003700ba
:1057000000c8bf008080fb000004200001005000a2
:1057100042002000110009000200d80080417800fa
:1057200000c8bf008080fb00000420000100500082
:1057300042002000110009000200d80080407800db
:10574000a2c0b300a0c0b300ba0007004000200010
:10575000e905070000c8bf000040e80000e8b70006
:105760000180200091407800f0c3b30080cf50004a
:10577000e3ff3600f3c0b300a2c0b300f1c0b30032
:10578000a0c0b300ab0007008041eb0012c0b30023
:105790008040eb0010c0b300a60007008041eb0082
:1057a00022c0b3008040eb0020c0b300a10007007e
:1057b0008041eb0032c0b30081c1b30030c0b30000
:1057c0009c0007008041eb0042c0b30041c2b3001f
:1057d00040c0b300970007008041eb0052c0b30007
:1057e00041c2b30050c0b300920007008041eb00fb
:1057f00062c0b30081c1b30060c0b3008d00070078
:105800008041eb0072c0b3008040eb0070c0b30079
:10581000880007008041eb0082c0b3008040eb00ad
:1058200080c0b300830007000040eb0000e8b70031
:105830001800370000c8bf008080fb000004200073
:105840000100500042002000110009000200d800b1
:105850008041780000c8bf008080fb000004200069
:105860000100500042002000110009000200d80091
:1058700080407800a2c0b300a0c0b3006d00070054
:10588000400020009c05070000c8bf000040e80061
:1058900000e8b7000180200091407800f0c3b30019
:1058a00080cf5000e3ff3600f3c0b300a2c0b300c6
:1058b000f1c0b300a0c0b3005e0007008041eb0060
:1058c00012c0b3008040eb0010c0b30059000700c5
:1058d0008041eb0022c0b30081c1b30020c0b300ff
:1058e000540007008041eb0032c0b30041c2b30056
:1058f00030c0b3004f0007008041eb0042c0b3004e
:1059000021c4b30040c0b3004a0007008041eb004f
:1059100052c0b30021c4b30050c0b300450007001b
:105920008041eb0062c0b30041c2b30060c0b3006d
:10593000400007008041eb0072c0b30081c1b3009a
:1059400070c0b3003b0007008041eb0082c0b30091
:105950008040eb0080c0b300360007000040eb0041
:1059600000e8b7001800370000c8bf008080fb00c7
:105970000004200001005000420020001100090036
:105980000200d8008041780000c8bf008080fb0082
:105990000004200001005000420020001100090016
:1059a0000200d80080407800a2c0b300a0c0b300bd
:1059b00020000700400020004f05070000c8bf007e
:1059c0000040e80000e8b700018020009140780026
:1059d000f0c3b30080cf5000e3ff3600f3c0b30044
:1059e000a2c0b300f1c0b300a0c0b3001100070013
:1059f00010c0b30000e8b7000900370002802000a3
:105a00001241780000c8bf008041eb008040eb00ed
:105a10000800070000c8bf000040e80000e8b70029
:105a200000c8bf00e84f5000f4ff36000080fa00c5
:105a3000000006000600fa00204798003147980051
:105a40004247980053479800cd22a9004e4090004d
:105a50000080fb00c800dd005e4090000080fb007d
:105a600000804000000f78001e007800401288007f
:105a700040c2bf00624060000004e000fcff3a004a
:105a80002e4090000080fb00c800dd003e409000ea
:105a90000080fb0000804000000f78001e007800ae
:105aa0004012880040c2bf00624060000004e00075
:105ab000fcff3a0010002000fc040700cd22a800e3
:105ac0000080fa00000006000a00fa00f1c0b300ee
:105ad000f0892000f20c07000004e0000b02320005
:105ae000f189200091407800c0c6b30080cf5000fb
:105af0005d003a00018a20009140780000c3b300a5
:105b000080cf500005003200018a200091407800cb
:105b100010c3b30080cf500053003a00a2c8bf00aa
:105b2000050507009be8b7009bc8bf00e74f500082
:105b3000f6013e00a1c8bf00ff0407009ae8b700c5
:105b4000a0c8bf00fc0407009ce8b7009cc8bf00c9
:105b50000004e000120032009bc8bf008081fb00ff
:105b60009bc8bf000080fb008000400020a62000f2
:105b700000804000100178009ac8bf008080fb00c0
:105b8000100020000100dd00000171008380410051
:105b900020a6200000804000020878001400370092
:105ba0009bc8bf000082fb009bc8bf000080fb00b9
:105bb0008000400020a62000008040009001780076
:105bc0009ac8bf008080fb00100020000101dd00aa
:105bd000020078000080ea008180ea000081610014
:105be0008400420020a620000080400002087800c7
:105bf0009bc8bf000080fb008000400020a6200062
:105c000000804000100078009de8b7009bc8bf00ee
:105c10000080fb008000400020a6200000804000a3
:105c20009000780000f02f00008060004800de0047
:105c30009ee8b700e1892000914078009bc8bf0032
:105c40000040e80000417800d48920001442780028
:105c50009bc8bf000040e800814178008440780084
:105c600074ff0700a9013700f189200091407800f6
:105c7000c0c6b30080cf5000a0003a00018a2000c7
:105c80009140780030c6b30080cf50009b003a00ae
:105c900081ae2000f089200083fc0700304088009e
:105ca00081ae20000000eb007ffc07003040880040
:105cb00030408000a20020008000eb0096fc07002e
:105cc000004f980081ae20000000eb0076fc07003a
:105cd0003040880030408000a20020008000eb00af
:105ce0008dfc07007047980080578000e10f50003e
:105cf0002f003a000040eb0000e8b7002700370013
:105d000000c8bf000080fb008000400020a62000eb
:105d1000808040000000eb008008780000c8bf00d1
:105d20000080fb008000400020a620000080400092
:105d3000100078009de8b70000c8bf000080fb009d
:105d40008000400020a620000080400090007800e5
:105d500000f02f00008060004800de009ee8b700e1
:105d6000e18920009140780000c8bf000040e800b1
:105d700000417800d48920001442780000c8bf0098
:105d80000040e800814178008440780029ff070046
:105d900000c8bf000040e80000e8b70000c8bf002e
:105da000e74f5000d6ff36000000eb008057880018
:105db0000040eb0000e8b7004c0037007e40900048
:105dc0008080fb0000c8bf000080fb000088de0070
:105dd000610060000004e0001200320000c8bf0053
:105de0008081fb0000c8bf000080fb0080004000f5
:105df00020a6200000804000100178000e4890008e
:105e00008080fb00100020000100dd000001710017
:105e10008380410020a62000008040000208780016
:105e20001400370000c8bf000082fb0000c8bf009c
:105e30000080fb008000400020a620000080400081
:105e4000900178000e4890008080fb001000200038
:105e50000101dd00020078000080ea008180ea0094
:105e6000008161008400420020a6200000804000e4
:105e70000208780000c8bf000080fb0080004000de
:105e800020a6200000804000100078009de8b700a8
:105e900000c8bf000080fb008000400020a620005a
:105ea00000804000100078004800de009ee8b70047
:105eb000e18920009140780000c8bf000040e80060
:105ec00000417800d48920001442780000c8bf0047
:105ed0000040e8008141780084407800d5fe07004a
:105ee00000c8bf000040e80000e8b70000c8bf00dd
:105ef000e74f5000b1ff360004013700f189200060
:105f000091407800c0c6b30080cf500070003a00c6
:105f1000018a20009140780020c7b30080cf500054
:105f20006b003a0081ae2000f0892000defb070004
:105f30003040880081ae20000000eb00dafb070053
:105f40003040880030408000a20020008000eb003c
:105f5000f1fb07006047980081ae20000000eb00d5
:105f6000d1fb07003040880030408000a2002000b4
:105f70008000eb00e8fb07002007980080578000b6
:105f8000e10f50002f003a000040eb0000e8b7009e
:105f90002700370000c8bf000080fb0080004000e1
:105fa00020a62000808040000000eb0080087800e0
:105fb00000c8bf000080fb008000400020a6200039
:105fc00000804000100078009de8b70000c8bf00c6
:105fd0000080fb008000400020a6200000804000e0
:105fe0009000780000f02f00008060004800de0084
:105ff0009ee8b700e18920009140780000c8bf000a
:106000000040e80000417800d48920001442780064
:1060100000c8bf000040e80081417800844078005b
:1060200084fe070000c8bf000040e80000e8b70099
:1060300000c8bf00e74f5000d6ff36000000eb005d
:10604000805788006e4090000080fb008000400078
:1060500020a6200000804000ae00900001087800db
:106060006e4090000080fb008000400020a62000d1
:1060700000804000100078009de8b7006e4090005e
:106080000080fb008000400020a62000008040002f
:10609000100078004800de009ee8b700e18920008b
:1060a000914078006e4090000040e8000041780088
:1060b000d4892000144278006e4090000040e8002f
:1060c00081417800844078005afe07008f00370035
:1060d000f18920009140780010c6b30080cf5000b5
:1060e00026003a00018a20009140780050c6b30093
:1060f00080cf500021003a0081ae2000f0892000be
:1061000069fb07003040880081ae20000000eb00f2
:1061100065fb07003040880030408000a20020006e
:106120008000eb007cfb07003047980081ae200028
:106130000000eb005cfb070030408800304080002e
:10614000a20020008000eb0073fb070020479800ae
:106150002e4090000004e000040032003e40900019
:106160000080fb0001020700680037003e409000fd
:106170000080fb001602070064003700f189200050
:106180009140780090c6b30080cf500016003a00ce
:1061900081ae2000f089200043fb070030408800da
:1061a00081ae20000000eb003ffb0700304088007c
:1061b00030408000a20020008000eb0056fb07006a
:1061c0009053880090538000804078009053800066
:1061d00081417800a2c0b30080407800a0c0b30025
:1061e00014fe070049003700f18920009140780033
:1061f00040c7b30080cf500013003a0081ae2000aa
:10620000f089200028fb07003040880081ae200084
:106210000000eb0024fb0700304088003040800085
:10622000a20020008000eb003bfb07001047980015
:106230009e419000f2c0b3009e409000f0c0b300b9
:10624000fcfd070031003700f18920009140780003
:1062500030c7b30080cf500013003a0081ae200059
:10626000f089200010fb07003040880081ae20003c
:106270000000eb000cfb070030408800304080003d
:10628000a20020008000eb0023fb0700004f7800f5
:106290009e417800c2c0b3009e407800c0c0b300e9
:1062a000e4fd070019003700f189200091407800d3
:1062b00060c6b30080cf500014003a0060c6b3003f
:1062c00008e8b700b0c0b30009e8b70050c0b30099
:1062d0000ae8b700c1cabf000004e00008003a00a5
:1062e000808020001056880030c0b300c4eab70098
:1062f00010c0b300c5eab70010c0b300c1eab700d0
:10630000820b070020002000e80207000080fa004e
:10631000000006000000fa000040eb0000e8b700b3
:106320002c00370000c8bf000080fb008000400048
:10633000e08a2000808040000000eb0080087800a8
:1063400000c8bf000080fb0080004000e08b200000
:10635000808040000000eb008008780000c8bf008b
:106360000080fb0080004000e08c20008080400026
:106370000000eb00800878000040eb0001e8b70067
:106380000e00370000c8bf000081fb0001c8bf003d
:106390008080fb004410dd000100400080004000d0
:1063a000e08d2000808040000000eb008008780035
:1063b00001c8bf000040e80001e8b70001c8bf0005
:1063c000ef4f5000efff360000c8bf000040e8006c
:1063d00000e8b70000c8bf00e74f5000d1ff36000b
:1063e0000080fa00000006000400fa00000f7800a8
:1063f000110798000000eb00105788001e0078007d
:1064000080004000e08a20000080400010017800f9
:106410001e00780080004000e08b200000804000db
:106420001000780000016900110020001e0090009b
:106430000008dd00000061000000e0001b003200e9
:106440001e00780080004000e08a200000804000ac
:10645000100178001e00780080004000e08c2000d1
:106460000080400010007800000169001100200049
:106470001e0090000008dd00000061000000e00048
:106480000a0032001e0078009e0090004400dd00eb
:106490000100400080004000e08d2000808040002e
:1064a0000000eb0080087800700037001e007800c4
:1064b00080004000e08a2000008040001001780049
:1064c0001e00780080004000e08b2000008040002b
:1064d0001000780000016900110020001e009000eb
:1064e0000008dd00000061000000e0005f003a00ed
:1064f0001e00780080004000e08a200000804000fc
:10650000100178001e00780080004000e08c200020
:106510000080400010007800000169001100200098
:106520001e0090000008dd00000061000000e00097
:106530004e0032001e0078009e0090004400dd00f6
:106540000100400080004000e08d200000804000fd
:1065500010007800e30f500044003e001e01780058
:106560009e0190004410dd000300400080004000c8
:10657000e08d200000804000100078000002e8005c
:106580004410dd000300400080004000e08d20004a
:1065900000804000040878004410dd000300400043
:1065a00080004000e08d2000008040001000780056
:1065b000e40f50002d003a001e00780080004000db
:1065c000e08a2000008040001001780011002000c7
:1065d0001e0090000008dd00000061000000e000e7
:1065e0000f0032009e0178001e00780080004000fd
:1065f000e08c200000804000100178001100200095
:106600001e0090000008dd00000171008380410041
:10661000e08c200000804000020878001100370064
:106620009e0178001e00780080004000e08c200071
:106630000080400010027800110020001e00900031
:106640000009dd00020078000080ea008180ea0095
:106650000001620083804100e08c20000080400047
:1066600002087800100020001057880010578000a2
:106670000080fa00000006000000fa00eacabf002d
:106680000004e00003003a00cdc2a900cda2a8009a
:10669000cdc2a800eacabf0000e8b7008f003700eb
:1066a000cda2a8000040eb0002e8b70004003700cc
:1066b0000000000002c8bf000040e80002e8b70088
:1066c00002c8bf00e44f5000f9ff3600cda2a90078
:1066d00000c8bf000081fb0000c8bf000080fb00b5
:1066e00080004000e08a2000008040009001780097
:1066f00082004100e08b2000008040000308780009
:10670000c482a90010002000e8010700c482a8008c
:106710000040eb0001e8b7006a003700cac2bf00c2
:106720000042b2000004e0001500320000c8bf00c3
:106730000082fb0000c8bf000080fb00800040001a
:10674000e08a2000008040009001780001c8bf006e
:106750008080fb00100020000101dd0002007800b5
:106760000080ea008180ea0000816100840042002c
:10677000e08a200000804000020878001100370005
:1067800000c8bf008081fb0000c8bf000080fb0084
:1067900080004000e08a2000008040001001780066
:1067a00001c8bf008080fb00100020000100dd0058
:1067b0000001710083804100e08a200000804000d9
:1067c00002087800cc82a8000040eb0002e8b70085
:1067d000040037000000000002c8bf000040e800cd
:1067e00002e8b70002c8bf00e14f5000f9ff3600d1
:1067f000cc82a90001c8bf008080fb0000c8bf0098
:106800000080fb00f8fe07000000e0002a003200d4
:1068100000c8bf000080fb0080004000e08a20002c
:10682000008040001001780001c8bf008080fb009c
:10683000100020000100dd00000061000000e00009
:1068400007003200e4cabf008080fb008080200087
:106850008080400000c7b300804878000600370001
:10686000e4cabf008080fb00808020008080400060
:1068700020c7b30080487800e4cabf000080fb0056
:106880000001e80000c8bf000080fb004400dd00fc
:106890008040780001c8bf0000c040008040780000
:1068a000808020000000410001487800e4cabf0059
:1068b00000c0e800e4eab70001c8bf000040e800fb
:1068c00001e8b70001c8bf00ef4f500093ff36004a
:1068d00000c8bf000040e80000e8b70000c8bf00e3
:1068e0008080fb00eacabf000080fb00640040001b
:1068f000808f50006aff3500e4cabf000004e0004a
:106900000d003200c1cabf000004e0000a003a00d6
:106910008080200010568800e4cabf00c4eab70097
:1069200010c0b300c5eab70010c0b300c1eab70099
:106930000040eb00e4eab700f40907002000200063
:106940005a010700eacabf0064404000eaeab70003
:10695000eacabf00e74f5000020036000040eb00db
:10696000eaeab7000080fa00000006000200fa0020
:10697000000f7800500020009e0f100012003c0015
:10698000ebcabf008080fb00f003200000806000a5
:106990000000e00002003a0010002000605788006c
:1069a000110020001e0078000008dd008040780003
:1069b000ebcabf0000c07000ebeab700efcabf002f
:1069c0000040e800efeab7000080fa00000006008f
:1069d0000200fa00000f7800500020009e0f100007
:1069e00016003c00110020001e0078000008dd00a9
:1069f00000417800024078000080ea008180ea00cf
:106a000080407800ebcabf0000c06000ebeab7002e
:106a1000ebcabf008080fb00f00320000080600014
:106a20000000e00002003a000000eb006057880020
:106a3000efcabf000040e900efeab7000080fa00ab
:106a400000000600809fbe00829fbe003400f80058
:106a500000002000a00188000400fa0085a0a90021
:106a6000eecabf000081fb000118800060188000a2
:106a7000008040008001d1006c10b90080007800d7
:106a8000609f20000080400003087800eecabf002d
:106a90000081fb0011188000701880000080400009
:106aa0008001d1006c10b9008080e800609f200058
:106ab0000080400003087800eecabf000081fb00a0
:106ac0002118800080188000008040008001d100e3
:106ad0006c10b900e4004000609f2000008040007e
:106ae00003087800eecabf000081fb003118800067
:106af00090188000008040008001d1006c10b90027
:106b0000e6004000609f20000080400003087800fd
:106b1000eecabf000081fb0041188000a018800071
:106b2000008040008001d1006c10b900e8004000f6
:106b3000609f20000080400003087800eecabf007c
:106b40000081fb0051188000b018800000804000d8
:106b50008001d1006c10b900ea004000609f200065
:106b60000080400003087800eecabf000040e80043
:106b7000eeeab700eecabf00e74f50000200360051
:106b80000040eb00eeeab7000040eb0003e8b7007e
:106b90005b003700eecabf000004e00055003a0079
:106ba000ebcabf000081fb0003c8bf008080fb0070
:106bb000100020000100dd000001610003c8bf00db
:106bc0008080fb00100020000100dd00800f5100dc
:106bd00048003a000000eb00000f78000040eb0096
:106be00004e8b7000e00370004c8bf008080fb0037
:106bf00003c8bf000081fb006608b9000200400026
:106c000080004000609f200000804000100078005d
:106c10001e0f400004c8bf000040e80004e8b700b1
:106c200004c8bf00e74f5000efff360003c8bf00a5
:106c30008080fb001e0078004301de008180400060
:106c4000a09e2000008040000208780003c8bf001a
:106c50000080fb0080004000a09e200000804000db
:106c60001001780003c8bf000080fb0080004000d6
:106c700060a5200000804000100078000000510056
:106c8000100798001e0090000000e00003003d0087
:106c90001e0090000000ea00100798001e009000ff
:106ca000e40f50001300340003c8bf000080fb0055
:106cb00080004000e09d2000808040001000200007
:106cc0008008780003c8bf000081fb0003c8bf0034
:106cd0000080fb0080004000a09e2000008040005b
:106ce000900178008200410060a5200000804000f3
:106cf0000308780003c8bf000040e80003e8b700bd
:106d000003c8bf00e54f5000a2ff36000080fa0024
:106d10003400f9004f01be004f00be0000400600e5
:106d20000000fa000040eb0000e8b7004700370021
:106d3000ebcabf000081fb0000c8bf008080fb00e1
:106d4000100020000100dd000001610000c8bf004c
:106d50008080fb00100020000100dd00800f51004a
:106d600037003a0000c8bf000080fb0080004000f0
:106d7000e09d20000080400010007800e10f5000ee
:106d80002f003a00e5cabf008080fb008088200009
:106d90008080400010c6b30080487800e5cabf007c
:106da0000080fb000001e80000c8bf00c401dd0056
:106db00000c8bf000080fb0080004000a09e2000b3
:106dc00000804000900078000030200000806000cb
:106dd0004800de0080c041008088200000004100a3
:106de00001487800e5cabf000080fb000081e80090
:106df00000c8bf000080fb0080004000a09e200073
:106e000000804000100078008040780080882000da
:106e10000000410001487800e5cabf00634040001f
:106e2000e5eab70000c8bf000080fb00800040001a
:106e3000e09d2000808040000000eb00800878008a
:106e400000c8bf000040e80000e8b70000c8bf006d
:106e5000e54f5000b6ff3600e5cabf000004e00071
:106e60000e003200c1cabf000004e0000b003a006f
:106e70008088200010568800e5cabf00c4eab70029
:106e800010c0b300c5eab70010c0b300c1eab70034
:106e90000040eb00e5eab7009c0807001000200066
:106ea000020007000080fa00000006000200fa005d
:106eb000000f78001e0078004500dd00a2002000d1
:106ec000110009000280d800000f7800060037008a
:106ed00000000000000000000000000000000000b2
:106ee000000000001e0fe9001e00e000f8ff3a005d
:106ef0000080fa00000006000200fa00000f78008f
:106f00000040eb0002e8b70005003700803e20009b
:106f1000e6ff070002c8bf000040e80002e8b70033
:106f200002c8bf000080fb009e0f5000f7ff390031
:106f30000080fa00000006000400fa0020479800d4
:106f40000000eb00000f7800ae409000f0c2b300ec
:106f500080cf50000c003400ae40900090c3b300ce
:106f600080cf500008003c001e007800c400dd0007
:106f70002e4090000000fb008080400000fd2f00ac
:106f8000008f4000070037001e007800c400dd00bd
:106f90002e4090000000fb008080400090fc2f00fd
:106fa000008f40001e0078000080fa0000000600fc
:106fb0000000fa000080fa00000006000000fa005d
:106fc0000080fa00000006000000fa000080fa00cd
:106fd000000006000000fa000080fa000000060031
:106fe0000000fa00fe0607000080fa00000006001c
:106ff0000000fa000080fa00000006000000fa001d
:10700000880707000080fa00000006000800fa0068
:10701000000f780011079800220798001e007800e2
:107020003007980020072000be009000808f50009d
:107030002d00320020072000be009000808f5000fd
:107040000a003e003e009000e20f50001a0032009d
:10705000be009000e38f5000190032003e00900007
:10706000e10f5000120032002000370040072000de
:10707000be009000808f50001700320040072000b3
:10708000be009000808f50000f0039005007200094
:10709000be009000808f50000d003200f0ff2700ee
:1070a000be009000808f50000d0032000f003700ae
:1070b000d2ff07000d003700cdff07000b0037009f
:1070c000c7ff070009003700bfff070007003700b0
:1070d000b7ff070005003700b8ff070003003700bf
:1070e000bcff070001003700000000001000200076
:1070f0000080fa00000006000200fa009ec0a9000d
:10710000f00f200070248800f00f20005024880029
:1071100020002000302588000000eb00402588007a
:107120008644a900f009200080248800f00920008e
:10713000602488008804a80000c020004800de0009
:10714000c02488009424a8000000eb00b02488002c
:107150006000b80060258800712588000000eb0001
:10716000802588009424a9000040eb00004f78009f
:10717000070037001e80fb00c200dd0000c02000b9
:10718000008140006000b8000089be001e4fe8008a
:10719000f0c0b3009e4f1000f6ff3600d000200074
:1071a000502588000200370080002000502488000d
:1071b0008ac4bf00684060000004e000faff3a00a3
:1071c0000040eb0076eab7000040eb0081eab70030
:1071d00082cabf006040600082eab70083cabf0075
:1071e0006040600083eab70094a4a9000040eb006f
:1071f000004f78000b0037001e80fb0062a82000c3
:10720000800040000000eb00803079001e80fb0011
:1072100042a92000800040000000eb00803079008f
:107220001e4fe80030c0b3009e4f1000f2ff360042
:1072300081c0200060a82000010878000040eb0019
:107240007eeab7000000eb00e05388000080fa00ff
:10725000000006003600f800809fbe00829fbe003e
:10726000849fbe00869fbe003400f800000020000e
:10727000a00188000200fa00e0538000e10f5000f6
:107280000a003a0094c4bf000044b2000004e000c9
:1072900006003a00f00f2000502488008c04a8005b
:1072a0008c84a80020002000e053880080c4bf0028
:1072b000704060000004e0000700320082c4bf009c
:1072c000704060000004e000030032000001200074
:1072d00000248800a300070088c4bf00624060004b
:1072e0000004e000020032008ec0a90073003700e5
:1072f0008ac4bf00614060000004e0001800320052
:107300008cc4bf00614060000004e0001400320043
:1073100079ff07009ec0a80040002000e0538800cd
:1073200000ab20001060880080c0b30000ecb70004
:1073300011c020009140780030c0b30000c0600050
:1073400001ecb70011c0200091407800c0c8b30024
:1073500000c0700001ecb70010002000502488002d
:107360008ac4bf00704060000004e00007003200e3
:107370008cc4bf00704060000004e00003003200d5
:107380006e00070000012000502488008ac4bf005e
:10739000644060000004e0000a0032008cc4bf00ba
:1073a000644060000004e00006003200120020008b
:1073b0008000eb003007200014ff07004000200091
:1073c000502488008ac4bf0001c8b3000140600097
:1073d0000004e000060032008cc4bf0001c8b30006
:1073e000014060000004e000010032003b000700a3
:1073f0008ac4bf00624060000004e0000a0032005e
:107400008cc4bf00624060000004e000060032004f
:10741000120020008000eb00f0ff2700fbfe0700b9
:10742000f00f200070248800e0538000e30f50002c
:1074300002003e008ec0a900200037008cc4bf00af
:10744000684060000004e0001b0032000040eb00d8
:10745000004f7800150037008ac4bf006840600004
:107460000004e0001400320090248000a0eab7007d
:107470008000200050248800a0cabf008080fb004c
:10748000000f2000008060000000e00002003a00d1
:107490003e0007000400370001aa20000001eb00b5
:1074a00020072000d9fe07001e4fe80030c0b300bf
:1074b0009e4f1000e8ff36008ec0a9000080fa0041
:1074c0003400f9004f03be004f02be004f01be0062
:1074d0004f00be003600f900004006000000fa0030
:1074e000aac4bf00624060000004e0000f00320048
:1074f000805480009040900000c8b30080cf5000be
:1075000009003a0060a82000100078009040900028
:1075100040c8b30080cf500003003a00815480007f
:10752000c0c8b30090409800aa24a9000008200019
:10753000502488000080fa00000006000000fa00d5
:107540008284a80000012000502488000001eb0084
:107550008000eb0050072000acfe07000080fa001e
:10756000000006000000fa000001eb008000eb00c4
:1075700040072000a5fe07008284a900000120002a
:10758000002488000080fa00000006000200fa00d3
:10759000a0cabf008080fb00b0ff2f000080600009
:1075a0000000e00035003a00a0cabf008080fb0068
:1075b000c00f2000008060004280de004200dd003d
:1075c0008000780000c020000080400080548800c7
:1075d000805480009054880021a9200020a9200018
:1075e000104078000024a200804878008054800079
:1075f00010409000c2c3b3008240600040c3b3009b
:1076000080cf50001b003a00805480009000900012
:1076100080ab2000808f500014003a00815480001d
:1076200000ab2000900098000040eb00004f780075
:107630000b0037001e80fb008000780000ab2000ac
:10764000008140001e80fb008000780080ab20009d
:107650000080400010407800004978001e4fe8008c
:1076600070c0b3009e4f1000f2ff36000c00070000
:10767000090037002a00070007003700a0cabf0032
:107680008080fb00b0ff2f0000806000e80f5000fa
:1076900001003a003a0007000080fa0000000600ee
:1076a0000000fa0060a820001000780090409000d0
:1076b00000c8b30000c060000004e0000400320015
:1076c00060a82000900078000040eb0090409800f7
:1076d0000040eb009ceab7000040eb009deab700d9
:1076e00077cabf006040600077eab70078cabf0081
:1076f0006040600078eab7000040eb0076eab7002f
:107700007f0007000001eb008000eb00300020004c
:107710003efe0700110207000080fa00000006008c
:107720000000fa009dcabf00e24f500002003a007c
:107730001e030700100037004b00070010558000a3
:107740000000e0000a003a009154800080c0b300bd
:10775000804878009154800000ab20009000980091
:1077600091548000c0c8b3009040980002003700d8
:107770000000eb00105588000080fa0000000600b1
:107780000200fa0060a8200010007800104090006d
:107790000080fb004600de0061406000004f780082
:1077a00061a8200060a82000104078000024a200fa
:1077b00080487800e0538000e80f50000b003a004a
:1077c000b2cabf000080fb00b0248800b024800053
:1077d0000000e0000300320000012000e0538800b8
:1077e0000200370040002000e05388009dcabf001f
:1077f000e14f500019003a0060a820009000780086
:1078000080ab200090009800640207009ccabf0073
:10781000e24f500005003a0060a820009000780078
:1078200040c8b300904098000d0037001e04e000ef
:1078300005003a0060a820009000780080ccb300da
:10784000904098000600370060a820009000780063
:1078500080c8b30090409800010037000200070084
:107860000080fa00000006000200fa000040eb0071
:107870009deab70060a82000900078000040eb006f
:107880009040980060a82000100078000020a2001e
:10789000000f78009e0078000040eb0090409800b8
:1078a00011a820009140780000c8b30000c060001b
:1078b0000004e0001000320084cabf008080fb009a
:1078c00085cabf000080fb004800dd000100700099
:1078d0000000e0000700320084cabf008080fb0087
:1078e00085cabf000080fb004800dd000100700079
:1078f0000000010081eaa9000080fa0000000600f3
:107900000400fa00b0cabf000046b2000004e00064
:1079100058003a00b1cabf000080fb006101b90005
:10792000028fbe00b0002000010020001e01be003a
:10793000800f5100818f59004e003e001e00be0096
:10794000006001002400370025003700490037009f
:1079500023003700470037000600370009003700d2
:10796000400037000b003700080037001e003700ca
:107970003300370076eaa80080002000e05388003a
:107980003c003700a20007003a003700060307005a
:1079900038003700e2a72000f00f200080006100cf
:1079a00074cabf00604060000140700074eab70014
:1079b000c810de0075cabf00604060000140700062
:1079c00075eab700760aa80010c0b30077eab700de
:1079d00076eaa800270037000c01070025003700d1
:1079e0002600070023003700b4cabf000080fb0058
:1079f00080007800e0a820000080400000017800ae
:107a0000f00f20008000610074cabf006040600079
:107a10000140700074eab700c810de0075cabf00ec
:107a2000604060000140700075eab700760aa80067
:107a300010c0b30077eab70076eaa8000d0037005f
:107a400076eaa800b4cabf008080fb0022ab200009
:107a500012417800e0a82000008040000248780031
:107a6000040037000001eb008000eb002000200044
:107a700066fd07000080fa00000006000400fa001e
:107a8000b2cabf00e14f50000d003a00b0cabf00bb
:107a90007f4060000004e00009003a0076eaa80098
:107aa000b1cabf00e34f500003003a0010002000ad
:107ab000d0538800020037000000eb00d05388004c
:107ac000b2cabf000004e0004f003a00b0cabf00d5
:107ad0007f406000e24f50004b003a00b4cabf0044
:107ae0006f4060000004e0004700320076eaa80022
:107af000b4cabf0001c8b300014060000004e00048
:107b000008003a00b4cabf006f4060000080fb006c
:107b100041a9200000004000608078001007980014
:107b200007003700b4cabf006f4060000080fb0050
:107b300061a82000000040006080780010079800d5
:107b4000b1cabf00e34f500004003a009e0090000d
:107b500040c8b300904098002b003700b4cabf0063
:107b60006f4060000080fb00000040008000780053
:107b7000a04a200000804000000f78001e0078001e
:107b800090407800d0cfb30080c060001e00780025
:107b90000148780041ab20009140780000c8b30054
:107ba00000c060000004e0000c0032009e00900065
:107bb0000040eb00904098008e80e8000e80e800c6
:107bc000104078000024a200804878009e009000b9
:107bd00000c4b300904098000b0037009e00900056
:107be00080c8b300904098008e80e8000e80e800c6
:107bf000104078000024a200804878009e00900089
:107c000080ccb300904098000080fa00000006008d
:107c10000200fa0001ab20009140780000c8b300d8
:107c200080cf500077003a0000ccb30076eab7006e
:107c3000b3cabf000080fb00000f78001e00780070
:107c4000e20f50001b0032001e007800e30f5000ce
:107c50003e0032001e007800e10f500001003200ab
:107c60006600370062962a00f00f20008000610055
:107c700074cabf00604060000140700074eab70041
:107c8000c810de0075cabf0060406000014070008f
:107c900075eab70077cabf00604060002041b300ba
:107ca00077eab70078cabf006040600078eab700a2
:107cb00054003700b2cabf000080fb000000400043
:107cc00080007800809e2a0000804000100178002b
:107cd000f00f20008000610074cabf0060406000a7
:107ce0000140700074eab700c810de0075cabf001a
:107cf000604060000140700075eab70074cabf00c0
:107d00008080fb0075cabf000080fb004800dd00da
:107d1000010070006200400010017800f00f2000a8
:107d20008000610077cabf006040600001407000c1
:107d300077eab700c810de0078cabf006040600074
:107d40000140700078eab7002e003700b2cabf00c9
:107d5000e24f500026003e00b2cabf000080fb0088
:107d60000000400080007800a09e2a0000804000b3
:107d700010017800f00f20008000610074cabf007d
:107d8000604060000140700074eab700c810de0077
:107d900075cabf00604060000140700075eab7001e
:107da00074cabf008080fb0075cabf000080fb0062
:107db0004800dd0001007000104078000081fb00e9
:107dc000f00f20008000610077cabf0060406000b3
:107dd0000140700077eab700c810de0078cabf0023
:107de000604060000140700078eab700050037008d
:107df0000040eb0076eab700020037000040eb00dd
:107e000076eab7000080fa00000006000400fa00dd
:107e10000040eb00b8eab7000040eb00b9eab70059
:107e2000b0cabf007f4060000080fb0010079800d0
:107e30001e009000e10f5000120032001e00900062
:107e4000e20f5000110032001e0090000000e00020
:107e5000010032002b00370076eaa800b8cabf0044
:107e60000004a000b8eab700d0538000e10f500032
:107e700024003a00b8cabf000014a000b8eab70056
:107e80002000370076eaa8001e00370076eaa80036
:107e9000b4cabf0001c8b300014060000004e000a4
:107ea00008003a00b4cabf006f4060000080fb00c9
:107eb00041a920000000400060807800000f780099
:107ec00007003700b4cabf006f4060000080fb00ad
:107ed00061a820000000400060807800000f78005a
:107ee0001e007800104090000080fb004200de0081
:107ef000610060000004e0000200320010c0b30026
:107f0000b8eab70076cabf0001c8b30001406000fc
:107f10000004e0000f00320082ab2000f00f2000d0
:107f20008000610074cabf006040600001407000c2
:107f300074eab700c810de0075cabf006040600078
:107f40000140700075eab700760aa80020c0b300af
:107f500077eab7000080fa00000006000000fa008f
:107f600094a4a90076cabf0001c8b3000140600014
:107f70000004e00027003a0081cabf0001c8b30036
:107f8000014060000004e0001400320020c0b30093
:107f90009deab70060a82000900078000040eb0048
:107fa0008048780060a820009000780080ccb30062
:107fb000904098009154800080c0b30080487800c1
:107fc0009154800080ab2000900098009154800074
:107fd00080ccb300904098006e0037009154800030
:107fe00080c0b300804878009154800000ab20002e
:107ff0009000980091548000c0c8b3009040980051
:1080000060a820009000780040c8b300904098001d
:108010006000370081cabf0001c8b30001406000a2
:108020000004e0005b003a00b0cabf0001c8b30022
:10803000014060000004e00043003200b6cabf0007
:108040008080fb00b7cabf000080fb004800dd0055
:10805000010070000001780077cabf008080fb003b
:1080600078cabf000080fb004800dd0001007000fe
:10807000800f510012003100b6cabf008080fb00a3
:10808000b7cabf000080fb004800dd00010070009f
:1080900000017800f00f20008000610077cabf0067
:1080a000604060000140700077eab700c810de0051
:1080b00078cabf00604060000140700078eab700f5
:1080c0003600070010c0b3009deab700915480004d
:1080d00080c0b300804878009154800000ab20003d
:1080e000900098009154800000c8b3009040980020
:1080f0000000eb00105588008154800080c0b30060
:10810000804878008154800000ab200090009800e7
:108110008154800040c8b3009040980010002000b7
:108120001055880060a820009000780080ab2000e7
:108130009000980060a820009000780080ccb300e8
:10814000904098001300370020c0b3009deab700ac
:1081500060a82000900078000040eb008048780084
:1081600060a820009000780080ccb3009040980078
:108170009154800080c0b300804878009154800002
:1081800080ab2000900098009154800080ccb30018
:10819000904098000080fa00000006000200fa00fb
:1081a00077cabf008080fb0078cabf000080fb0058
:1081b0004800dd0001007000e70f500013003e0092
:1081c00077cabf008080fb0078cabf000080fb0038
:1081d0004800dd0001007000000f78009ccabf005d
:1081e0000004e00003003a0010c0b3009ceab700ae
:1081f000080037009ccabf00e14f500005003a005c
:1082000020c0b3009ceab7000200370080002000c5
:10821000000f780060a820001001780060a82000fe
:1082200010007800904090001e40900000c0700048
:108230001041980060a82000900078001e4078004f
:108240008048780077cabf008080fb0078cabf00f2
:108250000080fb004800dd00010070008000780015
:108260001e00780000815000f00f200080006100a7
:1082700077cabf00604060000140700077eab70035
:10828000c810de0078cabf00604060000140700086
:1082900078eab70080ab2000f054880076cabf00af
:1082a000614060000004e0003b003a001b00370022
:1082b000f254800074cabf008080fb0075cabf0002
:1082c0000080fb004800dd000100700080007800a5
:1082d00011407800004978000200e800f05488005e
:1082e00061814000f00f20008000610074cabf006f
:1082f000604060000140700074eab700c810de0002
:1083000075cabf00604060000140700075eab700a8
:108310001e0078000000e900000f78001e007800c1
:108320000000e000e2ff3a001e003700f254800037
:1083300074cabf008080fb0075cabf000080fb00cc
:108340004800dd00010070008000780011407800d6
:10835000004978000200e800f05488000101e800bc
:10836000f00f20008000610074cabf006040600010
:108370000140700074eab700c810de0075cabf0083
:10838000604060000140700075eab7001e00780090
:108390000000e900000f78001e0078000000e000f7
:1083a000e2ff3a000080fa00000006000200fa0036
:1083b0008054800090407800114798001e40900043
:1083c0000081fb0082cabf008080fb0083cabf001f
:1083d0000080fb004800dd0001007000800f5100ac
:1083e0000700360082cabf008080fb0083cabf003e
:1083f0000080fb004800dd0001007000104798007d
:1084000082cabf008080fb0083cabf000080fb00df
:108410004800dd0001007000800078001e409000e0
:108420000080fb0000815000f00f20008000610000
:1084300082cabf00604060000140700082eab7005d
:10844000c810de0083cabf006040600001407000b9
:1084500083eab7000040eb00004f780019003700b6
:108460007fcabf008080fb0080cabf000080fb0085
:108470004800dd0001007000000178009e80fb00d4
:1084800080ab200000804000104078000049780058
:108490000201e800f00f2000800061007fcabf00e9
:1084a00060406000014070007feab700c810de0045
:1084b00080cabf00604060000140700080eab700e1
:1084c0001e4fe8001e4090009e4f1000e4ff390050
:1084d00082cabf008080fb0083cabf000080fb000f
:1084e0004800dd00010070000000e00013003200d1
:1084f0009154800080c0b30080487800915480007f
:1085000080ab2000900098008054800010409000c4
:108510000044b2000004e00004003a0091548000de
:1085200080ccb300904098001d003700915480002b
:1085300080c8b30090409800190037009154800023
:1085400080c0b300804878009154800000ab2000c8
:10855000900098009154800040c8b300904098006b
:1085600084cabf008080fb0085cabf000080fb007a
:108570004800dd00010070000000e000070032004c
:1085800084cabf008080fb0085cabf000080fb005a
:108590004800dd00010070000000010081eaa90030
:1085a0000080fa00000006000200fa0076eaa80047
:1085b0006000b80060258800712588000000eb008d
:1085c000802588000040eb00004f7800070037004e
:1085d0001e80fb00c200dd0000c0200000814000c2
:1085e0006000b8000089be001e4fe800f0c0b30074
:1085f0009e4f1000f6ff36009424a8000040eb00c8
:108600008eeab7009424a90081c0200060a8200051
:108610000108780000c02000805488008054800049
:1086200090548800b2cabf007eeab7007ecabf007d
:108630000004e00003003a0000012000e05388003d
:108640000600370012002000e1a7200010002000e3
:108650006efa070000022000e05388000080fa0054
:10866000000006000400fa002047980031479800f7
:1086700000c02000000f78002e4090000080fb001a
:1086800000004000800078003e4090000080fb0029
:10869000008040004300dd004200de004200dd00bb
:1086a0001e0f40009e007800114090000070a10055
:1086b000904098003e4090000004e00006003a0020
:1086c0002e4090000080fb0041a9200000004000e7
:1086d0001eb07800050037002e4090000080fb009f
:1086e00061a82000000040001eb078009e007800c5
:1086f000114090000060a100904098001e0078009a
:10870000e4004000114090000060a00090409800fc
:108710000080fa00000006000400fa0020479800dc
:10872000314798002e4090000080fb000000400080
:1087300080007800a04a200000804000000f7800f0
:108740001e007800be409000014878003e40900036
:108750000080fb004300de00610060000004e000d8
:10876000030032008040eb002e409000bdff070068
:108770003e4090000080fb004200de00610060008f
:108780000004e0000300320011c0b3002e4090004e
:10879000b4ff07000080fa00000006000400fa00a1
:1087a00020479800314798002e4090000004e000d8
:1087b0000e003a009154800080c0b30080487800d9
:1087c0009154800000ab20009000980091548000ec
:1087d000c0c8b3009040980060a8200090007800c6
:1087e00040c8b30090409800230037002e4090000e
:1087f0000080fb0000004000800078003e409000b8
:108800000080fb00008040004300dd008000780015
:1088100000c0200000804000000f78001e0078009b
:108820009040900040c8b30080c070001e007800e7
:10883000114098002e4090000080fb000000400096
:10884000800078003e4090000080fb0000804000e7
:108850004300dd008000780040c02000008f400011
:108860001e0078009040900040c8b30080c07000a7
:108870001e007800114098000080fa0000000600f9
:108880000a00fa0020479800314798002207980014
:10889000634798003e4090000004e000060032006c
:1088a0002e4090000080fb0061a8200000004000e6
:1088b000608f7800050037002e4090000080fb009c
:1088c00041a9200000004000608f78001e00e000f9
:1088d00003003a000000eb00400798003900370021
:1088e0002e009000800078001e0078001100980093
:1088f0001e007800ee409000014878001e007800cd
:108900001040900002c4b300824060001e00780056
:10891000114098001e0078009040900080c8b3007d
:1089200080c070001e007800114098003e4090000a
:108930000004e000110032002e4090000080fb0097
:10894000000040008000780060a820000080400007
:10895000000178002e4090000080fb0000004000e5
:108960008000780060a8200000804000104078005f
:108970000024a20000497800100037002e4090002b
:108980000080fb00000040008000780040a920002b
:1089900000804000000178002e4090000080fb0025
:1089a000000040008000780040a9200000804000c6
:1089b000104078000024a200004978001e007800d2
:1089c000400798004e0090000080fa00000006006a
:1089d0000600fa00004f780094c4bf000042b200c5
:1089e0000004e000570032001e80fb0061a8200058
:1089f00000004000608378001e80fb0061a820001a
:108a000000004000608078001000be0002042000da
:108a10000300200000027800810278000200780044
:108a20008300780000016200018062006102b800ea
:108a300014079800250798001e009000ae009000d3
:108a4000c000dd00000020001007980021079800fa
:108a50001e009000ae0090006112b800140798004c
:108a6000250798001e019000ae01900002007000e2
:108a700083807000008bbe001e80fb0061a8200078
:108a800000004000608278001e80fb0061a820008a
:108a900000004000608078001001be00000420004b
:108aa000010020000000690081806900008abe008a
:108ab0001e80fb00000040008000780060a82000bd
:108ac00000804000000178001e80fb000000400094
:108ad0008000780060a820000080400010407800ee
:108ae0000024a200004978001e80fb0061a820003d
:108af00000004000608178001e80fb0061a820001b
:108b00000000400060807800104090000044b200f7
:108b1000104198001e80fb0061a82000000040006a
:108b2000608178001e80fb0061a8200000004000ea
:108b3000608078009040900000c4b30000c06800de
:108b4000104198000080fa00000006000000fa00c2
:108b50000000eb00a02488000000eb0060248800e7
:108b60000000eb00e05388000080fa0000000600df
:108b70000000fa00e05380000000e00016003a0018
:108b80000000eb00a02488000000eb0060248800b7
:108b900020002000302588000000eb0040258800e0
:108ba0008644a900f009200080248800f0092000f4
:108bb000602488009ec0a800010037009404a8002b
:108bc00094c4bf00614060000004e000fbff32007d
:108bd00010002000e05388000080fa00000006002a
:108be0000200fa00b0cabf007f406000e14f5000b1
:108bf0008a003a00b0cabf0002c6b30082406000db
:108c000000c2b30080cf500084003a00b4cabf0055
:108c10000004e00003003200b4cabf00e14f50007e
:108c20007e003a00b1cabf000080fb00000f780050
:108c3000000220009e007800808f50003800320033
:108c4000000220001e017800800f510007003c0048
:108c50001e0078000000e0000d0032009e00780049
:108c6000e18f5000200032006c003700100220001d
:108c70001e017800800f51004f00320020022000ba
:108c80009e007800808f5000610032006300370042
:108c9000a2ad2000f00f20008000610074cabf0068
:108ca000604060000140700074eab700c810de0048
:108cb00075cabf00604060000140700075eab700ef
:108cc00077cabf00604060000034a00077eab700b8
:108cd00078cabf006040600078eab700760aa80052
:108ce00076eaa8004d003700a2ad2000f00f20006a
:108cf0008000610074cabf006040600001407000e5
:108d000074eab700c810de0075cabf00604060009a
:108d10000140700075eab70076eaa8003f0037000e
:108d2000b6cabf008080fb00b7cabf000080fb004e
:108d30004800dd000100700000017800f00f200005
:108d40008000610082cabf00604060000140700086
:108d500082eab700c810de0083cabf00604060002e
:108d60000140700083eab70062ac2000f00f2000e1
:108d7000800061007fcabf00604060000140700059
:108d80007feab700c810de0080cabf006040600004
:108d90000140700080eab70084cabf0060406000f4
:108da00084eab70085cabf006040600085eab7006a
:108db00081eaa8001900370062ac2000f00f200003
:108dc0008000610074cabf00604060000140700014
:108dd00074eab700c810de0075cabf0060406000ca
:108de0000140700075eab70077cabf0060406000bc
:108df0007040b30077eab70078cabf0060406000f7
:108e000078eab70010ccb30076eab7000300370069
:108e1000b2cabf00d4eab70076eaa8000080fa0020
:108e2000000006000000fa0000b02400010020004d
:108e300030568800415688000040eb00caeab7006f
:108e40000040eb00cbeab70080c0b300cceab7002b
:108e50000040eb00c1eab7000040eb00c0eab700f9
:108e600051c1b30020c0b3002bfe0700d1c1b30035
:108e700030c0b30028fe070003c4b300a2af200037
:108e80008040eb0030c0b3007dfe070080568800b4
:108e90000000eb00905688000080fa0000000600f9
:108ea0000400fa00000f7800214798000040eb0012
:108eb000c0eab700805680000000e00006003200e3
:108ec000805680009040900000c8b30000c0600051
:108ed0000004e00022003a008056800090407800b4
:108ee0002e40900080cf500003003100805680005b
:108ef00090407800214798000040eb00c0eab7009e
:108f00000c003700c0cabf000080fb001e014000fb
:108f1000c0cabf008080fb00a0af200000804000de
:108f20001040780000497800c0cabf000040e80047
:108f3000c0eab70001ac2000914078002e409000bc
:108f400080cf5000efff390003c4b300a2af200070
:108f50008040eb0030c0b30049fe07008056880017
:108f6000c0cabf000080fb000080fa0000000600bd
:108f70000400fa00000f7800214798009ec0a90065
:108f8000c1cabf000004e00008003a001e007800db
:108f9000105688002e409000c4eab70010c0b300fd
:108fa000c5eab70010c0b300c1eab7009ec0a80070
:108fb0000080fa00000006000800fa002007980070
:108fc0009ec0a900c1cabf000004e0000200320038
:108fd0009ec0a8001f0037000040eb00204798000b
:108fe0002e009000000f78002e4090000040e80016
:108ff000204798002e409000e14f40000c003200c6
:109000001e00780010407800604798006e40900085
:109010000004e0000200320010c0b3006047980076
:109020006e4090001e0fe8000004e000eeff3a00e2
:109030002e009000105688002e409000c4eab70021
:1090400010c0b300c5eab70010c0b300c1eab70052
:109050009ec0a8000080fa00000006000800fa0088
:10906000e4004700800878009ec0a900c1cabf0084
:109070000004e000020032009ec0a800210037007a
:109080000040eb002047980064004700100f780074
:109090002e4090000040e800204798002e409000ad
:1090a000e14f40000d0032001e00780010407800b3
:1090b000604798006e4090000004e000020032001b
:1090c00011c0b300614798006e4090009e00780088
:1090d000618f40000004e000edff3a0064004700ab
:1090e00010007800105688002e409000c4eab700a7
:1090f0000040eb00c5eab70010c0b300c1eab700fa
:109100009ec0a8000080fa00000006000200fa00dd
:109110009ec0a900905680000000e00008003200c8
:10912000905680009040900000c8b30000c06000de
:109130000004e000020032009ec0a8005e0037007c
:10914000c1cabf00e34f500002003a000040eb00ec
:10915000c1eab700c1cabf000004e00002003a0043
:109160009ec0a80054003700c1cabf00e24f5000a3
:1091700009003a008041eb000001eb0011c0b30090
:1091800030c0b300befd07009056880030c0b30069
:10919000c1eab70047003700c1cabf00e14f500025
:1091a00044003a0041ac20009140780000c4b30074
:1091b00080cf50000300360000c4b3001047980071
:1091c00002003700c4cabf001047980041ac20001d
:1091d000914078001e40900000c05000c4eab700e3
:1091e000a0b32000705688001e409000004f780009
:1091f000c5cabf000004e0001a003a000b003700a7
:109200007156800010568000104078008048780029
:10921000705680000000e8007056880010568000ec
:1092200061004000105688001e4fe9001e04e00057
:10923000f3ff3a000d003700715680001056800091
:109240001040780080487800705680000000e800e8
:1092500070568800105680000000e8001056880004
:109260001e4fe9001e04e000f3ff3a00c4cabf002d
:109270000004e00009003a009e40900000c4b300e2
:1092800080cf500003003a0020c0b300c1eab7000d
:109290000200370030c0b300c1eab7009e41900021
:1092a000a2b3200011c0b30030c0b30074fd0700aa
:1092b000905688009ec0a8000080fa0000000600ba
:020000040000fa
:1092c000e20a0000100000000200000000000000a0
:1092d000000000002000000000000000000001006d
:1092e0000000000000080000740200000000000000
:1092f000740a00004c00000000000000000c000098
:109300004000000000000000f20a00008800000099
:1093100000000000c00a0000220000000000000061
:10932000c80b00000200000002000000cc0b00008f
:10933000ca0b00000200000000000000cc0b00007f
:109340000200000002000000000000007a0b000094
:109350004a000000020000000000210015110e006c
:109360000d0c0b000b0a0a00090909000909080085
:109370000808080008080800070707000707070093
:1093800007070700070707000730310032333400b2
:1093900035363700383961006263640065666700fe
:1093a00068696a006b6c6d006e6f7000717273009b
:1093b00074757600777879007a000000c40b00009d
:1093c0000400000002000000000000000000000097
:0493d0000000000099
:020000040000fa
:0493d4000000fe0097
:00000001FF
