:020000040000FA
:04180000B9EF23F029
:08180800056ED8CF06F0E0CF19
:1018100007F00001E9CF0DF0EACF08F0E1CF09F0C1
:10182000E2CF0AF0D9CF0BF0DACF0CF0F3CF14F0FF
:10183000F4CF15F0FACF16F000C00FF001C010F091
:1018400002C011F003C012F004C013F0A0AA2CEFE4
:101850000CF0A1BAA2EF13F00FC000F010C001F01D
:1018600011C002F012C003F013C004F00DC0E9FF74
:1018700008C0EAFF088E09C0E1FF0AC0E2FF0BC002
:10188000D9FF0CC0DAFF14C0F3FF15C0F4FF16C077
:10189000FAFF055007C0E0FF06C0D8FF1000F76A46
:1018A000AE0FF66E180EF7220900F5501200040371
:1018B0000100000000000000000000000000F76AC6
:1018C000CE0FF66E180EF7220900F5501200040034
:1018D0000100000000000000000000000000F76AA6
:1018E000EE0FF66E180EF7220900F55012004000B8
:1018F00008004000000000000000000000000000A0
:10190000000000000000000000000000000008AE21
:1019100003D0F2CF0EF0F29EF76A300FF66E190E7A
:10192000F7220900F55008AE02D00EBEF28E12006A
:101930004000000040000000000000000000000027
:101940000000000000000000000000000000000097
:10195000F76A600FF66E190EF7220900F5501200B3
:1019600009024300020100C0FA090400000102025A
:1019700001000524001001042402020524060001D0
:101980000524010001070581030800FA090401008C
:10199000020A000000070502024000FA0705820261
:1019A0004000FA00F76AB40FF66E190EF72209002C
:1019B000F55012000200F76AC60FF66E190EF722F4
:1019C0000900F55012001201100102000040D80475
:1019D000C5FF020001020001F76AE80FF66E190E5A
:1019E000F7220900F55012000403090410037400E3
:1019F0006B00720077006F0072006B0073002003B1
:101A000074006B00720077006F0072006B0073004F
:101A100020005000490043006E006F006D0065001B
:101A2000F2CF0EF0F29EF76A3A0FF66E1A0EF72218
:101A30000900F5500EBEF28E1200000102030408E8
:101A4000090B0C00F2CF0EF0F29EF76A5E0FF66EF5
:101A50001A0EF7220900F5500EBEF28E12007265C2
:101A6000706F72742025642025640000F2CF0EF0A0
:101A7000F29EF76A860FF66E1A0EF7220900F550ED
:101A80000EBEF28E120070726573732025642025DD
:101A9000642025640000F2CF0EF0F29EF76AB00FCA
:101AA000F66E1A0EF7220900F5500EBEF28E1200E5
:101AB000616463202564202566006D9269946894B2
:101AC000ADEF13F06A6A6892B6EF13F0336A326AC8
:101AD000250E316E800E306E346A356A080E366E11
:101AE000866B8193386A376A826B83918181000C9F
:101AF00001017E6B7E5101080AE3036A7E512E0FBD
:101B0000E96E000E0320EA6EEF6A7E2BF3D7000128
:101B1000DDDF206A010E216E1F6A000C010E01013B
:101B2000876F87510F080EE3700E8725016E0F0E29
:101B3000036ED8B0032A01C0E9FF03C0EAFFEF6AD1
:101B4000872BEFD7246A236A0001000C400E0401A2
:101B5000016F050E036F026B880E006F046B050E9C
:101B6000076F400E066F0001000C6A6A686A9F0EDC
:101B70006B6E390E696E6E6ABBDFD0DF160E706E4B
:101B800068A602D06896FCD76D98E0DF030E266E3B
:101B9000BCEF13F0698468986D82C2EF13F0689C03
:101BA000C8EF13F070A002D0D1DF7090689ACEEF2A
:101BB00013F082C127F0000CFF0E276E000C01010C
:101BC000806B2D523DE080513F083AE322500001E6
:101BD00005E0020A0FE0010A19E024D0036A2C5044
:101BE000F2CF82F1F29EB4DE010182BFF28E816FEC
:101BF000000118D0036A2C50F2CF82F1F29EECDE85
:101C0000010182BFF28E816F00010CD0036A2C505B
:101C1000F2CF82F1F29ECFDE010182BFF28E816FA0
:101C2000000100D02C2A2D0601018051802B036A6F
:101C3000400FE96E050E0320EA6E81C1EFFFC1D7A8
:101C40002D5204E18051400801E01F6A80C182F1F9
:101C50000001AFDF000C2C6A226A05010351010A62
:101C6000000105E0030A08E0010A09E021D0120E94
:101C70002D6E030E226E1ED0430E2D6E1BD0020E53
:101C8000226E036A05010251280FE96E000E03203F
:101C9000EA6EEFCF2CF0036A2C50F2CF7FF1F29E68
:101CA00000019ADE01017FBFF28E2D6E000102D08D
:101CB00083DF0CD00501075305E12D50065D02E2DC
:101CC00006C52DF0010E1F6E000179DF99EF0FF0B0
:101CD00001017F5306E1040E266E00011FDFCED006
:101CE0000101050E266E826F800E816F010E806FDE
:101CF00080510F08D8A0C2D0836B036A8051F2CF05
:101D000087F1F29E0001DBDD010187BFF28E000A40
:101D100055E0040E836FD8908035036AF2CF87F1C7
:101D2000F29E0001F4DD0900F5CF03F0010187BF49
:101D3000F28E846F03C085F18051080DF350010FBE
:101D4000016E040E036ED8B0032A01C0E9FF03C080
:101D5000EAFF84C1EFFF8051080DF350020F016EBE
:101D6000040E036ED8B0032A01C0E9FF03C0EAFFE6
:101D700082C1ECFFED5281C1EFFFD8908035036A3C
:101D8000F2CF87F1F29E0001C2DD0900F5CF03F02A
:101D9000010187BFF28E812703508223880E866F50
:101DA00085B1868185B386838051080DF3CF01F01C
:101DB000040E01C0E9FFEA6E86C1EFFF036A80519D
:101DC000F2CF87F1F29E00016ADD010187BFF28E3A
:101DD000000A33E083838051080DF350060F016E33
:101DE000040E036ED8B0032A01C0E9FF03C0EAFF66
:101DF00082C1ECFFED5281C1EFFFD8908035036ABC
:101E0000F2CF87F1F29E00016ADD0900F5CF03F001
:101E1000010187BFF28E8127035082238051080D74
:101E2000F350040F016E040E036ED8B0032A01C0F4
:101E3000E9FF03C0EAFF400EEF6E8351060802E19E
:101E40000E0E836F036A8051F2CF87F1F29E00017C
:101E500026DD010187BFF28E020801E08389700E42
:101E60008025016E0F0E036ED8B0032A01C0E9FF72
:101E700003C0EAFF83C1EFFF802B3AD7000191EF47
:101E80000FF00501015100010DE0010A15E0020A01
:101E900020E0060A2AE0030A31E00E0A30E0010AD7
:101EA00036E045D021C040F50501416B020E01012D
:101EB000826F00017EDE3DD00501022D07D0010EAC
:101EC00021160101826B000174DE02D0000174DE74
:101ED00030D00501022D06D021820101826B000164
:101EE00068DE02D0000168DE24D0020E1F6E02C53B
:101EF0002BF00101826B00015CDE1BD0ACD620C050
:101F000040F5010E0101826F000153DE12D0050180
:101F1000025101080AE302C520F002C57FF1000169
:101F2000D7D60101826B000144DE000102D044DEFD
:101F300000D031EF11F020C07FF105010151000107
:101F400005E00A0A0CE0010A31E045D00501406BCA
:101F5000416B020E0101826F00012BDE3ED00101B8
:101F60007F5321E0010E7F5D036AF2CF80F1F29E84
:101F7000000118DD010180BFF28E016E0501045DD4
:101F8000D8A002D001010FD0036A04512E0FE96ED0
:101F9000000E0320EA6EEFCF40F5010E0101826FC3
:101FA000000107DE02D0000107DE17D001017F53D8
:101FB0000FE0036A050104512E0FE96E000E0320A5
:101FC000EA6E02C5EFFF0101826B0001F2DD02D073
:101FD0000001F2DD02D0F0DD00D031EF11F001019F
:101FE00080917FBF80817F9F80A112D0036A7F5143
:101FF000F2CF81F1F29E000152DC010181BFF28E2D
:10200000000A02E1000E01D0010E016E12D011D0C3
:10201000036A7F51F2CF81F1F29E000150DC010191
:1020200081BFF28E000A02E1000E01D0010E016EA6
:1020300000D0000192EF10F0010180917FBF8081FC
:102040007F9F80A110D07F51080DF350040F016EC7
:10205000040E036ED8B0032A01C0E9FF03C0EAFFF3
:10206000880EEF6E09D07F51080DF3CF01F0040EFA
:1020700001C0E9FFEA6EEF6A0001A1EF10F0010173
:1020800080917FBF80817F9F80A110D07F51080DFC
:10209000F350040F016E040E036ED8B0032A01C082
:1020A000E9FF03C0EAFF840EEF6E0AD07F51080DEE
:1020B000F3CF01F0040E01C0E9FFEA6E840EEF6E6B
:1020C0000001A9EF10F0010180917FBF80817F9F07
:1020D00080A110D07F51080DF350040F016E040E43
:1020E000036ED8B0032A01C0E9FF03C0EAFFEFCFB7
:1020F00081F10AD07F51080DF3CF01F0040E01C029
:10210000E9FFEA6EEFCF81F181AF02D081B502D055
:10211000000E01D0010E016E0001B5EF10F004C5F4
:102120007FF15DD701522EE005010151010A000146
:1021300005E0020A0BE0030A11E022D004C57FF19A
:102140007BD70101826B000134DD1CD004C57FF117
:1021500096D70101826B00012CDD14D00501406B84
:10216000416B04C57FF10001AED7015203E0010EBF
:102170000501406F020E0101826F00011ADD02D0DD
:102180001BDD00D031EF11F0FE0E276E000C0501B3
:10219000042D01D002D004534EE1015100010BE0A7
:1021A000010A0DE0210A1CE0010A1FE0030A30E0E9
:1021B000010A35E03DD0010E876FE6DF3BD0050E0A
:1021C000EA6E400EE96EE26A390EE16E080E016EAB
:1021D000E6CFEEFF012EFCD706C582F1EADC2AD05D
:1021E000020E876F8183D0DF25D0050EEA6E400E88
:1021F000E96EE26A300EE16E070E016EE6CFEEFF89
:10220000012EFCD7070E0101826F0001D2DC12D033
:1022100002C586F00101826B0001CBDC0BD002C548
:1022200038F003C537F00101826B0001C2DC02D037
:10223000C3DC00D00501000131EF11F01F6A050178
:1022400000517F0B000107E0010A06E0030A05E0E8
:10225000230A04E004D015D66ED661D798D7ACDC3B
:1022600000D03BEF13F001017F51080DF3CF01F0D7
:10227000040E01C0E9FFEA6EEFCF81F18051020840
:1022800006E181AD02D0806B02D0010E806F8051DB
:10229000030812E1840E816F7F51080DF350040F83
:1022A000016E040E036ED8B0032A01C0E9FF03C01B
:1022B000EAFF840EEF6E09D0802D03D0C80E816F27
:1022C00004D0805302E1880E816F036A010E026E12
:1022D0007F51006E05E0D89002360336002EFBD702
:1022E0000250FF0A006EFF0E031A0050231603501F
:1022F0002416D8907F35036AF2CF84F1F29E000154
:1023000087EC0CF00900F5CF03F0010184BFF28ED9
:10231000826F03C083F17F51080DF350010F016EEE
:10232000040E036ED8B0032A01C0E9FF03C0EAFF20
:1023300082C1EFFF83B1818183B381837F51080D17
:10234000F3CF01F0040E01C0E9FFEA6E81C1EFFF97
:102350000001000C01018B51080DF350040F016EB8
:10236000040E036ED8B0032A01C0E9FF03C0EAFFE0
:10237000EFCF8FF18FBF5BD08B51080DF350050F5E
:10238000016E040E036ED8B0032A01C0E9FF03C03A
:10239000EAFF8CC1EFFF8E51020816E18B51080D48
:1023A000F350040F016E040E036ED8B0032A01C06F
:1023B000E9FF03C0EAFFEFCF8FF18FAD02D08E6B44
:1023C00002D0010E8E6F13D08E51040810E18B5194
:1023D000080DF3CF01F0040E01C0E9FFEA6EEFCF64
:1023E0008FF18FAD03D0010E8E6F01D08E6B8E2DCD
:1023F00003D0C80E8F6F04D08E5302E1880E8F6F0A
:102400008DB18F818DB38F838B51080DF350040FE5
:10241000016E040E036ED8B0032A01C0E9FF03C0A9
:10242000EAFF8FC1EFFF010E016E03D000D0000E56
:10243000016E0001000C8751010A03E0030A14E059
:1024400026D0EA6A390EE96E050EE26EE16A080EE0
:10245000016EE6CFEEFF012EFCD70101826B000179
:10246000D9EC0DF0876B17D0EA6A300EE96E050ED5
:10247000E26EE16A070E016EE6CFEEFF012EFCD799
:10248000876B0101826B0001D9EC0DF004D0876BE2
:10249000A6EC0DF000D073EF12F001018051080D91
:1024A000F350010F016E040E036ED8B0032A01C071
:1024B000E9FF03C0EAFF036AEFCF01F003C002F0B7
:1024C00000016AEF12F08381856B020E0101806FBB
:1024D0000001E3D701C084F07AEF12F001017F53CD
:1024E00004E10001A8D717D001017F51020804E1DF
:1024F0000001E9D710D00101036A010E026E7F517D
:10250000006E05E0D89002360336002EFBD702504D
:102510002312035024120001000C80C16EFF010140
:10252000805303E0040E266E02D0020E266E0001D8
:102530009FEF12F0206A1F6A2BC080F1EED720EFC8
:1025400013F001018051080DF350040F016E040EC9
:10255000036ED8B0032A01C0E9FF03C0EAFFEFCF42
:1025600088F188BF41D08051080DF350060F016EED
:10257000040E036ED8B0032A01C0E9FF03C0EAFFCE
:10258000ECCF03F0ED52EFCF89F103C08AF1876BF6
:10259000866B8751845D1AE303E18351865D16E201
:1025A00081C1E9FF82C1EAFFEFCF8DF18AC1EAFF65
:1025B00089C1E9FF8DC1EFFF892BD8B48A2B812B0C
:1025C000D8B4822B862BD8B4872BE3D780C18BF16C
:1025D00084C18DF183C18CF185C18EF10001BADE19
:1025E000015004D000D00101000E016E0001000C6A
:1025F00082530FE08191020E0101806F826B410EC8
:10260000816F846B82C083F1020E856F000199DFB8
:10261000826B000C825302E0EBDF01D0818127EF57
:1026200013F001017F530EE11F2C05D00001DFECF8
:102630000DF006D001011F50020803E100017AD716
:10264000010106D07F51020803E10001E3D7010137
:102650000001000C6C3001017E6F7E337E331F0E53
:102660007E176C5246E1040100513C0B340821E115
:10267000046B0001E3D5273C07D001017F6B030EFB
:10268000806F0001F0DD12D001017F6B020E806FC0
:102690000001E9DD2750FE0809E001018B6B8D6B1D
:1026A00027C08CF1040E8E6F000154DE6D981ED091
:1026B000040100513C0B04081AE101017F6B000189
:1026C0000DDF01017F6B020E806F0001CCDD275012
:1026D000FE080CE0273C01D009D001018B6B8D6B0B
:1026E00027C08CF1010E8E6F000134DE040127D06B
:1026F00001016C50040816E1FF0E276E7F6B00018C
:1027000090DF273C01D00AD001018B6B8D6B27C075
:102710008CF1020E8E6F00011DDE02D0A6EC0DF0D2
:102720000DD001016CB406D07EC17FF10001D6DE70
:1027300005D001017EC17FF1000173DF04010001BA
:10274000D3EF13F0265201E12FD068522DE068A498
:1027500004D069A402D05DEF0DF06DA201D024D0A9
:1027600068A204D069A202D062EF0DF068A004D084
:1027700069A002D0B5EF0DF068A804D069A802D016
:10278000CAEF0DF068AC04D069AC02D0CFEF0DF009
:1027900068AA04D069AA02D0D2EF0DF068A604D0CE
:1027A00069A602D057D76896A19A2CEF0CF00101C8
:1027B000366B3451365D18E2036A36513225E96EC4
:1027C00033510320EA6E36513525396FF2CF3AF195
:1027D000F29E39C1A9FFA69CA69EA680A8503ABF2A
:1027E000F28EEF6E362BE5D7000186EF24F0010163
:1027F0005F6B5D515F5D24E25F515E25606F036A30
:102800005F515B25E96E5C510320EA6EEFCF61F109
:1028100060C1A9FF61C1A8FFA69CA69EA684F2CFB5
:1028200000F0F29E0F01550EA76EAA0EA76EA682AB
:10283000A6B2FED7A6940050F21201015F2BD9D7A1
:102840000001000C0F0E01012E6F010E5C6F2E0EA9
:102850005B6F010E5D6F5E6B0001C9DF8CEF24F0D2
:102860000101326B3251070832E3036A3251D50F4E
:10287000E96E000E0320EA6EEF6A036A3251DD0F43
:10288000E96E000E0320EA6EEF6A036A3251E50F2B
:10289000E96E000E0320EA6EEF6A336B33510708CE
:1028A00014E33251080DF350356B346F036A335122
:1028B0003425016E355103220150ED0FE96E000EF3
:1028C0000320EA6EEF6A332BE9D7322BCBD7000116
:1028D0008FEF24F08A9A939AC9505DC1C9FFC7301F
:1028E000FEE3C9505EC1C9FFC730FEE38A8A939AEE
:1028F000000C010EEA6E330EE96EEF500EE00F0E83
:10290000016E006A002EFED7012EFBD78F0E006EDF
:10291000002EFED70000EF2EF2D7D1EF14F00B0EF1
:1029200001015D6F070E5E6F0001D4DF0A0E010129
:102930005D6F2EC15EF10001CDDF010E0101326F2E
:102940003251080809E332C15DF132C15EF1000184
:10295000C1DF0101322BF4D70C0E5D6F010E5E6FEB
:102960000001B8DF0F0E01015D6F5E6B0001B2DF89
:102970000101326B32513F0817E3400ED8803255C7
:10298000006E0030336F33333F0E33170A0E5D6F26
:1029900033C15EF100019EDF080E0101336F0001BB
:1029A000A8D70101322BE6D70A0E5D6F2EC15EF16A
:1029B000000190DF010E0101326F3251080808E377
:1029C00032C15DF15E6B000185DF0101322BF5D76D
:1029D0000001A7EF24F06D6A696A080E6F6E9450CB
:1029E00030090101946E266A186AF2BE188EF29EB2
:1029F000000178EC0DF018BEF28E246A236A24EFF1
:102A000015F0186AF2BE188EF29E78EC0DF018BE22
:102A1000F28E6D6A140E6F6E696A6D86010E266EF7
:102A200015EF15F06DB601D0ECD7262C0BD06DBA92
:102A300009D0686A696AA08AC00EF212110E696E26
:102A4000020E266E000CC7D7EDDF26500208FCE10F
:102A5000ABEF24F083B101D0FDD78551852B036AFC
:102A6000880FE96E050E0320EA6EEFCF60F10101D9
:102A700000018451855D0EE38391186AF2BE188EC1
:102A8000F29E020E01017F6F806F000133EC11F0A6
:102A900018BEF28E010160C101F0000155EF15F082
:102AA00001015D075E6B0001D5D701C05FF1010137
:102AB0005F51080804E15E5301E05E0713D05F51E7
:102AC0001F0810E25F517E080DE35D515E5D0AE272
:102AD0005E515E2B036A5B25E96E5C510320EA6E52
:102AE0005FC1EFFF5F510D08DEE1036A5E515B25B8
:102AF000E96E5C510320EA6EEF6A000156EF1CF0AC
:102B000064C168F163C167F168C103F0010167C185
:102B1000E9FF68C1EAFFEF5230E066C16AF165C1C2
:102B200069F16AC103F069C1E9FF6AC1EAFFEF52C6
:102B30000AE16351675D006E64516859036E00C01D
:102B400001F023D010D067C1E9FF68C1EAFFEFCFE1
:102B50006BF16AC103F069C1E9FF6AC1EAFFEF5096
:102B60006B5D01E104D0692BD8B46A2BDAD7672BEF
:102B7000D8B4682B0001C8D701016351675D006EAE
:102B800064516859036E00C001F000011DEF16F09A
:102B900064C168F163C167F168C103F0010167C1F5
:102BA000E9FF68C1EAFFEF522AE066C16AF165C138
:102BB00069F16AC103F069C1E9FF6AC1EAFFEF5236
:102BC00018E067C1E9FF68C1EAFFEFCF6BF16AC1A6
:102BD00003F069C1E9FF6AC1EAFFEF506B5D05E1EF
:102BE00067C101F068C102F00DD0692BD8B46A2B1F
:102BF000E0D7672BD8B4682B0001CED70101000EB7
:102C0000016E026E00013EEF16F001015B515C1196
:102C100004E05CC103F05B5103D01AC003F019500B
:102C20005F6F03C060F160C164F15FC163F15EC1B9
:102C300066F15DC165F1000163D7015001015F27B5
:102C4000000E602360C103F05FC1E9FF60C1EAFFCD
:102C5000EF520AE119C0E9FF1AC0EAFF200EEF6E39
:102C6000000E016E026E27D060C164F15FC163F196
:102C70005EC166F15DC165F100018AD702C062F1F3
:102C800001C061F162C103F0010161C1E9FF62C1EC
:102C9000EAFFEF5208E061C1E9FF62C1EAFFEF6AB3
:102CA000612BD8B4622B62C11AF061C119F05FC107
:102CB00001F060C102F00001000C01015BC1E9FFFD
:102CC0005CC1EAFFEFCF5FF15EC103F05DC1E9FFD8
:102CD0005EC1EAFFEF505F5D15E15CC103F05BC1CF
:102CE000E9FF03C0EAFFEF5203E1000E016E1FD0BF
:102CF0005CC103F05B515B2BD8B45C2B5D2BD8B46B
:102D00005E2BDCD75CC103F05BC1E9FF5CC1EAFF6D
:102D1000EFCF5FF15EC103F05DC1E9FF5EC1EAFF85
:102D2000EF505F5D02E2FF0E01D0010E016E000167
:102D3000000C006A016A01016251D89063B100265B
:102D40000032013263B300260032013263B500263F
:102D50000032013263B700260032013263B9002627
:102D60000032013263BB00260032013263BD00260F
:102D70000032013263BF00260032013200012FEF22
:102D800017F00101606B5E6B0A0E5F6F5D6B5B514C
:102D90005C1103E1000E016EC3D06051602B036A29
:102DA0005B25E96E5C510320EA6EEFCF61F1615162
:102DB0002D080DE1010E5E6F6051602B036A5B25EB
:102DC000E96E5C510320EA6EEFCF61F10DD06151E5
:102DD0002B080AE16051602B036A5B25E96E5C51A8
:102DE0000320EA6EEFCF61F161512F08D8B090D087
:102DF00061513908D8A08CD06151300821E1036AB3
:102E000060515B25E96E5C510320EA6EEF50780853
:102E10000AE0036A60515B25E96E5C510320EA6EAB
:102E2000EF5058080DE1100E5F6F602B6051602B62
:102E3000036A5B25E96E5C510320EA6EEFCF61F116
:102E40005F510A081DE161512F0819E261513908EB
:102E500016E30A0E626F5DC163F100016AD7300E9E
:102E60000101615D01245D6F6051602B036A5B2588
:102E7000E96E5C510320EA6EEFCF61F1E4D748D0F0
:102E80005F51100845E16151600806E261517A081E
:102E900003E36151DF0B01D06151616F61512F0874
:102EA00003E26151390806E26151400831E26151A3
:102EB00046082EE361512F080CE26151390809E3FD
:102EC0005D39626FF00E6217300E615D62255D6FD5
:102ED00009D05D39626FF00E6217410E615D0A0F15
:102EE00062255D6F6051602B036A5B25E96E5C5162
:102EF0000320EA6EEFCF61F16151600806E2615193
:102F00007A0803E36151DF0B01D06151616FC6D7CD
:102F10005E2D04D05F510A0801E15D6D5DC101F0D5
:102F20000001000C01015B51080801E211D02D5194
:102F30000F0B03E1000181850101010E006E5B5161
:102F4000016E04E0D8900036012EFCD700502D13FE
:102F5000000160EF1EF001015B51080801E212D090
:102F6000010E006E5B51016E04E0D8900036012E18
:102F7000FCD70050FF0A2D172D510F0B03E1000164
:102F800081950101000160EF1EF001016A51D8B482
:102F900071D0006E6E51D8B46DD0002604E3810E5E
:102FA000002668E204D07F0E005E64E363E06BC13C
:102FB00072F16F51721B6B8F6F8F6D517103F4CF74
:102FC00074F16C517003F4CF03F0F3CF73F171031C
:102FD000F3507427F4507323000E03226D517003D5
:102FE000F3507427F4507323000E026A0322022266
:102FF0006B517103F3507327F4500322000E022229
:103000006B517003F3500326F4500222000E016A44
:1030100001226D516F03F3507327F4500322000E09
:10302000022201226C516F03F3500326F450022256
:10303000000E01226B516F03F3500226F45001225F
:10304000002A01BE05D0733703360236013600066A
:10305000000E73AF0AD0032A02220122015005E1BB
:10306000025003E1035001E1002A72BF018E72AFEA
:10307000019E04D0006A016A026A036A0001000C22
:103080008E0E006E6FC101F06EC102F0036A015234
:1030900009E102C001F0026A080E005E015202E17D
:1030A000006A08D0D89001BE04D00236013600066E
:1030B000F9D7019E000C01016E51D8B4A5D07A6FEA
:1030C0007251D8B4A1D07A5F05E37F0E7A27D8B0C9
:1030D0009BD006D0810E7A5FD8A096D0D8B494D079
:1030E0007AC100F0016A026A036A796B6FC178F1F4
:1030F000788F70C177F171C176F1190E7A6F7551C1
:10310000765F0DE2010E775F0AE2785F08E2795F91
:1031100006E2792B782B772B7551762728D07451BE
:10312000775F12E2010E785F0FE2795F0DE2792B93
:10313000782B745177277551762719E3772B17E190
:10314000782B15E1792B13D073518009785F0EE24B
:10315000010E795F0BE2792B735180097827745146
:103160007727E9E3782BE7E1792BE5D703807A2FFE
:1031700001D00BD0D8907637773778377937D89019
:103180000336023601367B37BAD77BA106D0D890FA
:103190000132023203327B3302D0000635E07BBFBE
:1031A0001ED0D89076377737783779377551765F74
:1031B00007E2010E775F04E2785F02E2795F1AE3CB
:1031C0007451775F05E2010E785F02E2795F12E3E6
:1031D00073518009785F03E2010E795F0BE3032AE4
:1031E00009E1022A07E1012A05E1002A0DE0013286
:1031F000023203326FC17AF173517A1B7AAF02D077
:10320000018E06D0019E04D0006A016A026A036A38
:103210000001000C800ED8A202D00101731B010135
:10322000786B796B6FC177F17351771B6E51D8B49E
:10323000DFD0766F006E7251D8B4E3D0765FD8B429
:1032400083D03EE373C17CF17C8F74C17BF175C187
:103250007AF1796BD8907C337B337A337933762F5C
:10326000F8D777AF03D07881E0D0789176917889DC
:10327000010EEA6E710EE96EEBD0789977BF0AD035
:1032800076A113D07C337B337A337933002AD8B4D8
:10329000C7D00BD07CBF0CD0D89079377A377B372A
:1032A0007C370006D8B4BCD0F5D7788D6DD0789D2A
:1032B0006FC177F16FAF02D07C8FABD07C9FA9D06C
:1032C00072C176F172C100F06E51765F6FC17CF110
:1032D0007C8F70C17BF171C17AF1796BD8907C33AE
:1032E0007B337A337933762FF8D777AF03D078836F
:1032F0009CD078937691788B010EEA6E750EE96E0C
:10330000A7D0789B77BF0AD076A113D07C337B33CC
:103310007A337933002AD8B483D00BD07CBF0CD059
:10332000D89079377A377B377C370006D8B478D095
:10333000F5D7788F29D0789F73C177F173AF02D01A
:103340007C8F67D07C9F65D073C17CF17C8F74C10A
:103350007BF175C17AF177AF04D07C9F788565D019
:103360007895796B7691010EEA6E710EE96E70D0E8
:1033700077BF1CD06FC177F176A106D07C337B3349
:103380007A337933002A4CE079AF0BD07A2B09E1FC
:103390007B2B07E17C2B05E17C337B337A33002ADE
:1033A0003FE078BD84D778BFC6D71CD0800E7C1B89
:1033B0007CAF04D03AD073C177F10AD06FC177F1F6
:1033C0007C5306E17B5304E17A5302E1006A21D089
:1033D0007CBF08D0D89079377A377B377C37002E7E
:1033E000F7D71ED077AF02D07C8F13D07C9F11D03F
:1033F00072C100F073C17CF174C17BF175C17AF1C7
:1034000008D06EC100F06FC17CF170C17BF171C159
:103410007AF17CC101F07BC102F07AC103F034D0B3
:10342000006A016A026A036A2FD0796B7A1F7B1FD8
:103430007C1F791F792B05E17A2B03E17B2B01E1BE
:103440007C2B78B112D778B354D778B589D7B3D756
:10345000EF507A2705E37B2B03E17C2BD8B47681F0
:10346000ED52EF507B2703E37C2BD8B47681ED52ED
:10347000EF50EFBE01D0800A7C27D8B0768178B9B2
:10348000FCD678BB3ED774D70001000C7F0E01013B
:103490005F6F606B616B626B636B646B656B666BBC
:1034A000678167936795696B5B515C1105E1006A01
:1034B000016A026A036A0FD16951692B036A5B25AD
:1034C000E96E5C510320EA6EEFCF68F16853D8B41F
:1034D000C5D067A10FD0685120080CE067916851F2
:1034E0002B0803E16793ADD005D068512D0802E1A8
:1034F0006783A7D067B107D068512E0804E167B58C
:1035000002D067859ED067B199D068512F08D8B096
:1035100095D068513908D8A091D0300E685F67A562
:1035200053D062C16DF161C16CF160C16BF15FC1DB
:103530006AF1716B706B200E6F6F820E6E6F0001FF
:1035400024DD03C062F102C061F101C060F100C07E
:103550005FF101016F6B68C16EF1000191DD00C088
:103560006AF101C06BF102C06CF103C06DF103C0E0
:1035700071F102C070F101C06FF100C06EF162C163
:1035800075F161C174F160C173F15FC172F193DDD6
:10359000D89266C171F165C170F164C16FF163C108
:1035A0006EF103C075F102C074F101C073F100C087
:1035B00072F130DE03C066F102C065F101C064F152
:1035C00000C063F139D001016D6B6C6B200E6B6F25
:1035D000820E6A6F66C171F165C170F164C16FF1ED
:1035E00063C16EF10001D1DC00C06AF101C06BF172
:1035F00002C06CF103C06DF101016F6B68C16EF127
:1036000000013EDDD8926DC171F16CC170F16BC1EA
:103610006FF16AC16EF103C075F102C074F101C0AF
:1036200073F100C072F1F6DD03C066F102C065F10E
:1036300001C064F100C063F105D0010167B101D0A0
:103640000DD0000101016951692B036A5B25E96E08
:103650005C510320EA6EEFCF68F138D767A319D029
:103660006D6B6C6B800E6B6F7F0E6A6F66C171F154
:1036700065C170F164C16FF163C16EF1000185DC59
:1036800003C066F102C065F101C064F100C063F1DE
:1036900001015D515E1117E069530CE069075DC1DE
:1036A000E9FF5EC1EAFF69515B25EF6E000E5C2108
:1036B000EC6E09D05DC1E9FF5EC1EAFF5CC1ECFFC1
:1036C000ED525BC1EFFF63C100F064C101F065C161
:1036D00002F066C103F00001B0EF1EF08E0E006E26
:1036E00001015B51005E5CC102F05DC101F0028E20
:1036F000005209E0D890025202E1015204E0023285
:103700000132002EF7D75CAF05D0011E021E012A40
:10371000D8B4022A0001EBEF1EF001016391F2BE62
:103720006381F29E000182513F0802E23F0E826FE8
:103730008251822B036A410FE96E000E0320EA6E6C
:1037400062C1EFFFF29E010163B1F28E000181A11F
:1037500008D0186AF2BE188EF29EF8EC12F018BE6D
:10376000F28EC4EF1BF082513F080BE281A108D01A
:10377000186AF2BE188EF29EF8EC12F018BEF28EA5
:10378000F2D761C162F1C9D7000C01016251016A2F
:10379000615D03E261C100F00CD0006A080E636F46
:1037A000613700366251005CD8B0006E0136632F7D
:1037B000F7D70001000C200E01015CA9300E5D6FEF
:1037C0005BC100F05BAF07D0001E002A00C05BF1B8
:1037D0002D0E5D6F5C8F01505BC161F1640E626FF5
:1037E0000001D3DF00C05BF1300E012401015E6FE8
:1037F0005BC161F10A0E626F0001C7DF300E002469
:103800000101606F300E01245F6F5DC100F05CA7A5
:1038100002D05CAF5C955CB90BD05CAF22D05CB5DC
:1038200020D000C05EF15CB31CD000C05FF119D0A5
:10383000300E5E5D16E100C05EF1200E5D6F5CA78C
:1038400004D05C955C835CAF5C93300E5F5D09E1F6
:1038500000C05FF1200E5E6F5CA7F7D75C935CAF92
:103860005C915CA505D05DC161F100017CDF0101C7
:103870005CA305D05EC161F1000175DF01015CA1AF
:1038800004D05FC161F100016EDF60C161F1000130
:103890006ADF000C83A18CD3010E01015C6F330E33
:1038A0005B6F140E5D6F000150EF15F0010E01010A
:1038B0005C6F330E5B6F5E6B910E5D6F000105EC0C
:1038C00016F002C048F101C047F148C15CF147C1A0
:1038D0005BF101015E6B930E5D6F00015DEC16F014
:1038E0000152D8A47ED001015C6B5B6B5E6B910EC4
:1038F0005D6F000105EC16F002C048F101C047F110
:1039000048C15CF147C15BF1C1EC16F001C049F15F
:1039100001015C6B5B6B5E6B910E5D6F000105ECF2
:1039200016F002C048F101C047F148C15CF147C13F
:103930005BF1C1EC16F001C04AF101015C6B5B6BFD
:103940005E6B910E5D6F000105EC16F002C048F150
:1039500001C047F148C15CF147C15BF1C1EC16F011
:1039600001C04BF101014B5315E1036A4A51880F25
:10397000E96E000E0320EA6E010E006E4951016EE1
:1039800004E0D8900036012EFCD70050FF0AEF1457
:10399000EF6E13D0036A4A51880FE96E000E0320C0
:1039A000EA6E010E006E4951016E04E0D8900036B7
:1039B000012EFCD70050EF10EF6E010E4A255B6F11
:1039C000036A4A51880FE96E000E0320EA6EEFCFBA
:1039D0005CF15BC15DF15CC15EF100016AEC14F069
:1039E000E7D248C15CF147C15BF101015E6B970E04
:1039F0005D6F00015DEC16F00152D8A4A1D0010169
:103A00005C6B5B6B5E6B910E5D6F000105EC16F0FD
:103A100002C048F101C047F148C15CF147C15BF108
:103A2000C1EC16F001C04CF101015C6B5B6B5E6B8D
:103A3000910E5D6F000105EC16F002C048F101C067
:103A400047F148C15CF147C15BF1C1EC16F001C020
:103A50004DF1902D25D00101326B325107081EE344
:103A6000036A3251880FE96E000E0320EA6EEF6A96
:103A7000010E32255B6F036A3251880FE96E000E2A
:103A80000320EA6EEFCF5CF15BC15DF15CC15EF1DA
:103A900000016AEC14F00101322BDFD70001906BBA
:103AA0000101326B325107084AE3010E006E3251B8
:103AB000016E04E0D8900036012EFCD700504D1561
:103AC00014E0036A3251880FE96E000E0320EA6E9B
:103AD000010E006E4C51016E04E0D8900036012EAC
:103AE000FCD70050EF10EF6E14D0036A3251880FEC
:103AF000E96E000E0320EA6E010E006E4C51016E5D
:103B000004E0D8900036012EFCD70050FF0AEF14D5
:103B1000EF6E010E32255B6F036A3251880FE96E3A
:103B2000000E0320EA6EEFCF5CF15BC15DF15CC17A
:103B30005EF100016AEC14F00101322BB3D739D2E7
:103B400048C15CF147C15BF101015E6B9F0E5D6F87
:103B500000015DEC16F001526FE101015C6B5B6BE3
:103B60005E6B910E5D6F000105EC16F002C048F12E
:103B700001C047F148C15CF147C15BF1C1EC16F0EF
:103B800001C04EF101015C6B5B6B5E6B910E5D6F72
:103B9000000105EC16F002C048F101C047F148C130
:103BA0005CF147C15BF1C1EC16F001C04FF1902D03
:103BB00025D00101326B325107081EE3036A3251EE
:103BC000880FE96E000E0320EA6EEF6A010E3225BF
:103BD0005B6F036A3251880FE96E000E0320EA6EB4
:103BE000EFCF5CF15BC15DF15CC15EF100016AEC9D
:103BF00014F00101322BDFD70001906B036A010141
:103C00004E51880FE96E000E0320EA6E4FC1EFFFA0
:103C1000010E4E255B6F036A4E51880FE96E000E50
:103C20000320EA6EEFCF5CF15BC15DF15CC15EF138
:103C300000016AEC14F0BCD148C15CF147C15BF1F2
:103C400001015E6BA70E5D6F00015DEC16F0015285
:103C500038E101015C6B5B6B5E6B910E5D6F000187
:103C600005EC16F002C048F101C047F148C15CF113
:103C700047C15BF1C1EC16F001C050F101015C6B72
:103C80005B6B5E6B910E5D6F000105EC16F002C080
:103C900048F101C047F148C15CF147C15BF1C1EC9B
:103CA00016F001C051F10101515305E050C15BF123
:103CB000000192EF17F050C15BF10001ABEF17F07C
:103CC00077D148C15CF147C15BF101015E6BB20E77
:103CD0005D6F00015DEC16F00152D8A491D0010196
:103CE0005C6B5B6B5E6B910E5D6F000105EC16F01B
:103CF00002C048F101C047F148C15CF147C15BF126
:103D0000C1EC16F001C052F101015C6B5B6B5E6BA4
:103D1000910E5D6F000105EC16F002C048F101C084
:103D200047F148C15CF147C15BF1C1EC16F001C03D
:103D300053F101015C6B5B6B5E6B910E5D6F00017B
:103D400005EC16F002C048F101C047F148C15CF132
:103D500047C15BF101015E6B5D6B000146EF1AF03C
:103D600003C057F102C056F101C055F100C054F133
:103D70000101522D06D0000E0409CA6E53C1CBFFBB
:103D800011D05251040806E1000E0509CA6E53C154
:103D9000CBFF08D05251100805E1000E0609CA6E8B
:103DA00053C1CBFF6D6B6C6B6B6B890E6A6F57C128
:103DB00071F156C170F155C16FF154C16EF100013E
:103DC000C5EC17F003C05EF102C05DF101C05CF10B
:103DD00000C05BF183D402C05CF101C05BF1010162
:103DE0005C335B335C335B335C335BC1BEFF5C33A2
:103DF0005C31300B006EBD50CF0B0010BD6ED9D0C2
:103E000048C15CF147C15BF101015E6BB60E5D6FAD
:103E100000015DEC16F0015229E101015C6B5B6B66
:103E20005E6B910E5D6F000105EC16F002C048F16B
:103E300001C047F148C15CF147C15BF1C1EC16F02C
:103E400001C02EF10A0E01015D6F2EC15EF100016D
:103E50006AEC14F0010E01015C6F2E0E5B6F010E17
:103E60005D6F5E6B0001F7EC13F0A2D048C15CF10E
:103E700047C15BF101015E6BC00E5D6F00015DEC3F
:103E800016F001521EE101015C6B5B6B5E6B910EE3
:103E90005D6F000105EC16F002C048F101C047F16A
:103EA00048C15CF147C15BF1C1EC16F001C058F1AB
:103EB0000F0E01015D6F58C15EF100016AEC14F054
:103EC00077D048C15CF147C15BF101015E6BC50E63
:103ED0005D6F00015DEC16F001521EE101015C6BAB
:103EE0005B6B5E6B910E5D6F000105EC16F002C01E
:103EF00048F101C047F148C15CF147C15BF1C1EC39
:103F000016F001C059F10C0E01015D6F59C15EF14F
:103F100000016AEC14F04CD048C15CF147C15BF180
:103F200001015E6BCE0E5D6F00015DEC16F001527B
:103F30003FE101015C6B5B6B5E6B910E5D6F00019D
:103F400005EC16F002C048F101C047F148C15CF130
:103F500047C15BF1C1EC16F001C05AF101015B6B86
:103F60005B51000122EC0DF001015B2B006E616FD3
:103F70000001B3EC1BF0070E01015B5DF1E15AC1DA
:103F80005BF11F0E5C6F000116DC200E0101616FFA
:103F90000001B3EC1BF0010E01015B6F1F0E5C6FA3
:103FA000000109DC0D0E0101616F0001B3EC1BF093
:103FB00001010001B4EF24F001013791036A35518A
:103FC000D50FE96E000E0320EA6EEFCF38F1036AD9
:103FD0003551DD0FE96E000E0320EA6EEF50381BFD
:103FE000010E006E3651016E04E0D8900036012EAD
:103FF000FCD70050381531E0036A3551D50FE96E12
:10400000000E0320EA6EEFCF38F1036A3551E50F59
:10401000E96E000E0320EA6EEF50381B010E006EB1
:104020003651016E04E0D8900036012EFCD70050C6
:10403000381513E03551080DF350396B386F036AAA
:1040400036513825016E395103220150ED0FE96ECA
:10405000000E0320EA6EEF6AA4D0036A3551D50F33
:10406000E96E000E0320EA6EEFCF38F1036A355196
:10407000DD0FE96E000E0320EA6EEF50381B010ED3
:10408000006E3651016E04E0D8900036012EFCD748
:1040900000503815D8A485D0036A3551D50FE96E84
:1040A000000E0320EA6EEFCF38F1036A3551E50FB9
:1040B000E96E000E0320EA6EEF50381B010E006E11
:1040C0003651016E04E0D8900036012EFCD7005026
:1040D000381567E03551080DF350396B386F036AB6
:1040E00036513825016E395103220150ED0FE96E2A
:1040F000000E0320EA6EEF501F0853E33551080D00
:10410000F350396B386F036A36513825016E3951D7
:1041100003220150ED0FE96E000E0320EA6EEF2A34
:10412000EF5020083EE1036A3551D50FE96E000ECD
:104130000320EA6EEFCF38F1010E006E3651016EAA
:1041400004E0D8900036012EFCD70050381514E05A
:10415000036A3551E50FE96E000E0320EA6E010E89
:10416000006E3651016E04E0D8900036012EFCD767
:104170000050EF10EF6E14D0036A3551E50FE96E71
:10418000000E0320EA6E010E006E3651016E04E04F
:10419000D8900036012EFCD70050FF0AEF14EF6EC6
:1041A0003781000E37B1010E016E000145EF21F09D
:1041B0008A9E939E0101326B32510708D8A0C3D06A
:1041C0008A8C939C8A9C939C8A8E939E036A32511C
:1041D000DD0F016E000E032203C036F1036A325177
:1041E000D50FE96E000E0320EA6EEFCF37F136C12E
:1041F000EAFF01C0E9FF37C1EFFF8B929492130EE3
:10420000006E002EFED700D08B829492336B335118
:104210000708D8A096D0948C346B82BC342B3453CE
:1042200002E0000E01D0010E346F345314E0036A33
:104230003251D50FE96E000E0320EA6E010E006EBA
:104240003351016E04E0D8900036012EFCD70050A7
:10425000EF10EF6E14D0036A3251D50FE96E000EE5
:104260000320EA6E010E006E3351016E04E0D89017
:104270000036012EFCD70050FF0AEF14EF6E32C15A
:1042800035F133C136F1000197D6015253E0036A8C
:1042900001013251E50FE96E000E0320EA6EEFCF07
:1042A00035F1010E006E3351016E04E0D8900036F6
:1042B000012EFCD70050351502E0010E01D0000E92
:1042C000356F366B3651000136EC0DF00101362B9F
:1042D000006E616F0001B3EC1BF0060E0101365D4C
:1042E000F1E133C15BF11F0E5C6F0001DBEC1BF0F1
:1042F000200E0101616F0001B3EC1BF032C15BF1D4
:104300001F0E01015C6F0001DBEC1BF0200E0101B0
:10431000616F0001B3EC1BF035C15BF11F0E0101B1
:104320005C6F0001DBEC1BF00D0E0101616F000101
:10433000B3EC1BF08B8094908B9094900101332B05
:1043400066D7322B39D70001B5EF24F00101465171
:10435000B608466F036A47C14AF1478FD890473382
:10436000483349330332023201320032462FF6D746
:104370004AAF0BD0001E011E021E031E002AD8B435
:10438000012AD8B4022AD8B4032A000134EF22F05B
:10439000006A016A026A036A01014E6B4F6B506B3F
:1043A000516B4D514C114B114A112CE0200E526FA4
:1043B000D89046374737483749374E374F37503709
:1043C00051374D51515D08E14C51505D05E14B5164
:1043D0004F5D02E14A514E5D0FE34A514E5F4B5132
:1043E000D8A04B3D4F5F4C51D8A04C3D505F4D5134
:1043F000D8A04D3D515FD8800036013602360336D5
:10440000522FD6D7010EEA6E4E0EE96E0001000C57
:10441000E95001013E6F3D51406F1CE03CC16DF120
:104420003BC16CF13AC16BF139C16AF1716B706BD0
:10443000200E6F6F820E6E6F0001C5EC17F003C087
:104440003CF102C03BF101C03AF100C039F1010179
:10445000402FE4D73CC149F13BC148F13AC147F193
:1044600039C146F1000172D703C03CF102C03BF1F3
:1044700001C03AF100C039F101013CAF0DD03E0757
:104480003E8B391F3A1F3B1F3C1F392BD8B43A2BA8
:10449000D8B43B2BD8B43C2B3B0E456F9A0E446FDF
:1044A000CA0E436F426B0A0E406F3D51D8B43E2B8B
:1044B0003CC149F13BC148F13AC147F139C146F12C
:1044C00045C14DF144C14CF143C14BF142C14AF1E8
:1044D00000015EDF0150EFCF39F1ECCF3AF1ECCFC4
:1044E0003BF1ECCF3CF1005213E101013D29405D6D
:1044F000D8A402D000010CD03E510DE00F0B405D5E
:1045000001E044E23EBF42D03EBD05D0200E37D090
:10451000200E01013E173EAB0FD03E9B3D51D8A46B
:104520003E0700503E6F2D0E616F0001B3EC1BF093
:1045300001013E51006E3E6B3D51405D0DE100506A
:104540003E6F2E0E616F0001B3EC1BF001013E5176
:10455000006E200E3E17000E300E3EAB10D03E9B7C
:104560003D51D8A43E0700503E6F2D0E616F0001F3
:10457000B3EC1BF001013E51006E3E6B300E002685
:1045800000C061F10001B3EC1BF0010145C149F12C
:1045900044C148F143C147F142C146F14D6B4C6BF8
:1045A0004B6B0A0E4A6F0001F3DE03C045F102C0F7
:1045B00044F101C043F100C042F10101402F78D71E
:1045C0000001A8EF23F081A5D1D0010132511808D4
:1045D000D8B0CBD0010E006E3351016E04E0D890FC
:1045E0000036012EFCD700502D15396F010E006EDC
:1045F0003351016E04E0D8900036012EFCD70050F4
:10460000395DD8A4ACD0356B366B376B386B346BF7
:10461000345107083FE3036A3351F2CF39F1F29E78
:10462000000110EC0DF0010139BFF28E396F393500
:10463000006E0036FC0E0016C250C30B0010C26E96
:10464000C282C2B2FED7C4CF03F0C3CF6EF1C4CFD3
:104650006FF1000140EC18F0D89238C171F137C108
:1046600070F136C16FF135C16EF103C075F102C052
:1046700074F101C073F100C072F10AEC19F003C0CB
:1046800038F102C037F101C036F100C035F1010147
:10469000342BBED738C171F137C170F136C16FF11B
:1046A00035C16EF1756B746B736B820E726F0001A6
:1046B0005BEC18F000C039F101C03AF102C03BF1E7
:1046C00003C03CF103C071F102C070F101C06FF191
:1046D00000C06EF10101756B746B736B890E726FA4
:1046E00000015BEC18F003C038F102C037F101C0E3
:1046F00036F100C035F10101396B395100014BEC45
:104700000DF00101392B006E616F0001B3EC1BF05D
:10471000040E0101395DF1E133C15BF11F0E5C6FE5
:104720000001DBEC1BF0200E0101616F0001B3EC16
:104730001BF0890EE96E38C13CF137C13BF136C13F
:104740003AF135C139F1020E01013D6F000160D629
:104750000D0E0101616F0001B3EC1BF00101332B61
:104760003351080801E2336B326B322B0001BAEF90
:1047700024F0F86AD09E088EEA6AE96AC150C00B3C
:104780000F09C16E070EB46E196A1A6A266A286A82
:10479000040E296E0C0E2A6E2D6A826B876B010E39
:1047A000906F200E916F926B6C0E936F650E946FED
:1047B000640E956F966B6C0E976F650E986F640E16
:1047C000996F5F0E9A6F630E9B6F6F0E9C6F6C0EEE
:1047D0009D6F9E6B9F6F650EA06F640EA16F5F0E45
:1047E000A26F720EA36F6F0EA46F770EA56FA66BEC
:1047F000610EA76F640EA86F630EA96F5F0EAA6F9C
:10480000650EAB6F6E0EAC6F610EAD6F620EAE6F6C
:104810006C0EAF6F650EB06FB16B700EB26F770E2E
:10482000B36F6D0EB46FB56B690EB66F6E0EB76F6A
:10483000740EB86F650EB96F6E0EBA6F730EBB6FE4
:10484000690EBC6F740EBD6F790EBE6FBF6B740EB8
:10485000C06F650EC16F730EC26F740EC36FC46BF1
:10486000730EC56F680EC66F750EC76F740EC86F76
:10487000640EC96F6F0ECA6F770ECB6F6E0ECC6F62
:10488000CD6B720ECE6F650ECF6F700ED06F6F0E48
:10489000D16F720ED26F740ED36FD46B01012D6B7A
:1048A000000181950101306B316BC150C00BC16EAD
:1048B000C090C082C084C08EC280C69A949E9380ED
:1048C0009392210EC66E400EC76ED190800ED56EAB
:1048D000CD6A000E0409CA6EFF0ECB6EBE6AB16AC5
:1048E000070EB46E9250926E270E006E002EFED709
:1048F00000D0B450A19CB56A010E336F2E0E326FFA
:10490000010E346F356B0001D7EF13F001012E5308
:1049100003E1000122EF14F0000130EF14F08A8E61
:10492000939E01012F6B2F5107080EE3036A2F514D
:10493000880FE96E000E0320EA6EEF6A8A8C939C62
:104940008A9C939C2F2BEFD700018FEF14F066EC1D
:104950000DF023EF15F081B301D0FDD712EC15F067
:10496000205208E04AEF1CF023D430C132F131C1AB
:0849700033F129D6F3D703004F
:020000040030CA
:0E000000240E390E000580000FC00FE00F40E7
:00000001FF
;PIC18F2550
;CRC=AD24  CREATED="26-6-09 11:35"
