:020000040000FA
:04180000DCEF24F005
:08180800056ED8CF06F0E0CF19
:1018100007F00001E9CF0DF0EACF08F0E1CF09F0C1
:10182000E2CF0AF0D9CF0BF0DACF0CF0F3CF14F0FF
:10183000F4CF15F0FACF16F000C00FF001C010F091
:1018400002C011F003C012F004C013F0A0AA2CEFE4
:101850000CF0A1BAABEF13F00FC000F010C001F014
:1018600011C002F012C003F013C004F00DC0E9FF74
:1018700008C0EAFF088E09C0E1FF0AC0E2FF0BC002
:10188000D9FF0CC0DAFF14C0F3FF15C0F4FF16C077
:10189000FAFF055007C0E0FF06C0D8FF1000F76A46
:1018A000AE0FF66E180EF7220900F5501200040371
:1018B0000100000000000000000000000000F76AC6
:1018C000CE0FF66E180EF7220900F5501200040034
:1018D0000100000000000000000000000000F76AA6
:1018E000EE0FF66E180EF7220900F55012004000B8
:1018F00008004000000000000000000000000000A0
:10190000000000000000000000000000000008AE21
:1019100003D0F2CF0EF0F29EF76A300FF66E190E7A
:10192000F7220900F55008AE02D00EBEF28E12006A
:101930004000000040000000000000000000000027
:101940000000000000000000000000000000000097
:10195000F76A600FF66E190EF7220900F5501200B3
:1019600009024300020100C0FA090400000102025A
:1019700001000524001001042402020524060001D0
:101980000524010001070581030800FA090401008C
:10199000020A000000070502024000FA0705820261
:1019A0004000FA00F76AB40FF66E190EF72209002C
:1019B000F55012000200F76AC60FF66E190EF722F4
:1019C0000900F55012001201100102000040D80475
:1019D000C5FF020001020001F76AE80FF66E190E5A
:1019E000F7220900F55012000403090412037400E1
:1019F0006B00720077006F0072006B0073001003C1
:101A00005000490043006E006F006D006500F2CF8A
:101A10000EF0F29EF76A280FF66E1A0EF7220900F2
:101A2000F5500EBEF28E12000001020304080900F8
:101A3000F2CF0EF0F29EF76A4A0FF66E1A0EF722F8
:101A40000900F5500EBEF28E12007265706F72744E
:101A50002025642025640000F2CF0EF0F29EF76A84
:101A6000720FF66E1A0EF7220900F5500EBEF28EB6
:101A7000120070726573732025642025642025642C
:101A80000000F2CF0EF0F29EF76A9C0FF66E1A0E6F
:101A9000F7220900F5500EBEF28E12006164632039
:101AA000256420256600F2CF0EF0F29EF76AC00F83
:101AB000F66E1A0EF7220900F5500EBEF28E1200D5
:101AC000696E707574202564202564006D92699498
:101AD0006894B6EF13F06A6A6892BFEF13F0336A46
:101AE000326A250E316E800E306E346A356A080E09
:101AF000366E866B8193386A376A826B83918181F7
:101B0000000C0101836B835101080AE3036A8351CE
:101B10002E0FE96E000E0320EA6EEF6A832BF3D7D7
:101B20000001DDDF206A010E216E1F6A000C010E2C
:101B300001018C6F8C510F080EE3700E8C25016E25
:101B40000F0E036ED8B0032A01C0E9FF03C0EAFFFD
:101B5000EF6A8C2BEFD7246A236A0001000C400E39
:101B60000401016F050E036F026B880E006F046B9A
:101B7000050E076F400E066F0001000C6A6A686A66
:101B80009F0E6B6E390E696E6E6ABBDFD0DF160E6C
:101B9000706E68A602D06896FCD76D98E0DF030EE1
:101BA000266EC5EF13F0698468986D82CBEF13F051
:101BB000689CD1EF13F070A002D0D1DF7090689ACA
:101BC000D7EF13F087C127F0000CFF0E276E000C33
:101BD0000101856B2D523DE085513F083AE32250CB
:101BE000000105E0020A0FE0010A19E024D0036AAF
:101BF0002C50F2CF87F1F29EABDE010187BFF28E4F
:101C0000866F000118D0036A2C50F2CF87F1F29E44
:101C1000E3DE010187BFF28E866F00010CD0036AFC
:101C20002C50F2CF87F1F29EC6DE010187BFF28E03
:101C3000866F000100D02C2A2D0601018551852BCD
:101C4000036A400FE96E050E0320EA6E86C1EFFFBE
:101C5000C1D72D5204E18551400801E01F6A85C1BA
:101C600087F10001AFDF000C2C6A226A05010351E5
:101C7000010A000105E0030A08E0010A09E021D099
:101C8000120E2D6E030E226E1ED0430E2D6E1BD033
:101C9000020E226E036A05010251280FE96E000E42
:101CA0000320EA6EEFCF2CF0036A2C50F2CF84F1C0
:101CB000F29E000191DE010184BFF28E2D6E0001C3
:101CC00002D083DF0CD00501075305E12D50065DDE
:101CD00002E206C52DF0010E1F6E000179DFA2EFB2
:101CE0000FF00101845306E1040E266E00011FDF90
:101CF000CED00101050E266E876F800E866F010E15
:101D0000856F85510F08D8A0C2D0886B036A8551B2
:101D1000F2CF8CF1F29E0001D2DD01018CBFF28E78
:101D2000000A55E0040E886FD8908535036AF2CF1B
:101D30008CF1F29E0001EBDD0900F5CF03F001010B
:101D40008CBFF28E896F03C08AF18551080DF35064
:101D5000010F016E040E036ED8B0032A01C0E9FF23
:101D600003C0EAFF89C1EFFF8551080DF350020F50
:101D7000016E040E036ED8B0032A01C0E9FF03C050
:101D8000EAFF87C1ECFFED5286C1EFFFD8908535A1
:101D9000036AF2CF8CF1F29E0001B9DD0900F5CFA4
:101DA00003F001018CBFF28E862703508723880E33
:101DB0008B6F8AB18B818AB38B838551080DF3CFEA
:101DC00001F0040E01C0E9FFEA6E8BC1EFFF036A68
:101DD0008551F2CF8CF1F29E000161DD01018CBFD3
:101DE000F28E000A33E088838551080DF350060F08
:101DF000016E040E036ED8B0032A01C0E9FF03C0D0
:101E0000EAFF87C1ECFFED5286C1EFFFD890853520
:101E1000036AF2CF8CF1F29E000161DD0900F5CF7B
:101E200003F001018CBFF28E862703508723855172
:101E3000080DF350040F016E040E036ED8B0032A90
:101E400001C0E9FF03C0EAFF400EEF6E88510608AB
:101E500002E10E0E886F036A8551F2CF8CF1F29E7B
:101E600000011DDD01018CBFF28E020801E08889AE
:101E7000700E8525016E0F0E036ED8B0032A01C0C7
:101E8000E9FF03C0EAFF88C1EFFF852B3AD70001C5
:101E90009AEF0FF00501015100010DE0010A15E074
:101EA000020A20E0060A2AE0030A31E00E0A30E0C6
:101EB000010A36E045D021C040F50501416B020E14
:101EC0000101876F00017EDE3DD00501022D07D0A4
:101ED000010E21160101876B000174DE02D00001A2
:101EE00074DE30D00501022D06D021820101876BFE
:101EF000000168DE02D0000168DE24D0020E1F6EF1
:101F000002C52BF00101876B00015CDE1BD0ACD653
:101F100020C040F5010E0101876F000153DE12D091
:101F20000501025101080AE302C520F002C584F14F
:101F30000001D7D60101876B000144DE000102D009
:101F400044DE00D03AEF11F020C084F105010151C8
:101F5000000105E00A0A0CE0010A31E045D0050164
:101F6000406B416B020E0101876F00012BDE3ED0FA
:101F70000101845321E0010E845D036AF2CF85F1F3
:101F8000F29E00010FDD010185BFF28E016E050199
:101F9000045DD8A002D001010FD0036A04512E0FB6
:101FA000E96E000E0320EA6EEFCF40F5010E01014D
:101FB000876F000107DE02D0000107DE17D00101A4
:101FC00084530FE0036A050104512E0FE96E000EE1
:101FD0000320EA6E02C5EFFF0101876B0001F2DD0D
:101FE00002D00001F2DD02D0F0DD00D03AEF11F0B6
:101FF0000101859184BF8581849F85A112D0036AE8
:102000008451F2CF86F1F29E000149DC010186BFC6
:10201000F28E000A02E1000E01D0010E016E12D014
:1020200011D0036A8451F2CF86F1F29E000147DCA1
:10203000010186BFF28E000A02E1000E01D0010EFE
:10204000016E00D000019BEF10F00101859184BF6B
:102050008581849F85A110D08451080DF350040F11
:10206000016E040E036ED8B0032A01C0E9FF03C05D
:10207000EAFF880EEF6E09D08451080DF3CF01F00E
:10208000040E01C0E9FFEA6EEF6A0001AAEF10F04A
:102090000101859184BF8581849F85A110D08451E1
:1020A000080DF350040F016E040E036ED8B0032A1E
:1020B00001C0E9FF03C0EAFF840EEF6E0AD084512D
:1020C000080DF3CF01F0040E01C0E9FFEA6E840EA3
:1020D000EF6E0001B2EF10F00101859184BF8581A0
:1020E000849F85A110D08451080DF350040F016E18
:1020F000040E036ED8B0032A01C0E9FF03C0EAFF53
:10210000EFCF86F10AD08451080DF3CF01F0040E11
:1021100001C0E9FFEA6EEFCF86F186AF02D086B547
:1021200002D0000E01D0010E016E0001BEEF10F0D2
:1021300004C584F15DD701522EE005010151010A69
:10214000000105E0020A0BE0030A11E022D004C5F9
:1021500084F17BD70101876B000134DD1CD004C5FD
:1021600084F196D70101876B00012CDD14D00501A5
:10217000406B416B04C584F10001AED7015203E00E
:10218000010E0501406F020E0101876F00011ADD8B
:1021900002D01BDD00D03AEF11F0FE0E276E000CCE
:1021A0000501042D01D002D004534EE1015100017C
:1021B0000BE0010A0DE0210A1CE0010A1FE0030AFE
:1021C00030E0010A35E03DD0010E876FE6DF3BD0FD
:1021D000050EEA6E400EE96EE26A390EE16E080EF7
:1021E000016EE6CFEEFF012EFCD706C587F1EADCD3
:1021F0002AD0020E876F8183D0DF25D0050EEA6ECC
:10220000400EE96EE26A300EE16E070E016EE6CF17
:10221000EEFF012EFCD7070E0101876F0001D2DC13
:1022200012D002C586F00101876B0001CBDC0BD018
:1022300002C538F003C537F00101876B0001C2DC2D
:1022400002D0C3DC00D0050100013AEF11F01F6A93
:10225000050100517F0B000107E0010A06E0030AB7
:1022600005E0230A04E004D015D66ED661D798D7CE
:10227000ACDC00D044EF13F001018451080DF3CF22
:1022800001F0040E01C0E9FFEA6EEFCF86F185513F
:10229000020806E186AD02D0856B02D0010E856F83
:1022A0008551030812E1840E866F8451080DF350A6
:1022B000040F016E040E036ED8B0032A01C0E9FFBB
:1022C00003C0EAFF840EEF6E09D0852D03D0C80E3F
:1022D000866F04D0855302E1880E866F036A010E73
:1022E000026E8451006E05E0D89002360336002E4F
:1022F000FBD70250FF0A006EFF0E031A0050231690
:1023000003502416D8908435036AF2CF89F1F29EE7
:10231000000187EC0CF00900F5CF03F0010189BF43
:10232000F28E876F03C088F18451080DF350010FBE
:10233000016E040E036ED8B0032A01C0E9FF03C08A
:10234000EAFF87C1EFFF88B1868188B38683845115
:10235000080DF3CF01F0040E01C0E9FFEA6E86C15B
:10236000EFFF0001000C01019051080DF350040F24
:10237000016E040E036ED8B0032A01C0E9FF03C04A
:10238000EAFFEFCF94F194BF5BD09051080DF3506A
:10239000050F016E040E036ED8B0032A01C0E9FFD9
:1023A00003C0EAFF91C1EFFF9351020816E190517B
:1023B000080DF350040F016E040E036ED8B0032A0B
:1023C00001C0E9FF03C0EAFFEFCF94F194AD02D062
:1023D000936B02D0010E936F13D09351040810E158
:1023E0009051080DF3CF01F0040E01C0E9FFEA6E31
:1023F000EFCF94F194AD03D0010E936F01D0936BA6
:10240000932D03D0C80E946F04D0935302E1880E2D
:10241000946F92B1948192B394839051080DF350CC
:10242000040F016E040E036ED8B0032A01C0E9FF49
:1024300003C0EAFF94C1EFFF010E016E03D000D08C
:10244000000E016E0001000C8751010A03E0030A2F
:1024500014E026D0EA6A390EE96E050EE26EE16AF2
:10246000080E016EE6CFEEFF012EFCD70101876B4F
:102470000001E2EC0DF0876B17D0EA6A300EE96ECE
:10248000050EE26EE16A070E016EE6CFEEFF012E49
:10249000FCD7876B0101876B0001E2EC0DF004D0E3
:1024A000876BAFEC0DF000D07CEF12F0010185518D
:1024B000080DF350010F016E040E036ED8B0032A0D
:1024C00001C0E9FF03C0EAFF036AEFCF01F003C0D8
:1024D00002F0000173EF12F08381856B020E01019F
:1024E000856F0001E3D701C084F083EF12F0010192
:1024F000845304E10001A8D717D0010184510208D8
:1025000004E10001E9D710D00101036A010E026E57
:102510008451006E05E0D89002360336002EFBD7BA
:1025200002502312035024120001000C85C16EFFDB
:102530000101855303E0040E266E02D0020E266EC2
:102540000001A8EF12F0206A1F6A2BC085F1EED7B8
:1025500029EF13F001018551080DF350040F016EAE
:10256000040E036ED8B0032A01C0E9FF03C0EAFFDE
:10257000EFCF8DF18DBF41D08551080DF350060F7F
:10258000016E040E036ED8B0032A01C0E9FF03C038
:10259000EAFFECCF03F0ED52EFCF8EF103C08FF1E5
:1025A0008C6B8B6B8C51895D1AE303E188518B5DD9
:1025B00016E286C1E9FF87C1EAFFEFCF92F18FC132
:1025C000EAFF8EC1E9FF92C1EFFF8E2BD8B48F2BAB
:1025D000862BD8B4872B8B2BD8B48C2BE3D785C113
:1025E00090F189C192F188C191F18AC193F1000102
:1025F000BADE015004D000D00101000E016E0001CE
:10260000000C82530FE08191020E0101856F876BF0
:10261000410E866F896B82C088F1020E8A6F0001BD
:1026200099DF826B000C825302E0EBDF01D08181E5
:1026300030EF13F0010184530EE11F2C05D000018F
:10264000E8EC0DF006D001011F50020803E1000183
:102650007AD7010106D08451020803E10001E3D7D3
:1026600001010001000C6C300101836F833383335F
:102670001F0E83176C5246E1040100513C0B3408D5
:1026800021E1046B0001E3D5273C07D00101846BF5
:10269000030E856F0001F0DD12D00101846B020E84
:1026A000856F0001E9DD2750FE0809E00101906B0C
:1026B000926B27C091F1040E936F000154DE6D9868
:1026C0001ED0040100513C0B04081AE10101846B87
:1026D00000010DDF0101846B020E856F0001CCDD6E
:1026E0002750FE080CE0273C01D009D00101906B77
:1026F000926B27C091F1010E936F000134DE04014B
:1027000027D001016C50040816E1FF0E276E846B80
:10271000000190DF273C01D00AD00101906B926B41
:1027200027C091F1020E936F00011DDE02D0AFECC5
:102730000DF00DD001016CB406D083C184F100010D
:10274000D6DE05D0010183C184F1000173DF0401ED
:102750000001DCEF13F0265201E12FD068522DE08A
:1027600068A404D069A402D066EF0DF06DA201D078
:1027700024D068A204D069A202D06BEF0DF068A04B
:1027800004D069A002D0BEEF0DF068A804D069A8FB
:1027900002D0D3EF0DF068AC04D069AC02D0D8EF12
:1027A0000DF068AA04D069AA02D0DBEF0DF068A68C
:1027B00004D069A602D057D76896A19A2CEF0CF0E6
:1027C00001013B6B39513B5D18E2036A3B513725F0
:1027D000E96E38510320EA6E3B513A253E6FF2CF45
:1027E0003FF1F29E3EC1A9FFA69CA69EA680A850DE
:1027F0003FBFF28EEF6E3B2BE5D70001AEEF25F029
:102800000101646B6251645D24E264516325656F6C
:10281000036A64516025E96E61510320EA6EEFCFCF
:1028200066F165C1A9FF66C1A8FFA69CA69EA68405
:10283000F2CF00F0F29E0F01550EA76EAA0EA76E02
:10284000A682A6B2FED7A6940050F2120101642B14
:10285000D9D70001000C0F0E0101356F010E616F19
:10286000350E606F010E626F636B0001C9DFB4EF5C
:1028700025F00101376B3751070832E3036A3751FE
:10288000D50FE96E000E0320EA6EEF6A036A375136
:10289000DD0FE96E000E0320EA6EEF6A036A37511E
:1028A000E50FE96E000E0320EA6EEF6A386B3851CF
:1028B000070814E33751080DF3503A6B396F036A78
:1028C00038513925016E3A5103220150ED0FE96E5E
:1028D000000E0320EA6EEF6A382BE9D7372BCBD7EF
:1028E0000001B7EF25F00101306B316B326B376BB4
:1028F000375101080AE3036A3751330FE96E010EBD
:102900000320EA6EEF6A372BF3D70001CFEF25F0F3
:102910008A9A939AC95062C1C9FFC730FEE3C95071
:1029200063C1C9FFC730FEE38A8A939A000C010E87
:10293000EA6E380EE96EEF500EE00F0E016E006A7F
:10294000002EFED7012EFBD78F0E006E002EFED775
:102950000000EF2EF2D7EFEF14F00B0E0101626FC3
:10296000070E636F0001D4DF0A0E0101626F35C1EB
:1029700063F10001CDDF010E0101376F3751080807
:1029800009E337C162F137C163F10001C1DF010121
:10299000372BF4D70C0E626F010E636F0001B8DFA6
:1029A0000F0E0101626F636B0001B2DF0101376B33
:1029B00037513F0817E3400ED8803755006E00307E
:1029C000386F38333F0E38170A0E626F38C163F123
:1029D00000019EDF080E0101386F0001A8D7010138
:1029E000372BE6D70A0E626F35C163F1000190DF25
:1029F000010E0101376F3751080808E337C162F152
:102A0000636B000185DF0101372BF5D70001D1EFA2
:102A100025F06D6A696A080E6F6E945030090101E5
:102A2000946E266A186AF2BE188EF29E000181EC3E
:102A30000DF018BEF28E246A236A42EF15F0186A70
:102A4000F2BE188EF29E81EC0DF018BEF28E6D6A09
:102A5000140E6F6E696A6D86010E266E33EF15F0E7
:102A60006DB601D0ECD7262C0BD06DBA09D0686AB0
:102A7000696AA08AC00EF212110E696E020E266EED
:102A8000000CC7D7EDDF26500208FCE1D5EF25F09A
:102A900083B101D0FDD78551852B036A880FE96E7C
:102AA000050E0320EA6EEFCF65F1010100018451AC
:102AB000855D0EE38391186AF2BE188EF29E020EB7
:102AC0000101846F856F00013CEC11F018BEF28E9D
:102AD000010165C101F0000173EF15F0010162070A
:102AE000636B0001D5D701C064F10101645108088E
:102AF00004E1635301E0630713D064511F0810E23F
:102B000064517E080DE36251635D0AE26351632BF9
:102B1000036A6025E96E61510320EA6E64C1EFFF2C
:102B200064510D08DEE1036A63516025E96E61516D
:102B30000320EA6EEF6A000174EF1CF069C16DF1C9
:102B400068C16CF16DC103F001016CC1E9FF6DC199
:102B5000EAFFEF5230E06BC16FF16AC16EF16FC1F5
:102B600003F06EC1E9FF6FC1EAFFEF520AE168515D
:102B70006C5D006E69516D59036E00C001F023D089
:102B800010D06CC1E9FF6DC1EAFFEFCF70F16FC1EA
:102B900003F06EC1E9FF6FC1EAFFEF50705D01E124
:102BA00004D06E2BD8B46F2BDAD76C2BD8B46D2B26
:102BB0000001C8D7010168516C5D006E69516D5903
:102BC000036E00C001F000013BEF16F069C16DF12A
:102BD00068C16CF16DC103F001016CC1E9FF6DC109
:102BE000EAFFEF522AE06BC16FF16AC16EF16FC16B
:102BF00003F06EC1E9FF6FC1EAFFEF5218E06CC14C
:102C0000E9FF6DC1EAFFEFCF70F16FC103F06EC154
:102C1000E9FF6FC1EAFFEF50705D05E16CC101F0A3
:102C20006DC102F00DD06E2BD8B46F2BE0D76C2B9A
:102C3000D8B46D2B0001CED70101000E016E026EDB
:102C400000015CEF16F001016051611104E061C107
:102C500003F0605103D01AC003F01950646F03C031
:102C600065F165C169F164C168F163C16BF162C16D
:102C70006AF1000163D7015001016427000E65234A
:102C800065C103F064C1E9FF65C1EAFFEF520AE1E3
:102C900019C0E9FF1AC0EAFF200EEF6E000E016EA8
:102CA000026E27D065C169F164C168F163C16BF13F
:102CB00062C16AF100018AD702C067F101C066F102
:102CC00067C103F0010166C1E9FF67C1EAFFEF5286
:102CD00008E066C1E9FF67C1EAFFEF6A662BD8B476
:102CE000672B67C11AF066C119F064C101F065C1B4
:102CF00002F00001000C010160C1E9FF61C1EAFFBF
:102D0000EFCF64F163C103F062C1E9FF63C1EAFF81
:102D1000EF50645D15E161C103F060C1E9FF03C0DC
:102D2000EAFFEF5203E1000E016E1FD061C103F014
:102D30006051602BD8B4612B622BD8B4632BDCD7E5
:102D400061C103F060C1E9FF61C1EAFFEFCF64F147
:102D500063C103F062C1E9FF63C1EAFFEF50645D44
:102D600002E2FF0E01D0010E016E0001000C006AAC
:102D7000016A01016751D89068B100260032013222
:102D800068B300260032013268B5002600320132F5
:102D900068B700260032013268B9002600320132DD
:102DA00068BB00260032013268BD002600320132C5
:102DB00068BF00260032013200014DEF17F001011B
:102DC000656B636B0A0E646F626B6051611103E1A6
:102DD000000E016EC3D06551652B036A6025E96E54
:102DE00061510320EA6EEFCF66F166512D080DE1C7
:102DF000010E636F6551652B036A6025E96E6151B1
:102E00000320EA6EEFCF66F10DD066512B080AE180
:102E10006551652B036A6025E96E61510320EA6EF6
:102E2000EFCF66F166512F08D8B090D066513908BF
:102E3000D8A08CD06651300821E1036A6551602525
:102E4000E96E61510320EA6EEF5078080AE0036AE8
:102E500065516025E96E61510320EA6EEF50580814
:102E60000DE1100E646F652B6551652B036A6025BB
:102E7000E96E61510320EA6EEFCF66F164510A08F2
:102E80001DE166512F0819E26651390816E30A0E52
:102E9000676F62C168F100016AD7300E0101665D9B
:102EA0000124626F6551652B036A6025E96E6151EB
:102EB0000320EA6EEFCF66F1E4D748D064511008E2
:102EC00045E16651600806E266517A0803E36651FF
:102ED000DF0B01D06651666F66512F0803E2665121
:102EE000390806E26651400831E2665146082EE391
:102EF00066512F080CE26651390809E36239676FA1
:102F0000F00E6717300E665D6725626F09D0623973
:102F1000676FF00E6717410E665D0A0F6725626FD7
:102F20006551652B036A6025E96E61510320EA6EE5
:102F3000EFCF66F16651600806E266517A0803E356
:102F40006651DF0B01D06651666FC6D7632D04D082
:102F500064510A0801E1626D62C101F00001000CD8
:102F600001016051060801E211D02D517F0B03E1F0
:102F7000000181850101010E006E6051016E04E0C7
:102F8000D8900036012EFCD700502D1300017EEFA3
:102F90001EF001016051060801E212D0010E006E20
:102FA0006051016E04E0D8900036012EFCD700502D
:102FB000FF0A2D172D517F0B03E1000181950101BF
:102FC00000017EEF1EF001016F51D8B471D0006E88
:102FD0007351D8B46DD0002604E3810E002668E258
:102FE00004D07F0E005E64E363E070C177F174513A
:102FF000771B708F748F72517603F4CF79F1715112
:103000007503F4CF03F0F3CF78F17603F35079270B
:10301000F4507823000E032272517503F350792780
:10302000F4507823000E026A0322022270517603C4
:10303000F3507827F4500322000E022270517503DA
:10304000F3500326F4500222000E016A012272514D
:103050007403F3507827F4500322000E0222012259
:1030600071517403F3500326F4500222000E012222
:1030700070517403F3500226F4500122002A01BE5D
:1030800005D078370336023601360006000E78AFD9
:103090000AD0032A02220122015005E1025003E175
:1030A000035001E1002A77BF018E77AF019E04D063
:1030B000006A016A026A036A0001000C8E0E006E4B
:1030C00074C101F073C102F0036A015209E102C048
:1030D00001F0026A080E005E015202E1006A08D0A7
:1030E000D89001BE04D0023601360006F9D7019E01
:1030F000000C01017351D8B4A5D07F6F7751D8B4BB
:10310000A1D07F5F05E37F0E7F27D8B09BD006D08C
:10311000810E7F5FD8A096D0D8B494D07FC100F044
:10312000016A026A036A7E6B74C17DF17D8F75C18D
:103130007CF176C17BF1190E7F6F7A517B5F0DE2D6
:10314000010E7C5F0AE27D5F08E27E5F06E27E2B75
:103150007D2B7C2B7A517B2728D079517C5F12E222
:10316000010E7D5F0FE27E5F0DE27E2B7D2B79519C
:103170007C277A517B2719E37C2B17E17D2B15E106
:103180007E2B13D0785180097D5F0EE2010E7E5FA9
:103190000BE27E2B785180097D2779517C27E9E36A
:1031A0007D2BE7E17E2BE5D703807F2F01D00BD06D
:1031B000D8907B377C377D377E37D8900336023600
:1031C00001368037BAD780A106D0D89001320232BA
:1031D0000332803302D0000635E080BF1ED0D89085
:1031E0007B377C377D377E377A517B5F07E2010E74
:1031F0007C5F04E27D5F02E27E5F1AE379517C5FCF
:1032000005E2010E7D5F02E27E5F12E378518009E4
:103210007D5F03E2010E7E5F0BE3032A09E1022AD0
:1032200007E1012A05E1002A0DE0013202320332F2
:1032300074C17FF178517F1B7FAF02D0018E06D021
:10324000019E04D0006A016A026A036A0001000C50
:10325000800ED8A202D00101781B01017D6B7E6B2C
:1032600074C17CF178517C1B7351D8B4DFD07B6F73
:10327000006E7751D8B4E3D07B5FD8B483D03EE3FF
:1032800078C181F1818F79C180F17AC17FF17E6B44
:10329000D890813380337F337E337B2FF8D77CAF58
:1032A00003D07D81E0D07D917B917D89010EEA6E16
:1032B000760EE96EEBD07D997CBF0AD07BA113D04E
:1032C000813380337F337E33002AD8B4C7D00BD00C
:1032D00081BF0CD0D8907E377F378037813700068A
:1032E000D8B4BCD0F5D77D8D6DD07D9D74C17CF1F7
:1032F00074AF02D0818FABD0819FA9D077C17BF111
:1033000077C100F073517B5F74C181F1818F75C10A
:1033100080F176C17FF17E6BD890813380337F332B
:103320007E337B2FF8D77CAF03D07D839CD07D93F9
:103330007B917D8B010EEA6E7A0EE96EA7D07D9BA4
:103340007CBF0AD07BA113D0813380337F337E339F
:10335000002AD8B483D00BD081BF0CD0D8907E3750
:103360007F37803781370006D8B478D0F5D77D8F86
:1033700029D07D9F78C17CF178AF02D0818F67D052
:10338000819F65D078C181F1818F79C180F17AC147
:103390007FF17CAF04D0819F7D8565D07D957E6B6C
:1033A0007B91010EEA6E760EE96E70D07CBF1CD068
:1033B00074C17CF17BA106D0813380337F337E33AF
:1033C000002A4CE07EAF0BD07F2B09E1802B07E178
:1033D000812B05E1813380337F33002A3FE07DBDBF
:1033E00084D77DBFC6D71CD0800E811B81AF04D08F
:1033F0003AD078C17CF10AD074C17CF1815306E1E6
:10340000805304E17F5302E1006A21D081BF08D0DC
:10341000D8907E377F3780378137002EF7D71ED080
:103420007CAF02D0818F13D0819F11D077C100F083
:1034300078C181F179C180F17AC17FF108D073C17F
:1034400000F074C181F175C180F176C17FF181C155
:1034500001F080C102F07FC103F034D0006A016A3C
:10346000026A036A2FD07E6B7F1F801F811F7E1F21
:103470007E2B05E17F2B03E1802B01E1812B7DB1C8
:1034800012D77DB354D77DB589D7B3D7EF507F27F7
:1034900005E3802B03E1812BD8B47B81ED52EF5003
:1034A000802703E3812BD8B47B81ED52EF50EFBE30
:1034B00001D0800A8127D8B07B817DB9FCD67DBB45
:1034C0003ED774D70001000C7F0E0101646F656B5D
:1034D000666B676B686B696B6A6B6B6B6C816C930B
:1034E0006C956E6B6051611105E1006A016A026AB8
:1034F000036A0FD16E516E2B036A6025E96E61512C
:103500000320EA6EEFCF6DF16D53D8B4C5D06CA136
:103510000FD06D5120080CE06C916D512B0803E128
:103520006C93ADD005D06D512D0802E16C83A7D00E
:103530006CB107D06D512E0804E16CB502D06C85DA
:103540009ED06CB199D06D512F08D8B095D06D51E7
:103550003908D8A091D0300E6D5F6CA553D067C1EB
:1035600072F166C171F165C170F164C16FF1766B82
:10357000756B200E746F820E736F000124DD03C023
:1035800067F102C066F101C065F100C064F101019C
:10359000746B6DC173F1000191DD00C06FF101C06A
:1035A00070F102C071F103C072F103C076F102C084
:1035B00075F101C074F100C073F167C17AF166C1A1
:1035C00079F165C178F164C177F193DDD8926BC16F
:1035D00076F16AC175F169C174F168C173F103C014
:1035E0007AF102C079F101C078F100C077F130DEE4
:1035F00003C06BF102C06AF101C069F100C068F15B
:1036000039D00101726B716B200E706F820E6F6F7B
:103610006BC176F16AC175F169C174F168C173F16A
:103620000001D1DC00C06FF101C070F102C071F186
:1036300003C072F10101746B6DC173F100013EDDD5
:10364000D89272C176F171C175F170C174F16FC118
:1036500073F103C07AF102C079F101C078F100C0C2
:1036600077F1F6DD03C06BF102C06AF101C069F1C8
:1036700000C068F105D001016CB101D00DD000018E
:1036800001016E516E2B036A6025E96E61510320C2
:10369000EA6EEFCF6DF138D76CA319D0726B716BF6
:1036A000800E706F7F0E6F6F6BC176F16AC175F11E
:1036B00069C174F168C173F1000185DC03C06BF16D
:1036C00002C06AF101C069F100C068F101016251F4
:1036D000631117E06E530CE06E0762C1E9FF63C12E
:1036E000EAFF6E516025EF6E000E6121EC6E09D08D
:1036F00062C1E9FF63C1EAFF61C1ECFFED5260C145
:10370000EFFF68C100F069C101F06AC102F06BC14E
:1037100003F00001CEEF1EF08E0E006E010160512D
:10372000005E61C102F062C101F0028E005209E048
:10373000D890025202E1015204E002320132002E1E
:10374000F7D761AF05D0011E021E012AD8B4022AA4
:10375000000109EF1FF001016891F2BE6881F29E3D
:10376000000182513F0802E23F0E826F8251822B9C
:10377000036A410FE96E000E0320EA6E67C1EFFF96
:10378000F29E010168B1F28E000181A108D0186A91
:10379000F2BE188EF29E01EC13F018BEF28EE2EF2C
:1037A0001BF082513F080BE281A108D0186AF2BEDB
:1037B000188EF29E01EC13F018BEF28EF2D766C19D
:1037C00067F1C9D7000C01016751016A665D03E228
:1037D00066C100F00CD0006A080E686F66370036CC
:1037E0006751005CD8B0006E0136682FF7D7000132
:1037F000000C200E010161A9300E626F60C100F063
:1038000060AF07D0001E002A00C060F12D0E626F6D
:10381000618F015060C166F1640E676F0001D3DFF4
:1038200000C060F1300E01240101636F60C166F1D8
:103830000A0E676F0001C7DF300E00240101656FBB
:10384000300E0124646F62C100F061A702D061AF45
:10385000619561B90BD061AF22D061B520D000C0B5
:1038600063F161B31CD000C064F119D0300E635D08
:1038700016E100C063F1200E626F61A704D061956C
:10388000618361AF6193300E645D09E100C064F152
:10389000200E636F61A7F7D7619361AF619161A556
:1038A00005D062C166F100017CDF010161A305D092
:1038B00063C166F1000175DF010161A104D064C13B
:1038C00066F100016EDF65C166F100016ADF000C80
:1038D00083A18CD3010E0101616F380E606F140E4D
:1038E000626F00016EEF15F0010E0101616F380E7D
:1038F000606F636B910E626F000123EC16F002C0E3
:103900004DF101C04CF14DC161F14CC160F10101BB
:10391000636B930E626F00017BEC16F00152D8A42A
:103920007ED00101616B606B636B910E626F000171
:1039300023EC16F002C04DF101C04CF14DC161F114
:103940004CC160F1DFEC16F001C04EF10101616B7A
:10395000606B636B910E626F000123EC16F002C086
:103960004DF101C04CF14DC161F14CC160F1DFEC92
:1039700016F001C04FF10101616B606B636B910E3A
:10398000626F000123EC16F002C04DF101C04CF152
:103990004DC161F14CC160F1DFEC16F001C050F196
:1039A0000101505315E1036A4F51880FE96E000E73
:1039B0000320EA6E010E006E4E51016E04E0D890B5
:1039C0000036012EFCD70050FF0AEF14EF6E13D023
:1039D000036A4F51880FE96E000E0320EA6E010E54
:1039E000006E4E51016E04E0D8900036012EFCD7D7
:1039F0000050EF10EF6E010E4F25606F036A4F51BC
:103A0000880FE96E000E0320EA6EEFCF61F160C10E
:103A100062F161C163F1000188EC14F0E7D24DC19D
:103A200061F14CC160F10101636B970E626F00019F
:103A30007BEC16F00152D8A4A1D00101616B606B40
:103A4000636B910E626F000123EC16F002C04DF122
:103A500001C04CF14DC161F14CC160F1DFEC16F0D9
:103A600001C051F10101616B606B636B910E626F7C
:103A7000000123EC16F002C04DF101C04CF14DC124
:103A800061F14CC160F1DFEC16F001C052F1902DF4
:103A900025D00101376B375107081EE3036A375100
:103AA000880FE96E000E0320EA6EEF6A010E3725DB
:103AB000606F036A3751880FE96E000E0320EA6ECB
:103AC000EFCF61F160C162F161C163F1000188EC87
:103AD00014F00101372BDFD70001906B0101376B28
:103AE000375107084AE3010E006E3751016E04E0BA
:103AF000D8900036012EFCD70050521514E0036A0E
:103B00003751880FE96E000E0320EA6E010E006E39
:103B10005151016E04E0D8900036012EFCD70050C0
:103B2000EF10EF6E14D0036A3751880FE96E000E64
:103B30000320EA6E010E006E5151016E04E0D89030
:103B40000036012EFCD70050FF0AEF14EF6E010E75
:103B50003725606F036A3751880FE96E000E032026
:103B6000EA6EEFCF61F160C162F161C163F1000102
:103B700088EC14F00101372BB3D739D24DC161F174
:103B80004CC160F10101636B9F0E626F00017BEC21
:103B900016F001526FE10101616B606B636B910E76
:103BA000626F000123EC16F002C04DF101C04CF130
:103BB0004DC161F14CC160F1DFEC16F001C053F171
:103BC0000101616B606B636B910E626F000123EC0E
:103BD00016F002C04DF101C04CF14DC161F14CC174
:103BE00060F1DFEC16F001C054F1902D25D00101F9
:103BF000376B375107081EE3036A3751880FE96EA8
:103C0000000E0320EA6EEF6A010E3725606F036A2B
:103C10003751880FE96E000E0320EA6EEFCF61F195
:103C200060C162F161C163F1000188EC14F001012F
:103C3000372BDFD70001906B036A01015351880FC6
:103C4000E96E000E0320EA6E54C1EFFF010E53250A
:103C5000606F036A5351880FE96E000E0320EA6E0D
:103C6000EFCF61F160C162F161C163F1000188ECE5
:103C700014F0BCD14DC161F14CC160F10101636B25
:103C8000A70E626F00017BEC16F0015238E10101D2
:103C9000616B606B636B910E626F000123EC16F039
:103CA00002C04DF101C04CF14DC161F14CC160F158
:103CB000DFEC16F001C055F10101616B606B636BC5
:103CC000910E626F000123EC16F002C04DF101C0AD
:103CD0004CF14DC161F14CC160F1DFEC16F001C057
:103CE00056F10101565305E055C160F10001B0EFF6
:103CF00017F055C160F10001C9EF17F077D14DC140
:103D000061F14CC160F10101636BB20E626F0001A1
:103D10007BEC16F00152D8A491D00101616B606B6D
:103D2000636B910E626F000123EC16F002C04DF13F
:103D300001C04CF14DC161F14CC160F1DFEC16F0F6
:103D400001C057F10101616B606B636B910E626F93
:103D5000000123EC16F002C04DF101C04CF14DC141
:103D600061F14CC160F1DFEC16F001C058F10101C6
:103D7000616B606B636B910E626F000123EC16F058
:103D800002C04DF101C04CF14DC161F14CC160F177
:103D90000101636B626B000164EF1AF003C05CF118
:103DA00002C05BF101C05AF100C059F10101572D69
:103DB00006D0000E0409CA6E58C1CBFF11D057516E
:103DC000040806E1000E0509CA6E58C1CBFF08D0F1
:103DD0005751100805E1000E0609CA6E58C1CBFF05
:103DE000726B716B706B890E6F6F5CC176F15BC12A
:103DF00075F15AC174F159C173F10001E3EC17F088
:103E000003C063F102C062F101C061F100C060F162
:103E100083D402C061F101C060F1010161336033FC
:103E200061336033613360C1BEFF61336131300B98
:103E3000006EBD50CF0B0010BD6ED9D04DC161F1E9
:103E40004CC160F10101636BB60E626F00017BEC47
:103E500016F0015229E10101616B606B636B910EF9
:103E6000626F000123EC16F002C04DF101C04CF16D
:103E70004DC161F14CC160F1DFEC16F001C035F1CC
:103E80000A0E0101626F35C163F1000188EC14F084
:103E9000010E0101616F350E606F010E626F636B81
:103EA000000100EC14F0A2D04DC161F14CC160F1F1
:103EB0000101636BC00E626F00017BEC16F00152D2
:103EC0001EE10101616B606B636B910E626F00011B
:103ED00023EC16F002C04DF101C04CF14DC161F16F
:103EE0004CC160F1DFEC16F001C05DF10F0E010175
:103EF000626F5DC163F1000188EC14F077D04DC1B1
:103F000061F14CC160F10101636BC50E626F00018C
:103F10007BEC16F001521EE10101616B606B636B7B
:103F2000910E626F000123EC16F002C04DF101C04A
:103F30004CF14DC161F14CC160F1DFEC16F001C0F4
:103F40005EF10C0E0101626F5EC163F1000188EC4D
:103F500014F04CD04DC161F14CC160F10101636BB3
:103F6000CE0E626F00017BEC16F001523FE10101C1
:103F7000616B606B636B910E626F000123EC16F056
:103F800002C04DF101C04CF14DC161F14CC160F175
:103F9000DFEC16F001C05FF10101606B60510001C0
:103FA00018EC0DF00101602B006E666F0001D1EC82
:103FB0001BF0070E0101605DF1E15FC160F11F0EB2
:103FC000616F000116DC200E0101666F0001D1EC6B
:103FD0001BF0010E0101606F1F0E616F000109DC13
:103FE0000D0E0101666F0001D1EC1BF00101000113
:103FF000DEEF25F001013C91036A3A51D50FE96EDD
:10400000000E0320EA6EEFCF3DF1036A3A51DD0F57
:10401000E96E000E0320EA6EEF503D1B010E006EAC
:104020003B51016E04E0D8900036012EFCD70050C1
:104030003D1531E0036A3A51D50FE96E000E0320B9
:10404000EA6EEFCF3DF1036A3A51E50FE96E000EDB
:104050000320EA6EEF503D1B010E006E3B51016ED6
:1040600004E0D8900036012EFCD700503D1513E037
:104070003A51080DF3503E6B3D6F036A3B513D25AD
:10408000016E3E5103220150ED0FE96E000E032038
:10409000EA6EEF6AA4D0036A3A51D50FE96E000EBA
:1040A0000320EA6EEFCF3DF1036A3A51DD0FE96E6E
:1040B000000E0320EA6EEF503D1B010E006E3B51D7
:1040C000016E04E0D8900036012EFCD700503D155B
:1040D000D8A485D0036A3A51D50FE96E000E0320AB
:1040E000EA6EEFCF3DF1036A3A51E50FE96E000E3B
:1040F0000320EA6EEF503D1B010E006E3B51016E36
:1041000004E0D8900036012EFCD700503D1567E042
:104110003A51080DF3503E6B3D6F036A3B513D250C
:10412000016E3E5103220150ED0FE96E000E032097
:10413000EA6EEF501F0853E33A51080DF3503E6BFF
:104140003D6F036A3B513D25016E3E5103220150F4
:10415000ED0FE96E000E0320EA6EEF2AEF50200803
:104160003EE1036A3A51D50FE96E000E0320EA6E74
:10417000EFCF3DF1010E006E3B51016E04E0D8908F
:104180000036012EFCD700503D1514E0036A3A5169
:10419000E50FE96E000E0320EA6E010E006E3B5142
:1041A000016E04E0D8900036012EFCD70050EF10CD
:1041B000EF6E14D0036A3A51E50FE96E000E03204A
:1041C000EA6E010E006E3B51016E04E0D89000369D
:1041D000012EFCD70050FF0AEF14EF6E3C81000E59
:1041E0003CB1010E016E000163EF21F08A9E939EA7
:1041F0000101376B37510708D8A0C3D08A8C939C34
:104200008A9C939C8A8E939E036A3751DD0F016EC0
:10421000000E032203C03BF1036A3751D50FE96E4C
:10422000000E0320EA6EEFCF3CF13BC1EAFF01C074
:10423000E9FF3CC1EFFF8B929492130E006E002EAB
:10424000FED700D08B829492386B38510708D8A0E3
:1042500096D0948C396B82BC392B395302E0000E16
:1042600001D0010E396F395314E0036A3751D50F6D
:10427000E96E000E0320EA6E010E006E3851016EE9
:1042800004E0D8900036012EFCD70050EF10EF6EFE
:1042900014D0036A3751D50FE96E000E0320EA6E81
:1042A000010E006E3851016E04E0D8900036012EE8
:1042B000FCD70050FF0AEF14EF6E37C13AF138C156
:1042C0003BF1000197D6015253E0036A01013751D7
:1042D000E50FE96E000E0320EA6EEFCF3AF1010E12
:1042E000006E3851016E04E0D8900036012EFCD7E4
:1042F00000503A1502E0010E01D0000E3A6F3B6B00
:104300003B5100012CEC0DF001013B2B006E666F60
:104310000001D1EC1BF0060E01013B5DF1E138C15B
:1043200060F11F0E616F0001F9EC1BF0200E01011E
:10433000666F0001D1EC1BF037C160F11F0E010167
:10434000616F0001F9EC1BF0200E0101666F0001A6
:10435000D1EC1BF03AC160F11F0E0101616F000149
:10436000F9EC1BF00D0E0101666F0001D1EC1BF0A2
:104370008B8094908B9094900101382B66D7372BCB
:1043800039D70001E0EF25F001013A9130513119A0
:104390003B6F010E006E3951016E04E0D89000367B
:1043A000012EFCD700503B1518E0305132193B6FFD
:1043B000010E006E3951016E04E0D8900036012ED6
:1043C000FCD700503B1509E0036A3951330FE96E01
:1043D000010E0320EA6EEF6A58D0305131193B6F5D
:1043E000010E006E3951016E04E0D8900036012EA6
:1043F000FCD700503B1549E1305132193B6F010E9B
:10440000006E3951016E04E0D8900036012EFCD7C1
:1044100000503B153AE0036A3951330FE96E010E43
:104420000320EA6EEF501F0830E3036A3951330F5F
:10443000E96E010E0320EA6EEF2AEF50200825E115
:10444000010E006E3951016E04E0D8900036012E45
:10445000FCD7005030150CE0010E006E3951016E92
:1044600004E0D8900036012EFCD7005032130CD057
:10447000010E006E3951016E04E0D8900036012E15
:10448000FCD70050FF0A32173A81000E3AB1010EF4
:10449000016E000185EF22F030C131F10101376B6F
:1044A00037510108D8A072D0375305E19388386B93
:1044B00081B8382B06D0372D04D09380386B81B06B
:1044C000382B385302E0000E01D0010E386F3853FC
:1044D0000CE0010E006E3751016E04E0D8900036FA
:1044E000012EFCD7005030130CD0010E006E375156
:1044F000016E04E0D8900036012EFCD70050FF0A70
:10450000301737C139F100013FD701523CE0010EAD
:10451000006E01013751016E04E0D8900036012E83
:10452000FCD70050321502E0010E01D0000E396FA9
:104530003A6B3A51000153EC0DF001013A2B006E39
:10454000666F0001D1EC1BF0060E01013A5DF1E14E
:1045500037C160F11F0E616F0001F9EC1BF0200EF6
:104560000101666F0001D1EC1BF039C160F11F0E33
:104570000101616F0001F9EC1BF00D0E0101666F86
:104580000001D1EC1BF00101372B8AD70001E1EFCC
:1045900025F001014951B608496F036A4AC14DF13E
:1045A0004A8FD8904A334B334C33033202320132B4
:1045B0000032492FF6D74DAF0BD0001E011E021E50
:1045C000031E002AD8B4012AD8B4022AD8B4032A78
:1045D000000157EF23F0006A016A026A036A0101D1
:1045E000516B526B536B546B50514F114E114D1117
:1045F0002CE0200E556FD89049374A374B374C374F
:1046000051375237533754375051545D08E14F51A9
:10461000535D05E14E51525D02E14D51515D0FE395
:104620004D51515F4E51D8A04E3D525F4F51D8A0D1
:104630004F3D535F5051D8A0503D545FD880003655
:10464000013602360336552FD6D7010EEA6E510ECB
:10465000E96E0001000CE9500101416F4051436FC8
:104660001CE03FC172F13EC171F13DC170F13CC12E
:104670006FF1766B756B200E746F820E736F000195
:10468000E3EC17F003C03FF102C03EF101C03DF181
:1046900000C03CF10101432FE4D73FC14CF13EC1C2
:1046A0004BF13DC14AF13CC149F1000172D703C051
:1046B0003FF102C03EF101C03DF100C03CF10101FB
:1046C0003FAF0DD04107418B3C1F3D1F3E1F3F1F99
:1046D0003C2BD8B43D2BD8B43E2BD8B43F2B3B0E4B
:1046E000486F9A0E476FCA0E466F456B0A0E436FAE
:1046F0004051D8B4412B3FC14CF13EC14BF13DC1BB
:104700004AF13CC149F148C150F147C14FF146C19E
:104710004EF145C14DF100015EDF0150EFCF3CF19C
:10472000ECCF3DF1ECCF3EF1ECCF3FF1005213E185
:1047300001014029435DD8A402D000010CD04151B1
:104740000DE00F0B435D01E044E241BF42D041BDAB
:1047500005D0200E37D0200E0101411741AB0FD0FC
:10476000419B4051D8A441070050416F2D0E666F08
:104770000001D1EC1BF001014151006E416B405131
:10478000435D0DE10050416F2E0E666F0001D1ECCC
:104790001BF001014151006E200E4117000E300E3A
:1047A00041AB10D0419B4051D8A441070050416F0C
:1047B0002D0E666F0001D1EC1BF001014151006E1E
:1047C000416B300E002600C066F10001D1EC1BF0F9
:1047D000010148C14CF147C14BF146C14AF145C105
:1047E00049F1506B4F6B4E6B0A0E4D6F0001F3DEBB
:1047F00003C048F102C047F101C046F100C045F1D5
:104800000101432F78D70001CBEF24F081A5D1D04F
:1048100001012E511808D8B0CBD0010E006E2F51D7
:10482000016E04E0D8900036012EFCD700502D1503
:104830003C6F010E006E2F51016E04E0D8900036DF
:10484000012EFCD700503C5DD8A4ACD0386B396B3E
:104850003A6B3B6B376B375107083FE3036A2F51C5
:10486000F2CF3CF1F29E000107EC0DF001013CBFDC
:10487000F28E3C6F3C35006E0036FC0E0016C250C6
:10488000C30B0010C26EC282C2B2FED7C4CF03F007
:10489000C3CF73F1C4CF74F100015EEC18F0D8926D
:1048A0003BC176F13AC175F139C174F138C173F188
:1048B00003C07AF102C079F101C078F100C077F14C
:1048C00028EC19F003C03BF102C03AF101C039F104
:1048D00000C038F10101372BBED73BC176F13AC198
:1048E00075F139C174F138C173F17A6B796B786BFA
:1048F000820E776F000179EC18F000C03CF101C026
:104900003DF102C03EF103C03FF103C076F102C0A9
:1049100075F101C074F100C073F101017A6B796B1C
:10492000786B890E776F000179EC18F003C03BF1CA
:1049300002C03AF101C039F100C038F101013C6B0D
:104940003C51000141EC0DF001013C2B006E666F03
:104950000001D1EC1BF0040E01013C5DF1E12FC11F
:1049600060F11F0E616F0001F9EC1BF0200E0101D8
:10497000666F0001D1EC1BF0890EE96E3BC13FF17F
:104980003AC13EF139C13DF138C13CF1020E01019D
:10499000406F000160D60D0E0101666F0001D1EC81
:1049A0001BF001012F2B2F51060801E22F6B2E6BFC
:1049B0002E2B0001E2EF25F0F86AD09E088EEA6AFD
:1049C000E96AC150C00B0F09C16E070EB46E196AB7
:1049D0001A6A266A286A040E296E160E2A6E2D6A35
:1049E000826B876B010E906F200E916F926B6C0E35
:1049F000936F650E946F640E956F966B6C0E976F48
:104A0000650E986F640E996F5F0E9A6F630E9B6FC1
:104A10006F0E9C6F6C0E9D6F9E6B9F6F650EA06FEF
:104A2000640EA16F5F0EA26F720EA36F6F0EA46F64
:104A3000770EA56FA66B610EA76F640EA86F630E4D
:104A4000A96F5F0EAA6F650EAB6F6E0EAC6F610E35
:104A5000AD6F620EAE6F6C0EAF6F650EB06FB16B67
:104A6000700EB26F770EB36F6D0EB46FB56B690ECB
:104A7000B66F6E0EB76F740EB86F650EB96F6E0EAF
:104A8000BA6F730EBB6F690EBC6F740EBD6F790E7B
:104A9000BE6FBF6B740EC06F650EC16F730EC26FB9
:104AA000740EC36FC46B730EC56F680EC66F750E40
:104AB000C76F740EC86F640EC96F6F0ECA6F770E22
:104AC000CB6F6E0ECC6FCD6B720ECE6F650ECF6F4F
:104AD000700ED06F6F0ED16F720ED26F740ED36FD7
:104AE000D46B01012D6B0001819501012E6B2F6BA1
:104AF000C150C00B0509C16EC090C082C084C08E79
:104B0000C280C69A949E93809392210EC66E400EE8
:104B1000C76ED190800ED56ECD6A000E0409CA6EA4
:104B2000FF0ECB6EB16A070EB46E9250926E270ED6
:104B3000006E002EFED700D0B450A19CB56A9494AC
:104B40008B940C0EBD6EBE6A010E386F350E376F3A
:104B5000010E396F3A6B0001E0EF13F0010135539C
:104B600003E100012BEF14F0000139EF14F08A8EFD
:104B7000939E0101366B365107080EE3036A3651E6
:104B8000880FE96E000E0320EA6EEF6A8A8C939C10
:104B90008A9C939C362BEFD7000173EF14F0ADEF96
:104BA00014F06FEC0DF041EF15F081B301D0FDD79B
:104BB00030EC15F0205206E068EF1CF0F6EF20F024
:084BC0006BD424D6F5D70300E5
:020000040030CA
:0E000000240E390E000580000FC00FE00F40E7
:00000001FF
;PIC18F2550
;CRC=D401  CREATED="14-9-09 11:36"
