:020000040000FA
:04180000EEEF24F0F3
:08180800056ED8CF06F0E0CF19
:1018100007F00001E9CF0DF0EACF08F0E1CF09F0C1
:10182000E2CF0AF0D9CF0BF0DACF0CF0F3CF14F0FF
:10183000F4CF15F0FACF16F000C00FF001C010F091
:1018400002C011F003C012F004C013F0A0AA2CEFE4
:101850000CF0A1BAABEF13F00FC000F010C001F014
:1018600011C002F012C003F013C004F00DC0E9FF74
:1018700008C0EAFF088E09C0E1FF0AC0E2FF0BC002
:10188000D9FF0CC0DAFF14C0F3FF15C0F4FF16C077
:10189000FAFF055007C0E0FF06C0D8FF1000F76A46
:1018A000AE0FF66E180EF7220900F5501200040371
:1018B0000100000000000000000000000000F76AC6
:1018C000CE0FF66E180EF7220900F5501200040034
:1018D0000100000000000000000000000000F76AA6
:1018E000EE0FF66E180EF7220900F55012004000B8
:1018F00008004000000000000000000000000000A0
:10190000000000000000000000000000000008AE21
:1019100003D0F2CF0EF0F29EF76A300FF66E190E7A
:10192000F7220900F55008AE02D00EBEF28E12006A
:101930004000000040000000000000000000000027
:101940000000000000000000000000000000000097
:10195000F76A600FF66E190EF7220900F5501200B3
:1019600009024300020100C0FA090400000102025A
:1019700001000524001001042402020524060001D0
:101980000524010001070581030800FA090401008C
:10199000020A000000070502024000FA0705820261
:1019A0004000FA00F76AB40FF66E190EF72209002C
:1019B000F55012000200F76AC60FF66E190EF722F4
:1019C0000900F55012001201100102000040D80475
:1019D000C5FF020001020001F76AE80FF66E190E5A
:1019E000F7220900F55012000403090412037400E1
:1019F0006B00720077006F0072006B0073001003C1
:101A00005000490043006E006F006D006500F2CF8A
:101A10000EF0F29EF76A280FF66E1A0EF7220900F2
:101A2000F5500EBEF28E12000001020304080900F8
:101A3000F2CF0EF0F29EF76A4A0FF66E1A0EF722F8
:101A40000900F5500EBEF28E12007265706F72744E
:101A50002025642025640000F2CF0EF0F29EF76A84
:101A6000720FF66E1A0EF7220900F5500EBEF28EB6
:101A7000120070726573732025642025642025642C
:101A80000D00F2CF0EF0F29EF76A9C0FF66E1A0E62
:101A9000F7220900F5500EBEF28E12006164632039
:101AA000256420256600F2CF0EF0F29EF76AC00F83
:101AB000F66E1A0EF7220900F5500EBEF28E1200D5
:101AC000696E707574202564202564006D92699498
:101AD0006894B6EF13F06A6A6892BFEF13F0336A46
:101AE000326A250E316E800E306E346A356A080E09
:101AF000366E866B8193386A376A826B83918181F7
:101B0000000C0101896B895101080AE3036A8951BC
:101B10002E0FE96E000E0320EA6EEF6A892BF3D7D1
:101B20000001DDDF206A010E216E1F6A000C010E2C
:101B30000101926F92510F080EE3700E9225016E13
:101B40000F0E036ED8B0032A01C0E9FF03C0EAFFFD
:101B5000EF6A922BEFD7246A236A0001000C400E33
:101B60000401016F050E036F026B880E006F046B9A
:101B7000050E076F400E066F0001000C6A6A686A66
:101B80009F0E6B6E390E696E6E6ABBDFD0DF160E6C
:101B9000706E68A602D06896FCD76D98E0DF030EE1
:101BA000266EC5EF13F0698468986D82CBEF13F051
:101BB000689CD1EF13F070A002D0D1DF7090689ACA
:101BC000D7EF13F08DC127F0000CFF0E276E000C2D
:101BD00001018B6B2D523DE08B513F083AE32250BF
:101BE000000105E0020A0FE0010A19E024D0036AAF
:101BF0002C50F2CF8DF1F29EABDE01018DBFF28E43
:101C00008C6F000118D0036A2C50F2CF8DF1F29E38
:101C1000E3DE01018DBFF28E8C6F00010CD0036AF0
:101C20002C50F2CF8DF1F29EC6DE01018DBFF28EF7
:101C30008C6F000100D02C2A2D0601018B518B2BBB
:101C4000036A400FE96E050E0320EA6E8CC1EFFFB8
:101C5000C1D72D5204E18B51400801E01F6A8BC1AE
:101C60008DF10001AFDF000C2C6A226A05010351DF
:101C7000010A000105E0030A08E0010A09E021D099
:101C8000120E2D6E030E226E1ED0430E2D6E1BD033
:101C9000020E226E036A05010251280FE96E000E42
:101CA0000320EA6EEFCF2CF0036A2C50F2CF8AF1BA
:101CB000F29E000191DE01018ABFF28E2D6E0001BD
:101CC00002D083DF0CD00501075305E12D50065DDE
:101CD00002E206C52DF0010E1F6E000179DFA2EFB2
:101CE0000FF001018A5306E1040E266E00011FDF8A
:101CF000CED00101050E266E8D6F800E8C6F010E09
:101D00008B6F8B510F08D8A0C2D08E6B036A8B519A
:101D1000F2CF92F1F29E0001D2DD010192BFF28E6C
:101D2000000A55E0040E8E6FD8908B35036AF2CF0F
:101D300092F1F29E0001EBDD0900F5CF03F0010105
:101D400092BFF28E8F6F03C090F18B51080DF3504C
:101D5000010F016E040E036ED8B0032A01C0E9FF23
:101D600003C0EAFF8FC1EFFF8B51080DF350020F44
:101D7000016E040E036ED8B0032A01C0E9FF03C050
:101D8000EAFF8DC1ECFFED528CC1EFFFD8908B358F
:101D9000036AF2CF92F1F29E0001B9DD0900F5CF9E
:101DA00003F0010192BFF28E8C2703508D23880E21
:101DB000916F90B1918190B391838B51080DF3CFC6
:101DC00001F0040E01C0E9FFEA6E91C1EFFF036A62
:101DD0008B51F2CF92F1F29E000161DD010192BFC1
:101DE000F28E000A33E08E838B51080DF350060FFC
:101DF000016E040E036ED8B0032A01C0E9FF03C0D0
:101E0000EAFF8DC1ECFFED528CC1EFFFD8908B350E
:101E1000036AF2CF92F1F29E000161DD0900F5CF75
:101E200003F0010192BFF28E8C2703508D238B515A
:101E3000080DF350040F016E040E036ED8B0032A90
:101E400001C0E9FF03C0EAFF400EEF6E8E510608A5
:101E500002E10E0E8E6F036A8B51F2CF92F1F29E69
:101E600000011DDD010192BFF28E020801E08E89A2
:101E7000700E8B25016E0F0E036ED8B0032A01C0C1
:101E8000E9FF03C0EAFF8EC1EFFF8B2B3AD70001B9
:101E90009AEF0FF00501015100010DE0010A15E074
:101EA000020A20E0060A2AE0030A31E00E0A30E0C6
:101EB000010A36E045D021C040F50501416B020E14
:101EC00001018D6F00017EDE3DD00501022D07D09E
:101ED000010E211601018D6B000174DE02D000019C
:101EE00074DE30D00501022D06D0218201018D6BF8
:101EF000000168DE02D0000168DE24D0020E1F6EF1
:101F000002C52BF001018D6B00015CDE1BD0ACD64D
:101F100020C040F5010E01018D6F000153DE12D08B
:101F20000501025101080AE302C520F002C58AF149
:101F30000001D7D601018D6B000144DE000102D003
:101F400044DE00D03AEF11F020C08AF105010151C2
:101F5000000105E00A0A0CE0010A31E045D0050164
:101F6000406B416B020E01018D6F00012BDE3ED0F4
:101F700001018A5321E0010E8A5D036AF2CF8BF1E1
:101F8000F29E00010FDD01018BBFF28E016E050193
:101F9000045DD8A002D001010FD0036A04512E0FB6
:101FA000E96E000E0320EA6EEFCF40F5010E01014D
:101FB0008D6F000107DE02D0000107DE17D001019E
:101FC0008A530FE0036A050104512E0FE96E000EDB
:101FD0000320EA6E02C5EFFF01018D6B0001F2DD07
:101FE00002D00001F2DD02D0F0DD00D03AEF11F0B6
:101FF00001018B918ABF8B818A9F8BA112D0036ACA
:102000008A51F2CF8CF1F29E000149DC01018CBFB4
:10201000F28E000A02E1000E01D0010E016E12D014
:1020200011D0036A8A51F2CF8CF1F29E000147DC95
:1020300001018CBFF28E000A02E1000E01D0010EF8
:10204000016E00D000019BEF10F001018B918ABF5F
:102050008B818A9F8BA110D08A51080DF350040FF9
:10206000016E040E036ED8B0032A01C0E9FF03C05D
:10207000EAFF880EEF6E09D08A51080DF3CF01F008
:10208000040E01C0E9FFEA6EEF6A0001AAEF10F04A
:1020900001018B918ABF8B818A9F8BA110D08A51BD
:1020A000080DF350040F016E040E036ED8B0032A1E
:1020B00001C0E9FF03C0EAFF840EEF6E0AD08A5127
:1020C000080DF3CF01F0040E01C0E9FFEA6E840EA3
:1020D000EF6E0001B2EF10F001018B918ABF8B818E
:1020E0008A9F8BA110D08A51080DF350040F016E06
:1020F000040E036ED8B0032A01C0E9FF03C0EAFF53
:10210000EFCF8CF10AD08A51080DF3CF01F0040E05
:1021100001C0E9FFEA6EEFCF8CF18CAF02D08CB535
:1021200002D0000E01D0010E016E0001BEEF10F0D2
:1021300004C58AF15DD701522EE005010151010A63
:10214000000105E0020A0BE0030A11E022D004C5F9
:102150008AF17BD701018D6B000134DD1CD004C5F1
:102160008AF196D701018D6B00012CDD14D0050199
:10217000406B416B04C58AF10001AED7015203E008
:10218000010E0501406F020E01018D6F00011ADD85
:1021900002D01BDD00D03AEF11F0FE0E276E000CCE
:1021A0000501042D01D002D004534EE1015100017C
:1021B0000BE0010A0DE0210A1CE0010A1FE0030AFE
:1021C00030E0010A35E03DD0010E876FE6DF3BD0FD
:1021D000050EEA6E400EE96EE26A390EE16E080EF7
:1021E000016EE6CFEEFF012EFCD706C58DF1EADCCD
:1021F0002AD0020E876F8183D0DF25D0050EEA6ECC
:10220000400EE96EE26A300EE16E070E016EE6CF17
:10221000EEFF012EFCD7070E01018D6F0001D2DC0D
:1022200012D002C586F001018D6B0001CBDC0BD012
:1022300002C538F003C537F001018D6B0001C2DC27
:1022400002D0C3DC00D0050100013AEF11F01F6A93
:10225000050100517F0B000107E0010A06E0030AB7
:1022600005E0230A04E004D015D66ED661D798D7CE
:10227000ACDC00D044EF13F001018A51080DF3CF1C
:1022800001F0040E01C0E9FFEA6EEFCF8CF18B5133
:10229000020806E18CAD02D08B6B02D0010E8B6F71
:1022A0008B51030812E1840E8C6F8A51080DF35094
:1022B000040F016E040E036ED8B0032A01C0E9FFBB
:1022C00003C0EAFF840EEF6E09D08B2D03D0C80E39
:1022D0008C6F04D08B5302E1880E8C6F036A010E61
:1022E000026E8A51006E05E0D89002360336002E49
:1022F000FBD70250FF0A006EFF0E031A0050231690
:1023000003502416D8908A35036AF2CF8FF1F29EDB
:10231000000187EC0CF00900F5CF03F001018FBF3D
:10232000F28E8D6F03C08EF18A51080DF350010FAC
:10233000016E040E036ED8B0032A01C0E9FF03C08A
:10234000EAFF8DC1EFFF8EB18C818EB38C838A51F1
:10235000080DF3CF01F0040E01C0E9FFEA6E8CC155
:10236000EFFF0001000C01019651080DF350040F1E
:10237000016E040E036ED8B0032A01C0E9FF03C04A
:10238000EAFFEFCF9AF19ABF5BD09651080DF35058
:10239000050F016E040E036ED8B0032A01C0E9FFD9
:1023A00003C0EAFF97C1EFFF9951020816E1965169
:1023B000080DF350040F016E040E036ED8B0032A0B
:1023C00001C0E9FF03C0EAFFEFCF9AF19AAD02D056
:1023D000996B02D0010E996F13D09951040810E146
:1023E0009651080DF3CF01F0040E01C0E9FFEA6E2B
:1023F000EFCF9AF19AAD03D0010E996F01D0996B8E
:10240000992D03D0C80E9A6F04D0995302E1880E1B
:102410009A6F98B19A8198B39A839651080DF350A8
:10242000040F016E040E036ED8B0032A01C0E9FF49
:1024300003C0EAFF9AC1EFFF010E016E03D000D086
:10244000000E016E0001000C8751010A03E0030A2F
:1024500014E026D0EA6A390EE96E050EE26EE16AF2
:10246000080E016EE6CFEEFF012EFCD701018D6B49
:102470000001E2EC0DF0876B17D0EA6A300EE96ECE
:10248000050EE26EE16A070E016EE6CFEEFF012E49
:10249000FCD7876B01018D6B0001E2EC0DF004D0DD
:1024A000876BAFEC0DF000D07CEF12F001018B5187
:1024B000080DF350010F016E040E036ED8B0032A0D
:1024C00001C0E9FF03C0EAFF036AEFCF01F003C0D8
:1024D00002F0000173EF12F08381856B020E01019F
:1024E0008B6F0001E3D701C084F083EF12F001018C
:1024F0008A5304E10001A8D717D001018A510208CC
:1025000004E10001E9D710D00101036A010E026E57
:102510008A51006E05E0D89002360336002EFBD7B4
:1025200002502312035024120001000C8BC16EFFD5
:1025300001018B5303E0040E266E02D0020E266EBC
:102540000001A8EF12F0206A1F6A2BC08BF1EED7B2
:1025500029EF13F001018B51080DF350040F016EA8
:10256000040E036ED8B0032A01C0E9FF03C0EAFFDE
:10257000EFCF93F193BF41D08B51080DF350060F6D
:10258000016E040E036ED8B0032A01C0E9FF03C038
:10259000EAFFECCF03F0ED52EFCF94F103C095F1D9
:1025A000926B916B92518F5D1AE303E18E51915DB5
:1025B00016E28CC1E9FF8DC1EAFFEFCF98F195C11A
:1025C000EAFF94C1E9FF98C1EFFF942BD8B4952B93
:1025D0008C2BD8B48D2B912BD8B4922BE3D78BC1F5
:1025E00096F18FC198F18EC197F190C199F10001D8
:1025F000BADE015004D000D00101000E016E0001CE
:10260000000C82530FE08191020E01018B6F8D6BE4
:10261000410E8C6F8F6B82C08EF1020E906F0001A5
:1026200099DF826B000C825302E0EBDF01D08181E5
:1026300030EF13F001018A530EE11F2C05D0000189
:10264000E8EC0DF006D001011F50020803E1000183
:102650007AD7010106D08A51020803E10001E3D7CD
:1026600001010001000C6C300101896F893389334D
:102670001F0E89176C5246E1040100513C0B3408CF
:1026800021E1046B0001E3D5273C07D001018A6BEF
:10269000030E8B6F0001F0DD12D001018A6B020E78
:1026A0008B6F0001E9DD2750FE0809E00101966B00
:1026B000986B27C097F1040E996F000154DE6D9856
:1026C0001ED0040100513C0B04081AE101018A6B81
:1026D00000010DDF01018A6B020E8B6F0001CCDD62
:1026E0002750FE080CE0273C01D009D00101966B71
:1026F000986B27C097F1010E996F000134DE040139
:1027000027D001016C50040816E1FF0E276E8A6B7A
:10271000000190DF273C01D00AD00101966B986B35
:1027200027C097F1020E996F00011DDE02D0AFECB9
:102730000DF00DD001016CB406D089C18AF1000101
:10274000D6DE05D0010189C18AF1000173DF0401E1
:102750000001DCEF13F0265201E12FD068522DE08A
:1027600068A404D069A402D066EF0DF06DA201D078
:1027700024D068A204D069A202D06BEF0DF068A04B
:1027800004D069A002D0BEEF0DF068A804D069A8FB
:1027900002D0D3EF0DF068AC04D069AC02D0D8EF12
:1027A0000DF068AA04D069AA02D0DBEF0DF068A68C
:1027B00004D069A602D057D76896A19A2CEF0CF0E6
:1027C00001015B6B59515B5D18E2036A5B51572550
:1027D000E96E58510320EA6E5B515A255E6FF2CFC5
:1027E0005FF1F29E5EC1A9FFA69CA69EA680A8509E
:1027F0005FBFF28EEF6E5B2BE5D70001C1EF25F0D6
:1028000001016A6B68516A5D24E26A5169256B6F48
:10281000036A6A516625E96E67510320EA6EEFCFBD
:102820006CF16BC1A9FF6CC1A8FFA69CA69EA684F3
:10283000F2CF00F0F29E0F01550EA76EAA0EA76E02
:10284000A682A6B2FED7A6940050F21201016A2B0E
:10285000D9D70001000C0F0E0101566F010E676FF2
:10286000560E666F010E686F696B0001C9DFC7EF16
:1028700025F0886B8851070836E3036A8851F60F04
:10288000E96E000E0320EA6EEF6A036A8851FE0FBC
:10289000E96E000E0320EA6EEF6A036A8851060FA4
:1028A000E96E010E0320EA6EEF6A896B8951070811
:1028B00018E38851080DF3500101586B576F036AF4
:1028C0000001895101015725016E58510322015021
:1028D0000E0FE96E010E0320EA6EEF6A0001892BEC
:1028E000E5D7882BC7D7CAEF25F00101516B526B92
:1028F000536B0001886B885101080AE3036A885111
:10290000540FE96E010E0320EA6EEF6A882BF3D7AD
:10291000E0EF25F08A9A939AC95068C1C9FFC73081
:10292000FEE3C95069C1C9FFC730FEE38A8A939AA2
:10293000000C010EEA6E570EE96EEF500EE00F0E1E
:10294000016E006A002EFED7012EFBD78F0E006E9F
:10295000002EFED70000EF2EF2D7EFEF14F00B0E93
:102960000101686F070E696F0001D4DF0A0E0101D3
:10297000686F56C169F10001CDDF010E886F885183
:10298000080807E388C068F188C069F1C3DF882BB5
:10299000F6D70C0E0101686F010E696F0001BADFF6
:1029A0000F0E0101686F696B0001B4DF886B8851FD
:1029B0003F0817E3400ED8808855006E00300101B3
:1029C000576F57333F0E57170A0E686F57C169F19B
:1029D0000001A0DF080E0101576F0001AAD7882B64
:1029E000E6D70A0E0101686F56C169F1000192DF56
:1029F000010E886F8851080808E388C068F101015A
:102A0000696B000187DF882BF5D7E2EF25F06D6A4F
:102A1000696A080E6F6E945030090101946E266A3F
:102A2000186AF2BE188EF29E000181EC0DF018BEFD
:102A3000F28E246A236A40EF15F0186AF2BE188EEF
:102A4000F29E81EC0DF018BEF28E6D6A140E6F6E60
:102A5000696A6D86010E266E31EF15F06DB601D0F4
:102A6000ECD7262C0BD06DBA09D0686A696AA08AA7
:102A7000C00EF212110E696E020E266E000CC7D740
:102A8000EDDF26500208FCE1E6EF25F083B101D02E
:102A9000FDD78551852B036A880FE96E050E03204B
:102AA000EA6EEFCF6BF1010100018451855D0EE309
:102AB0008391186AF2BE188EF29E020E01018A6F8F
:102AC0008B6F00013CEC11F018BEF28E01016BC15E
:102AD00001F0000171EF15F001016807696B000159
:102AE000D5D701C06AF101016A51080804E16953B0
:102AF00001E0690713D06A511F0810E26A517E088D
:102B00000DE36851695D0AE26951692B036A662524
:102B1000E96E67510320EA6E6AC1EFFF6A510D0842
:102B2000DEE1036A69516625E96E67510320EA6EAA
:102B3000EF6A000171EF1CF06FC173F16EC172F1A9
:102B400073C103F0010172C1E9FF73C1EAFFEF52E3
:102B500030E071C175F170C174F175C103F074C1D9
:102B6000E9FF75C1EAFFEF520AE16E51725D006E36
:102B70006F517359036E00C001F023D010D072C1A1
:102B8000E9FF73C1EAFFEFCF76F175C103F074C1BD
:102B9000E9FF75C1EAFFEF50765D01E104D0742BC7
:102BA000D8B4752BDAD7722BD8B4732B0001C8D7E1
:102BB00001016E51725D006E6F517359036E00C05A
:102BC00001F0000139EF16F06FC173F16EC172F1BF
:102BD00073C103F0010172C1E9FF73C1EAFFEF5253
:102BE0002AE071C175F170C174F175C103F074C14F
:102BF000E9FF75C1EAFFEF5218E072C1E9FF73C146
:102C0000EAFFEFCF76F175C103F074C1E9FF75C13A
:102C1000EAFFEF50765D05E172C101F073C102F089
:102C20000DD0742BD8B4752BE0D7722BD8B4732B7E
:102C30000001CED70101000E016E026E00015AEFB5
:102C400016F001016651671104E067C103F0665197
:102C500003D01AC003F019506A6F03C06BF16BC147
:102C60006FF16AC16EF169C171F168C170F1000163
:102C700063D7015001016A27000E6B236BC103F07B
:102C80006AC1E9FF6BC1EAFFEF520AE119C0E9FF2F
:102C90001AC0EAFF200EEF6E000E016E026E27D002
:102CA0006BC16FF16AC16EF169C171F168C170F1F8
:102CB00000018AD702C06DF101C06CF16DC103F053
:102CC00001016CC1E9FF6DC1EAFFEF5208E06CC180
:102CD000E9FF6DC1EAFFEF6A6C2BD8B46D2B6DC1B3
:102CE0001AF06CC119F06AC101F06BC102F0000169
:102CF000000C010166C1E9FF67C1EAFFEFCF6AF18D
:102D000069C103F068C1E9FF69C1EAFFEF506A5D7C
:102D100015E167C103F066C1E9FF03C0EAFFEF52A6
:102D200003E1000E016E1FD067C103F06651662BF0
:102D3000D8B4672B682BD8B4692BDCD767C103F0F4
:102D400066C1E9FF67C1EAFFEFCF6AF169C103F02D
:102D500068C1E9FF69C1EAFFEF506A5D02E2FF0E58
:102D600001D0010E016E0001000C006A016A010130
:102D70006D51D8906EB10026003201326EB300263C
:102D8000003201326EB50026003201326EB70026E5
:102D9000003201326EB90026003201326EBB0026CD
:102DA000003201326EBD0026003201326EBF0026B5
:102DB0000032013200014BEF17F001016B6B696BC0
:102DC0000A0E6A6F686B6651671103E1000E016EAF
:102DD000C3D06B516B2B036A6625E96E67510320E4
:102DE000EA6EEFCF6CF16C512D080DE1010E696FA9
:102DF0006B516B2B036A6625E96E67510320EA6EFF
:102E0000EFCF6CF10DD06C512B080AE16B516B2B9D
:102E1000036A6625E96E67510320EA6EEFCF6CF115
:102E20006C512F08D8B090D06C513908D8A08CD0F4
:102E30006C51300821E1036A6B516625E96E6751D8
:102E40000320EA6EEF5078080AE0036A6B516625AA
:102E5000E96E67510320EA6EEF5058080DE1100E3D
:102E60006A6F6B2B6B516B2B036A6625E96E67519A
:102E70000320EA6EEFCF6CF16A510A081DE16C5134
:102E80002F0819E26C51390816E30A0E6D6F68C1FC
:102E90006EF100016AD7300E01016C5D0124686F8C
:102EA0006B516B2B036A6625E96E67510320EA6E4E
:102EB000EFCF6CF1E4D748D06A51100845E16C516E
:102EC000600806E26C517A0803E36C51DF0B01D015
:102ED0006C516C6F6C512F0803E26C51390806E29B
:102EE0006C51400831E26C5146082EE36C512F08BA
:102EF0000CE26C51390809E368396D6FF00E6D17FB
:102F0000300E6C5D6D25686F09D068396D6FF00EFD
:102F10006D17410E6C5D0A0F6D25686F6B516B2B41
:102F2000036A6625E96E67510320EA6EEFCF6CF104
:102F30006C51600806E26C517A0803E36C51DF0BB8
:102F400001D06C516C6FC6D7692D04D06A510A0844
:102F500001E1686D68C101F00001000C01016651DA
:102F6000060801E211D04E517F0B03E10001818779
:102F70000101010E006E6651016E04E0D89000362A
:102F8000012EFCD700504E1300017BEF1EF0010113
:102F90006651060801E212D0010E006E6651016E04
:102FA00004E0D8900036012EFCD70050FF0A4E17DF
:102FB0004E517F0B03E100018197010100017BEF7E
:102FC0001EF001017551D8B471D0006E7951D8B49A
:102FD0006DD0002604E3810E002668E204D07F0E47
:102FE000005E64E363E076C17DF17A517D1B768FEC
:102FF0007A8F78517C03F4CF7FF177517B03F4CF44
:1030000003F0F3CF7EF17C03F3507F27F4507E234F
:10301000000E032278517B03F3507F27F4507E2368
:10302000000E026A0322022276517C03F3507E27AF
:10303000F4500322000E022276517B03F350032644
:10304000F4500222000E016A012278517A03F350F3
:103050007E27F4500322000E0222012277517A03C8
:10306000F3500326F4500222000E012276517A0317
:10307000F3500226F4500122002A01BE05D07E370B
:103080000336023601360006000E7EAF0AD0032A50
:1030900002220122015005E1025003E1035001E147
:1030A000002A7DBF018E7DAF019E04D0006A016AB7
:1030B000026A036A0001000C8E0E006E7AC101F0F4
:1030C00079C102F0036A015209E102C001F0026A0B
:1030D000080E005E015202E1006A08D0D89001BEDD
:1030E00004D0023601360006F9D7019E000C01011A
:1030F0007951D8B4A5D0856F7D51D8B4A1D0855F62
:1031000005E37F0E8527D8B09BD006D0810E855F62
:10311000D8A096D0D8B494D085C100F0016A026AD4
:10312000036A846B7AC183F1838F7BC182F17CC196
:1031300081F1190E856F8051815F0DE2010E825F72
:103140000AE2835F08E2845F06E2842B832B822BF2
:103150008051812728D07F51825F12E2010E835F68
:103160000FE2845F0DE2842B832B7F5182278051F5
:10317000812719E3822B17E1832B15E1842B13D0D0
:103180007E518009835F0EE2010E845F0BE2842B87
:103190007E51800983277F518227E9E3832BE7E172
:1031A000842BE5D70380852F01D00BD0D8908137B1
:1031B000823783378437D890033602360136863714
:1031C000BAD786A106D0D8900132023203328633B4
:1031D00002D0000635E086BF1ED0D89081378237F6
:1031E000833784378051815F07E2010E825F04E2FA
:1031F000835F02E2845F1AE37F51825F05E2010E82
:10320000835F02E2845F12E37E518009835F03E201
:10321000010E845F0BE3032A09E1022A07E1012A78
:1032200005E1002A0DE00132023203327AC185F154
:103230007E51851B85AF02D0018E06D0019E04D041
:10324000006A016A026A036A0001000C800ED8A2BB
:1032500002D001017E1B0101836B846B7AC182F174
:103260007E51821B7951D8B4DFD0816F006E7D51C1
:10327000D8B4E3D0815FD8B483D03EE37EC187F178
:10328000878F7FC186F180C185F1846BD8908733A9
:10329000863385338433812FF8D782AF03D083817F
:1032A000E0D0839181918389010EEA6E7C0EE96EF4
:1032B000EBD0839982BF0AD081A113D087338633A4
:1032C00085338433002AD8B4C7D00BD087BF0CD045
:1032D000D89084378537863787370006D8B4BCD076
:1032E000F5D7838D6DD0839D7AC182F17AAF02D0FC
:1032F000878FABD0879FA9D07DC181F17DC100F0C0
:103300007951815F7AC187F1878F7BC186F17CC15A
:1033100085F1846BD8908733863385338433812F4E
:10332000F8D782AF03D083839CD083938191838B22
:10333000010EEA6E800EE96EA7D0839B82BF0AD091
:1033400081A113D08733863385338433002AD8B4E0
:1033500083D00BD087BF0CD0D89084378537863781
:1033600087370006D8B478D0F5D7838F29D0839FCC
:103370007EC182F17EAF02D0878F67D0879F65D0F4
:103380007EC187F1878F7FC186F180C185F182AFD1
:1033900004D0879F838565D08395846B8191010ECE
:1033A000EA6E7C0EE96E70D082BF1CD07AC182F1C9
:1033B00081A106D08733863385338433002A4CE0DD
:1033C00084AF0BD0852B09E1862B07E1872B05E124
:1033D000873386338533002A3FE083BD84D783BF9C
:1033E000C6D71CD0800E871B87AF04D03AD07EC1D1
:1033F00082F10AD07AC182F1875306E1865304E153
:10340000855302E1006A21D087BF08D0D890843765
:10341000853786378737002EF7D71ED082AF02D088
:10342000878F13D0879F11D07DC100F07EC187F1B7
:103430007FC186F180C185F108D079C100F07AC1E1
:1034400087F17BC186F17CC185F187C101F086C11E
:1034500002F085C103F034D0006A016A026A036A8F
:103460002FD0846B851F861F871F841F842B05E147
:10347000852B03E1862B01E1872B83B112D783B320
:1034800054D783B589D7B3D7EF50852705E3862B6B
:1034900003E1872BD8B48181ED52EF50862703E3F7
:1034A000872BD8B48181ED52EF50EFBE01D0800A56
:1034B0008727D8B0818183B9FCD683BB3ED774D728
:1034C0000001000C7F0E01016A6F6B6B6C6B6D6B02
:1034D0006E6B6F6B706B716B728172937295746BA4
:1034E0006651671105E1006A016A026A036A0FD139
:1034F0007451742B036A6625E96E67510320EA6EE6
:10350000EFCF73F17353D8B4C5D072A10FD07351FC
:1035100020080CE0729173512B0803E17293ADD037
:1035200005D073512D0802E17283A7D072B107D084
:1035300073512E0804E172B502D072859ED072B12B
:1035400099D073512F08D8B095D073513908D8A0AD
:1035500091D0300E735F72A553D06DC178F16CC1FC
:1035600077F16BC176F16AC175F17C6B7B6B200ED4
:103570007A6F820E796F000124DD03C06DF102C005
:103580006CF101C06BF100C06AF101017A6B73C18B
:1035900079F1000191DD00C075F101C076F102C042
:1035A00077F103C078F103C07CF102C07BF101C068
:1035B0007AF100C079F16DC180F16CC17FF16BC10E
:1035C0007EF16AC17DF193DDD89271C17CF170C149
:1035D0007BF16FC17AF16EC179F103C080F102C055
:1035E0007FF101C07EF100C07DF130DE03C071F1DA
:1035F00002C070F101C06FF100C06EF139D001015D
:10360000786B776B200E766F820E756F71C17CF1CF
:1036100070C17BF16FC17AF16EC179F10001D1DC2B
:1036200000C075F101C076F102C077F103C078F1F6
:1036300001017A6B73C179F100013EDDD89278C146
:103640007CF177C17BF176C17AF175C179F103C064
:1036500080F102C07FF101C07EF100C07DF1F6DD96
:1036600003C071F102C070F101C06FF100C06EF1D2
:1036700005D0010172B101D00DD0000101017451DA
:10368000742B036A6625E96E67510320EA6EEFCF5B
:1036900073F138D772A319D0786B776B800E766F81
:1036A0007F0E756F71C17CF170C17BF16FC17AF1D2
:1036B0006EC179F1000185DC03C071F102C070F1C7
:1036C00001C06FF100C06EF101016851691117E08E
:1036D00074530CE0740768C1E9FF69C1EAFF7451D3
:1036E0006625EF6E000E6721EC6E09D068C1E9FF18
:1036F00069C1EAFF67C1ECFFED5266C1EFFF6EC121
:1037000000F06FC101F070C102F071C103F000015F
:10371000CBEF1EF08E0E006E01016651005E67C198
:1037200002F068C101F0028E005209E0D890025206
:1037300002E1015204E002320132002EF7D767AFF6
:1037400005D0011E021E012AD8B4022A000106EF8C
:103750001FF001016E91F2BE6E81F29E0001825156
:103760003F0802E23F0E826F8251822B036A410FB3
:10377000E96E000E0320EA6E6DC1EFFFF29E0101BB
:103780006EB1F28E000181A108D0186AF2BE188EC7
:10379000F29E01EC13F018BEF28EE0EF1BF08251A6
:1037A0003F080BE281A108D0186AF2BE188EF29E83
:1037B00001EC13F018BEF28EF2D76CC16DF1C9D7CF
:1037C000000C01016D51016A6C5D03E26CC100F0F7
:1037D0000CD0006A080E6E6F6C3700366D51005CBD
:1037E000D8B0006E01366E2FF7D70001000C200E06
:1037F000010167A9300E686F66C100F066AF07D09F
:10380000001E002A00C066F12D0E686F678F015000
:1038100066C16CF1640E6D6F0001D3DF00C066F10C
:10382000300E01240101696F66C16CF10A0E6D6FE3
:103830000001C7DF300E002401016B6F300E012440
:103840006A6F68C100F067A702D067AF679567B974
:103850000BD067AF22D067B520D000C069F167B345
:103860001CD000C06AF119D0300E695D16E100C0AD
:1038700069F1200E686F67A704D06795678367AF0B
:103880006793300E6A5D09E100C06AF1200E696F2E
:1038900067A7F7D7679367AF679167A505D068C13A
:1038A0006CF100017CDF010167A305D069C16CF1F7
:1038B000000175DF010167A104D06AC16CF100014C
:1038C0006EDF6BC16CF100016ADF000C83A18BD34A
:1038D0000101676B9D0E666F140E686F00016CEF3F
:1038E00015F00101676B9D0E666F696BB10E686F15
:1038F000000121EC16F002C08CF001C08BF08CC0EE
:1039000067F18BC066F10101696BB30E686F00014E
:1039100079EC16F00152D8A47ED00101676B666B7A
:10392000696BB10E686F000121EC16F002C08CF0DB
:1039300001C08BF08CC067F18BC066F1DDEC16F036
:1039400001C08DF00101676B666B696BB10E686F2A
:10395000000121EC16F002C08CF001C08BF08CC08D
:1039600067F18BC066F1DDEC16F001C08EF001014D
:10397000676B666B696BB10E686F000121EC16F026
:1039800002C08CF001C08BF08CC067F18BC066F177
:10399000DDEC16F001C08FF08F5314E0036A8E51F6
:1039A000940FE96E000E0320EA6E010E006E8D5139
:1039B000016E04E0D8900036012EFCD70050EF10C5
:1039C000EF6E14D0036A8E51940FE96E000E03203F
:1039D000EA6E010E006E8D51016E04E0D890003643
:1039E000012EFCD70050FF0AEF14EF6E010E8E255A
:1039F0000101666F036A00018E51940FE96E000E9B
:103A00000320EA6EEFCF67F166C168F167C169F123
:103A10008AEC14F0E8D28CC067F18BC066F101012A
:103A2000696BB70E686F000179EC16F00152D8A4EB
:103A3000A4D00101676B666B696BB10E686F000102
:103A400021EC16F002C08CF001C08BF08CC067F145
:103A50008BC066F1DDEC16F001C057F10101676B18
:103A6000666B696BB10E686F000121EC16F002C045
:103A70008CF001C08BF08CC067F18BC066F1DDEC7F
:103A800016F001C058F19C2D23D0886B885107088F
:103A90001EE3036A8851940FE96E000E0320EA6E5C
:103AA000EF6A010E88250101666F036A00018851E3
:103AB000940FE96E000E0320EA6EEFCF67F166C146
:103AC00068F167C169F18AEC14F0882BDFD79C6B31
:103AD000886B8851070850E3010E006E8851016E13
:103AE00004E0D8900036012EFCD700500101581593
:103AF00016E0036A00018851940FE96E000E03205E
:103B0000EA6E010E006E01015751016E04E0D8907B
:103B10000036012EFCD70050EF10EF6E16D0036A6E
:103B200000018851940FE96E000E0320EA6E010E29
:103B3000006E01015751016E04E0D8900036012E4D
:103B4000FCD70050FF0AEF14EF6E010E000188252C
:103B50000101666F036A00018851940FE96E000E3F
:103B60000320EA6EEFCF67F166C168F167C169F1C2
:103B70008AEC14F0882BADD736D28CC067F18BC09D
:103B800066F10101696BBF0E686F000179EC16F0F8
:103B900001526DE10101676B666B696BB10E686F75
:103BA000000121EC16F002C08CF001C08BF08CC03B
:103BB00067F18BC066F1DDEC16F001C059F101012F
:103BC000676B666B696BB10E686F000121EC16F0D4
:103BD00002C08CF001C08BF08CC067F18BC066F125
:103BE000DDEC16F001C05AF19C2D23D0886B885172
:103BF00007081EE3036A8851940FE96E000E032044
:103C0000EA6EEF6A010E88250101666F036A000102
:103C10008851940FE96E000E0320EA6EEFCF67F132
:103C200066C168F167C169F18AEC14F0882BDFD7AF
:103C30009C6B036A01015951940FE96E000E032039
:103C4000EA6E5AC1EFFF010E5925666F036A59519A
:103C5000940FE96E000E0320EA6EEFCF67F166C1A4
:103C600068F167C169F100018AEC14F0BCD18CC025
:103C700067F18BC066F10101696BC70E686F0001C7
:103C800079EC16F0015238E10101676B666B696BE4
:103C9000B10E686F000121EC16F002C08CF001C07B
:103CA0008BF08CC067F18BC066F1DDEC16F001C0C3
:103CB0005BF10101676B666B696BB10E686F0001A8
:103CC00021EC16F002C08CF001C08BF08CC067F1C3
:103CD0008BC066F1DDEC16F001C05CF101015C53B4
:103CE00005E05BC166F10001AEEF17F05BC166F164
:103CF0000001C7EF17F077D18CC067F18BC066F178
:103D00000101696BD20E686F000179EC16F0015267
:103D1000D8A491D00101676B666B696BB10E686FB7
:103D2000000121EC16F002C08CF001C08BF08CC0B9
:103D300067F18BC066F1DDEC16F001C05DF10101A9
:103D4000676B666B696BB10E686F000121EC16F052
:103D500002C08CF001C08BF08CC067F18BC066F1A3
:103D6000DDEC16F001C05EF10101676B666B696BFB
:103D7000B10E686F000121EC16F002C08CF001C09A
:103D80008BF08CC067F18BC066F10101696B686BC9
:103D9000000162EF1AF003C062F102C061F101C0DC
:103DA00060F100C05FF101015D2D06D0000E040935
:103DB000CA6E5EC1CBFF11D05D51040806E1000E52
:103DC0000509CA6E5EC1CBFF08D05D51100805E140
:103DD000000E0609CA6E5EC1CBFF786B776B766BFF
:103DE000890E756F62C17CF161C17BF160C17AF1AE
:103DF0005FC179F10001E1EC17F003C069F102C085
:103E000068F101C067F100C066F184D402C067F1B7
:103E100001C066F101016733663367336633673388
:103E200066C1BEFF67336731300B006EBD50CF0BEC
:103E30000010BD6ED9D08CC067F18BC066F1010156
:103E4000696BD60E686F000179EC16F0015229E11A
:103E50000101676B666B696BB10E686F000121EC45
:103E600016F002C08CF001C08BF08CC067F18BC0E3
:103E700066F1DDEC16F001C056F10A0E0101686F23
:103E800056C169F100018AEC14F0010E0101676F5F
:103E9000560E666F010E686F696B000100EC14F03E
:103EA000A2D08CC067F18BC066F10101696BE00E96
:103EB000686F000179EC16F001521EE10101676B99
:103EC000666B696BB10E686F000121EC16F002C0E1
:103ED0008CF001C08BF08CC067F18BC066F1DDEC1B
:103EE00016F001C063F10F0E0101686F63C169F143
:103EF00000018AEC14F077D08CC067F18BC066F1BA
:103F00000101696BE50E686F000179EC16F0015252
:103F10001EE10101676B666B696BB10E686F000192
:103F200021EC16F002C08CF001C08BF08CC067F160
:103F30008BC066F1DDEC16F001C064F10C0E0101DE
:103F4000686F64C169F100018AEC14F04CD08CC038
:103F500067F18BC066F10101696BEE0E686F0001BD
:103F600079EC16F001523FE10101676B666B696BFA
:103F7000B10E686F000121EC16F002C08CF001C098
:103F80008BF08CC067F18BC066F1DDEC16F001C0E0
:103F900065F10101666B6651000118EC0DF001013D
:103FA000662B006E6C6F0001CFEC1BF0070E010159
:103FB000665DF1E165C166F11F0E676F000117DCF8
:103FC000200E01016C6F0001CFEC1BF0010E01010E
:103FD000666F1F0E676F00010ADC0D0E01016C6F2A
:103FE0000001CFEC1BF001010001EDEF25F0819500
:103FF000036A01015751F60FE96E000E0320EA6EC5
:10400000EFCF59F1036A5751FE0FE96E000E0320FE
:10401000EA6EEF50591B010E006E5851016E04E01C
:10402000D8900036012EFCD70050591531E0036AB4
:104030005751F60FE96E000E0320EA6EEFCF59F1EB
:10404000036A5751060FE96E010E0320EA6EEF5026
:10405000591B010E006E5851016E04E0D8900036D5
:10406000012EFCD70050591513E05751080DF3509D
:104070005A6B596F036A58515925016E5A510322E0
:1040800001500E0FE96E010E0320EA6EEF6AA6D012
:10409000036A5751F60FE96E000E0320EA6EEFCF68
:1040A00059F1036A5751FE0FE96E000E0320EA6EC4
:1040B000EF50591B010E006E5851016E04E0D8906C
:1040C0000036012EFCD700505915D8A487D0036ABA
:1040D0005751F60FE96E000E0320EA6EEFCF59F14B
:1040E000036A5751060FE96E010E0320EA6EEF5086
:1040F000591B010E006E5851016E04E0D890003635
:10410000012EFCD70050591569E05751080DF350A6
:104110005A6B596F036A58515925016E5A5103223F
:1041200001500E0FE96E010E0320EA6EEF500508F4
:1041300055E35751080DF3505A6B596F036A5851A4
:104140005925016E5A51032201500E0FE96E010EDE
:104150000320EA6EEF2AEF50060840E1036A575148
:10416000F60FE96E000E0320EA6EEFCF59F1010E53
:10417000006E5851016E04E0D8900036012EFCD735
:104180000050591514E0036A5751060FE96E010EED
:104190000320EA6E010E006E5851016E04E0D890C3
:1041A0000036012EFCD70050EF10EF6E14D0036ADA
:1041B0005751060FE96E010E0320EA6E010E006EE4
:1041C0005851016E04E0D8900036012EFCD7005003
:1041D000FF0AEF14EF6E000181850101000E00015E
:1041E00081B5010E016E6AEF21F0F55302E18A9E5E
:1041F000939EF5C088F0040EF525885DD8B0CDD02B
:104200008A8C939C8A9C939C8A8E939E036A885185
:10421000FE0F016E000E0322010103C058F1036A74
:1042200000018851F60FE96E000E0320EA6EEFCF11
:1042300059F1010158C1EAFF01C0E9FF59C1EFFF7F
:104240008B929492130E006E002EFED700D08B82BC
:1042500094920001896B89510708D8A09CD0948C56
:1042600082AC1ED0036A8851F60FE96E000E03205F
:10427000EA6E036A010E026E8951006E05E0D89065
:1042800002360336002EFBD70250006A0006001AE1
:10429000FF0E031A0050EF14006E0050EF6E15D0A1
:1042A000036A8851F60FE96E000E0320EA6E036A76
:1042B000010E026E8951006E05E0D8900236033679
:1042C000002EFBD70250EF10EF6E88C057F189C067
:1042D00058F18DD6015259E0036A8851060FE96EF4
:1042E000010E0320EA6EEFCF57F1036A010E026E52
:1042F0008951006E05E0D89002360336002EFBD7B8
:10430000025001015715006E036A0050031002E0CD
:10431000010E01D0000E576F586B585100012CEC64
:104320000DF00101582B006E6C6F0001CFEC1BF0FB
:10433000060E0101585DF1E189C066F11F0E676F3D
:104340000001F7EC1BF0200E01016C6F0001CFECB7
:104350001BF088C066F11F0E0101676F0001F7ECCA
:104360001BF0200E01016C6F0001CFEC1BF057C158
:1043700066F11F0E0101676F0001F7EC1BF00D0ED7
:1043800001016C6F0001CFEC1BF08B8094908B903F
:104390009490892B60D7882B2ED7F55303E1040E18
:1043A000F56F04D0F551040801E1F56BEFEF25F04E
:1043B0008195010151515219586F010E006E5751EC
:1043C000016E04E0D8900036012EFCD7005058153D
:1043D00018E051515319586F010E006E5751016E7C
:1043E00004E0D8900036012EFCD70050581509E0A3
:1043F000036A5751540FE96E010E0320EA6EEF6A0B
:104400005AD051515219586F010E006E5751016E1A
:1044100004E0D8900036012EFCD7005058154BE12F
:1044200051515319586F010E006E5751016E04E03F
:10443000D8900036012EFCD7005058153CE0036A96
:104440005751540FE96E010E0320EA6EEF501F081A
:1044500032E3036A5751540FE96E010E0320EA6EEE
:10446000EF2AEF50200827E1010E006E5751016E30
:1044700004E0D8900036012EFCD7005051150CE016
:10448000010E006E5751016E04E0D8900036012EE7
:10449000FCD7005053130CD0010E006E5751016E23
:1044A00004E0D8900036012EFCD70050FF0A5317C5
:1044B000000181850101000E000181B5010E016E30
:1044C00097EF22F051C152F1896B89510108D8A0B0
:1044D0006ED0895305E193888A6B81B88A2B06D008
:1044E000892D04D093808A6B81B08A2B8A530EE188
:1044F000010E006E8951016E04E0D8900036012E45
:10450000FCD70050010151130ED00001010E006EC6
:104510008951016E04E0D8900036012EFCD700507E
:10452000FF0A0101511789C057F1000141D701521B
:104530003CE0010E006E8951016E04E0D890003617
:10454000012EFCD700500101531502E0010E01D0ED
:10455000000E576F586B5851000153EC0DF00101DC
:10456000582B006E6C6F0001CFEC1BF0060E0101A2
:10457000585DF1E189C066F11F0E676F0001F7EC2D
:104580001BF0200E01016C6F0001CFEC1BF057C136
:1045900066F11F0E0101676F0001F7EC1BF00D0EB5
:1045A00001016C6F0001CFEC1BF0892B8ED7F0EF6F
:1045B00025F001016451B608646F036A65C168F1B2
:1045C000658FD89065336633673303320232013228
:1045D0000032642FF6D768AF0BD0001E011E021EFA
:1045E000031E002AD8B4012AD8B4022AD8B4032A58
:1045F000000167EF23F0006A016A026A036A0101A1
:104600006C6B6D6B6E6B6F6B6B516A11691168111E
:104610002CE0200E706FD8906437653766376737A7
:104620006C376D376E376F376B516F5D08E16A51CC
:104630006E5D05E169516D5D02E168516C5D0FE3EE
:1046400068516C5F6951D8A0693D6D5F6A51D8A00F
:104650006A3D6E5F6B51D8A06B3D6F5FD8800036AE
:10466000013602360336702FD6D7010EEA6E6C0E75
:10467000E96E0001000CE95001015C6F5B515E6F57
:104680001CE05AC178F159C177F158C176F157C190
:1046900075F17C6B7B6B200E7A6F820E796F000157
:1046A000E1EC17F003C05AF102C059F101C058F112
:1046B00000C057F101015E2FE4D75AC167F159C11B
:1046C00066F158C165F157C164F1000172D703C0AA
:1046D0005AF102C059F101C058F100C057F101016F
:1046E0005AAF0DD05C075C8B571F581F591F5A1FBC
:1046F000572BD8B4582BD8B4592BD8B45A2B3B0EBF
:10470000636F9A0E626FCA0E616F606B0A0E5E6F06
:104710005B51D8B45C2B5AC167F159C166F158C1DD
:1047200065F157C164F163C16BF162C16AF161C1A6
:1047300069F160C168F100015EDF0150EFCF57F110
:10474000ECCF58F1ECCF59F1ECCF5AF1005213E114
:1047500001015B295E5DD8A402D000010CD05C5140
:104760000DE00F0B5E5D01E044E25CBF42D05CBD3A
:1047700005D0200E37D0200E01015C175CAB0FD0A6
:104780005C9B5B51D8A45C0700505C6F2D0E6C6F76
:104790000001CFEC1BF001015C51006E5C6B5B51C2
:1047A0005E5D0DE100505C6F2E0E6C6F0001CFEC72
:1047B0001BF001015C51006E200E5C17000E300EE4
:1047C0005CAB10D05C9B5B51D8A45C0700505C6F65
:1047D0002D0E6C6F0001CFEC1BF001015C51006EDF
:1047E0005C6B300E002600C06CF10001CFEC1BF0BA
:1047F000010163C167F162C166F161C165F160C128
:1048000064F16B6B6A6B696B0A0E686F0001F3DE13
:1048100003C063F102C062F101C061F100C060F148
:1048200001015E2F78D70001DDEF24F081A7D3D0FE
:1048300001014F511808D8B0CDD0010E006E505173
:10484000016E04E0D8900036012EFCD700504E15C2
:10485000576F010E006E5051016E04E0D890003683
:10486000012EFCD70050575DD8A4AED00001936B49
:10487000926B916B906B886B885107083FE3036ADA
:1048800001015051F2CF57F1F29E000107EC0DF0FB
:10489000010157BFF28E576F5735006E0036FC0E80
:1048A0000016C250C30B0010C26EC282C2B2FED745
:1048B000C4CF03F0C3CF79F1C4CF7AF100015CEC2F
:1048C00018F0D89293C07CF192C07BF191C07AF13C
:1048D00090C079F103C080F102C07FF101C07EF188
:1048E00000C07DF126EC19F003C093F002C092F0F5
:1048F00001C091F000C090F0882BBED793C07CF12E
:1049000092C07BF191C07AF190C079F10101806B86
:104910007F6B7E6B820E7D6F000177EC18F000C01C
:1049200057F101C058F102C059F103C05AF103C058
:104930007CF102C07BF101C07AF100C079F1010184
:10494000806B7F6B7E6B890E7D6F000177EC18F0BA
:1049500003C093F002C092F001C091F000C090F04B
:104960000101576B5751000141EC0DF00101572B2C
:10497000006E6C6F0001CFEC1BF0040E0101575D5F
:10498000F1E150C166F11F0E676F0001F7EC1BF0FB
:10499000200E01016C6F0001CFEC1BF0890EE96E57
:1049A00093C05AF192C059F191C058F190C057F19B
:1049B000020E01015B6F00015ED60D0E01016C6FEE
:1049C0000001CFEC1BF00101502B5051060801E211
:1049D000506B4F6B4F2B0001F1EF25F0F86AD09E22
:1049E000088EEA6AE96AC150C00B0F09C16E070E52
:1049F000B46E196A1A6A266A286A040E296E160E9F
:104A00002A6E2D6A826B876B010E9C6F200EB16F30
:104A1000B26B6C0EB36F650EB46F640EB56FB66B90
:104A20006C0EB76F650EB86F640EB96F5F0EBA6F1C
:104A3000630EBB6F6F0EBC6F6C0EBD6FBE6BBF6F36
:104A4000650EC06F640EC16F5F0EC26F720EC36FD2
:104A50006F0EC46F770EC56FC66B610EC76F640EA5
:104A6000C86F630EC96F5F0ECA6F650ECB6F6E0E97
:104A7000CC6F610ECD6F620ECE6F6C0ECF6F650E78
:104A8000D06FD16B700ED26F770ED36F6D0ED46F67
:104A9000D56B690ED66F6E0ED76F740ED86F650E1C
:104AA000D96F6E0EDA6F730EDB6F690EDC6F740EEA
:104AB000DD6F790EDE6FDF6B740EE06F650EE16FF8
:104AC000730EE26F740EE36FE46B730EE56F680EA6
:104AD000E66F750EE76F740EE86F640EE96F6F0E88
:104AE000EA6F770EEB6F6E0EEC6FED6B720EEE6F82
:104AF000650EEF6F700EF06F6F0EF16F720EF26F4A
:104B0000740EF36FF46BF56B01014E6B000181972E
:104B100001014F6B506BC150C00B0509C16EC090B5
:104B2000C082C084C08EC280C69A949E93809392A5
:104B3000210EC66E400EC76ED190800ED56ECD6A26
:104B4000000E0409CA6EFF0ECB6EB16A070EB46E7A
:104B50009250926E270E006E002EFED700D0B450F9
:104B6000A19CB56A94948B940C0EBD6EBE6A010E26
:104B7000586F560E576F010E596F5A6B0001E0EFD8
:104B800013F00101565303E100012BEF14F0000173
:104B900039EF14F08A8E939E886B885107080EE3D4
:104BA000036A8851940FE96E000E0320EA6EEF6AE3
:104BB0008A8C939C8A9C939C882BEFD775EF14F07A
:104BC000AFEF14F06FEC0DF03FEF15F081B301D0B3
:104BD000FDD72EEC15F066EF1CF0F5EF20F072D447
:064BE00025D6F7D7030003
:020000040030CA
:0E000000240E390E000580000FC00FE00F40E7
:00000001FF
;PIC18F2550
;CRC=74F7  CREATED="14-12-09 14:04"
