:020000040000fa
:08000000c4260400000000000a
:020000040000fa
:10280000c42604000000000020470400000000006f
:1028100020470400000000002047040000000000e2
:1028200020470400000000002047040000000000d2
:1028300020470400000000002047040000000000c2
:1028400020470400000000002047040000000000b2
:1028500020470400000000002047040000000000a2
:102860002047040000000000204704000000000092
:102870002047040000000000204704000000000082
:102880002047040000000000204704000000000072
:10289000d0400400000000002047040000000000b9
:1028a0002047040000000000204704000000000052
:1028b0002047040000000000204704000000000042
:1028c0002047040000000000204704000000000032
:1028d0002047040000000000204704000000000022
:1028e0002047040000000000204704000000000012
:1028f0002047040000000000204704000000000002
:1029000020470400000000002047040000000000f1
:1029100020470400000000002047040000000000e1
:1029200020470400000000002047040000000000d1
:1029300020470400000000002047040000000000c1
:1029400020470400000000002047040000000000b1
:1029500020470400000000002047040000000000a1
:102960002047040000000000204704000000000091
:10297000982a040000000000204704000000000026
:020000040000fa
:102980000000000000000000000000000000000047
:102990000000000000000000000000000000000037
:1029a0000000000000000000000000000000000027
:1029b0000000000000000000000000000000000017
:104d8000ffffff00ffffff002fb12000007f220088
:104d900000018800000000000c000700606924008a
:104da0000100200011000700000020000000e000ca
:104db0000200320000000200000000005e37020026
:104dc000000000000040da000000fe004440a9009e
:104dd000400820000000e000030032000000200036
:104de000a00188004440a80000000600910188004e
:104df000800078000000eb0015003700e2804000e2
:104e000032a0b4009101ba00e280400032a0b400a8
:104e10009102ba00e280400032a0b4000002eb0030
:104e2000472bde00f507b200602ce10004003a00d9
:104e30000059eb008301e900fdff3e00040037004c
:104e40006128e100010032000082eb00040007004d
:104e50001101ba000200e000e8ff3a00000006007d
:104e60003159ba008301e9000c0032002159ba001f
:104e70008301e900080032000400e00003003a006a
:104e8000e280400032a0b400f5ff370011d9ba002b
:104e90008301e900faff3a008100e800e180400068
:104ea00032a0b40000000600889fbe000004be00cf
:104eb000104e80000000e000010032000000010000
:104ec0000800e00001003a00084e80000800be0023
:104ed000a5000700000444001804e00004003a00a4
:104ee000409c2000004e88000004eb0007003700c3
:104ef0000800be00ae000700000044001004e000ff
:104f0000010032000058eb00004e880008007800d5
:104f10004f04be0000000600ec874700889fbe00db
:104f20008a9fbe008c9fbe008e1f7800f0b79f0046
:104f300081bf9f00820478000004780001003700e0
:104f40000804e800184778000e00fb00aa000700dc
:104f50000000e000faff3a00d0c2b300804f5700d3
:104f60000500320000c0e900804f57000200320007
:104f700000477800010037000804e8000900e0005d
:104f800045003500e18f540043003200400220000c
:104f9000808f540040003c000900e0000e00340007
:104fa000f08f54001a003a0000c3b300984f10006d
:104fb00016003a009840900080c7b30080cf5000a0
:104fc0000300320080c5b30080cf50000f003a00cc
:104fd0000884e8000e003700a900200000c3b300d9
:104fe000984f10000a003a009840900080c7b30024
:104ff00080cf5000040032008900200080c5b3003b
:1050000080cf500002003a000884e8000901200027
:105010000805780000c3b300010037000a05e80066
:105020009a4f1000fdff32008a0578006066b800d4
:105030000e003700d0ae200000425200c4ef9f00a7
:105040006149b9000c00be008a0007004fea9700d2
:105050000401fb00cf91de008b05e800ccb79f0078
:10506000ddb79f0000064100818649001b00fb0060
:10507000690007008000780009017800d0ae2000a8
:105080006c000700000278000000e000e9ff3a0031
:105090008b0f540006003a000fb897000000e000a4
:1050a00029003200ffb09700010878002600370081
:1050b0008a80550080ac200060c07c000000fb00ae
:1050c00000805000160033004240a9000f003c0051
:1050d0004fe997000200fb00cf80de000000560081
:1050e00081805e00800f5600818f5e0007003900ce
:1050f0006149b900650007004fb19700dfb1970023
:10510000820f5000838f58000500320020022000db
:10511000f04d88000086eb008086eb00050037002c
:10512000d0c2b300804f570002003a00600616005c
:10513000e0861e008fb997000300e00003003200f4
:105140008b097800010037006066b8000c00be00d3
:105150004f0778004f06be004f05be004f04be004b
:10516000cf00b10000000600000278000b003700fd
:1051700001017800924178000304e00002003a0047
:10518000040050000000060083cf520002003200ed
:105190000201e800f7ff37000000e80090427800c5
:1051a0000504e000f2ff3a00040050000000060091
:1051b000000278000700370083cf52000a00320057
:1051c0000201e800924178000304e000faff3a008f
:1051d0000000e800904278000504e000040032007e
:1051e00001017800f7ff37000400500000000600be
:1051f00004005000000006006900e10004003500d2
:105200006d00e100030034000002b1000100320033
:105210000000050010000500800078001104b100b6
:10522000030035009101b10001003c000050a000d6
:10523000000006008001eb00040037008301e80055
:1052400090cf1000040032000000e800828f51006f
:10525000faff3a000000eb0000000600e04d80007d
:105260000000e0000100320000000100e09b20008f
:1052700000000600020ab900001bb9000200b800d5
:105280008100420081004300000006006022b80057
:10529000060220000000d0008180d2000482d200eb
:1052a0008582d2000000a0000202520083825a00d0
:1052b000030031000202420083824a000000a10084
:0c52c0000603e900f3ff3a0000000600be
:020000040000fa
:020000040001f9
:0457f00010ff0000a6
:020000040000fa
:020000040001f9
:0457f400c0fc0000f5
:020000040000fa
:020000040001f9
:0457f800ae4b0000b4
:020000040000fa
:020000040001f9
:0457fc00603d00000c
:020000040000fa
:10000800204700002047000020470000204700004c
:10001800204700002047000020470000204700003c
:10002800204700002047000020470000204700002c
:10003800204700002047000020470000204700001c
:10004800204700002047000020470000204700000c
:1000580020470000d0400000204700002047000053
:1000680020470000204700002047000020470000ec
:1000780020470000204700002047000020470000dc
:1000880020470000204700002047000020470000cc
:1000980020470000204700002047000020470000bc
:1000a80020470000204700002047000020470000ac
:1000b800204700002047000020470000204700009c
:1000c800204700002047000020470000204700008c
:1000d800204700002047000020470000204700007c
:1000e800204700002047000020470000204700006c
:1000f800204700002047000020470000204700005c
:10010800204700002047000020470000204700004b
:10011800204700002047000020470000204700003b
:10012800204700002047000020470000204700002b
:10013800204700002047000020470000204700001b
:10014800204700002047000020470000204700000b
:1001580020470000204700002047000020470000fb
:1001680020470000204700002047000020470000eb
:100178002047000020470000982a00002047000080
:1001880020470000204700002047000020470000cb
:1001980020470000204700002047000020470000bb
:1001a80020470000204700002047000020470000ab
:1001b800204700002047000020470000204700009b
:1001c800204700002047000020470000204700008b
:1001d800204700002047000020470000204700007b
:1001e800204700002047000020470000204700006b
:0801f800204700002047000031
:020000040000fa
:10020800204700002047000020470000204700004a
:10021800204700002047000020470000204700003a
:10022800204700002047000020470000204700002a
:10023800204700002047000020470000204700001a
:10024800204700002047000020470000204700000a
:1002580020470000d0400000204700002047000051
:1002680020470000204700002047000020470000ea
:1002780020470000204700002047000020470000da
:1002880020470000204700002047000020470000ca
:1002980020470000204700002047000020470000ba
:1002a80020470000204700002047000020470000aa
:1002b800204700002047000020470000204700009a
:1002c800204700002047000020470000204700008a
:1002d800204700002047000020470000204700007a
:1002e800204700002047000020470000204700006a
:1002f800204700002047000020470000204700005a
:100308002047000020470000204700002047000049
:100318002047000020470000204700002047000039
:100328002047000020470000204700002047000029
:100338002047000020470000204700002047000019
:100348002047000020470000204700002047000009
:1003580020470000204700002047000020470000f9
:1003680020470000204700002047000020470000e9
:100378002047000020470000982a0000204700007e
:1003880020470000204700002047000020470000c9
:1003980020470000204700002047000020470000b9
:1003a80020470000204700002047000020470000a9
:1003b8002047000020470000204700002047000099
:1003c8002047000020470000204700002047000089
:1003d8002047000020470000204700002047000079
:1003e8002047000020470000204700002047000069
:0803f80020470000204700002f
:020000040000fa
:1052cc0012010000000200000200000000080000b3
:1052dc00d8040000c5ff000000010000010200001e
:1052ec000001000009020000430000000201000060
:1052fc0000c00000fa0900000400000000010000da
:10530c000202000001000000052400000010000053
:10531c000104000024020000020500002406000025
:10532c00000100000524000001000000010700003e
:10533c0005820000030800000002000009040000c0
:10534c0001000000020a000000000000000700003d
:10535c0005030000024000000000000007050000eb
:10536c008302000040000000000000000403000065
:10537c000904000012030000740000006b00000020
:10538c0072000000770000006f0000007200000047
:10539c006b000000730000001003000050000000c0
:1053ac0049000000430000006e0000006f00000088
:1053bc006d0000006500000078a90000bca9000089
:0853cc00c0a90000d2a90000f5
:020000040000fa
:1053d4000200fa009ec0a900f00f2000702488008b
:1053e400f00f200050248800200020003025880081
:1053f4000000eb00402588008644a900f009200045
:1054040080248800f0092000602488008804a80013
:1054140000a020004800de00c02488009424a800d6
:105424000000eb00b02488006000b800602588000c
:10543400712588000000eb00802588009424a900d1
:105444000040eb00004f7800070037001e80fb008f
:10545400c200dd0000a02000008140006000b80010
:105464000089be001e4fe800f0c0b3009e4f10003c
:10547400f6ff3600d00020005025880002003700d7
:1054840080002000502488008ac4bf006840600067
:105494000004e000faff3a000040eb0040e9b700e6
:1054a4000040eb004be9b7004cc9bf00604060000e
:1054b4004ce9b7004dc9bf00604060004de9b7003a
:1054c40094a4a9000040eb00004f78000b003700c3
:1054d4001e80fb0002952000800040000000eb00cd
:1054e400803079001e80fb00e2952000800040009f
:1054f4000000eb00803079001e4fe80030c0b3009c
:105504009e4f1000f2ff360081a02000009520007d
:10551400010878000040eb0048e9b7000000eb0008
:10552400304a88000080fa00000006003600f800c7
:10553400809fbe00829fbe00849fbe00869fbe00e7
:105544003400f80000002000a00188000200fa00e6
:10555400304a8000e10f50000a003a0094c4bf00b2
:105564000044b2000004e00006003a00f00f2000fe
:10557400502488008c04a8008c84a80020002000fb
:10558400304a880080c4bf00704060000004e0001e
:105594000700320082c4bf00704060000004e000d5
:1055a400030032000001200000248800a30007004b
:1055b40088c4bf00624060000004e00002003200c2
:1055c4008ec0a900730037008ac4bf006140600028
:1055d4000004e000180032008cc4bf006140600089
:1055e4000004e0001400320079ff07009ec0a80008
:1055f40040002000304a8800a09720001050880006
:1056040080c0b30000eab70011a0200091407800e8
:1056140030c0b30000c0600001eab70011a0200050
:1056240091407800c0c8b30000c0700001eab70020
:1056340010002000502488008ac4bf00704060001d
:105644000004e000070032008cc4bf00704060001a
:105654000004e000030032006e0007000001200097
:10566400502488008ac4bf00644060000004e00045
:105674000a0032008cc4bf00644060000004e000f3
:1056840006003200120020008000eb0030072000ea
:10569400b20b070040002000502488008ac4bf00d9
:1056a40001c8b300014060000004e00006003200bd
:1056b4008cc4bf0001c8b300014060000004e000d6
:1056c400010032003b0007008ac4bf006240600052
:1056d4000004e0000a0032008cc4bf006240600095
:1056e4000004e00006003200120020008000eb00fd
:1056f400f0ff2700990b0700f00f200070248800aa
:10570400304a8000e30f500002003e008ec0a90022
:10571400200037008cc4bf00684060000004e00033
:105724001b0032000040eb00004f780015003700ea
:105734008ac4bf00684060000004e0001400320026
:10574400902480006ae9b70080002000502488007b
:105754006ac9bf008080fb00000f20000080600049
:105764000000e00002003a003e0007000400370099
:10577400a19620000001eb0020072000770b070012
:105784001e4fe80030c0b3009e4f1000e8ff360003
:105794008ec0a9000080fa003400f9004f03be0057
:1057a4004f02be004f01be004f00be003600f9009c
:1057b400004006000000fa00aac4bf006240600076
:1057c4000004e0000f003200d04a800090409000b6
:1057d40000c8b30080cf500009003a0000952000b3
:1057e400100078009040900040c8b30080cf500073
:1057f40003003a00d14a8000c0c8b300904098002a
:10580400aa24a90000082000502488000080fa007f
:10581400000006000000fa008284a80000012000b5
:10582400502488000001eb008000eb0050072000aa
:105834004a0b07000080fa00000006000000fa008e
:105844000001eb008000eb0040072000430b070041
:105854008284a90000012000002488000080fa004e
:10586400000006000200fa006ac9bf008080fb0045
:10587400b0ff2f00008060000000e00035003a0017
:105884006ac9bf008080fb00c00f20000080600058
:105894004280de004200dd008000780000a020008d
:1058a40000804000d04a8800d04a8000e04a880046
:1058b400c1952000c0952000104078000024a2006b
:1058c40080487800d04a800010409000c2c3b300e2
:1058d4008240600040c3b30080cf50001b003a00f8
:1058e400d04a80009000900020982000808f5000c3
:1058f40014003a00d14a8000a0972000900098003c
:105904000040eb00004f78000b0037001e80fb00c6
:1059140080007800a0972000008140001e80fb00da
:10592400800078002098200000804000104078001b
:10593400004978001e4fe80070c0b3009e4f10006d
:10594400f2ff36000c000700090037002a000700a8
:10595400070037006ac9bf008080fb00b0ff2f003a
:1059640000806000e80f500001003a003a00070090
:105974000080fa00000006000000fa0000952000f4
:10598400100078009040900000c8b30000c0600090
:105994000004e0000400320000952000900078002c
:1059a4000040eb00904098000040eb0066e9b7002f
:1059b4000040eb0067e9b70041c9bf0060406000e8
:1059c40041e9b70042c9bf006040600042e9b70046
:1059d4000040eb0040e9b7007f0007000001eb0046
:1059e4008000eb0030002000dc0a070011020700f1
:1059f4000080fa00000006000000fa0067c9bf003a
:105a0400e24f500002003a001e0307001000370066
:105a14004b000700604b80000000e0000a003a00e1
:105a2400e14a800080c0b30080487800e14a8000e9
:105a3400a097200090009800e14a8000c0c8b300fd
:105a440090409800020037000000eb00604b880093
:105a54000080fa00000006000200fa000095200011
:105a640010007800104090000080fb004600de002b
:105a740061406000004f78000195200000952000ef
:105a8400104078000024a20080487800304a80004a
:105a9400e80f50000b003a007cc9bf000080fb00f7
:105aa400b0248800b02480000000e000030032002d
:105ab40000012000304a8800020037004000200026
:105ac400304a880067c9bf00e14f500019003a000e
:105ad4000095200090007800209820009000980005
:105ae4006402070066c9bf00e24f500005003a0097
:105af400009520009000780040c8b30090409800c2
:105b04000d0037001e04e00005003a000095200057
:105b14009000780080ccb3009040980006003700d5
:105b2400009520009000780080c8b3009040980051
:105b340001003700020007000080fa0000000600a0
:105b44000200fa000040eb0067e9b700009520006e
:105b5400900078000040eb009040980000952000f1
:105b6400100078000020a200000f78009e0078004a
:105b74000040eb0090409800b194200091407800e0
:105b840000c8b30000c060000004e0001000320050
:105b94004ec9bf008080fb004fc9bf000080fb00de
:105ba4004800dd00010070000000e0000700320042
:105bb4004ec9bf008080fb004fc9bf000080fb00be
:105bc4004800dd0001007000000001004be9a9005d
:105bd4000080fa00000006000400fa007ac9bf0041
:105be4000046b2000004e00058003a007bc9bf0040
:105bf4000080fb006101b900028fbe00b0002000ec
:105c0400010020001e01be00800f5100818f590049
:105c14004e003e001e00be0000600100240037005c
:105c240025003700490037002300370047003700bc
:105c34000600370009003700400037000b0037002a
:105c4400080037001e0037003300370040e9a80081
:105c540080002000304a88003c003700a200070082
:105c64003a0037000603070038003700829420000a
:105c7400f00f2000800061003ec9bf00604060005a
:105c8400014070003ee9b700c810de003fc9bf0004
:105c940060406000014070003fe9b7004009a8007f
:105ca40010c0b30041e9b70040e9a800270037005d
:105cb4000c010700250037002600070023003700e9
:105cc4007ec9bf000080fb00800078008095200022
:105cd4000080400000017800f00f20008000610087
:105ce4003ec9bf0060406000014070003ee9b7005b
:105cf400c810de003fc9bf00604060000140700072
:105d04003fe9b7004009a80010c0b30041e9b7005b
:105d140040e9a8000d00370040e9a8007ec9bf0093
:105d24008080fb00c29720001241780080952000fb
:105d34000080400002487800040037000001eb00b6
:105d44008000eb0020002000040a07000080fa0015
:105d5400000006000400fa007cc9bf00e14f5000b7
:105d64000d003a007ac9bf007f4060000004e000e3
:105d740009003a0040e9a8007bc9bf00e34f500086
:105d840003003a0010002000204a88000200370077
:105d94000000eb00204a88007cc9bf000004e0003a
:105da4004f003a007ac9bf007f406000e24f5000c4
:105db4004b003a007ec9bf006f4060000004e00061
:105dc4004700320040e9a8007ec9bf0001c8b30003
:105dd400014060000004e00008003a007ec9bf00f2
:105de4006f4060000080fb00e1952000000040004f
:105df4006080780010079800070037007ec9bf0054
:105e04006f4060000080fb0001952000000040000e
:105e140060807800100798007bc9bf00e34f5000f2
:105e240004003a009e00900040c8b30090409800df
:105e34002b0037007ec9bf006f4060000080fb006c
:105e44000000400080007800a04a2000008040004c
:105e5400000f78001e00780090407800d0cfb30087
:105e640080c060001e00780001487800e19720009f
:105e74009140780000c8b30000c060000004e00056
:105e84000c0032009e0090000040eb00904098000f
:105e94008e80e8000e80e800104078000024a20004
:105ea400804878009e00900000c4b30090409800a1
:105eb4000b0037009e00900080c8b300904098000b
:105ec4008e80e8000e80e800104078000024a200d4
:105ed400804878009e00900080ccb30090409800e9
:105ee4000080fa00000006000200fa00a1972000da
:105ef4009140780000c8b30080cf500077003a008a
:105f040000ccb30040e9b7007dc9bf000080fb00ae
:105f1400000f78001e007800e20f50001b003200d2
:105f24001e007800e30f50003e0032001e0078008f
:105f3400e10f5000010032006600370062962a002b
:105f4400f00f2000800061003ec9bf006040600087
:105f5400014070003ee9b700c810de003fc9bf0031
:105f640060406000014070003fe9b70041c9bf00d4
:105f7400604060002041b30041e9b70042c9bf005e
:105f84006040600042e9b700540037007cc9bf009c
:105f94000080fb000000400080007800209e2a0062
:105fa4000080400010017800f00f200080006100a4
:105fb4003ec9bf0060406000014070003ee9b70088
:105fc400c810de003fc9bf0060406000014070009f
:105fd4003fe9b7003ec9bf008080fb003fc9bf0056
:105fe4000080fb004800dd000100700062004000fa
:105ff40010017800f00f20008000610041c9bf004b
:10600400604060000140700041e9b700c810de0044
:1060140042c9bf00604060000140700042e9b7001f
:106024002e0037007cc9bf00e24f500026003e001e
:106034007cc9bf000080fb000000400080007800a5
:10604400409e2a000080400010017800f00f2000dc
:10605400800061003ec9bf006040600001407000e4
:106064003ee9b700c810de003fc9bf0060406000d1
:10607400014070003fe9b7003ec9bf008080fb00cb
:106084003fc9bf000080fb004800dd000100700034
:10609400104078000081fb00f00f200080006100b8
:1060a40041c9bf00604060000140700041e9b70091
:1060b400c810de0042c9bf006040600001407000ab
:1060c40042e9b700050037000040eb0040e9b700a3
:1060d400020037000040eb0040e9b7000080fa00fe
:1060e400000006000400fa000040eb0082e9b7005b
:1060f4000040eb0083e9b7007ac9bf007f4060002d
:106104000080fb00100798001e009000e10f500073
:10611400120032001e009000e20f50001100320005
:106124001e0090000000e000010032002b00370048
:1061340040e9a80082c9bf000004a00082e9b700ba
:10614400204a8000e10f500024003a0082c9bf00b9
:106154000014a00082e9b7002000370040e9a8003d
:106164001e00370040e9a8007ec9bf0001c8b30083
:10617400014060000004e00008003a007ec9bf004e
:106184006f4060000080fb00e195200000004000ab
:1061940060807800000f7800070037007ec9bf00d8
:1061a4006f4060000080fb0001952000000040006b
:1061b40060807800000f78001e0078001040900086
:1061c4000080fb004200de00610060000004e0008b
:1061d4000200320010c0b30082e9b70040c9bf001a
:1061e40001c8b300014060000004e0000f00320069
:1061f40022982000f00f2000800061003ec9bf00fb
:1062040060406000014070003ee9b700c810de0045
:106214003fc9bf0060406000014070003fe9b70023
:106224004009a80020c0b30041e9b7000080fa008b
:10623400000006000000fa0094a4a90040c9bf00b1
:1062440001c8b300014060000004e00027003a00e8
:106254004bc9bf0001c8b300014060000004e00066
:106264001400320020c0b30067e9b7000095200095
:10627400900078000040eb008048780000952000f2
:106284009000780080ccb30090409800e14a8000f0
:1062940080c0b30080487800e14a80002098200044
:1062a40090009800e14a800080ccb30090409800b0
:1062b4006e003700e14a800080c0b3008048780057
:1062c400e14a8000a097200090009800e14a8000f5
:1062d400c0c8b3009040980000952000900078005a
:1062e40040c8b30090409800600037004bc9bf001d
:1062f40001c8b300014060000004e0005b003a0004
:106304007ac9bf0001c8b300014060000004e00086
:106314004300320080c9bf008080fb0081c9bf00f8
:106324000080fb004800dd000100700000017800df
:1063340041c9bf008080fb0042c9bf000080fb0050
:106344004800dd0001007000800f51001200310090
:1063540080c9bf008080fb0081c9bf000080fb00b2
:106364004800dd000100700000017800f00f2000fb
:106374008000610041c9bf006040600001407000be
:1063840041e9b700c810de0042c9bf0060406000a8
:106394000140700042e9b7003600070010c0b300a6
:1063a40067e9b700e14a800080c0b3008048780004
:1063b400e14a8000a097200090009800e14a800004
:1063c40000c8b300904098000000eb00604b8800c8
:1063d400d14a800080c0b30080487800d14a800050
:1063e400a097200090009800d14a800040c8b300d4
:1063f4009040980010002000604b88000095200019
:1064040090007800209820009000980000952000cb
:106414009000780080ccb3009040980013003700bf
:1064240020c0b30067e9b700009520009000780011
:106434000040eb0080487800009520009000780030
:1064440080ccb30090409800e14a800080c0b30043
:1064540080487800e14a800020982000900098004d
:10646400e14a800080ccb300904098000080fa009c
:10647400000006000200fa0041c9bf008080fb0052
:1064840042c9bf000080fb004800dd00010070002d
:10649400e70f500013003e0041c9bf008080fb009d
:1064a40042c9bf000080fb004800dd00010070000d
:1064b400000f780066c9bf000004e00003003a0042
:1064c40010c0b30066e9b7000800370066c9bf0012
:1064d400e14f500005003a0020c0b30066e9b70060
:1064e4000200370080002000000f78000095200093
:1064f4001001780000952000100078009040900072
:106504001e40900000c070001041980000952000cb
:10651400900078001e4078008048780041c9bf0090
:106524008080fb0042c9bf000080fb004800dd0002
:1065340001007000800078001e0078000081500087
:10654400f00f20008000610041c9bf00604060007e
:106554000140700041e9b700c810de0042c9bf0025
:10656400604060000140700042e9b70020982000bc
:10657400404b880040c9bf00614060000004e00057
:106584003b003a001b003700424b80003ec9bf006d
:106594008080fb003fc9bf000080fb004800dd0095
:1065a40001007000800078001140780000497800f4
:1065b4000200e800404b880061814000f00f200099
:1065c400800061003ec9bf0060406000014070006f
:1065d4003ee9b700c810de003fc9bf00604060005c
:1065e400014070003fe9b7001e0078000000e90098
:1065f400000f78001e0078000000e000e2ff3a007f
:106604001e003700424b80003ec9bf008080fb0063
:106614003fc9bf000080fb004800dd00010070009e
:106624008000780011407800004978000200e800fa
:10663400404b88000101e800f00f20008000610059
:106644003ec9bf0060406000014070003ee9b700f1
:10665400c810de003fc9bf00604060000140700008
:106664003fe9b7001e0078000000e900000f780041
:106674001e0078000000e000e2ff3a000080fa000b
:10668400000006000200fa00d04a80009040780022
:10669400114798001e4090000081fb004cc9bf00c8
:1066a4008080fb004dc9bf000080fb004800dd0076
:1066b40001007000800f5100070036004cc9bf0074
:1066c4008080fb004dc9bf000080fb004800dd0056
:1066d40001007000104798004cc9bf008080fb0087
:1066e4004dc9bf000080fb004800dd0001007000c0
:1066f400800078001e4090000080fb000081500064
:10670400f00f2000800061004cc9bf0060406000b1
:10671400014070004ce9b700c810de004dc9bf004d
:1067240060406000014070004de9b7000040eb009c
:10673400004f78001900370049c9bf008080fb0072
:106744004ac9bf000080fb004800dd000100700062
:10675400000178009e80fb0020982000008040000b
:1067640010407800004978000201e800f00f200092
:106774008000610049c9bf006040600001407000b2
:1067840049e9b700c810de004ac9bf006040600094
:10679400014070004ae9b7001e4fe8001e40900017
:1067a4009e4f1000e4ff39004cc9bf008080fb00fd
:1067b4004dc9bf000080fb004800dd0001007000ef
:1067c4000000e00013003200e14a800080c0b30002
:1067d40080487800e14a80002098200090009800ca
:1067e400d04a8000104090000044b2000004e00051
:1067f40004003a00e14a800080ccb3009040980045
:106804001d003700e14a800080c8b3009040980022
:1068140019003700e14a800080c0b3008048780046
:10682400e14a8000a097200090009800e14a80008f
:1068340040c8b300904098004ec9bf008080fb0060
:106844004fc9bf000080fb004800dd00010070005c
:106854000000e000070032004ec9bf008080fb004a
:106864004fc9bf000080fb004800dd00010070003c
:10687400000001004be9a9000080fa0000000600b6
:106884000200fa0040e9a8006000b8006025880012
:10689400712588000000eb00802588000040eb0093
:1068a400004f7800070037001e80fb00c200dd00a7
:1068b40000a02000008140006000b8000089be00f4
:1068c4001e4fe800f0c0b3009e4f1000f6ff3600e4
:1068d4009424a8000040eb0058e9b7009424a900d0
:1068e40081a02000009520000108780000a020006d
:1068f400d04a8800d04a8000e04a88007cc9bf00a2
:1069040048e9b70048c9bf000004e00003003a00aa
:1069140000012000304a88000600370012002000e1
:1069240081942000100020000c07070000022000c2
:10693400304a88000080fa00000006000400fa00d3
:10694400204798003147980000a02000000f7800ed
:106954002e4090000080fb00000040008000780082
:106964003e4090000080fb00008040004300dd00ba
:106974004200de004200dd001e0f40009e00780051
:10698400114090000070a100904098003e4090009b
:106994000004e00006003a002e4090000080fb0056
:1069a400e1952000000040001eb07800050037008b
:1069b4002e4090000080fb00019520000000400064
:1069c4001eb078009e007800114090000060a10085
:1069d400904098001e007800e400400011409000b0
:1069e4000060a000904098000080fa0000000600bb
:1069f4000400fa0020479800314798002e40900088
:106a04000080fb000000400080007800a04a2000c5
:106a140000804000000f78001e007800be40900007
:106a2400014878003e4090000080fb004300de00f7
:106a3400610060000004e000030032008040eb00cd
:106a44002e409000bdff07003e4090000080fb00f8
:106a54004200de00610060000004e0000300320038
:106a640011c0b3002e409000b4ff07000080fa006c
:106a7400000006000400fa002047980031479800ff
:106a84002e4090000004e0000e003a00e14a80002d
:106a940080c0b30080487800e14a8000a0972000bd
:106aa40090009800e14a8000c0c8b300904098006c
:106ab400009520009000780040c8b30090409800f2
:106ac400230037002e4090000080fb0000004000af
:106ad400800078003e4090000080fb000080400071
:106ae4004300dd008000780000a02000008040000a
:106af400000f78001e0078009040900040c8b3005a
:106b040080c070001e007800114098002e40900054
:106b14000080fb0000004000800078003e409000b0
:106b24000080fb00008040004300dd00800078000e
:106b340040a02000008f40001e007800904090008c
:106b440040c8b30080c070001e0078001140980057
:106b54000080fa00000006000a00fa0020479800ae
:106b64003147980022079800634798003e40900000
:106b74000004e000060032002e4090000080fb007c
:106b84000195200000004000608f78000500370068
:106b94002e4090000080fb00e195200000004000a2
:106ba400608f78001e00e00003003a000000eb0054
:106bb40040079800390037002e00900080007800cc
:106bc4001e007800110098001e007800ee4090002e
:106bd400014878001e0078001040900002c4b30001
:106be400824060001e007800114098001e0078006a
:106bf4009040900080c8b30080c070001e007800f0
:106c0400114098003e4090000004e0001100320062
:106c14002e4090000080fb000000400080007800bf
:106c24000095200000804000000178002e40900074
:106c34000080fb00000040008000780000952000e8
:106c440000804000104078000024a2000049780031
:106c5400100037002e4090000080fb000000400030
:106c640080007800e095200000804000000178005a
:106c74002e4090000080fb0000004000800078005f
:106c8400e095200000804000104078000024a2001d
:106c9400004978001e007800400798004e009000dc
:106ca4000080fa00000006000600fa00004f780099
:106cb40094c4bf000042b2000004e0005700320058
:106cc4001e80fb00019520000000400060837800d6
:106cd4001e80fb00019520000000400060807800c9
:106ce4001000be000204200003002000000278000f
:106cf40081027800020078008300780000016200bd
:106d0400018062006102b80014079800250798000a
:106d14001e009000ae009000c000dd0000002000c6
:106d240010079800210798001e009000ae00900004
:106d34006112b80014079800250798001e019000fe
:106d4400ae0190000200700083807000008bbe00d2
:106d54001e80fb0001952000000040006082780046
:106d64001e80fb0001952000000040006080780038
:106d74001001be0000042000010020000000690092
:106d840081806900008abe001e80fb000000400074
:106d94008000780000952000008040000001780009
:106da4001e80fb0000004000800078000095200059
:106db40000804000104078000024a20000497800c0
:106dc4001e80fb00019520000000400060817800d7
:106dd4001e80fb00019520000000400060807800c8
:106de400104090000044b200104198001e80fb0047
:106df4000195200000004000608178001e80fb00a7
:106e040001952000000040006080780090409000d0
:106e140000c4b30000c06800104198000080fa006c
:106e2400000006000000fa000000eb00a024880027
:106e34000000eb00602488000000eb00304a88006a
:106e44000080fa00000006000000fa00304a8000ca
:106e54000000e00016003a000000eb00a0248800c7
:106e64000000eb006024880020002000302588000a
:106e74000000eb00402588008644a900f0092000aa
:106e840080248800f0092000602488009ec0a800a7
:106e9400010037009404a80094c4bf00614060005e
:106ea4000004e000fbff320010002000304a88009c
:106eb4000080fa00000006000200fa000000eb0067
:106ec400203a880000fc2f00601988003000200060
:106ed40000168800f00a200040168800cf22a8007f
:106ee400ce82a800c682a800cfa2a800cfc2a80064
:106ef40080252000000f780044a7a8001e0fe90099
:106f04000080eb009e0f1000fcff3a00716c200023
:106f14009140780000ceb30000c060007040b30020
:106f2400c7e6b700816c20009140780000ceb30022
:106f340000c060000034a000c8e6b700b0532000d1
:106f4400101288000000eb002012880041e2a80023
:106f54008540a900910a20009140780080cfb300b9
:106f640000c06000a9e0b7009540a90040002000df
:106f74007008880000032800900888004004280056
:106f840000198800404120001019880020f02100d9
:106f9400201988000000eb004019880000fc2f0035
:106fa40060198800f00320008019880095a0a800cb
:106fb4000040eb00b8e9b7000040eb0000e8b70080
:106fc4001100370000c8bf000080fb0080004000b3
:106fd400c0912000808040000000eb008008780011
:106fe40000c8bf000080fb008000400080922000a9
:106ff400808040000000eb008008780000c8bf00db
:107004000040e80000e8b70000c8bf00e54f5000aa
:10701400ecff3600400620000b050700cdc2a80097
:107024000040eb0000e8b7000b00370000c8bf00c9
:107034008080fb0040932000808040000040eb00f3
:1070440080487800cda2a800cda2a90000c8bf0046
:107054000040e80000e8b70000c8bf00e74f500058
:10706400f2ff36008102070013000700d8f807007a
:1070740075ff070010c0b30000e8b70010c0b300ec
:1070840001e8b70000003700304a8000ff0f5000cd
:10709400fdff360088c4bf00624060000004e000c9
:1070a400f9ff3a004a03070071040700ca00070009
:1070b400b0060700f4ff37000000fa0071c0b30007
:1070c400b0c0b300ad00070011c0b300c0c0b3002e
:1070d400aa0007008040eb00f0c0b300a70007003f
:1070e400f1c0b300a0c0b300a40007008040eb00cf
:1070f40010c0b300a10007008040eb0020c0b30023
:107104009e0007008040eb0030c0b3009b000700e6
:1071140081c1b30040c0b3009800070081c1b3002f
:1071240050c0b300950007008040eb0060c0b3007e
:10713400920007008040eb0070c0b3008f0007008e
:107144008040eb0080c0b3008c0007000040eb00df
:1071540000e8b7000f00370000c8bf008080fb00c4
:10716400000420000100500042002000110009002a
:107174000200d80080407800a0c0b3007f00070060
:1071840040002000b004070000c8bf000040e80031
:1071940000e8b7000180200091407800f0c3b300fc
:1071a40080cf5000ecff3600f1c0b300a0c0b300a4
:1071b400720007008040eb0010c0b3006f000700ae
:1071c4008040eb0020c0b3006c00070081c1b30015
:1071d40030c0b3006900070041c2b30040c0b3002f
:1071e4006600070041c2b30050c0b300630007004b
:1071f40081c1b30060c0b300600007008040eb00b1
:1072040070c0b3005d0007008040eb0080c0b30095
:107214005a0007000040eb0000e8b7000f003700f9
:1072240000c8bf008080fb00000420000100500063
:1072340042002000110009000200d80080407800bc
:10724400a0c0b3004d000700400020007e040700ea
:1072540000c8bf000040e80000e8b700018020003b
:1072640091407800f0c3b30080cf5000ecff3600ab
:10727400f1c0b300a0c0b300400007008040eb00a1
:1072840010c0b3003d00070081c1b30020c0b300ab
:107294003a00070041c2b30030c0b3003700070012
:1072a40021c4b30040c0b3003400070021c4b300bc
:1072b40050c0b3003100070041c2b30060c0b30046
:1072c4002e00070081c1b30070c0b3002b0007007b
:1072d4008040eb0080c0b300280007000040eb00b2
:1072e40000e8b7000f00370000c8bf008080fb0033
:1072f4000004200001005000420020001100090099
:107304000200d80080407800a0c0b3001b00070032
:10731400400020004c04070000c8bf000040e80003
:1073240000e8b7000180200091407800f0c3b3006a
:1073340080cf5000ecff3600f1c0b300a0c0b30012
:107344000e00070010c0b30000e8b70006003700c5
:1073540000c8bf008040eb000800070000c8bf0061
:107364000040e80000e8b70000c8bf00e84f500044
:10737400f7ff36000080fa00000006000200fa0061
:10738400004f7800114798001e80fb00c800dd0004
:1073940000f02f00808060001e4090000080fb0001
:1073a40000804000804d8800cd22a90040c2bf006b
:1073b400624060000004e000fcff3a00804d800061
:1073c40040128800100020000c040700cd22a80001
:1073d4000080fa00000006000800fa00f1c0b300c3
:1073e400d0852000480507000004e0009d0132001c
:1073f400d185200091407800c0c6b30080cf5000f2
:1074040049003a00e18520009140780000c3b300b0
:1074140080cf500005003200e185200091407800c3
:1074240010c3b30080cf50003f003a0060c8bf00d3
:10743400150407005be8b7005bc8bf00e74f5000c6
:1074440088013e005fc8bf000f0407005ae8b70078
:107454005ec8bf000c0407005ce8b7005cc8bf004e
:107464000004e000120032005bc8bf008081fb0012
:107474005bc8bf008080fb00409320000080400078
:1074840010407800004178005ac8bf008080fb009b
:10749400100020000100dd000040710080407800f1
:1074a4004093200000804100014878001500370017
:1074b4005bc8bf000082fb005bc8bf008080fb008c
:1074c4004093200000804000104078008041780004
:1074d4005ac8bf008080fb00100020000100dd00be
:1074e40000417800024078000080ea008180ea00d0
:1074f40000c06100804078004093200000004200fa
:10750400014878005bc8bf008080fb0040932000e6
:1075140000804000904078005bc8bf000040e80055
:1075240096ff07004f013700d18520009140780075
:10753400c0c6b30080cf500078003a00e185200037
:107544009140780030c6b30080cf500073003a00f9
:10755400219b2000d085200052f60700304088008f
:10756400219b20000000eb004ef60700304088000d
:1075740030408000a20020008000eb0065f6070088
:1075840070479800219b20000000eb0045f607009f
:107594003040880030408000a20020008000eb00d2
:1075a4005cf6070060479800d04d8000e10f500062
:1075b40019003a000040eb0000e8b7001100370062
:1075c40000c8bf008080fb00409320008080400002
:1075d4000040eb008048780000c8bf008080fb00ba
:1075e40040932000008040009040780000c8bf0015
:1075f4000040e80061ff070000c8bf000040e80049
:1076040000e8b70000c8bf00e74f5000ecff3600a9
:107614000000eb00d04d88000040eb0000e8b7000c
:107624003a0037006e4090008080fb0000c8bf0025
:107634000080fb000088de00610060000004e000c0
:107644001200320000c8bf008081fb0000c8bf00e8
:107654008080fb00409320000080400010407800b0
:10766400004178007e4090008080fb0010002000e4
:107674000100dd000040710080407800409320004c
:1076840000804100014878001500370000c8bf00a1
:107694000082fb0000c8bf008080fb0040932000f4
:1076a4000080400010407800804178007e409000c7
:1076b4008080fb00100020000100dd000041780004
:1076c400024078000080ea008180ea0000c0610086
:1076d4008040780040932000000042000148780078
:1076e40000c8bf008080fb00409320000080400061
:1076f4009040780000c8bf000040e8001fff07006a
:1077040000c8bf000040e80000e8b70000c8bf00a0
:10771400e74f5000c3ff3600d2003700d185200068
:1077240091407800c0c6b30080cf500046003a00b4
:10773400e18520009140780020c7b30080cf50003d
:1077440041003a00219b2000d0852000d5f5070098
:1077540030408800219b20000000eb00d1f5070099
:107764003040880030408000a20020008000eb0000
:10777400e8f5070050479800219b20000000eb002b
:10778400c8f507003040880030408000a200200087
:107794008000eb00dff5070040479800d04d8000e3
:1077a400e10f500019003a000040eb0000e8b70078
:1077b4001100370000c8bf008080fb004093200008
:1077c400808040000040eb008048780000c8bf0083
:1077d4008080fb00409320000080400090407800af
:1077e40000c8bf000040e800e4fe070000c8bf0076
:1077f4000040e80000e8b70000c8bf00e74f5000b1
:10780400ecff36000000eb00d04d88005e40900095
:107814008080fb004093200000804000ce40900018
:10782400014878005e4090008080fb004093200077
:1078340000804000904078005e4090000040e800e6
:10784400cefe070087003700d185200091407800e4
:1078540010c6b30080cf500026003a00e185200016
:107864009140780050c6b30080cf500021003a0008
:10787400219b2000d08520008af507003040880035
:10788400219b20000000eb0086f5070030408800b3
:1078940030408000a20020008000eb009df507002e
:1078a40030479800219b20000000eb007df5070085
:1078b4003040880030408000a20020008000eb00af
:1078c40094f50700204798002e4090000004e00043
:1078d400040032003e4090000080fb00f9010700e4
:1078e400600037003e4090000080fb000e0207005d
:1078f4005c003700d18520009140780090c6b30029
:1079040080cf500012003a00219b2000d085200037
:1079140064f5070030408800219b20000000eb0044
:1079240060f507003040880030408000a20020004d
:107934008000eb0077f50700e0498800e04980000b
:1079440080407800a0c0b3008cfe070045003700db
:10795400d18520009140780040c7b30080cf50000b
:1079640011003a00219b2000d08520004df507002e
:1079740030408800219b20000000eb0049f50700ff
:107984003040880030408000a20020008000eb00de
:1079940060f50700104798009e409000f0c0b300c7
:1079a40076fe07002f003700d18520009140780033
:1079b40030c7b30080cf500011003a00219b200053
:1079c400d085200037f5070030408800219b200037
:1079d4000000eb0033f507003040880030408000a1
:1079e400a20020008000eb004af50700004f780059
:1079f4009e407800c0c0b30060fe07001900370045
:107a0400d18520009140780060c6b30080cf50003b
:107a140014003a0060c6b30008e8b700b0c0b30071
:107a240009e8b70030c0b3000ae8b7008bc9bf004b
:107a34000004e00008003a0080802000604c8800c8
:107a440030c0b3008ee9b70010c0b3008fe9b700af
:107a540010c0b3008be9b7004604070020002000e3
:107a6400660207000080fa00000006000000fa0029
:107a74000040eb0000e8b7002c00370000c8bf004e
:107a84000080fb0080004000c08620008080400011
:107a94000000eb008008780000c8bf000080fb00f5
:107aa40080004000c0872000808040000000eb0080
:107ab4008008780000c8bf000080fb008000400000
:107ac400c0882000808040000000eb00800878001f
:107ad4000040eb0001e8b7000e00370000c8bf000b
:107ae4000081fb0001c8bf008080fb004310dd0063
:107af4000100400080004000c089200080804000d8
:107b04000000eb008008780001c8bf000040e800d6
:107b140001e8b70001c8bf00e74f5000efff36008f
:107b240000c8bf000040e80000e8b70000c8bf007c
:107b3400e74f5000d1ff36000080fa000000060035
:107b44000400fa00000f7800110798000000eb0011
:107b5400604d88001e00780080004000c086200030
:107b640000804000100178001e0078008000400072
:107b7400c0872000008040001000780000016900e8
:107b8400110020001e0090000008dd0000006100cc
:107b94000000e0001b0032001e007800800040005e
:107ba400c086200000804000100178001e0078008c
:107bb40080004000c0882000008040001000780051
:107bc40000016900110020001e0090000008dd0083
:107bd400000061000000e0000a0032001e0078008e
:107be4009e0090004300dd00010040008000400042
:107bf400c0892000808040000000eb0080087800ed
:107c0400700037001e00780080004000c08620000d
:107c140000804000100178001e00780080004000c1
:107c2400c087200000804000100078000001690037
:107c3400110020001e0090000008dd00000061001b
:107c44000000e0005f003a001e0078008000400061
:107c5400c086200000804000100178001e007800db
:107c640080004000c08820000080400010007800a0
:107c740000016900110020001e0090000008dd00d2
:107c8400000061000000e0004e0032001e00780099
:107c94009e0090004300dd00010040008000400091
:107ca400c08920000080400010007800e30f5000dd
:107cb40044003e001e0178009e0190004310dd0048
:107cc4000300400080004000c08920000080400084
:107cd400100078000002e8004310dd0003004000bb
:107ce40080004000c0892000008040000408780023
:107cf4004310dd000300400080004000c0892000e4
:107d04000080400010007800e40f50002d003a007d
:107d14001e00780080004000c086200000804000e3
:107d240010017800110020001e0090000008dd0002
:107d3400000061000000e0000f0032009e017800a6
:107d44001e00780080004000c088200000804000b1
:107d540010017800110020001e0090000008dd00d2
:107d64000001710083804100c08820000080400031
:107d740002087800110037009e0178001e00780088
:107d840080004000c088200000804000100278007d
:107d9400110020001e0090000009dd0002007800a0
:107da4000080ea008180ea000001620083804100d3
:107db400c0882000008040000208780010002000e5
:107dc400604d8800604d80000080fa0000000600cd
:107dd4000000fa00b4c9bf000004e00003003a0048
:107de400cdc2a900cda2a800cdc2a800b4c9bf00cd
:107df40000e8b7008f003700cda2a8000040eb00d8
:107e040002e8b700040037000000000002c8bf0009
:107e14000040e80002e8b70002c8bf00e44f500089
:107e2400f9ff3600cda2a90000c8bf000081fb0005
:107e340000c8bf000080fb0080004000c086200016
:107e4400008040009001780082004100c08720003b
:107e54000080400003087800c482a90010002000bc
:107e640066010700c482a8000040eb0001e8b700e7
:107e74006a003700cac2bf000042b2000004e0003a
:107e84001500320000c8bf000082fb0000c8bf001c
:107e94000080fb0080004000c0862000008040007d
:107ea4009001780001c8bf008080fb001000200012
:107eb4000101dd00020078000080ea008180ea0010
:107ec4000081610084004200c086200000804000e0
:107ed400020878001100370000c8bf008081fb0051
:107ee40000c8bf000080fb0080004000c086200066
:107ef400008040001001780001c8bf008080fb00b2
:107f0400100020000100dd000001710083804100a9
:107f1400c08620000080400002087800cc82a800bf
:107f24000040eb0002e8b700040037000000000046
:107f340002c8bf000040e80002e8b70002c8bf0062
:107f4400e14f5000f9ff3600cc82a90001c8bf0000
:107f54008080fb0000c8bf000080fb00f8fe070023
:107f64000000e0002a00320000c8bf000080fb00cf
:107f740080004000c086200000804000100178008e
:107f840001c8bf008080fb00100020000100dd005c
:107f9400000061000000e00007003200aec9bf002d
:107fa4008080fb00808020008080400000c7b300f8
:107fb4008048780006003700aec9bf008080fb000f
:107fc400808020008080400020c7b3008048780073
:107fd400aec9bf000080fb000001e80000c8bf007c
:107fe4000080fb004400dd008040780001c8bf0031
:107ff40000c04000804078008080200000004100e4
:1080040001487800aec9bf0000c0e800aee9b7007f
:1080140001c8bf000040e80001e8b70001c8bf0084
:10802400e74f500093ff360000c8bf000040e8004f
:1080340000e8b70000c8bf008080fb00b4c9bf00df
:108044000080fb0064004000808f50006aff350010
:10805400aec9bf000004e0000d0032008bc9bf00b0
:108064000004e0000a003a0080802000604c880090
:10807400aec9bf008ee9b70010c0b3008fe9b700e6
:1080840010c0b3008be9b7000040eb00aee9b700c5
:10809400b802070020002000d8000700b4c9bf00c0
:1080a40064404000b4e9b700b4c9bf00e74f5000d2
:1080b400020036000040eb00b4e9b7000080fa008b
:1080c400000006000200fa00000f780050002000b3
:1080d4009e0f100012003c00b5c9bf008080fb0059
:1080e400f0032000008060000000e00002003a007d
:1080f40010002000b04d8800110020001e00780000
:108104000008dd0080407800b5c9bf0000c07000e1
:10811400b5e9b700b9c9bf000040e800b9e9b70044
:108124000080fa00000006000200fa00000f780048
:10813400500020009e0f100016003c00110020008b
:108144001e0078000008dd0000417800024078003d
:108154000080ea008180ea0080407800b5c9bf0051
:1081640000c06000b5e9b700b5c9bf008080fb005e
:10817400f0032000008060000000e00002003a00ec
:108184000000eb00b04d8800b9c9bf000040e90011
:10819400b9e9b7000080fa0000000600809fbe0025
:1081a400821f78003400f80000002000a00188003d
:1081b4000000fa0085a0a90000188000404988004a
:1081c40010188000504988002018800060498800f9
:1081d4003018800070498800401880008049880069
:1081e40050188000904988000040eb0003e8b70075
:1081f40017003700b5c9bf000081fb0003c8bf00ea
:108204008080fb00100020000100dd0000016100ff
:1082140003c8bf008080fb00100020000100dd00c7
:10822400800f510007003a0003c8bf000080fb0024
:1082340080004000c0912000808040001000200099
:108244008008780003c8bf000040e80003e8b700d6
:1082540003c8bf00e54f5000e6ff36000080fa0077
:108264003400f9004f0178004f00be0000400600c2
:108274000000fa000040eb0000e8b70047003700b8
:10828400b5c9bf000081fb0000c8bf008080fb00af
:10829400100020000100dd000001610000c8bf00e3
:1082a4008080fb00100020000100dd00800f5100e1
:1082b40037003a0000c8bf000080fb008000400087
:1082c400c09120000080400010007800e10f5000b1
:1082d4002f003a00afc9bf008080fb0080842000db
:1082e4008080400010c6b30080487800afc9bf004a
:1082f4000080fb000001e80000c8bf00c401dd00ed
:1083040000c8bf000080fb00800040008092200075
:108314000080400090007800003020000080600061
:108324004800de0080c0410080842000000041003d
:1083340001487800afc9bf000080fb000081e8005d
:1083440000c8bf000080fb00800040008092200035
:108354000080400010007800804078008084200075
:108364000000410001487800afc9bf0063404000ed
:10837400afe9b70000c8bf000080fb0080004000e8
:10838400c0912000808040000000eb00800878004d
:1083940000c8bf000040e80000e8b70000c8bf0004
:1083a400e54f5000b6ff3600afc9bf000004e0003f
:1083b4000d0032008bc9bf000004e0000a003a003f
:1083c40080842000604c8800afc9bf008ee9b700ec
:1083d40010c0b3008fe9b70010c0b3008be9b70039
:1083e4000040eb00afe9b700e201070010002000f5
:1083f400020007000080fa00000006000200fa00f4
:10840400000f78001e0078004500dd00a200200067
:10841400110009000280d800000f78000600370020
:108424000000000000000000000000000000000048
:10843400000000001e0fe9001e00e000f8ff3a00f3
:108444000080fa00000006000200fa00000f780025
:108454000040eb0002e8b70005003700803e200032
:10846400e6ff070002c8bf000040e80002e8b700ca
:1084740002c8bf000080fb009e0f5000f7ff3900c8
:108484000080fa00000006000400fa00204798006b
:108494000000eb00000f7800ae409000f0c2b30083
:1084a40080cf50000c003400ae40900090c3b30065
:1084b40080cf500008003c001e007800c400dd009e
:1084c4002e4090000000fb008080400000fd2f0043
:1084d400008f4000070037001e007800c400dd0054
:1084e4002e4090000000fb008080400090fc2f0094
:1084f400008f40001e0078000080fa000000060093
:108504000000fa000080fa00000006000000fa00f3
:108514000080fa00000006000000fa000080fa0063
:10852400000006000000fa000080fa0000000600c7
:108534000000fa00440007000080fa000000060072
:108544000000fa000080fa00000006000000fa00b3
:10855400ce0007000080fa00000006000800fa00c0
:10856400000f780011079800220798001e00780079
:108574003007980020072000be009000808f500034
:108584002d00320020072000be009000808f500094
:108594000a003e003e009000e20f50001a00320034
:1085a400be009000e38f5000190032003e0090009e
:1085b400e10f500012003200200037004007200075
:1085c400be009000808f500017003200400720004a
:1085d400be009000808f50000f003900500720002b
:1085e400be009000808f50000d003200f0ff270085
:1085f400be009000808f50000d0032000f00370045
:10860400d2ff07000d003700cdff07000b00370035
:10861400c7ff070009003700bfff07000700370046
:10862400b7ff070005003700b8ff07000300370055
:10863400bcff07000100370000000000100020000c
:108644000080fa00000006000200fa007ac9bf00a8
:108654007f406000e14f50008a003a007ac9bf00b1
:1086640002c6b3008240600000c2b30080cf500055
:1086740084003a007ec9bf000004e0000300320019
:108684007ec9bf00e14f50007e003a007bc9bf00a5
:108694000080fb00000f7800000220009e0078009c
:1086a400808f500038003200000220001e01780044
:1086b400800f510007003c001e0078000000e0001d
:1086c4000d0032009e007800e18f5000200032003f
:1086d4006c003700100220001e017800800f51004a
:1086e4004f003200200220009e007800808f50004e
:1086f4006100320063003700429a2000f00f20002e
:10870400800061003ec9bf0060406000014070000d
:108714003ee9b700c810de003fc9bf0060406000fa
:10872400014070003fe9b70041c9bf0060406000ec
:108734000034a00041e9b70042c9bf0060406000b6
:1087440042e9b7004009a80040e9a8004d003700fd
:10875400429a2000f00f2000800061003ec9bf0053
:1087640060406000014070003ee9b700c810de00c0
:108774003fc9bf0060406000014070003fe9b7009e
:1087840040e9a8003f00370080c9bf008080fb009b
:1087940081c9bf000080fb004800dd0001007000bb
:1087a40000017800f00f2000800061004cc9bf0078
:1087b40060406000014070004ce9b700c810de0062
:1087c4004dc9bf0060406000014070004de9b70032
:1087d40002992000f00f20008000610049c9bf0009
:1087e400604060000140700049e9b700c810de0035
:1087f4004ac9bf0060406000014070004ae9b70008
:108804004ec9bf00604060004ee9b7004fc9bf00c9
:10881400604060004fe9b7004be9a8001900370039
:1088240002992000f00f2000800061003ec9bf00c3
:1088340060406000014070003ee9b700c810de00ef
:108844003fc9bf0060406000014070003fe9b700cd
:1088540041c9bf00604060007040b30041e9b70007
:1088640042c9bf006040600042e9b70010ccb300c9
:1088740040e9b700030037007cc9bf009ee9b70098
:1088840040e9a8000080fa00000006000000fa0099
:1088940000b0240001002000804c8800914c880026
:1088a4000040eb0094e9b7000040eb0095e9b70005
:1088b40080c0b30096e9b7000040eb008be9b70035
:1088c4000040eb008ae9b70051c1b30020c0b300f7
:1088d40047f80700d1c1b30030c0b30044f8070023
:1088e40003c4b30082a420008040eb0030c0b30076
:1088f40099f80700d04c88000000eb00e04c880099
:108904000080fa00000006000400fa00000f78005e
:10891400214798000040eb008ae9b700d04c800062
:108924000000e00006003200d04c8000904090002f
:1089340000c8b30000c060000004e00022003a0058
:10894400d04c8000904078002e40900080cf5000a2
:1089540003003100d04c80009040780021479800fb
:108964000040eb008ae9b7000c0037008ac9bf0059
:108974000080fb001e0140008ac9bf008080fb000c
:1089840080a4200000804000104078000049780056
:108994008ac9bf000040e8008ae9b700a198200016
:1089a400914078002e40900080cf5000efff3900b6
:1089b40003c4b30082a420008040eb0030c0b300a5
:1089c40065f80700d04c88008ac9bf000080fb000e
:1089d4000080fa00000006000400fa00000f78008e
:1089e400214798009ec0a9008bc9bf000004e00085
:1089f40008003a001e007800604c88002e40900069
:108a04008ee9b70010c0b3008fe9b70010c0b300ff
:108a14008be9b7009ec0a8000080fa0000000600a1
:108a24000800fa00200798009ec0a9008bc9bf0067
:108a34000004e000020032009ec0a8001f003700be
:108a44000040eb00204798002e009000000f7800b3
:108a54002e4090000040e800204798002e409000ef
:108a6400e14f40000c0032001e00780010407800f6
:108a7400604798006e4090000004e000020032005d
:108a840010c0b300604798006e4090001e0fe800cd
:108a94000004e000eeff3a002e009000604c8800d5
:108aa4002e4090008ee9b70010c0b3008fe9b700e4
:108ab40010c0b3008be9b7009ec0a8000080fa0084
:108ac400000006000800fa00e4004700800878006f
:108ad4009ec0a9008bc9bf000004e0000200320060
:108ae4009ec0a800210037000040eb0020479800fa
:108af40064004700100f78002e4090000040e8000a
:108b0400204798002e409000e14f40000d003200b5
:108b14001e00780010407800604798006e40900076
:108b24000004e0000200320011c0b3006147980065
:108b34006e4090009e007800618f40000004e000c9
:108b4400edff3a006400470010007800604c880094
:108b54002e4090008ee9b7000040eb008fe9b7008b
:108b640010c0b3008be9b7009ec0a8000080fa00d3
:108b7400000006000200fa009ec0a900e04c80003c
:108b84000000e00008003200e04c800090409000bb
:108b940000c8b30000c060000004e000020032001e
:108ba4009ec0a8005e0037008bc9bf00e34f500091
:108bb40002003a000040eb008be9b7008bc9bf000c
:108bc4000004e00002003a009ec0a80054003700f0
:108bd4008bc9bf00e24f500009003a008041eb000e
:108be4000001eb0011c0b30030c0b300daf7070096
:108bf400e04c880030c0b3008be9b7004700370071
:108c04008bc9bf00e14f500044003a00e1982000b6
:108c14009140780000c4b30080cf500003003600b8
:108c240000c4b30010479800020037008ec9bf008b
:108c340010479800e1982000914078001e40900071
:108c440000c050008ee9b70080a82000c04c880006
:108c54001e409000004f78008fc9bf000004e00060
:108c64001a003a000b003700c14c8000604c8000b1
:108c74001040780080487800c04c80000000e80074
:108c8400c04c8800604c800061004000604c88004b
:108c94001e4fe9001e04e000f3ff3a000d00370008
:108ca400c14c8000604c80001040780080487800ff
:108cb400c04c80000000e800c04c8800604c80007c
:108cc4000000e800604c88001e4fe9001e04e0002c
:108cd400f3ff3a008ec9bf000004e00009003a0027
:108ce4009e40900000c4b30080cf500003003a00bf
:108cf40020c0b3008be9b7000200370030c0b300d6
:108d04008be9b7009e41900082a8200011c0b300f7
:108d140030c0b30090f70700e04c88009ec0a80064
:088d24000080fa0000000600c7
:020000040000fa
:108d2c00ac09000010000000020000000000000070
:108d3c000000000020000000000000000000010006
:108d4c0000000000000800003e01000000000000d0
:108d5c003e0900004c00000000000000000a00006a
:108d6c004000000000000000400a000088000000e5
:108d7c00000000008a090000220000000000000032
:108d8c00c00900000200000002000000c40900003d
:108d9c00c20900000200000000000000c40900002d
:108dac00020000000200000000000000c80a0000e1
:108dbc004a000000020000000000210015110e0006
:108dcc000d0c0b000b0a0a0009090900090908001f
:108ddc00080808000808080007070700070707002d
:108dec00070707000707070007303100323334004c
:108dfc003536370038396100626364006566670098
:108e0c0068696a006b6c6d006e6f70007172730034
:108e1c0074757600777879007a000000bc09000040
:108e2c000400000002000000000000000000000030
:048e3c000000000032
:020000040000fa
:048e40000000fe0030
:00000001FF
