:020000040000FA
:0418000051EF21F093
:08180800056ED8CF06F0E0CF19
:1018100007F00001E9CF0DF0EACF08F0E1CF09F0C1
:10182000E2CF0AF0D9CF0BF0DACF0CF0F3CF14F0FF
:10183000F4CF15F0FACF16F000C00FF001C010F091
:1018400002C011F003C012F004C013F0A0AA2CEFE4
:101850000CF0A1BAA2EF13F00FC000F010C001F01D
:1018600011C002F012C003F013C004F00DC0E9FF74
:1018700008C0EAFF088E09C0E1FF0AC0E2FF0BC002
:10188000D9FF0CC0DAFF14C0F3FF15C0F4FF16C077
:10189000FAFF055007C0E0FF06C0D8FF1000F76A46
:1018A000AE0FF66E180EF7220900F5501200040371
:1018B0000100000000000000000000000000F76AC6
:1018C000CE0FF66E180EF7220900F5501200040034
:1018D0000100000000000000000000000000F76AA6
:1018E000EE0FF66E180EF7220900F55012004000B8
:1018F00008004000000000000000000000000000A0
:10190000000000000000000000000000000008AE21
:1019100003D0F2CF0EF0F29EF76A300FF66E190E7A
:10192000F7220900F55008AE02D00EBEF28E12006A
:101930004000000040000000000000000000000027
:101940000000000000000000000000000000000097
:10195000F76A600FF66E190EF7220900F5501200B3
:1019600009024300020100C0FA090400000102025A
:1019700001000524001001042402020524060001D0
:101980000524010001070581030800FA090401008C
:10199000020A000000070502024000FA0705820261
:1019A0004000FA00F76AB40FF66E190EF72209002C
:1019B000F55012000200F76AC60FF66E190EF722F4
:1019C0000900F55012001201100102000040D80475
:1019D000C5FF020001020001F76AE80FF66E190E5A
:1019E000F7220900F55012000403090410037400E3
:1019F0006B00720077006F0072006B0073002003B1
:101A000074006B00720077006F0072006B0073004F
:101A100020005000490043006E006F006D0065001B
:101A2000F2CF0EF0F29EF76A3A0FF66E1A0EF72218
:101A30000900F5500EBEF28E1200000102030408E8
:101A4000090B0C00F2CF0EF0F29EF76A5E0FF66EF5
:101A50001A0EF7220900F5500EBEF28E12007265C2
:101A6000706F72742025642025640000F2CF0EF0A0
:101A7000F29EF76A860FF66E1A0EF7220900F550ED
:101A80000EBEF28E120070726573732025642025DD
:101A9000642025640000F2CF0EF0F29EF76AB00FCA
:101AA000F66E1A0EF7220900F5500EBEF28E1200E5
:101AB000616463202564202566006D9269946894B2
:101AC000ADEF13F06A6A6892B6EF13F0336A326AC8
:101AD000250E316E800E306E346A356A080E366E11
:101AE000866B8193386A376A826B83918181000C9F
:101AF00001016C6B6C5101080AE3036A6C512E0FF3
:101B0000E96E000E0320EA6EEF6A6C2BF3D700013A
:101B1000DDDF206A010E216E1F6A000C010E01013B
:101B2000756F75510F080EE3700E7525016E0F0E5F
:101B3000036ED8B0032A01C0E9FF03C0EAFFEF6AD1
:101B4000752BEFD7246A236A0001000C400E0401B4
:101B5000016F050E036F026B880E006F046B050E9C
:101B6000076F400E066F0001000C6A6A686A9F0EDC
:101B70006B6E390E696E6E6ABBDFD0DF160E706E4B
:101B800068A602D06896FCD76D98E0DF030E266E3B
:101B9000BCEF13F0698468986D82C2EF13F0689C03
:101BA000C8EF13F070A002D0D1DF7090689ACEEF2A
:101BB00013F070C127F0000CFF0E276E000C01011E
:101BC0006E6B2D523DE06E513F083AE3225000010A
:101BD00005E0020A0FE0010A19E024D0036A2C5044
:101BE000F2CF70F1F29EB4DE010170BFF28E6F6F22
:101BF000000118D0036A2C50F2CF70F1F29EECDE97
:101C0000010170BFF28E6F6F00010CD0036A2C507F
:101C1000F2CF70F1F29ECFDE010170BFF28E6F6FD6
:101C2000000100D02C2A2D0601016E516E2B036A93
:101C3000400FE96E050E0320EA6E6FC1EFFFC1D7BA
:101C40002D5204E16E51400801E01F6A6EC170F12F
:101C50000001AFDF000C2C6A226A05010351010A62
:101C6000000105E0030A08E0010A09E021D0120E94
:101C70002D6E030E226E1ED0430E2D6E1BD0020E53
:101C8000226E036A05010251280FE96E000E03203F
:101C9000EA6EEFCF2CF0036A2C50F2CF6DF1F29E7A
:101CA00000019ADE01016DBFF28E2D6E000102D09F
:101CB00083DF0CD00501075305E12D50065D02E2DC
:101CC00006C52DF0010E1F6E000179DF99EF0FF0B0
:101CD00001016D5306E1040E266E00011FDFCED018
:101CE0000101050E266E706F800E6F6F010E6E6F14
:101CF0006E510F08D8A0C2D0716B036A6E51F2CF3B
:101D000075F1F29E0001DBDD010175BFF28E000A64
:101D100055E0040E716FD8906E35036AF2CF75F1FD
:101D2000F29E0001F4DD0900F5CF03F0010175BF5B
:101D3000F28E726F03C073F16E51080DF350010FF4
:101D4000016E040E036ED8B0032A01C0E9FF03C080
:101D5000EAFF72C1EFFF6E51080DF350020F016EE2
:101D6000040E036ED8B0032A01C0E9FF03C0EAFFE6
:101D700070C1ECFFED526FC1EFFFD8906E35036A72
:101D8000F2CF75F1F29E0001C2DD0900F5CF03F03C
:101D9000010175BFF28E6F2703507023880E746F98
:101DA00073B1748173B374836E51080DF3CF01F076
:101DB000040E01C0E9FFEA6E74C1EFFF036A6E51C1
:101DC000F2CF75F1F29E00016ADD010175BFF28E5E
:101DD000000A33E071836E51080DF350060F016E57
:101DE000040E036ED8B0032A01C0E9FF03C0EAFF66
:101DF00070C1ECFFED526FC1EFFFD8906E35036AF2
:101E0000F2CF75F1F29E00016ADD0900F5CF03F013
:101E1000010175BFF28E6F27035070236E51080DBC
:101E2000F350040F016E040E036ED8B0032A01C0F4
:101E3000E9FF03C0EAFF400EEF6E7151060802E1B0
:101E40000E0E716F036A6E51F2CF75F1F29E0001B2
:101E500026DD010175BFF28E020801E07189700E66
:101E60006E25016E0F0E036ED8B0032A01C0E9FF84
:101E700003C0EAFF71C1EFFF6E2B3AD7000191EF6B
:101E80000FF00501015100010DE0010A15E0020A01
:101E900020E0060A2AE0030A31E00E0A30E0010AD7
:101EA00036E045D021C040F50501416B020E01012D
:101EB000706F00017EDE3DD00501022D07D0010EBE
:101EC00021160101706B000174DE02D0000174DE86
:101ED00030D00501022D06D021820101706B000176
:101EE00068DE02D0000168DE24D0020E1F6E02C53B
:101EF0002BF00101706B00015CDE1BD0ACD620C062
:101F000040F5010E0101706F000153DE12D0050192
:101F1000025101080AE302C520F002C56DF100017B
:101F2000D7D60101706B000144DE000102D044DE0F
:101F300000D031EF11F020C06DF105010151000119
:101F400005E00A0A0CE0010A31E045D00501406BCA
:101F5000416B020E0101706F00012BDE3ED00101CA
:101F60006D5321E0010E6D5D036AF2CF6EF1F29EBA
:101F7000000118DD01016EBFF28E016E0501045DE6
:101F8000D8A002D001010FD0036A04512E0FE96ED0
:101F9000000E0320EA6EEFCF40F5010E0101706FD5
:101FA000000107DE02D0000107DE17D001016D53EA
:101FB0000FE0036A050104512E0FE96E000E0320A5
:101FC000EA6E02C5EFFF0101706B0001F2DD02D085
:101FD0000001F2DD02D0F0DD00D031EF11F001019F
:101FE0006E916DBF6E816D9F6EA112D0036A6D51AF
:101FF000F2CF6FF1F29E000152DC01016FBFF28E51
:10200000000A02E1000E01D0010E016E12D011D0C3
:10201000036A6D51F2CF6FF1F29E000150DC0101B5
:102020006FBFF28E000A02E1000E01D0010E016EB8
:1020300000D0000192EF10F001016E916DBF6E8132
:102040006D9F6EA110D06D51080DF350040F016EFD
:10205000040E036ED8B0032A01C0E9FF03C0EAFFF3
:10206000880EEF6E09D06D51080DF3CF01F0040E0C
:1020700001C0E9FFEA6EEF6A0001A1EF10F0010173
:102080006E916DBF6E816D9F6EA110D06D51080D68
:10209000F350040F016E040E036ED8B0032A01C082
:1020A000E9FF03C0EAFF840EEF6E0AD06D51080D00
:1020B000F3CF01F0040E01C0E9FFEA6E840EEF6E6B
:1020C0000001A9EF10F001016E916DBF6E816D9F4F
:1020D0006EA110D06D51080DF350040F016E040E67
:1020E000036ED8B0032A01C0E9FF03C0EAFFEFCFB7
:1020F0006FF10AD06D51080DF3CF01F0040E01C04D
:10210000E9FFEA6EEFCF6FF16FAF02D06FB502D08B
:10211000000E01D0010E016E0001B5EF10F004C5F4
:102120006DF15DD701522EE005010151010A000158
:1021300005E0020A0BE0030A11E022D004C56DF1AC
:102140007BD70101706B000134DD1CD004C56DF13B
:1021500096D70101706B00012CDD14D00501406B96
:10216000416B04C56DF10001AED7015203E0010ED1
:102170000501406F020E0101706F00011ADD02D0EF
:102180001BDD00D031EF11F0FE0E276E000C0501B3
:10219000042D01D002D004534EE1015100010BE0A7
:1021A000010A0DE0210A1CE0010A1FE0030A30E0E9
:1021B000010A35E03DD0010E876FE6DF3BD0050E0A
:1021C000EA6E400EE96EE26A390EE16E080E016EAB
:1021D000E6CFEEFF012EFCD706C570F1EADC2AD06F
:1021E000020E876F8183D0DF25D0050EEA6E400E88
:1021F000E96EE26A300EE16E070E016EE6CFEEFF89
:10220000012EFCD7070E0101706F0001D2DC12D045
:1022100002C586F00101706B0001CBDC0BD002C55A
:1022200038F003C537F00101706B0001C2DC02D049
:10223000C3DC00D00501000131EF11F01F6A050178
:1022400000517F0B000107E0010A06E0030A05E0E8
:10225000230A04E004D015D66ED661D798D7ACDC3B
:1022600000D03BEF13F001016D51080DF3CF01F0E9
:10227000040E01C0E9FFEA6EEFCF6FF16E51020864
:1022800006E16FAD02D06E6B02D0010E6E6F6E5123
:10229000030812E1840E6F6F6D51080DF350040FA7
:1022A000016E040E036ED8B0032A01C0E9FF03C01B
:1022B000EAFF840EEF6E09D06E2D03D0C80E6F6F4B
:1022C00004D06E5302E1880E6F6F036A010E026E36
:1022D0006D51006E05E0D89002360336002EFBD714
:1022E0000250FF0A006EFF0E031A0050231603501F
:1022F0002416D8906D35036AF2CF72F1F29E000178
:1023000087EC0CF00900F5CF03F0010172BFF28EEB
:10231000706F03C071F16D51080DF350010F016E24
:10232000040E036ED8B0032A01C0E9FF03C0EAFF20
:1023300070C1EFFF71B16F8171B36F836D51080D83
:10234000F3CF01F0040E01C0E9FFEA6E6FC1EFFFA9
:102350000001000C01017951080DF350040F016ECA
:10236000040E036ED8B0032A01C0E9FF03C0EAFFE0
:10237000EFCF7DF17DBF5BD07951080DF350050F94
:10238000016E040E036ED8B0032A01C0E9FF03C03A
:10239000EAFF7AC1EFFF7C51020816E17951080D7E
:1023A000F350040F016E040E036ED8B0032A01C06F
:1023B000E9FF03C0EAFFEFCF7DF17DAD02D07C6B7A
:1023C00002D0010E7C6F13D07C51040810E17951CA
:1023D000080DF3CF01F0040E01C0E9FFEA6EEFCF64
:1023E0007DF17DAD03D0010E7C6F01D07C6B7C2D27
:1023F00003D0C80E7D6F04D07C5302E1880E7D6F40
:102400007BB17D817BB37D837951080DF350040F3F
:10241000016E040E036ED8B0032A01C0E9FF03C0A9
:10242000EAFF7DC1EFFF010E016E03D000D0000E68
:10243000016E0001000C8751010A03E0030A14E059
:1024400026D0EA6A390EE96E050EE26EE16A080EE0
:10245000016EE6CFEEFF012EFCD70101706B00018B
:10246000D9EC0DF0876B17D0EA6A300EE96E050ED5
:10247000E26EE16A070E016EE6CFEEFF012EFCD799
:10248000876B0101706B0001D9EC0DF004D0876BF4
:10249000A6EC0DF000D073EF12F001016E51080DA3
:1024A000F350010F016E040E036ED8B0032A01C071
:1024B000E9FF03C0EAFF036AEFCF01F003C002F0B7
:1024C00000016AEF12F08381856B020E01016E6FCD
:1024D0000001E3D701C084F07AEF12F001016D53DF
:1024E00004E10001A8D717D001016D51020804E1F1
:1024F0000001E9D710D00101036A010E026E6D518F
:10250000006E05E0D89002360336002EFBD702504D
:102510002312035024120001000C6EC16EFF010152
:102520006E5303E0040E266E02D0020E266E0001EA
:102530009FEF12F0206A1F6A2BC06EF1EED720EFDA
:1025400013F001016E51080DF350040F016E040EDB
:10255000036ED8B0032A01C0E9FF03C0EAFFEFCF42
:1025600076F176BF41D06E51080DF350060F016E23
:10257000040E036ED8B0032A01C0E9FF03C0EAFFCE
:10258000ECCF03F0ED52EFCF77F103C078F1756B2C
:10259000746B7551725D1AE303E17151745D16E25B
:1025A0006FC1E9FF70C1EAFFEFCF7BF178C1EAFFAD
:1025B00077C1E9FF7BC1EFFF772BD8B4782B6F2B66
:1025C000D8B4702B742BD8B4752BE3D76EC179F1C6
:1025D00072C17BF171C17AF173C17CF10001BADE85
:1025E000015004D000D00101000E016E0001000C6A
:1025F00082530FE08191020E01016E6F706B410EEC
:102600006F6F726B82C071F1020E736F000199DF00
:10261000826B000C825302E0EBDF01D0818127EF57
:1026200013F001016D530EE11F2C05D00001DFEC0A
:102630000DF006D001011F50020803E100017AD716
:10264000010106D06D51020803E10001E3D7010149
:102650000001000C6C3001016C6F6C336C331F0E89
:102660006C176C5246E1040100513C0B340821E127
:10267000046B0001E3D5273C07D001016D6B030E0D
:102680006E6F0001F0DD12D001016D6B020E6E6FF6
:102690000001E9DD2750FE0809E00101796B7B6B41
:1026A00027C07AF1040E7C6F000154DE6D981ED0B5
:1026B000040100513C0B04081AE101016D6B00019B
:1026C0000DDF01016D6B020E6E6F0001CCDD275036
:1026D000FE080CE0273C01D009D00101796B7B6B2F
:1026E00027C07AF1010E7C6F000134DE040127D08F
:1026F00001016C50040816E1FF0E276E6D6B00019E
:1027000090DF273C01D00AD00101796B7B6B27C099
:102710007AF1020E7C6F00011DDE02D0A6EC0DF0F6
:102720000DD001016CB406D06CC16DF10001D6DE94
:1027300005D001016CC16DF1000173DF04010001DE
:10274000D3EF13F0265201E12FD068522DE068A498
:1027500004D069A402D05DEF0DF06DA201D024D0A9
:1027600068A204D069A202D062EF0DF068A004D084
:1027700069A002D0B5EF0DF068A804D069A802D016
:10278000CAEF0DF068AC04D069AC02D0CFEF0DF009
:1027900068AA04D069AA02D0D2EF0DF068A604D0CE
:1027A00069A602D057D76896A19A2CEF0CF00101C8
:1027B0002D6B2D51070832E3036A2D51D10FE96EBD
:1027C000000E0320EA6EEF6A036A2D51D90FE96EFD
:1027D000000E0320EA6EEF6A036A2D51E10FE96EE5
:1027E000000E0320EA6EEF6A2E6B2E51070814E3E9
:1027F0002D51080DF350306B2F6F036A2E512F258A
:10280000016E305103220150E90FE96E000E0320E2
:10281000EA6EEF6A2E2BE9D72D2BCBD700010EEFF6
:1028200022F08A9A939AC95053C1C9FFC730FEE378
:10283000C95054C1C9FFC730FEE38A8A939A000C7D
:10284000010EEA6E2E0EE96EEF500EE00F0E016ED5
:10285000006A002EFED7012EFBD78F0E006E002ED1
:10286000FED70000EF2EF2D778EF14F00B0E010127
:10287000536F070E546F0001D4DF0A0E0101536F2E
:102880000F0E546F0001CDDF010E01012D6F2D5190
:10289000080809E32DC153F12DC154F10001C1DF36
:1028A00001012D2BF4D70C0E536F010E546F000154
:1028B000B8DF0F0E0101536F546B0001B2DF01014D
:1028C0002D6B2D513F0817E3400ED8802D55006E1B
:1028D00000302E6F2E333F0E2E170A0E536F2EC16F
:1028E00054F100019EDF080E01012E6F0001A8D7F0
:1028F00001012D2BE6D70A0E536F0F0E546F000106
:1029000090DF010E01012D6F2D51080808E32DC144
:1029100053F1546B000185DF01012D2BF5D7000128
:1029200026EF22F06D6A696A080E6F6E94503009C6
:102930000101946E266A186AF2BE188EF29E00019A
:1029400078EC0DF018BEF28E246A236ACBEF14F0F7
:10295000186AF2BE188EF29E78EC0DF018BEF28E58
:102960006D6A140E6F6E696A6D86010E266EBCEF7D
:1029700014F06DB601D0ECD7262C0BD06DBA09D06F
:10298000686A696AA08AC00EF212110E696E020EA0
:10299000266E000CC7D7EDDF26500208FCE12AEFB7
:1029A00022F083B101D0FDD78551852B036A880FB2
:1029B000E96E050E0320EA6EEFCF56F1010100012A
:1029C0008451855D0DE38391186AF2BE188EF29EE4
:1029D000020E01016D6F6E6F000145DC18BEF28EB4
:1029E000010156C101F00001FBEF14F00101530792
:1029F000546B0001D6D701C055F1010155510808AB
:102A000004E1545301E0540713D055511F0810E25C
:102A100055517E080DE35351545D0AE25451542B35
:102A2000036A5125E96E52510320EA6E55C1EFFF4A
:102A300055510D08DEE1036A54515125E96E52519A
:102A40000320EA6EEF6A000133EF18F05AC15EF11D
:102A500059C15DF15EC103F001015DC1E9FF5EC1D5
:102A6000EAFFEF5230E05CC160F15BC15FF160C131
:102A700003F05FC1E9FF60C1EAFFEF520AE159517B
:102A80005D5D006E5A515E59036E00C001F023D0A7
:102A900010D05DC1E9FF5EC1EAFFEFCF61F160C117
:102AA00003F05FC1E9FF60C1EAFFEF50615D01E142
:102AB00004D05F2BD8B4602BDAD75D2BD8B45E2B53
:102AC0000001C8D7010159515D5D006E5A515E5930
:102AD000036E00C001F00001C3EF15F05AC15EF1B2
:102AE00059C15DF15EC103F001015DC1E9FF5EC145
:102AF000EAFFEF522AE05CC160F15BC15FF160C1A7
:102B000003F05FC1E9FF60C1EAFFEF5218E05DC169
:102B1000E9FF5EC1EAFFEFCF61F160C103F05FC181
:102B2000E9FF60C1EAFFEF50615D05E15DC101F0C1
:102B30005EC102F00DD05F2BD8B4602BE0D75D2BC7
:102B4000D8B45E2B0001CED70101000E016E026EDB
:102B50000001E4EF15F001015151521104E052C19E
:102B600003F0515103D01AC003F01950556F03C040
:102B700056F156C15AF155C159F154C15CF153C1D6
:102B80005BF1000163D7015001015527000E562368
:102B900056C103F055C1E9FF56C1EAFFEF520AE101
:102BA00019C0E9FF1AC0EAFF200EEF6E000E016E99
:102BB000026E27D056C15AF155C159F154C15CF18A
:102BC00053C15BF100018AD702C058F101C057F12F
:102BD00058C103F0010157C1E9FF58C1EAFFEF52A4
:102BE00008E057C1E9FF58C1EAFFEF6A572BD8B494
:102BF000582B58C11AF057C119F055C101F056C1F0
:102C000002F00001000C010151C1E9FF52C1EAFFCD
:102C1000EFCF55F154C103F053C1E9FF54C1EAFFAE
:102C2000EF50555D15E152C103F051C1E9FF03C0FA
:102C3000EAFFEF5203E1000E016E1FD052C103F014
:102C40005151512BD8B4522B532BD8B4542BDCD721
:102C500052C103F051C1E9FF52C1EAFFEFCF55F174
:102C600054C103F053C1E9FF54C1EAFFEF50555D71
:102C700002E2FF0E01D0010E016E0001000C006A9D
:102C8000016A01015851D89059B100260032013231
:102C900059B300260032013259B500260032013204
:102CA00059B700260032013259B9002600320132EC
:102CB00059BB00260032013259BD002600320132D4
:102CC00059BF0026003201320001D5EF16F0010194
:102CD000566B546B0A0E556F536B5151521103E1F1
:102CE000000E016EC3D05651562B036A5125E96E72
:102CF00052510320EA6EEFCF57F157512D080DE1E5
:102D0000010E546F5651562B036A5125E96E5251EC
:102D10000320EA6EEFCF57F10DD057512B080AE18F
:102D20005651562B036A5125E96E52510320EA6E23
:102D3000EFCF57F157512F08D8B090D057513908DD
:102D4000D8A08CD05751300821E1036A5651512543
:102D5000E96E52510320EA6EEF5078080AE0036AE8
:102D600056515125E96E52510320EA6EEF50580832
:102D70000DE1100E556F562B5651562B036A5125F7
:102D8000E96E52510320EA6EEFCF57F155510A0810
:102D90001DE157512F0819E25751390816E30A0E61
:102DA000586F53C159F100016AD7300E0101575DC8
:102DB0000124536F5651562B036A5125E96E525127
:102DC0000320EA6EEFCF57F1E4D748D055511008F1
:102DD00045E15751600806E257517A0803E357511D
:102DE000DF0B01D05751576F57512F0803E257514E
:102DF000390806E25751400831E2575146082EE3A0
:102E000057512F080CE25751390809E35339586FCD
:102E1000F00E5817300E575D5825536F09D05339AF
:102E2000586FF00E5817410E575D0A0F5825536F13
:102E30005651562B036A5125E96E52510320EA6E12
:102E4000EFCF57F15751600806E257517A0803E374
:102E50005751DF0B01D05751576FC6D7542D04D0AF
:102E600055510A0801E1536D53C101F00001000CF6
:102E700001015151080801E211D029510F0B03E162
:102E8000000181850101010E006E5151016E04E0C7
:102E9000D8900036012EFCD700502913000126EFF0
:102EA0001AF001015151080801E212D0010E006E22
:102EB0005151016E04E0D8900036012EFCD700502D
:102EC000FF0A291729510F0B03E100018195010128
:102ED000000126EF1AF001015991F2BE5981F29ECC
:102EE000000182513F0802E23F0E826F8251822B25
:102EF000036A410FE96E000E0320EA6E58C1EFFF2E
:102F0000F29E010159B1F28E000181A108D0186A28
:102F1000F2BE188EF29EF8EC12F018BEF28EA2EFFE
:102F200017F082513F080BE281A108D0186AF2BE67
:102F3000188EF29EF8EC12F018BEF28EF2D757C13E
:102F400058F1C9D7000C01015851016A575D03E2DD
:102F500057C100F00CD0006A080E596F5737003681
:102F60005851005CD8B0006E0136592FF7D70001D8
:102F7000000C200E010152A9300E536F51C100F018
:102F800051AF07D0001E002A00C051F12D0E536F23
:102F9000528F015051C157F1640E586F0001D3DFB9
:102FA00000C051F1300E01240101546F51C157F19D
:102FB0000A0E586F0001C7DF300E00240101566F62
:102FC000300E0124556F53C100F052A702D052AF0A
:102FD000529552B90BD052AF22D052B520D000C07A
:102FE00054F152B31CD000C055F119D0300E545DCD
:102FF00016E100C054F1200E536F52A704D0529531
:10300000528352AF5293300E555D09E100C055F125
:10301000200E546F52A7F7D7529352AF529152A538
:1030200005D053C157F100017CDF010152A305D047
:1030300054C157F1000175DF010152A104D055C1FF
:1030400057F100016EDF56C157F100016ADF000C35
:1030500083A1C6D2010E0101526F2E0E516F140EC4
:10306000536F0001C3D4010E0101526F2E0E516F38
:10307000546B910E536F00016EDD02C043F101C02D
:1030800042F143C152F142C151F10101546B930E1F
:10309000536F0001B8DD0152D8A478D00101526B02
:1030A000516B546B910E536F000155DD02C043F11B
:1030B00001C042F143C152F142C151F108DE01C0E9
:1030C00044F10101526B516B546B910E536F00012F
:1030D00042DD02C043F101C042F143C152F142C19D
:1030E00051F1F5DD01C045F10101526B516B546B9B
:1030F000910E536F00012FDD02C043F101C042F178
:1031000043C152F142C151F1E2DD01C046F101017A
:10311000465315E1036A4551880FE96E000E0320FE
:10312000EA6E010E006E4451016E04E0D890003644
:10313000012EFCD70050FF0AEF14EF6E13D0036A84
:103140004551880FE96E000E0320EA6E010E006EF5
:103150004451016E04E0D8900036012EFCD7005097
:10316000EF10EF6E010E4525516F036A4551880F30
:10317000E96E000E0320EA6EEFCF52F151C153F118
:1031800052C154F1000111EC14F02AD243C152F1A2
:1031900042C151F10101546B970E536F000133DDB1
:1031A0000152D8A49DD00101526B516B546B910E0A
:1031B000536F0001D0DC02C043F101C042F143C1B2
:1031C00052F142C151F183DD01C047F10101526B5F
:1031D000516B546B910E536F0001BDDC02C043F183
:1031E00001C042F143C152F142C151F170DD01C051
:1031F00048F1902D25D001012D6B2D5107081EE3BC
:10320000036A2D51880FE96E000E0320EA6EEF6A03
:10321000010E2D25516F036A2D51880FE96E000EA6
:103220000320EA6EEFCF52F151C153F152C154F174
:10323000000111EC14F001012D2BDFD70001906B80
:1032400001012D6B2D5107084AE3010E006E2D512F
:10325000016E04E0D8900036012EFCD700504815CE
:1032600014E0036A2D51880FE96E000E0320EA6E08
:10327000010E006E4751016E04E0D8900036012E19
:10328000FCD70050EF10EF6E14D0036A2D51880F59
:10329000E96E000E0320EA6E010E006E4751016ECA
:1032A00004E0D8900036012EFCD70050FF0AEF143E
:1032B000EF6E010E2D25516F036A2D51880FE96EB7
:1032C000000E0320EA6EEFCF52F151C153F152C10B
:1032D00054F1000111EC14F001012D2BB3D781D171
:1032E00043C152F142C151F10101546B9F0E536F22
:1032F000000189DC01526BE10101526B516B546B8F
:10330000910E536F000127DC02C043F101C042F16E
:1033100043C152F142C151F1DADC01C049F101016E
:10332000526B516B546B910E536F000114DC02C051
:1033300043F101C042F143C152F142C151F1C7DC36
:1033400001C04AF1902D25D001012D6B2D510708A8
:103350001EE3036A2D51880FE96E000E0320EA6E0A
:10336000EF6A010E2D25516F036A2D51880FE96E0A
:10337000000E0320EA6EEFCF52F151C153F152C15A
:1033800054F1000111EC14F001012D2BDFD70001E5
:10339000906B036A01014951880FE96E000E03200A
:1033A000EA6E4AC1EFFF010E4925516F036A495188
:1033B000880FE96E000E0320EA6EEFCF52F151C183
:1033C00053F152C154F1000111EC14F009D143C181
:1033D00052F142C151F10101546BA70E536F00012C
:1033E00012DC015234E10101526B516B546B910EAE
:1033F000536F0001ABEC15F002C043F101C042F184
:1034000043C152F142C151F162DC01C04BF10101F3
:10341000526B516B546B910E536F0001ABEC15F076
:1034200002C043F101C042F143C152F142C151F126
:103430004EDC01C04CF101014C5304E04BC151F191
:10344000000116D54BC151F100012BD5C9D043C1A4
:1034500052F142C151F10101546BB20E536F0001A0
:1034600003EC16F001521DE10101526B516B546BDC
:10347000910E536F0001ABEC15F002C043F101C097
:1034800042F143C152F142C151F121DC01C04DF181
:103490000A0E0101536F4DC154F1000111EC14F0FB
:1034A0009FD043C152F142C151F10101546BBC0E96
:1034B000536F000103EC16F001521EE10101526B43
:1034C000516B546B910E536F0001ABEC15F002C0C1
:1034D00043F101C042F143C152F142C151F167ECE5
:1034E00016F001C04EF10F0E0101536F4EC154F1A1
:1034F000000111EC14F074D043C152F142C151F1FA
:103500000101546BC10E536F000103EC16F0015220
:103510001EE10101526B516B546B910E536F000110
:10352000ABEC15F002C043F101C042F143C152F1CE
:1035300042C151F167EC16F001C04FF10C0E0101D0
:10354000536F4FC154F1000111EC14F049D043C145
:1035500052F142C151F10101546BCA0E536F000187
:1035600003EC16F001523CE10101526B516B546BBC
:10357000910E536F0001ABEC15F002C043F101C096
:1035800042F143C152F142C151F167EC16F001C062
:1035900050F10101516B5151000122EC0DF001017C
:1035A000512B006E576F0001BCDC070E0101515D0D
:1035B000F2E150C151F11F0E526F0001DADC200E12
:1035C0000101576F0001ADDC010E0101516F1F0EAB
:1035D000526F0001CEDC0D0E0101576F0001A1DC1E
:1035E0000101000133EF22F001013291036A3051F1
:1035F000D10FE96E000E0320EA6EEFCF33F1036ABC
:103600003051D90FE96E000E0320EA6EEF50331BE4
:10361000010E006E3151016E04E0D8900036012E8B
:10362000FCD70050331531E0036A3051D10FE96EF9
:10363000000E0320EA6EEFCF33F1036A3051E10F41
:10364000E96E000E0320EA6EEF50331B010E006E90
:103650003151016E04E0D8900036012EFCD70050A5
:10366000331513E03051080DF350346B336F036A98
:1036700031513325016E345103220150E90FE96EB7
:10368000000E0320EA6EEF6AA4D0036A3051D10F16
:10369000E96E000E0320EA6EEFCF33F1036A30517A
:1036A000D90FE96E000E0320EA6EEF50331B010EB6
:1036B000006E3151016E04E0D8900036012EFCD727
:1036C00000503315D8A485D0036A3051D10FE96E6C
:1036D000000E0320EA6EEFCF33F1036A3051E10FA1
:1036E000E96E000E0320EA6EEF50331B010E006EF0
:1036F0003151016E04E0D8900036012EFCD7005005
:10370000331567E03051080DF350346B336F036AA3
:1037100031513325016E345103220150E90FE96E16
:10372000000E0320EA6EEF501F0853E33051080DDE
:10373000F350346B336F036A31513325016E3451CA
:1037400003220150E90FE96E000E0320EA6EEF2A12
:10375000EF5020083EE1036A3051D10FE96E000EB0
:103760000320EA6EEFCF33F1010E006E3151016E8E
:1037700004E0D8900036012EFCD70050331514E039
:10378000036A3051E10FE96E000E0320EA6E010E6C
:10379000006E3151016E04E0D8900036012EFCD746
:1037A0000050EF10EF6E14D0036A3051E10FE96E54
:1037B000000E0320EA6E010E006E3151016E04E02E
:1037C000D8900036012EFCD70050FF0AEF14EF6EA0
:1037D0003281000E32B1010E016E00015DEF1CF06E
:1037E0008A9E939E01012D6B2D510708D8A0C3D04E
:1037F0008A8C939C8A9C939C8A8E939E036A2D51FB
:10380000D90F016E000E032203C031F1036A2D515E
:10381000D10FE96E000E0320EA6EEFCF32F131C115
:10382000EAFF01C0E9FF32C1EFFF8B929492130EC1
:10383000006E002EFED700D08B8294922E6B2E51FC
:103840000708D8A096D0948C2F6B82BC2F2B2F53B7
:1038500002E0000E01D0010E2F6F2F5314E0036A17
:103860002D51D10FE96E000E0320EA6E010E006E9D
:103870002E51016E04E0D8900036012EFCD7005086
:10388000EF10EF6E14D0036A2D51D10FE96E000EC8
:103890000320EA6E010E006E2E51016E04E0D890F6
:1038A0000036012EFCD70050FF0AEF14EF6E2DC139
:1038B00030F12EC131F1000197D6015253E0036A75
:1038C00001012D51E10FE96E000E0320EA6EEFCFEA
:1038D00030F1010E006E2E51016E04E0D8900036DA
:1038E000012EFCD70050301502E0010E01D0000E71
:1038F000306F316B3151000136EC0DF00101312B8D
:10390000006E576F000191EC17F0060E0101315D5A
:10391000F1E12EC151F11F0E526F0001B9EC17F009
:10392000200E0101576F000191EC17F02DC151F1EC
:103930001F0E0101526F0001B9EC17F0200E0101BA
:10394000576F000191EC17F030C151F11F0E0101CA
:10395000526F0001B9EC17F00D0E0101576F000115
:1039600091EC17F08B8094908B90949001012E2B0A
:1039700066D72D2B39D7000135EF22F08E0E006E61
:1039800035C101F034C102F0036A015209E102C0FD
:1039900001F0026A080E005E015202E1006A08D0DE
:1039A000D89001BE04D0023601360006F9D7019E38
:1039B000C7EF20F0800ED8A202D00101391B01010F
:1039C0003E6B3F6B35C13DF139513D1B3451D8B48D
:1039D000DFD03C6F006E3851D8B4E3D03C5FD8B430
:1039E00083D03EE339C142F1428F3AC141F13BC13C
:1039F00040F13F6BD8904233413340333F333C2F4B
:103A0000F8D73DAF03D03E81E0D03E913C913E8956
:103A1000010EEA6E370EE96EEBD03E993DBF0AD03B
:103A20003CA113D04233413340333F33002AD8B452
:103A3000C7D00BD042BF0CD0D8903F37403741376A
:103A400042370006D8B4BCD0F5D73E8D6DD03E9D30
:103A500035C13DF135AF02D0428FABD0429FA9D0E6
:103A600038C13CF138C100F034513C5F35C142F1FE
:103A7000428F36C141F137C140F13F6BD89042339C
:103A8000413340333F333C2FF8D73DAF03D03E8323
:103A90009CD03E933C913E8B010EEA6E3B0EE96E4C
:103AA000A7D03E9B3DBF0AD03CA113D04233413347
:103AB00040333F33002AD8B483D00BD042BF0CD060
:103AC000D8903F374037413742370006D8B478D0D6
:103AD000F5D73E8F29D03E9F39C13DF139AF02D095
:103AE000428F67D0429F65D039C142F1428F3AC1BF
:103AF00041F13BC140F13DAF04D0429F3E8565D0CE
:103B00003E953F6B3C91010EEA6E370EE96E70D028
:103B10003DBF1CD035C13DF13CA106D042334133FD
:103B200040333F33002A4CE03FAF0BD0402B09E13C
:103B3000412B07E1422B05E1423341334033002A58
:103B40003FE03EBD84D73EBFC6D71CD0800E421B8F
:103B500042AF04D03AD039C13DF10AD035C13DF170
:103B6000425306E1415304E1405302E1006A21D08F
:103B700042BF08D0D8903F37403741374237002EF8
:103B8000F7D71ED03DAF02D0428F13D0429F11D045
:103B900038C100F039C142F13AC141F13BC140F1B5
:103BA00008D034C100F035C142F136C141F137C10E
:103BB00040F142C101F041C102F040C103F034D0F4
:103BC000006A016A026A036A2FD03F6B401F411FDF
:103BD000421F3F1F3F2B05E1402B03E1412B01E139
:103BE000422B3EB112D73EB354D73EB589D7B3D797
:103BF000EF50402705E3412B03E1422BD8B43C8131
:103C0000ED52EF50412703E3422BD8B43C81ED52F3
:103C1000EF50EFBE01D0800A4227D8B03C813EB9B8
:103C2000FCD63EBB3ED774D70001D9EF20F001018E
:103C30003851D8B4A5D0446F3C51D8B4A1D0445F1A
:103C400005E37F0E4427D8B09BD006D0810E445F99
:103C5000D8A096D0D8B494D044C100F0016A026ACA
:103C6000036A436B39C142F1428F3AC141F13BC112
:103C700040F1190E446F3F51405F0DE2010E415F6C
:103C80000AE2425F08E2435F06E2432B422B412BEC
:103C90003F51402728D03E51415F12E2010E425F62
:103CA0000FE2435F0DE2432B422B3E5141273F5130
:103CB000402719E3412B17E1422B15E1432B13D089
:103CC0003D518009425F0EE2010E435F0BE2432B40
:103CD0003D51800942273E514127E9E3422BE7E16C
:103CE000432BE5D70380442F01D00BD0D890403729
:103CF000413742374337D8900336023601364537CD
:103D0000BAD745A106D0D8900132023203324533EA
:103D100002D0000635E045BF1ED0D890403741376D
:103D2000423743373F51405F07E2010E415F04E2F3
:103D3000425F02E2435F1AE33E51415F05E2010E3A
:103D4000425F02E2435F12E33D518009425F03E2BA
:103D5000010E435F0BE3032A09E1022A07E1012A6E
:103D600005E1002A0DE001320232033239C144F18B
:103D70003D51441B44AF02D0018E06D0019E04D0B9
:103D8000006A016A026A036A0001000C01014151E4
:103D9000D8B471D0006E4551D8B46DD0002604E37C
:103DA000810E002668E204D07F0E005E64E363E0CB
:103DB00042C149F14651491B428F468F4451480345
:103DC000F4CF4BF143514703F4CF03F0F3CF4AF163
:103DD0004803F3504B27F4504A23000E032244516A
:103DE0004703F3504B27F4504A23000E026A032284
:103DF000022242514803F3504A27F4500322000E96
:103E0000022242514703F3500326F4500222000ECF
:103E1000016A012244514603F3504A27F450032219
:103E2000000E0222012243514603F3500326F450B0
:103E30000222000E012242514603F3500226F450A2
:103E40000122002A01BE05D04A3703360236013668
:103E50000006000E4AAF0AD0032A022201220150B6
:103E600005E1025003E1035001E1002A49BF018E40
:103E700049AF019E04D0006A016A026A036A000128
:103E8000BAEF1FF001014151B608416F036A42C108
:103E900045F1428FD89042334333443303320232E8
:103EA00001320032412FF6D745AF0BD0001E011E64
:103EB000021E031E002AD8B4012AD8B4022AD8B49C
:103EC000032A0001CFEF1FF0006A016A026A036A49
:103ED0000101496B4A6B4B6B4C6B485147114611C2
:103EE00045112CE0200E4D6FD890413742374337B3
:103EF000443749374A374B374C3748514C5D08E116
:103F000047514B5D05E146514A5D02E14551495D2E
:103F10000FE34551495F4651D8A0463D4A5F47519E
:103F2000D8A0473D4B5F4851D8A0483D4C5FD88052
:103F300000360136023603364D2FD6D7010EEA6E13
:103F4000490EE96E0001000CE9500101396F38514A
:103F50003B6F1BE037C144F136C143F135C142F13B
:103F600034C141F1486B476B200E466F820E456F9E
:103F700000010CD703C037F102C036F101C035F1A2
:103F800000C034F101013B2FE5D737C144F136C100
:103F900043F135C142F134C141F1000173D703C08F
:103FA00037F102C036F101C035F100C034F1010132
:103FB00037AF0DD03907398B341F351F361F371FE8
:103FC000342BD8B4352BD8B4362BD8B4372B3B0E82
:103FD000406F9A0E3F6FCA0E3E6F3D6B0A0E3B6FED
:103FE0003851D8B4392B37C144F136C143F135C10A
:103FF00042F134C141F140C148F13FC147F13EC1F6
:1040000046F13DC145F100015FDF0150EFCF34F1D2
:10401000ECCF35F1ECCF36F1ECCF37F1005213E1B4
:10402000010138293B5DD8A402D000010CD03951E0
:104030000DE00F0B3B5D01E044E239BF42D039BDDA
:1040400005D0200E37D0200E0101391739AB0FD023
:10405000399B3851D8A439070050396F2D0E576F4E
:10406000000191EC17F001013951006E396B3851A4
:104070003B5D0DE10050396F2E0E576F000191EC42
:1040800017F001013951006E200E3917000E300E65
:1040900039AB10D0399B3851D8A439070050396F4B
:1040A0002D0E576F000191EC17F001013951006E90
:1040B000396B300E002600C057F1000191EC17F06B
:1040C000010140C144F13FC143F13EC142F13DC154
:1040D00041F1486B476B466B0A0E456F0001F4DEF9
:1040E00003C040F102C03FF101C03EF100C03DF10C
:1040F00001013B2F78D7000140EF21F081A5CED000
:1041000001012D511808D8B0C8D0010E006E2E51F3
:10411000016E04E0D8900036012EFCD7005029151E
:10412000346F010E006E2E51016E04E0D8900036FF
:10413000012EFCD70050345DD8A4A9D0306B316B70
:10414000326B336B2F6B2F5107083EE3036A2E51FE
:10415000F2CF34F1F29E000110EC0DF0010134BFFA
:10416000F28E346F3435006E0036FC0E0016C250ED
:10417000C30B0010C26EC282C2B2FED7C4CF03F01E
:10418000C3CF34F1C4CF35F10001BEEF1CF0D8929B
:1041900033C137F132C136F131C135F130C134F1BB
:1041A00003C03BF102C03AF101C039F100C038F15F
:1041B00001D403C033F102C032F101C031F100C0BB
:1041C00030F101012F2BBFD733C13BF132C13AF19E
:1041D00031C139F130C138F13F6B3E6B3D6B820E1E
:1041E0003C6F000124DD00C034F101C035F102C094
:1041F00036F103C037F103C03BF102C03AF101C010
:1042000039F100C038F101013F6B3E6B3D6B890E07
:104210003C6F00010CDD03C033F102C032F101C07C
:1042200031F100C030F10101346B345100014BEC2D
:104230000DF00101342B006E576F000191EC17F067
:10424000040E0101345DF1E12EC151F11F0E526FD8
:104250000001B9EC17F0200E0101576F000191EC3D
:1042600017F0890EE96E33C137F132C136F131C131
:1042700035F130C134F1020E0101386F000164D60E
:104280000D0E0101576F000191EC17F001012E2B6B
:104290002E51080801E22E6B2D6B2D2B00013AEFF9
:1042A00022F0F86AD09E088EEA6AE96AC150C00B13
:1042B0000F09C16E070EB46E196A1A6A266A286A57
:1042C000040E296E0C0E2A6E2D6A826B876B010E0E
:1042D000906F200E916F926B6C0E936F650E946FC2
:1042E000640E956F966B6C0E976F650E986F640EEB
:1042F000996F5F0E9A6F630E9B6F6F0E9C6F6C0EC3
:104300009D6F9E6B9F6F650EA06F640EA16F5F0E19
:10431000A26F720EA36F6F0EA46F770EA56FA66BC0
:10432000610EA76F640EA86F630EA96F5F0EAA6F70
:10433000650EAB6F6E0EAC6F610EAD6F620EAE6F41
:104340006C0EAF6F650EB06FB16B690EB26F6E0E13
:10435000B36F740EB46F650EB56F6E0EB66F730EDD
:10436000B76F690EB86F740EB96F790EBA6FBB6B09
:10437000740EBC6F650EBD6F730EBE6F740EBF6F93
:10438000C06B730EC16F680EC26F750EC36F740E73
:10439000C46F640EC56F6F0EC66F770EC76F6E0E5B
:1043A000C86FC96B720ECA6F650ECB6F700ECC6F83
:1043B0006F0ECD6F720ECE6F740ECF6FD06B01018A
:1043C000296B0001819501012B6B2C6BC150C00B37
:1043D000C16EC090C082C084C08EC280C69A949EB6
:1043E00093809392210EC66E400EC76ED190800EC0
:1043F000D56ECD6A000ECA6E000ECB6EB16A070E86
:10440000B46E9250926E270E006E002EFED700D032
:10441000B450A19CB56A0001D7EF13F08A8E939E29
:1044200001012A6B2A5107080EE3036A2A51880FFB
:10443000E96E000E0320EA6EEF6A8A8C939C8A9CD8
:10444000939C2A2BEFD7000136EF14F066EC0DF0A9
:10445000CAEF14F081B301D0FDD7B9EC14F02052AB
:1044600009E028EF18F0F0EF1BF02BC12DF12CC163
:084470002EF144D6F2D703003F
:020000040030CA
:0E000000240E390E000580000FC00FE00F40E7
:00000001FF
;PIC18F2550
;CRC=F78B  CREATED="04-6-09 08:34"
