:020000040000fa
:080000000004040000000000f0
:020000040000fa
:10080000cfac2000007f2200000188000000000023
:100810000c000700003a2100010020001100070031
:10082000000020000000e000020032000000020092
:1008300000000000700d0200000000000040da001f
:100840000000fe004440a900000c20000000e00071
:100850000300320000002000a00188004440a800ee
:100860000000060091018800800078000000eb0085
:1008700015003700e280400032a0b4009101ba00b8
:10088000e280400032a0b4009102ba00e280400051
:1008900032a0b4000002eb00472bde00f507b200e7
:1008a000602ce10004003a000059eb008301e900ec
:1008b000fdff3e00040037006128e1000100320026
:1008c0000082eb00040007001101ba000200e00002
:1008d000e8ff3a00000006003159ba008301e90040
:1008e0000c0032002159ba008301e90008003200ef
:1008f0000400e00003003a00e280400032a0b400af
:10090000f5ff370011d9ba008301e900faff3a0078
:100910008100e800e180400032a0b4000000060041
:020000040000fa
:020000040001f9
:0457f00010ff0000a6
:020000040000fa
:020000040001f9
:0457f400c0fc0000f5
:020000040000fa
:020000040001f9
:0457f800ae4b0000b4
:020000040000fa
:020000040001f9
:0457fc00603d00000c
:020000040000fa
:1000080004140000081400000c1400001014000070
:100018001414000004140000041400000414000068
:10002800181400001c140000201400002414000000
:1000380004140000281400002c14000030140000e0
:1000480034140000381400003c1400004014000070
:1000580044140000481400000414000004140000b4
:100068004c140000501400005414000058140000f0
:100078005c140000041400000414000004140000c0
:1000880004140000601400006414000068140000e8
:100098006c14000070140000741400007814000040
:1000a8007c140000801400000414000004140000f4
:1000b8000414000084140000881400008c1400004c
:1000c800041400009014000004140000041400003c
:1000d8000414000094140000041400000414000028
:1000e80004140000981400009c140000041400007c
:1000f8000414000004140000041400000414000098
:100108000414000004140000041400000414000087
:100118000414000004140000a014000004140000db
:1001280004140000a4140000a8140000ac1400007b
:100138000414000004140000041400000414000057
:10014800b01400000414000004140000041400009b
:1001580004140000b4140000041400000414000087
:100168000414000004140000041400000414000027
:100178000414000004140000b81400000414000063
:100188000414000004140000041400000414000007
:1001980004140000041400000414000004140000f7
:1001a80004140000041400000414000004140000e7
:1001b80004140000041400000414000004140000d7
:020000040000fa
:020000040000fa
:10280000c0f72f004027b6000004040000000000bd
:0428100000000600be
:020000040000fa
:10092000120100001001000000000000000800009b
:10093000d80400003c00000002000000010200009a
:100940000001000009020000290000000101000070
:1009500000c0000032090000040000000002000096
:100960000300000000000000092100001101000048
:1009700000010000221d00000007000005810000aa
:100980000340000000010000070500000103000013
:100990004000000001000000040300000904000002
:1009a000340300004d0000006900000063000000f7
:1009b000720000006f00000063000000680000008b
:1009c00069000000700000002000000054000000da
:1009d0006500000063000000680000006e00000079
:1009e0006f0000006c0000006f0000006700000056
:1009f0007900000020000000490000006e000000a7
:100a0000630000002e0000002603000055000000d7
:100a100053000000420000002000000048000000d9
:100a200049000000440000002000000042000000d7
:100a30006f0000006f000000740000006c000000f8
:100a40006f0000006100000064000000650000000d
:100a50007200000006000000ff09000001a1000074
:100a600001190000012900004015000000260000c7
:100a7000ff000000750800009540000081000000a4
:100a8000190100002940000091000000c000000092
:100a9000a2840000cc840000d08400000485000003
:020000040000fa
:100aa0009ec0a900f00f2000702488005024880008
:100ab0008000eb0031258800412588008644a9008c
:100ac000f009200080248800602488008804a800a1
:100ad00000a020004800de00c02488009424a80064
:100ae000b1248800612588009424a90004a0200076
:100af0006011b8004208dd00040040000288be001a
:100b00008100e800e48f5000faff3a00d000200096
:100b1000502588008ac4bf000038a30005003200b9
:100b200081002000512488008ac4bf000038a3003f
:100b3000fcff3a000040eb0012eab7001deab700e4
:100b40001eeab7001feab70094a4a9000000eb005a
:100b500023a220008000eb00c2a2200001b0790097
:100b6000013079000080e800e40f5000fbff3a00fc
:100b700040a0200010518800010078001aeab70058
:100b8000c150880000000600881f7800180ae200a3
:100b900012003a000000eb00a024880060248800c6
:100ba00030258800402588008644a900f0092000ef
:100bb000802488006024880094c4bf000008a3003b
:100bc00004003a009404a80094c4bf000008a300e5
:100bd000fcff320010002000c0508800c050800090
:100be000e10f50000a003a0094c4bf000068a3005f
:100bf00007003a00f00f2000502488008c24ef00fa
:100c00008c04a8008c84a80020002000c05088001c
:100c100080c4bf000048a3000600320082c4bf00a9
:100c20000048a300030032000001200000248800d7
:100c30007a00070088c4bf000018a3000200320039
:100c40008ec0a900580037008ac4bf000008a30066
:100c5000100032008cc4bf000008a3000d00320059
:100c60008fff070040002000c0508800c0a3200074
:100c70001050880080c0b30000eab70030c0b30055
:100c8000016ab600c0c8b300016ab70010002000b6
:100c9000502488008ac4bf000048a3000600320028
:100ca0008cc4bf000048a3000300320053000700bb
:100cb00000012000502488008ac4bf000028a3003f
:100cc000090032008cc4bf000028a30006003200d7
:100cd000120020008000eb00300720002d060700e6
:100ce00040002000502488008a44e20006003d00b5
:100cf000c14820009140780000c8b30080c0600067
:100d0000010032002a0007008ac4bf000018a300b7
:100d1000090032008cc4bf000018a3000600320096
:100d2000120020008000eb00f0ff270019060700ea
:100d3000f00f200070248800c0508000e30f5000a6
:100d400002003e008ec0a900170037008cc4bf000f
:100d50000038a300130032000044eb008ac4bf0037
:100d60000038a3000f0032009024800034eab7005e
:100d70008100200051248800000fb20002003a00d8
:100d80002e000700040037000001eb0041a3200003
:100d900020072000ff0507000844e800e44f540046
:100da000eeff3a008ec0a9004f0478000000060054
:100db000aac4bf000018a3000d00320042518000f9
:100dc0009240900000c8b30080cf500007003a0066
:100dd000105180009040900040c8b30080cf500078
:100de00002003a006840400010419800aa24a9007f
:100df0000008200050248800000006008284a8001b
:100e000000012000502488000001eb008000eb006e
:100e100050072000df050700000006000001eb007e
:100e20008000eb0040072000da0507008284a9005b
:100e300000012000002488000000060034cabf0022
:100e40000080fb00800178000320a1000300e00087
:100e50001c003a0080007800c10fb20000a0200002
:100e60000081400042518800525188001240900099
:100e7000c043b20041c3b300814f50000f003a009d
:100e80009200900040a42000808f500009003a009a
:100e9000c0a320001001980003007800c2a3200026
:100ea00041a42000617178000000e800e80f5000c4
:100eb000fcff3a0007000700050037001800070094
:100ec00003003700e88f510001003a0029000700b5
:100ed0000000060011518000114090000004e00065
:100ee00002003d000040eb00904098000040eb0005
:100ef00030eab70031eab70013eab70014eab700e6
:100f000012eab7005c0007000001eb008000eb0074
:100f1000300020009f0507004a010700000006007e
:100f200010a3200021c0b30090cf100002003a00af
:100f3000050207000e0037003d000700360ae200f8
:100f40000a003a0081c0b300505180000148780087
:100f5000c1a320005051800011009800c1c8b30007
:100f6000505180001140980001003700362aef00f0
:100f700000000600881f780010518000104090008b
:100f80004600de0061046000c0508000e80f5000a1
:100f90000a003a003ecabf000080fb00b02488006f
:100fa0009604e2000300320000012000c0508800d7
:100fb0000200370040002000c050880010a320002d
:100fc00011c0b30090cf100016003a0040a42000da
:100fd00011518000900098008001070000a32000bc
:100fe00021c0b30090cf100004003a0041c8b30004
:100ff00010518000114098000b0037000804e000f9
:1010000004003a0081ccb3001051800011409800d8
:101010000500370081c8b3001051800011409800ce
:1010200001003700020007004f04780000000600ae
:101030000040eb0031eab700115180009040980069
:1010400011518000904098001d4ae20009003d00c7
:1010500001a22000914078008180fb0021cabf00de
:101060004800dd00010070000100320000000100b6
:101070001deaa900000006003ccabf000046b200fd
:1010800040003a003dcabf000080fb000100200084
:10109000eb0f5000e08f58003a003e000060010066
:1010a0001c0037001d003700360037001b003700da
:1010b0003400370006003700090037002d003700e4
:1010c0000b003700080037001600370021003700fa
:1010d00012eaa80080002000c050880029003700d4
:1010e0006200070027003700ea01070025003700eb
:1010f000a0a1200010eab7004800de0011eab70006
:10110000120aa80010c0b30013eab70012eaa80040
:101110001c0037009a0007001a0037001a00070069
:101120001800370040cabf000080fb0061a2200009
:101130000100400010eab7004800de0011eab700e5
:10114000120aa80010c0b30013eab70012eaa80000
:101150000c00370012eaa80040cabf000080fb0064
:1011600061a22000e2a320001241780002f0780082
:10117000040037000001eb008000eb00200020009d
:1011800004050700000006003ecabf00e14f500002
:101190000b003a003ccabf007f40600008003a00e4
:1011a00012eaa8003dcabf00e34f500003003a0016
:1011b00010002000b050880001003700162aef0010
:1011c0003e4ae20028003a003ccabf007f4060006f
:1011d000e24f500024003a0040cabf006f40600058
:1011e0002100320012eaa800404ae2000600350061
:1011f00040cabf006f00600000004000c1a2200094
:10120000608178000500370040cabf006f006000b1
:101210000000400021a22000608178003dcabf008c
:10122000e34f500003003a0040c8b300104198005b
:101230000d00370040cabf006f0060000000400092
:10124000a14a2000010040001014a100404ae20021
:1012500003003d0000c4b3001041980002003700b5
:1012600080ccb3001041980000000600c1a320000c
:101270009140780000c8b30080cf50003f003a0092
:1012800000ccb30012eab7003fcabf00e24f5000e3
:101290000c003200e34f500022003200e14f5000ba
:1012a00035003a000049280010eab7004800de0087
:1012b00011eab70020c1b30013eab700146aef00c7
:1012c0002e0037003ecabf000080fb000000400037
:1012d0008154280001004000f10f200010816000bf
:1012e0000001fd0010eab7000001fd0010007800c9
:1012f0004800de0011eab7004800dd00020070007f
:1013000062004000908060008000fd0013eab7009a
:101310008000fd00100078004800de0014eab700ed
:10132000160037003ecabf00e24f500010003e00da
:101330003ecabf000080fb0000004000a15428000e
:10134000010040001000780010eab700c800de007d
:101350008000fd0011eab7008000fd001040780019
:101360000080fb0013eab700146aef0003003700a7
:10137000126aef0001003700126aef000000060059
:101380000040eb0044eab70045eab7003ccabf00a2
:101390007f006000e10f50000b003200e20f5000b0
:1013a0000b0032000000e0001c003a0012eaa80026
:1013b000440aa800b0508000e10f500017003a0026
:1013c000442aa8001500370012eaa80013003700cd
:1013d00012eaa800404ae2000600350040cabf00f9
:1013e0006f00600000004000c1a220006080780013
:1013f0000500370040cabf006f00600000004000d9
:1014000021a2200060807800104090000028a300f6
:101410000200320010c0b30044eab700124ae200f2
:1014200007003d0040a4200010eab7004800de009d
:1014300011eab700120aa80020c0b30013eab700ef
:101440000000060094a4a90001c8b30012cabf009e
:101450000141600020003a001dcabf000140600049
:101460001000320020c0b30031eab70010518000f4
:101470000248780082ccb3001051800012409800de
:1014800081c0b300505180000148780041a4200081
:101490005051800011009800505180001240980077
:1014a0004d00370081c0b3005051800001487800e2
:1014b000c1a320005051800011009800c1c8b300a2
:1014c0005051800011409800e8c050001051800039
:1014d00011409800400037001d4ae2003e003500f0
:1014e0003ccabf0001c8b300014060002b003200bd
:1014f00042cabf000080fb0032a4200012417800e5
:101500004811dd000001710031a1200091407800f8
:101510008180fb0014cabf004800dd00010070009c
:10152000800f51000900310021a420009140780073
:101530008180fb0043cabf004800dd00010070004d
:1015400013eab7004800de0014eab70023000700e2
:1015500010c0b30031eab70081c0b3005051800021
:1015600001487800c1a3200050518000110098006c
:1015700001c8b3005051800011409800362aef0096
:1015800041a42000105180001100980081ccb300cc
:1015900010518000114098000f00370020c0b300a8
:1015a00031eab700105180000048eb0082ccb30054
:1015b000105180001240980081c0b300505180004b
:1015c0000148780041a4200050518000110098008b
:1015d00050518000124098000000060031a1200008
:1015e000914078008180fb0014cabf004800dd00f4
:1015f0000100700083002000e70f50000a003e0049
:101600008001780030cabf0003003a0010c0b30068
:1016100030eab70004003700e14f500002003a0002
:1016200020c0b30030eab700125180001240900091
:10163000c818de0001407000104198001051800071
:10164000034878000302780031a12000914078001f
:101650008180fb0014cabf004800dd00010070005b
:101660000300500013eab7004800de0014eab70098
:1016700040a4200090518800120aab002d003200d7
:10168000270037009251800001a12000914078008e
:101690008180fb0011cabf004800dd00010070001e
:1016a000b0407800015978009251880085006000b0
:1016b0008000fd0010eab7008000fd004800de0059
:1016c00011eab7008301e800830f52001d003200c9
:1016d000ecff37009251800001a12000914078007a
:1016e0008180fb0011cabf004800dd0001007000ce
:1016f0003059780092518800850060008000fd001c
:1017000010eab7008000fd004800de0011eab700d3
:101710008301e800830f52000a003200edff37001a
:101720008001eb00f50f20000400e000e9ff3a0023
:10173000040037008001eb00f50f20000400e000fa
:10174000d0ff3a00000006004051800010427800af
:10175000e1a12000914078008180fb001fcabf00fa
:101760004800dd00810070000480fb00810f500004
:1017700001003600014278000480fb000080500028
:101780001eeab7004800de001feab7000404e000cc
:10179000140032008041eb000001eb0046a4200061
:1017a000f50f20001bcabf000080fb00c1a1200074
:1017b00091407800c808dd0080807000e2587b000e
:1017c000058060001beab700c808de000100780051
:1017d0001ceab7008341e8000201e800834f520091
:1017e000f0ff3a00e1a12000914078008180fb00e9
:1017f0001fcabf004800dd00010070001200320067
:1018000081c0b300505180000148780041a42000fd
:10181000505180001100980040518000104090000d
:101820000068a30004003a0081ccb300505180004e
:10183000114098001600370081c8b3005051800055
:10184000114098001200370081c0b3005051800051
:1018500001487800c1a32000505180001100980079
:1018600041c8b300505180001140980001a22000ef
:10187000914078008180fb0021cabf004800dd0054
:101880000100700001003200000001001deaa90003
:101890000000060012eaa8000000eb0060258800a6
:1018a0008000780004a020006011b8004208dd002c
:1018b000040040000288be008100e800e48f500070
:1018c000faff3a009424a800266aef009424a900a5
:1018d00040a02000105188004451880054518800d5
:1018e0003ecabf001aeab70003003a000001200018
:1018f000c05088000600370012002000a1a120007f
:10190000100020002303070000022000c0508800c0
:10191000000006008081fb00038241000180fb0083
:10192000000042004200dd0002a020000201400051
:10193000124090000070a100104198000104e000e6
:1019400003003a00c0a220000232780003003700f2
:101950008380410020a22000823078001240900055
:101960000060a0001041980000000600889fbe00a3
:10197000804478000080fb0000004000a24a200064
:10198000017079000184fb000838a30003003200d5
:101990008040eb0009407800deff07000828a30024
:1019a0000300320011c0b30009407800d9ff0700de
:1019b0004f04be00000006000004e0000d003a00e5
:1019c00081c0b3005051800001487800c1a32000bd
:1019d0005051800011009800c1c8b30050518000e0
:1019e00011409800e8c0500010518000114098004c
:1019f0000b0037000080fb00000040008180fb00ee
:101a0000010040004200dd0001a020000100400074
:101a10009040900042c8b30082c07000114098000e
:101a2000000006000104e000050032000080fb0019
:101a30000000400021a220006082780004003700ee
:101a40000080fb0000004000c1a2200060827800fe
:101a50000400e00002003a00040078000d003700a6
:101a6000144090000064a2001042980012029800f6
:101a7000034a7800144090000044b20010429800dd
:101a80001440900081c8b3000140700010429800db
:101a900004007800000006008040780094c4bf0075
:101aa0000058a3000d0032000181fb00020141003b
:101ab00026a22000e2017b001300be0004042000e7
:101ac0000500200000006200010020008089be00a7
:101ad00062007b0010186a0010906a000000060087
:101ae0004427ef002ca3ef003000200000168800f0
:101af000f00a200040168800cf22a800ce82a8005d
:101b0000c682a800cfa2a800cfc2a80044a7a80000
:101b1000802520000000e900e10f4000fdff3a00b1
:101b2000c7c6bf0001ceb300014060007040b300e3
:101b3000c7e6b700c8c6bf00014060000034a0007f
:101b4000c8e6b700f0532000101288008000eb00b8
:101b50002112880041e2a8008540a90080cfb3008f
:101b6000a960b6009540a900000000008100e800cf
:101b700000e22400808f5000fbff3a00340207008f
:101b8000e30f5000020032000014040000000000c7
:101b9000dc01070003000700fbfb07001f00070034
:101ba000fdff37002ca3ef0044a7a80080252000ec
:101bb0000000e900e10f4000fdff3a00b8fb07001c
:101bc0000100070000000600c9e2a8000000eb00c9
:101bd000104e8800204e880012002000324e8800ef
:101be00091c2b3008000fd0002e8b7008000fd0054
:101bf00001802a00214088000628ef000001fd0036
:101c000050e8b7000001fd0008e8b7004ca8ef005d
:101c10004ea8ef004ae8b70000000600c050800060
:101c2000ff0f50000400360088c4bf000018a30056
:101c300001003a000100070000000600889fbe0076
:101c40008a1f78000848e20022003a00204e8000f7
:101c50000000e00003003200104090000004e000ab
:101c600057013500104e80000000e00003003200f4
:101c7000104090000004e000510135000000eb002e
:101c8000239020002298200001042000e2717800b7
:101c90000000e800810f5000fcff3a00804178000e
:101ca0008040eb0010c0b3005eff0700104e8800bc
:101cb00010c0b30008e8b700209420000041eb00fa
:101cc0002198200002587800808f50003c0132009b
:101cd000fcff370002c9bf00e54f50007900320019
:101ce00006003e00e34f50005000320061003e000d
:101cf000e24f500032013a0006003700e74f500033
:101d0000c4003200be003900e84f50002c013a00f8
:101d10001901370021c0b3000100780042e9b70083
:101d200080c3b30043e9b7000100780044e9b7007d
:101d300010c0b30045e9b7008041eb000300780014
:101d400046e9b70040c1b30047e9b7008001fd0094
:101d500048e9b70049e9b7008001fd0000c02e0046
:101d6000f1ff2f0024408000354080000400400037
:101d7000858048004ae9b7004801de00020078008b
:101d80004be9b700010078004ce9b7004808de00d5
:101d90004de9b70080c0eb00010078004ee9b700c4
:101da0005048e20013003a0030c0b3004ee9b700db
:101db00080cfb3004fe9b700b0cab30050e9b70015
:101dc0008001fd0051e9b70052e9b7008001fd0034
:101dd00080c0b30053e9b7008001fd0054e9b700ab
:101de00055e9b70056e9b7008001fd000100780011
:101df00057e9b700204e80000000e00003003200e9
:101e0000104090000004e000ed00350003c4b30072
:101e10002294200011c0b3000140780001ff0700a8
:101e2000204e88000868ef00e50037000349e20013
:101e300007003a00a0c2b30002e8b70085bf2a003d
:101e4000254088000628ef005068ef0007003700a3
:101e500090c2b30002e8b70000802a00204088004a
:101e60000628ef0010c0b30050e8b7000868ef0084
:101e7000d300370050c0b30009e8b70002c8bf0064
:101e80000080fb000000e800e50f50000a0034006d
:101e9000ce0007003cfb07000948ec0009e8b7004a
:101ea0008080fb0002c8bf000080fb000000e8004b
:101eb000808f5000f6ff350061c7a9000868ef0069
:101ec000bf0037006042800071428000e10f400097
:101ed000e08f48000e003a003190200091407800d9
:101ee0008180fb0004c9bf004800dd0001017000d3
:101ef00051902000914078008180fb0006c9bf000e
:101f00004800dd0081017000624288007342880051
:101f100031902000914078008180fb0004c9bf000f
:101f20004800dd00010170005190200091407800d0
:101f30008180fb0006c9bf004800dd008101700000
:101f40006042800071428000800f5100818f5900f3
:101f500029003a0090003700a384200093417800c4
:101f60000382fb00040242008180fb00800320000a
:101f70000100500022002000110009000200d800da
:101f80008880fb0001004000000040006800400025
:101f9000e0407d008180fb000a004000104090007e
:101fa0004800dd000100700000b27c008341e800c1
:101fb000030078004ae8b700644280007542800060
:101fc00061024200e0824a00644288007542880053
:101fd000fccf510001003a00960007000844e800d9
:101fe00071902000914078000180fb000000d1003a
:101ff000804f5400d8ff39000868ef0070003700a8
:102000008c0007004ca8ef004ea8ef000868ef0016
:102010006b003700204e80000000e000030032001b
:10202000104090000004e0006500350070c0b3006f
:1020300042e9b70031902000914078008180fb0098
:1020400004c9bf004800dd0001017000519020006c
:10205000914078008180fb0006c9bf004800dd0088
:10206000810170000200780043e9b7004810de00eb
:1020700044e9b7000300780045e9b7004818de00de
:1020800046e9b70007c9bf0047e9b7000080fb0079
:102090000000d1000004e0002f0032000044eb00fb
:1020a00029942000fa0f20003390200093417800fb
:1020b0008381fb0042902000124178004811dd002e
:1020c0000300710053902000934178008381fb004e
:1020d00062902000124178004811dd0083007100f9
:1020e0000881fb00030020000000410081804900be
:1020f0007700070075902000954278008582fb00ec
:102100008502d1000881fb008581fb00030151009d
:102110000201410003042000828141000a026000a4
:1021200084f17c004802de008981410094419800de
:102130008a8360002204b0000a80630000f17c0002
:102140004838de00090141001041980008c4e80049
:1021500088cf5200d4ff3e0003c4b3002294200075
:1021600011c0b300014078002efe0700204e880009
:102170000868ef00120037000000eb00a024880080
:10218000000000000000e800e10f4000fcff3a0002
:102190000000fe000a003700719020009140780096
:1021a0000180fb000000d1000044eb00a98020006a
:1021b0002a9020000004e00067ff3a008eff3700fd
:1021c0004f0578004f04be000000060009c8bf009c
:1021d0000080fb00010020004a09dd00c600de008f
:1021e000810071004a00dd0022042400023b8800c7
:1021f0000181fb00920188000081eb000208bb0016
:102200001000fc0050052000303b8800a00a200090
:10221000303b880061e7a8000000000000000000db
:1022200001c8b30061c7bf0001406000fdff3a0074
:102230000000060030002400003b8800a18420003c
:10224000914078000104e0001f003200a4802000cb
:102250006642800077428000814178000180fb0067
:10226000010020000000530081805b009101880084
:102270001408bb00140190000288bb001000fc0091
:1022800055052000353b8800a50a2000353b880015
:1022900061e7a800000000000000000001c8b300d2
:1022a00061c7bf0001406000fdff3a0003c0e900c4
:1022b0008040780080417800640242000004e00021
:1022c000e6ff3a004ae8b70061c7a900000006002f
:1022d0000400fa00e0bf9f00f1bf9f009101800061
:1022e0007fb89700900188006fb897009081ba007e
:1022f0001001ba00910188000200be000080fa00bf
:102300000000060073c0b300b2c0b3008340780081
:102310000240780038000700f3c0b300a2c0b30049
:1023200083407800024078003300070073c0b30098
:1023300012c0b30083407800024078002e000700ee
:102340008041eb0022c0b300834078000240780057
:10235000290007008041eb0032c0b30083407800c1
:1023600002407800240007008041eb0042c0b30027
:1023700083407800024078001f0007008041eb0096
:1023800052c0b30083407800024078001a00070072
:102390008041eb0062c0b3008340780002407800c7
:1023a000150007008041eb0072c0b3008340780045
:1023b00002407800100007008041eb0082c0b300ab
:1023c00083407800024078000b00070013c0b30080
:1023d000c2c0b300834078000240780006000700c6
:1023e0008041eb00f2c0b3008340780002407800e7
:1023f000010007000000060000427800cd22a9007d
:102400004811dd008381fb00030141004212880076
:1024100040c2bf000018a300fdff3a004820dd00c5
:102420008180fb00010040004012880040c2bf00d4
:102430000018a300fdff3a0040c1b30000000000f7
:102440000040e900fdff3a00cd22a8000000060090
:10245000cdc2a900cda2a800cdc2a8008041eb004a
:102460000001eb00cda2a80000000000cda2a90051
:10247000c482a9000040eb00000000000040e8001a
:10248000fe4f5000fcff3a00c482a8008000eb0021
:102490000204e00014003a000104e00005003a00e4
:1024a000cac2bf000058a3000f003a008341e800f1
:1024b0000d003700e1cf500005003a00cac2bf004e
:1024c0000058a30008003a008341e80006003700e6
:1024d000e2cf500004003a00cac2bf000058a30077
:1024e00001003a008341e800cc82a8000040eb00e4
:1024f000000000000040e800e44f5000fcff3a00fc
:10250000cc82a9008100e800e88f5000e0ff3a008b
:102510000201e800e80f5100d2ff3a000380fb00ff
:102520000000060000000600000006000000060093
:10253000000006002600070000000600000006005c
:10254000d1c1b30010c0b30008fd070003c4b3003d
:10255000229820008040eb0010c0b30031fd07003e
:10256000104e8800000006009444a80080702000ef
:10257000004088000000eb00817020000000e800af
:10258000810f5000fdff3a000028ef009444a9009d
:102590000000060080007800e30f500007003200c2
:1025a00020072000808f500006003200e18f50008d
:1025b00005003a00e2ff070003003700ddff0700d7
:1025c000010037000000000010002000000006009d
:1025d0003ccabf007f406000e14f500057003a0006
:1025e000404ae20055003a003dcabf00e64f5000a5
:1025f00024003a00f1a32000914078007b40400085
:1026000080cf5000040032000040e80080cf50002e
:102610001c003a000e003700a0a1200011c0b3003a
:1026200090cf100017003a00404b280010eab70086
:102630004800de0011eab70090c0b30013eab7000b
:10264000146aef0000ccb30012eab7000d003700a7
:10265000a0a1200011c0b30090cf100009003a00e3
:10266000a052280010eab7004800de0011eab700c7
:10267000d0c1b30013eab700146aef0000ccb30076
:1026800012eab7003ccabf000046b20001c2b30064
:10269000814f500029003a003dcabf00e34f50006f
:1026a0001800320003003e00e24f500023003a00c1
:1026b00005003700ea4f50000d003200eb4f50008c
:1026c0001e003a0019003700a09c200010eab70055
:1026d0004800de0011eab70010c0b30013eab700eb
:1026e000146aef0010ccb30012eab70013003700f1
:1026f00000c8b30012eab7003fcabf00cae9b7007a
:102700000e003700b09c200010eab7004800de0041
:1027100011eab70010c0b30013eab700146aef0063
:1027200010c8b30012eab7000400370000c8b300b5
:1027300012eab7003ecabf00cbe9b70000000600ae
:020000040000fa
:10274000c2090000080000000200000000000000b4
:10275000000100000000000000080000020100006d
:102760000000000002090000c0000000000000009e
:10277000100a0000bc00000000000000000a000079
:102780001000000000000000ca0900000200000064
:08279000000000000000000041
:020000040000fa
:042798000000fe003f
:00000001FF
